{
	"Users/leilei/Downloads/VRFCoordinator/VRFCoordinator.sol": {
		"VRFCoordinator": {
			"abi": [
				{
					"inputs": [
						{
							"internalType": "address",
							"name": "_link",
							"type": "address"
						},
						{
							"internalType": "address",
							"name": "_blockHashStore",
							"type": "address"
						}
					],
					"stateMutability": "nonpayable",
					"type": "constructor"
				},
				{
					"anonymous": false,
					"inputs": [
						{
							"indexed": false,
							"internalType": "bytes32",
							"name": "keyHash",
							"type": "bytes32"
						},
						{
							"indexed": false,
							"internalType": "uint256",
							"name": "fee",
							"type": "uint256"
						}
					],
					"name": "NewServiceAgreement",
					"type": "event"
				},
				{
					"anonymous": false,
					"inputs": [
						{
							"indexed": false,
							"internalType": "bytes32",
							"name": "keyHash",
							"type": "bytes32"
						},
						{
							"indexed": false,
							"internalType": "uint256",
							"name": "seed",
							"type": "uint256"
						},
						{
							"indexed": true,
							"internalType": "bytes32",
							"name": "jobID",
							"type": "bytes32"
						},
						{
							"indexed": false,
							"internalType": "address",
							"name": "sender",
							"type": "address"
						},
						{
							"indexed": false,
							"internalType": "uint256",
							"name": "fee",
							"type": "uint256"
						},
						{
							"indexed": false,
							"internalType": "bytes32",
							"name": "requestID",
							"type": "bytes32"
						}
					],
					"name": "RandomnessRequest",
					"type": "event"
				},
				{
					"anonymous": false,
					"inputs": [
						{
							"indexed": false,
							"internalType": "bytes32",
							"name": "requestId",
							"type": "bytes32"
						},
						{
							"indexed": false,
							"internalType": "uint256",
							"name": "output",
							"type": "uint256"
						}
					],
					"name": "RandomnessRequestFulfilled",
					"type": "event"
				},
				{
					"inputs": [],
					"name": "PRESEED_OFFSET",
					"outputs": [
						{
							"internalType": "uint256",
							"name": "",
							"type": "uint256"
						}
					],
					"stateMutability": "view",
					"type": "function"
				},
				{
					"inputs": [],
					"name": "PROOF_LENGTH",
					"outputs": [
						{
							"internalType": "uint256",
							"name": "",
							"type": "uint256"
						}
					],
					"stateMutability": "view",
					"type": "function"
				},
				{
					"inputs": [],
					"name": "PUBLIC_KEY_OFFSET",
					"outputs": [
						{
							"internalType": "uint256",
							"name": "",
							"type": "uint256"
						}
					],
					"stateMutability": "view",
					"type": "function"
				},
				{
					"inputs": [
						{
							"internalType": "bytes32",
							"name": "",
							"type": "bytes32"
						}
					],
					"name": "callbacks",
					"outputs": [
						{
							"internalType": "address",
							"name": "callbackContract",
							"type": "address"
						},
						{
							"internalType": "uint96",
							"name": "randomnessFee",
							"type": "uint96"
						},
						{
							"internalType": "bytes32",
							"name": "seedAndBlockNum",
							"type": "bytes32"
						}
					],
					"stateMutability": "view",
					"type": "function"
				},
				{
					"inputs": [
						{
							"internalType": "bytes",
							"name": "_proof",
							"type": "bytes"
						}
					],
					"name": "fulfillRandomnessRequest",
					"outputs": [],
					"stateMutability": "nonpayable",
					"type": "function"
				},
				{
					"inputs": [
						{
							"internalType": "uint256[2]",
							"name": "_publicKey",
							"type": "uint256[2]"
						}
					],
					"name": "hashOfKey",
					"outputs": [
						{
							"internalType": "bytes32",
							"name": "",
							"type": "bytes32"
						}
					],
					"stateMutability": "pure",
					"type": "function"
				},
				{
					"inputs": [
						{
							"internalType": "address",
							"name": "_sender",
							"type": "address"
						},
						{
							"internalType": "uint256",
							"name": "_fee",
							"type": "uint256"
						},
						{
							"internalType": "bytes",
							"name": "_data",
							"type": "bytes"
						}
					],
					"name": "onTokenTransfer",
					"outputs": [],
					"stateMutability": "nonpayable",
					"type": "function"
				},
				{
					"inputs": [
						{
							"internalType": "uint256",
							"name": "_fee",
							"type": "uint256"
						},
						{
							"internalType": "address",
							"name": "_oracle",
							"type": "address"
						},
						{
							"internalType": "uint256[2]",
							"name": "_publicProvingKey",
							"type": "uint256[2]"
						},
						{
							"internalType": "bytes32",
							"name": "_jobID",
							"type": "bytes32"
						}
					],
					"name": "registerProvingKey",
					"outputs": [],
					"stateMutability": "nonpayable",
					"type": "function"
				},
				{
					"inputs": [
						{
							"internalType": "bytes32",
							"name": "",
							"type": "bytes32"
						}
					],
					"name": "serviceAgreements",
					"outputs": [
						{
							"internalType": "address",
							"name": "vRFOracle",
							"type": "address"
						},
						{
							"internalType": "uint96",
							"name": "fee",
							"type": "uint96"
						},
						{
							"internalType": "bytes32",
							"name": "jobID",
							"type": "bytes32"
						}
					],
					"stateMutability": "view",
					"type": "function"
				},
				{
					"inputs": [
						{
							"internalType": "address",
							"name": "_recipient",
							"type": "address"
						},
						{
							"internalType": "uint256",
							"name": "_amount",
							"type": "uint256"
						}
					],
					"name": "withdraw",
					"outputs": [],
					"stateMutability": "nonpayable",
					"type": "function"
				},
				{
					"inputs": [
						{
							"internalType": "address",
							"name": "",
							"type": "address"
						}
					],
					"name": "withdrawableTokens",
					"outputs": [
						{
							"internalType": "uint256",
							"name": "",
							"type": "uint256"
						}
					],
					"stateMutability": "view",
					"type": "function"
				}
			],
			"devdoc": {
				"methods": {
					"fulfillRandomnessRequest(bytes)": {
						"details": "The structure of _proof corresponds to vrf.MarshaledOnChainResponse,in the node source code. I.e., it is a vrf.MarshaledProof with theseed replaced by the preSeed, followed by the hash of the requestingblock.",
						"params": {
							"_proof": "the proof of randomness. Actual random output built from this"
						}
					},
					"hashOfKey(uint256[2])": {
						"params": {
							"_publicKey": "the key to return the address for"
						}
					},
					"onTokenTransfer(address,uint256,bytes)": {
						"details": "To invoke this, use the requestRandomness method in VRFConsumerBase.The VRFCoordinator will call back to the calling contract when theoracle responds, on the method fulfillRandomness. SeeVRFConsumerBase.fulfilRandomness for its signature. Your consumingcontract should inherit from VRFConsumerBase, and implementfulfilRandomness.",
						"params": {
							"_data": "abi-encoded call to randomnessRequest",
							"_fee": "amount of LINK sent",
							"_sender": "address: who sent the LINK (must be a contract)"
						}
					},
					"registerProvingKey(uint256,address,uint256[2],bytes32)": {
						"params": {
							"_fee": "minimum LINK payment required to serve randomness",
							"_jobID": "ID of the corresponding chainlink job in the oracle's db",
							"_oracle": "the address of the Chainlink node with the proving key and job",
							"_publicProvingKey": "public key used to prove randomness"
						}
					},
					"withdraw(address,uint256)": {
						"details": "Allows the oracle operator to withdraw their LINK",
						"params": {
							"_amount": "is the amount of LINK transferred from the Coordinator contract",
							"_recipient": "is the address the funds will be sent to"
						}
					}
				},
				"title": "VRFCoordinator coordinates on-chain verifiable-randomness requestswith off-chain responses"
			},
			"evm": {
				"assembly": "    /* \"Users/leilei/Downloads/VRFCoordinator/VRFCoordinator.sol\":354:12405  contract VRFCoordinator is VRF, VRFRequestIDBase {... */\n  mstore(0x40, 0x80)\n    /* \"Users/leilei/Downloads/VRFCoordinator/VRFCoordinator.sol\":527:692  constructor(address _link, address _blockHashStore) public {... */\n  callvalue\n    /* \"--CODEGEN--\":5:14   */\n  dup1\n    /* \"--CODEGEN--\":2:4   */\n  iszero\n  tag_1\n  jumpi\n    /* \"--CODEGEN--\":27:28   */\n  0x00\n    /* \"--CODEGEN--\":24:25   */\n  dup1\n    /* \"--CODEGEN--\":17:29   */\n  revert\n    /* \"--CODEGEN--\":2:4   */\ntag_1:\n    /* \"Users/leilei/Downloads/VRFCoordinator/VRFCoordinator.sol\":527:692  constructor(address _link, address _blockHashStore) public {... */\n  pop\n  mload(0x40)\n  sub(codesize, bytecodeSize)\n  dup1\n  bytecodeSize\n  dup4\n  codecopy\n  dup2\n  dup2\n  add\n  0x40\n  mstore\n    /* \"--CODEGEN--\":15:17   */\n  0x40\n    /* \"--CODEGEN--\":10:13   */\n  dup2\n    /* \"--CODEGEN--\":7:18   */\n  lt\n    /* \"--CODEGEN--\":4:6   */\n  iszero\n  tag_2\n  jumpi\n    /* \"--CODEGEN--\":31:32   */\n  0x00\n    /* \"--CODEGEN--\":28:29   */\n  dup1\n    /* \"--CODEGEN--\":21:33   */\n  revert\n    /* \"--CODEGEN--\":4:6   */\ntag_2:\n    /* \"Users/leilei/Downloads/VRFCoordinator/VRFCoordinator.sol\":527:692  constructor(address _link, address _blockHashStore) public {... */\n  dup2\n  add\n  swap1\n  dup1\n  dup1\n  mload\n  swap1\n  0x20\n  add\n  swap1\n  swap3\n  swap2\n  swap1\n  dup1\n  mload\n  swap1\n  0x20\n  add\n  swap1\n  swap3\n  swap2\n  swap1\n  pop\n  pop\n  pop\n    /* \"Users/leilei/Downloads/VRFCoordinator/VRFCoordinator.sol\":618:623  _link */\n  dup2\n    /* \"Users/leilei/Downloads/VRFCoordinator/VRFCoordinator.sol\":592:596  LINK */\n  0x00\n  dup1\n    /* \"Users/leilei/Downloads/VRFCoordinator/VRFCoordinator.sol\":592:624  LINK = LinkTokenInterface(_link) */\n  0x0100\n  exp\n  dup2\n  sload\n  dup2\n  0xffffffffffffffffffffffffffffffffffffffff\n  mul\n  not\n  and\n  swap1\n  dup4\n  0xffffffffffffffffffffffffffffffffffffffff\n  and\n  mul\n  or\n  swap1\n  sstore\n  pop\n    /* \"Users/leilei/Downloads/VRFCoordinator/VRFCoordinator.sol\":671:686  _blockHashStore */\n  dup1\n    /* \"Users/leilei/Downloads/VRFCoordinator/VRFCoordinator.sol\":630:644  blockHashStore */\n  0x01\n  0x00\n    /* \"Users/leilei/Downloads/VRFCoordinator/VRFCoordinator.sol\":630:687  blockHashStore = BlockHashStoreInterface(_blockHashStore) */\n  0x0100\n  exp\n  dup2\n  sload\n  dup2\n  0xffffffffffffffffffffffffffffffffffffffff\n  mul\n  not\n  and\n  swap1\n  dup4\n  0xffffffffffffffffffffffffffffffffffffffff\n  and\n  mul\n  or\n  swap1\n  sstore\n  pop\n    /* \"Users/leilei/Downloads/VRFCoordinator/VRFCoordinator.sol\":527:692  constructor(address _link, address _blockHashStore) public {... */\n  pop\n  pop\n    /* \"Users/leilei/Downloads/VRFCoordinator/VRFCoordinator.sol\":354:12405  contract VRFCoordinator is VRF, VRFRequestIDBase {... */\n  dataSize(sub_0)\n  dup1\n  dataOffset(sub_0)\n  0x00\n  codecopy\n  0x00\n  return\nstop\n\nsub_0: assembly {\n        /* \"Users/leilei/Downloads/VRFCoordinator/VRFCoordinator.sol\":354:12405  contract VRFCoordinator is VRF, VRFRequestIDBase {... */\n      mstore(0x40, 0x80)\n      callvalue\n        /* \"--CODEGEN--\":5:14   */\n      dup1\n        /* \"--CODEGEN--\":2:4   */\n      iszero\n      tag_1\n      jumpi\n        /* \"--CODEGEN--\":27:28   */\n      0x00\n        /* \"--CODEGEN--\":24:25   */\n      dup1\n        /* \"--CODEGEN--\":17:29   */\n      revert\n        /* \"--CODEGEN--\":2:4   */\n    tag_1:\n        /* \"Users/leilei/Downloads/VRFCoordinator/VRFCoordinator.sol\":354:12405  contract VRFCoordinator is VRF, VRFRequestIDBase {... */\n      pop\n      jumpi(tag_2, lt(calldatasize, 0x04))\n      shr(0xe0, calldataload(0x00))\n      dup1\n      0xa4c0ed36\n      gt\n      tag_14\n      jumpi\n      dup1\n      0xa4c0ed36\n      eq\n      tag_8\n      jumpi\n      dup1\n      0xb415f4f5\n      eq\n      tag_9\n      jumpi\n      dup1\n      0xcaf70c4a\n      eq\n      tag_10\n      jumpi\n      dup1\n      0xd8340209\n      eq\n      tag_11\n      jumpi\n      dup1\n      0xe911439c\n      eq\n      tag_12\n      jumpi\n      dup1\n      0xf3fef3a3\n      eq\n      tag_13\n      jumpi\n      jump(tag_2)\n    tag_14:\n      dup1\n      0x6f6ad0\n      eq\n      tag_3\n      jumpi\n      dup1\n      0x21f36509\n      eq\n      tag_4\n      jumpi\n      dup1\n      0x5e1c1059\n      eq\n      tag_5\n      jumpi\n      dup1\n      0x75d35070\n      eq\n      tag_6\n      jumpi\n      dup1\n      0x8aa7927b\n      eq\n      tag_7\n      jumpi\n    tag_2:\n        /* \"--CODEGEN--\":12:13   */\n      0x00\n        /* \"--CODEGEN--\":9:10   */\n      dup1\n        /* \"--CODEGEN--\":2:14   */\n      revert\n        /* \"Users/leilei/Downloads/VRFCoordinator/VRFCoordinator.sol\":1814:1903  mapping(address /* oracle */ => uint256 /* LINK balance */)... */\n    tag_3:\n      tag_15\n      0x04\n      dup1\n      calldatasize\n      sub\n        /* \"--CODEGEN--\":15:17   */\n      0x20\n        /* \"--CODEGEN--\":10:13   */\n      dup2\n        /* \"--CODEGEN--\":7:18   */\n      lt\n        /* \"--CODEGEN--\":4:6   */\n      iszero\n      tag_16\n      jumpi\n        /* \"--CODEGEN--\":31:32   */\n      0x00\n        /* \"--CODEGEN--\":28:29   */\n      dup1\n        /* \"--CODEGEN--\":21:33   */\n      revert\n        /* \"--CODEGEN--\":4:6   */\n    tag_16:\n        /* \"Users/leilei/Downloads/VRFCoordinator/VRFCoordinator.sol\":1814:1903  mapping(address /* oracle */ => uint256 /* LINK balance */)... */\n      dup2\n      add\n      swap1\n      dup1\n      dup1\n      calldataload\n      0xffffffffffffffffffffffffffffffffffffffff\n      and\n      swap1\n      0x20\n      add\n      swap1\n      swap3\n      swap2\n      swap1\n      pop\n      pop\n      pop\n      tag_17\n      jump\t// in\n    tag_15:\n      mload(0x40)\n      dup1\n      dup3\n      dup2\n      mstore\n      0x20\n      add\n      swap2\n      pop\n      pop\n      mload(0x40)\n      dup1\n      swap2\n      sub\n      swap1\n      return\n        /* \"Users/leilei/Downloads/VRFCoordinator/VRFCoordinator.sol\":1654:1724  mapping(bytes32 /* (provingKey, seed) */ => Callback) public callbacks */\n    tag_4:\n      tag_18\n      0x04\n      dup1\n      calldatasize\n      sub\n        /* \"--CODEGEN--\":15:17   */\n      0x20\n        /* \"--CODEGEN--\":10:13   */\n      dup2\n        /* \"--CODEGEN--\":7:18   */\n      lt\n        /* \"--CODEGEN--\":4:6   */\n      iszero\n      tag_19\n      jumpi\n        /* \"--CODEGEN--\":31:32   */\n      0x00\n        /* \"--CODEGEN--\":28:29   */\n      dup1\n        /* \"--CODEGEN--\":21:33   */\n      revert\n        /* \"--CODEGEN--\":4:6   */\n    tag_19:\n        /* \"Users/leilei/Downloads/VRFCoordinator/VRFCoordinator.sol\":1654:1724  mapping(bytes32 /* (provingKey, seed) */ => Callback) public callbacks */\n      dup2\n      add\n      swap1\n      dup1\n      dup1\n      calldataload\n      swap1\n      0x20\n      add\n      swap1\n      swap3\n      swap2\n      swap1\n      pop\n      pop\n      pop\n      tag_20\n      jump\t// in\n    tag_18:\n      mload(0x40)\n      dup1\n      dup5\n      0xffffffffffffffffffffffffffffffffffffffff\n      and\n      0xffffffffffffffffffffffffffffffffffffffff\n      and\n      dup2\n      mstore\n      0x20\n      add\n      dup4\n      0xffffffffffffffffffffffff\n      and\n      0xffffffffffffffffffffffff\n      and\n      dup2\n      mstore\n      0x20\n      add\n      dup3\n      dup2\n      mstore\n      0x20\n      add\n      swap4\n      pop\n      pop\n      pop\n      pop\n      mload(0x40)\n      dup1\n      swap2\n      sub\n      swap1\n      return\n        /* \"Users/leilei/Downloads/VRFCoordinator/VRFCoordinator.sol\":6928:7543  function fulfillRandomnessRequest(bytes memory _proof) public {... */\n    tag_5:\n      tag_21\n      0x04\n      dup1\n      calldatasize\n      sub\n        /* \"--CODEGEN--\":15:17   */\n      0x20\n        /* \"--CODEGEN--\":10:13   */\n      dup2\n        /* \"--CODEGEN--\":7:18   */\n      lt\n        /* \"--CODEGEN--\":4:6   */\n      iszero\n      tag_22\n      jumpi\n        /* \"--CODEGEN--\":31:32   */\n      0x00\n        /* \"--CODEGEN--\":28:29   */\n      dup1\n        /* \"--CODEGEN--\":21:33   */\n      revert\n        /* \"--CODEGEN--\":4:6   */\n    tag_22:\n        /* \"Users/leilei/Downloads/VRFCoordinator/VRFCoordinator.sol\":6928:7543  function fulfillRandomnessRequest(bytes memory _proof) public {... */\n      dup2\n      add\n      swap1\n      dup1\n      dup1\n      calldataload\n      swap1\n      0x20\n      add\n      swap1\n        /* \"--CODEGEN--\":27:38   */\n      0x0100000000\n        /* \"--CODEGEN--\":14:25   */\n      dup2\n        /* \"--CODEGEN--\":11:39   */\n      gt\n        /* \"--CODEGEN--\":8:10   */\n      iszero\n      tag_23\n      jumpi\n        /* \"--CODEGEN--\":52:53   */\n      0x00\n        /* \"--CODEGEN--\":49:50   */\n      dup1\n        /* \"--CODEGEN--\":42:54   */\n      revert\n        /* \"--CODEGEN--\":8:10   */\n    tag_23:\n        /* \"Users/leilei/Downloads/VRFCoordinator/VRFCoordinator.sol\":6928:7543  function fulfillRandomnessRequest(bytes memory _proof) public {... */\n      dup3\n      add\n        /* \"--CODEGEN--\":41:50   */\n      dup4\n        /* \"--CODEGEN--\":34:38   */\n      0x20\n        /* \"--CODEGEN--\":18:32   */\n      dup3\n        /* \"--CODEGEN--\":14:39   */\n      add\n        /* \"--CODEGEN--\":11:51   */\n      gt\n        /* \"--CODEGEN--\":8:10   */\n      iszero\n      tag_24\n      jumpi\n        /* \"--CODEGEN--\":64:65   */\n      0x00\n        /* \"--CODEGEN--\":61:62   */\n      dup1\n        /* \"--CODEGEN--\":54:66   */\n      revert\n        /* \"--CODEGEN--\":8:10   */\n    tag_24:\n        /* \"Users/leilei/Downloads/VRFCoordinator/VRFCoordinator.sol\":6928:7543  function fulfillRandomnessRequest(bytes memory _proof) public {... */\n      dup1\n      calldataload\n      swap1\n      0x20\n      add\n      swap2\n        /* \"--CODEGEN--\":100:109   */\n      dup5\n        /* \"--CODEGEN--\":95:96   */\n      0x01\n        /* \"--CODEGEN--\":81:93   */\n      dup4\n        /* \"--CODEGEN--\":77:97   */\n      mul\n        /* \"--CODEGEN--\":67:75   */\n      dup5\n        /* \"--CODEGEN--\":63:98   */\n      add\n        /* \"--CODEGEN--\":60:110   */\n      gt\n        /* \"--CODEGEN--\":39:50   */\n      0x0100000000\n        /* \"--CODEGEN--\":25:37   */\n      dup4\n        /* \"--CODEGEN--\":22:51   */\n      gt\n        /* \"--CODEGEN--\":11:118   */\n      or\n        /* \"--CODEGEN--\":8:10   */\n      iszero\n      tag_25\n      jumpi\n        /* \"--CODEGEN--\":131:132   */\n      0x00\n        /* \"--CODEGEN--\":128:129   */\n      dup1\n        /* \"--CODEGEN--\":121:133   */\n      revert\n        /* \"--CODEGEN--\":8:10   */\n    tag_25:\n        /* \"Users/leilei/Downloads/VRFCoordinator/VRFCoordinator.sol\":6928:7543  function fulfillRandomnessRequest(bytes memory _proof) public {... */\n      swap2\n      swap1\n      dup1\n      dup1\n      0x1f\n      add\n      0x20\n      dup1\n      swap2\n      div\n      mul\n      0x20\n      add\n      mload(0x40)\n      swap1\n      dup2\n      add\n      0x40\n      mstore\n      dup1\n      swap4\n      swap3\n      swap2\n      swap1\n      dup2\n      dup2\n      mstore\n      0x20\n      add\n      dup4\n      dup4\n        /* \"--CODEGEN--\":30:33   */\n      dup1\n        /* \"--CODEGEN--\":22:28   */\n      dup3\n        /* \"--CODEGEN--\":14:20   */\n      dup5\n        /* \"--CODEGEN--\":1:34   */\n      calldatacopy\n        /* \"--CODEGEN--\":99:100   */\n      0x00\n        /* \"--CODEGEN--\":93:96   */\n      dup2\n        /* \"--CODEGEN--\":85:91   */\n      dup5\n        /* \"--CODEGEN--\":81:97   */\n      add\n        /* \"--CODEGEN--\":74:101   */\n      mstore\n        /* \"--CODEGEN--\":137:141   */\n      0x1f\n        /* \"--CODEGEN--\":133:142   */\n      not\n        /* \"--CODEGEN--\":126:130   */\n      0x1f\n        /* \"--CODEGEN--\":121:124   */\n      dup3\n        /* \"--CODEGEN--\":117:131   */\n      add\n        /* \"--CODEGEN--\":113:143   */\n      and\n        /* \"--CODEGEN--\":106:143   */\n      swap1\n      pop\n        /* \"--CODEGEN--\":169:172   */\n      dup1\n        /* \"--CODEGEN--\":161:167   */\n      dup4\n        /* \"--CODEGEN--\":157:173   */\n      add\n        /* \"--CODEGEN--\":147:173   */\n      swap3\n      pop\n        /* \"Users/leilei/Downloads/VRFCoordinator/VRFCoordinator.sol\":6928:7543  function fulfillRandomnessRequest(bytes memory _proof) public {... */\n      pop\n      pop\n      pop\n      pop\n      pop\n      pop\n      swap2\n      swap3\n      swap2\n      swap3\n      swap1\n      pop\n      pop\n      pop\n      tag_26\n      jump\t// in\n    tag_21:\n      stop\n        /* \"Users/leilei/Downloads/VRFCoordinator/VRFCoordinator.sol\":1728:1810  mapping(bytes32 /* provingKey */ => ServiceAgreement)... */\n    tag_6:\n      tag_27\n      0x04\n      dup1\n      calldatasize\n      sub\n        /* \"--CODEGEN--\":15:17   */\n      0x20\n        /* \"--CODEGEN--\":10:13   */\n      dup2\n        /* \"--CODEGEN--\":7:18   */\n      lt\n        /* \"--CODEGEN--\":4:6   */\n      iszero\n      tag_28\n      jumpi\n        /* \"--CODEGEN--\":31:32   */\n      0x00\n        /* \"--CODEGEN--\":28:29   */\n      dup1\n        /* \"--CODEGEN--\":21:33   */\n      revert\n        /* \"--CODEGEN--\":4:6   */\n    tag_28:\n        /* \"Users/leilei/Downloads/VRFCoordinator/VRFCoordinator.sol\":1728:1810  mapping(bytes32 /* provingKey */ => ServiceAgreement)... */\n      dup2\n      add\n      swap1\n      dup1\n      dup1\n      calldataload\n      swap1\n      0x20\n      add\n      swap1\n      swap3\n      swap2\n      swap1\n      pop\n      pop\n      pop\n      tag_29\n      jump\t// in\n    tag_27:\n      mload(0x40)\n      dup1\n      dup5\n      0xffffffffffffffffffffffffffffffffffffffff\n      and\n      0xffffffffffffffffffffffffffffffffffffffff\n      and\n      dup2\n      mstore\n      0x20\n      add\n      dup4\n      0xffffffffffffffffffffffff\n      and\n      0xffffffffffffffffffffffff\n      and\n      dup2\n      mstore\n      0x20\n      add\n      dup3\n      dup2\n      mstore\n      0x20\n      add\n      swap4\n      pop\n      pop\n      pop\n      pop\n      mload(0x40)\n      dup1\n      swap2\n      sub\n      swap1\n      return\n        /* \"Users/leilei/Downloads/VRFCoordinator/VRFCoordinator.sol\":6339:6387  uint256 public constant PUBLIC_KEY_OFFSET = 0x20 */\n    tag_7:\n      tag_30\n      tag_31\n      jump\t// in\n    tag_30:\n      mload(0x40)\n      dup1\n      dup3\n      dup2\n      mstore\n      0x20\n      add\n      swap2\n      pop\n      pop\n      mload(0x40)\n      dup1\n      swap2\n      sub\n      swap1\n      return\n        /* \"Users/leilei/Downloads/VRFCoordinator/VRFCoordinator.sol\":4258:4495  function onTokenTransfer(address _sender, uint256 _fee, bytes memory _data)... */\n    tag_8:\n      tag_32\n      0x04\n      dup1\n      calldatasize\n      sub\n        /* \"--CODEGEN--\":15:17   */\n      0x60\n        /* \"--CODEGEN--\":10:13   */\n      dup2\n        /* \"--CODEGEN--\":7:18   */\n      lt\n        /* \"--CODEGEN--\":4:6   */\n      iszero\n      tag_33\n      jumpi\n        /* \"--CODEGEN--\":31:32   */\n      0x00\n        /* \"--CODEGEN--\":28:29   */\n      dup1\n        /* \"--CODEGEN--\":21:33   */\n      revert\n        /* \"--CODEGEN--\":4:6   */\n    tag_33:\n        /* \"Users/leilei/Downloads/VRFCoordinator/VRFCoordinator.sol\":4258:4495  function onTokenTransfer(address _sender, uint256 _fee, bytes memory _data)... */\n      dup2\n      add\n      swap1\n      dup1\n      dup1\n      calldataload\n      0xffffffffffffffffffffffffffffffffffffffff\n      and\n      swap1\n      0x20\n      add\n      swap1\n      swap3\n      swap2\n      swap1\n      dup1\n      calldataload\n      swap1\n      0x20\n      add\n      swap1\n      swap3\n      swap2\n      swap1\n      dup1\n      calldataload\n      swap1\n      0x20\n      add\n      swap1\n        /* \"--CODEGEN--\":27:38   */\n      0x0100000000\n        /* \"--CODEGEN--\":14:25   */\n      dup2\n        /* \"--CODEGEN--\":11:39   */\n      gt\n        /* \"--CODEGEN--\":8:10   */\n      iszero\n      tag_34\n      jumpi\n        /* \"--CODEGEN--\":52:53   */\n      0x00\n        /* \"--CODEGEN--\":49:50   */\n      dup1\n        /* \"--CODEGEN--\":42:54   */\n      revert\n        /* \"--CODEGEN--\":8:10   */\n    tag_34:\n        /* \"Users/leilei/Downloads/VRFCoordinator/VRFCoordinator.sol\":4258:4495  function onTokenTransfer(address _sender, uint256 _fee, bytes memory _data)... */\n      dup3\n      add\n        /* \"--CODEGEN--\":41:50   */\n      dup4\n        /* \"--CODEGEN--\":34:38   */\n      0x20\n        /* \"--CODEGEN--\":18:32   */\n      dup3\n        /* \"--CODEGEN--\":14:39   */\n      add\n        /* \"--CODEGEN--\":11:51   */\n      gt\n        /* \"--CODEGEN--\":8:10   */\n      iszero\n      tag_35\n      jumpi\n        /* \"--CODEGEN--\":64:65   */\n      0x00\n        /* \"--CODEGEN--\":61:62   */\n      dup1\n        /* \"--CODEGEN--\":54:66   */\n      revert\n        /* \"--CODEGEN--\":8:10   */\n    tag_35:\n        /* \"Users/leilei/Downloads/VRFCoordinator/VRFCoordinator.sol\":4258:4495  function onTokenTransfer(address _sender, uint256 _fee, bytes memory _data)... */\n      dup1\n      calldataload\n      swap1\n      0x20\n      add\n      swap2\n        /* \"--CODEGEN--\":100:109   */\n      dup5\n        /* \"--CODEGEN--\":95:96   */\n      0x01\n        /* \"--CODEGEN--\":81:93   */\n      dup4\n        /* \"--CODEGEN--\":77:97   */\n      mul\n        /* \"--CODEGEN--\":67:75   */\n      dup5\n        /* \"--CODEGEN--\":63:98   */\n      add\n        /* \"--CODEGEN--\":60:110   */\n      gt\n        /* \"--CODEGEN--\":39:50   */\n      0x0100000000\n        /* \"--CODEGEN--\":25:37   */\n      dup4\n        /* \"--CODEGEN--\":22:51   */\n      gt\n        /* \"--CODEGEN--\":11:118   */\n      or\n        /* \"--CODEGEN--\":8:10   */\n      iszero\n      tag_36\n      jumpi\n        /* \"--CODEGEN--\":131:132   */\n      0x00\n        /* \"--CODEGEN--\":128:129   */\n      dup1\n        /* \"--CODEGEN--\":121:133   */\n      revert\n        /* \"--CODEGEN--\":8:10   */\n    tag_36:\n        /* \"Users/leilei/Downloads/VRFCoordinator/VRFCoordinator.sol\":4258:4495  function onTokenTransfer(address _sender, uint256 _fee, bytes memory _data)... */\n      swap2\n      swap1\n      dup1\n      dup1\n      0x1f\n      add\n      0x20\n      dup1\n      swap2\n      div\n      mul\n      0x20\n      add\n      mload(0x40)\n      swap1\n      dup2\n      add\n      0x40\n      mstore\n      dup1\n      swap4\n      swap3\n      swap2\n      swap1\n      dup2\n      dup2\n      mstore\n      0x20\n      add\n      dup4\n      dup4\n        /* \"--CODEGEN--\":30:33   */\n      dup1\n        /* \"--CODEGEN--\":22:28   */\n      dup3\n        /* \"--CODEGEN--\":14:20   */\n      dup5\n        /* \"--CODEGEN--\":1:34   */\n      calldatacopy\n        /* \"--CODEGEN--\":99:100   */\n      0x00\n        /* \"--CODEGEN--\":93:96   */\n      dup2\n        /* \"--CODEGEN--\":85:91   */\n      dup5\n        /* \"--CODEGEN--\":81:97   */\n      add\n        /* \"--CODEGEN--\":74:101   */\n      mstore\n        /* \"--CODEGEN--\":137:141   */\n      0x1f\n        /* \"--CODEGEN--\":133:142   */\n      not\n        /* \"--CODEGEN--\":126:130   */\n      0x1f\n        /* \"--CODEGEN--\":121:124   */\n      dup3\n        /* \"--CODEGEN--\":117:131   */\n      add\n        /* \"--CODEGEN--\":113:143   */\n      and\n        /* \"--CODEGEN--\":106:143   */\n      swap1\n      pop\n        /* \"--CODEGEN--\":169:172   */\n      dup1\n        /* \"--CODEGEN--\":161:167   */\n      dup4\n        /* \"--CODEGEN--\":157:173   */\n      add\n        /* \"--CODEGEN--\":147:173   */\n      swap3\n      pop\n        /* \"Users/leilei/Downloads/VRFCoordinator/VRFCoordinator.sol\":4258:4495  function onTokenTransfer(address _sender, uint256 _fee, bytes memory _data)... */\n      pop\n      pop\n      pop\n      pop\n      pop\n      pop\n      swap2\n      swap3\n      swap2\n      swap3\n      swap1\n      pop\n      pop\n      pop\n      tag_37\n      jump\t// in\n    tag_32:\n      stop\n        /* \"Users/leilei/Downloads/VRFCoordinator/VRFCoordinator.sol\":6461:6506  uint256 public constant PRESEED_OFFSET = 0xe0 */\n    tag_9:\n      tag_38\n      tag_39\n      jump\t// in\n    tag_38:\n      mload(0x40)\n      dup1\n      dup3\n      dup2\n      mstore\n      0x20\n      add\n      swap2\n      pop\n      pop\n      mload(0x40)\n      dup1\n      swap2\n      sub\n      swap1\n      return\n        /* \"Users/leilei/Downloads/VRFCoordinator/VRFCoordinator.sol\":11431:11567  function hashOfKey(uint256[2] memory _publicKey) public pure returns (bytes32) {... */\n    tag_10:\n      tag_40\n      0x04\n      dup1\n      calldatasize\n      sub\n        /* \"--CODEGEN--\":15:17   */\n      0x40\n        /* \"--CODEGEN--\":10:13   */\n      dup2\n        /* \"--CODEGEN--\":7:18   */\n      lt\n        /* \"--CODEGEN--\":4:6   */\n      iszero\n      tag_41\n      jumpi\n        /* \"--CODEGEN--\":31:32   */\n      0x00\n        /* \"--CODEGEN--\":28:29   */\n      dup1\n        /* \"--CODEGEN--\":21:33   */\n      revert\n        /* \"--CODEGEN--\":4:6   */\n    tag_41:\n        /* \"Users/leilei/Downloads/VRFCoordinator/VRFCoordinator.sol\":11431:11567  function hashOfKey(uint256[2] memory _publicKey) public pure returns (bytes32) {... */\n      dup2\n      add\n      swap1\n      dup1\n      dup1\n      0x40\n      add\n      swap1\n      0x02\n      dup1\n      0x20\n      mul\n      mload(0x40)\n      swap1\n      dup2\n      add\n      0x40\n      mstore\n      dup1\n      swap3\n      swap2\n      swap1\n      dup3\n      mul(0x20, 0x02)\n        /* \"--CODEGEN--\":30:33   */\n      dup1\n        /* \"--CODEGEN--\":22:28   */\n      dup3\n        /* \"--CODEGEN--\":14:20   */\n      dup5\n        /* \"--CODEGEN--\":1:34   */\n      calldatacopy\n        /* \"--CODEGEN--\":99:100   */\n      0x00\n        /* \"--CODEGEN--\":93:96   */\n      dup2\n        /* \"--CODEGEN--\":85:91   */\n      dup5\n        /* \"--CODEGEN--\":81:97   */\n      add\n        /* \"--CODEGEN--\":74:101   */\n      mstore\n        /* \"--CODEGEN--\":137:141   */\n      0x1f\n        /* \"--CODEGEN--\":133:142   */\n      not\n        /* \"--CODEGEN--\":126:130   */\n      0x1f\n        /* \"--CODEGEN--\":121:124   */\n      dup3\n        /* \"--CODEGEN--\":117:131   */\n      add\n        /* \"--CODEGEN--\":113:143   */\n      and\n        /* \"--CODEGEN--\":106:143   */\n      swap1\n      pop\n        /* \"--CODEGEN--\":169:172   */\n      dup1\n        /* \"--CODEGEN--\":161:167   */\n      dup4\n        /* \"--CODEGEN--\":157:173   */\n      add\n        /* \"--CODEGEN--\":147:173   */\n      swap3\n      pop\n        /* \"Users/leilei/Downloads/VRFCoordinator/VRFCoordinator.sol\":11431:11567  function hashOfKey(uint256[2] memory _publicKey) public pure returns (bytes32) {... */\n      pop\n      pop\n      pop\n      pop\n      pop\n      swap2\n      swap3\n      swap2\n      swap3\n      swap1\n      pop\n      pop\n      pop\n      tag_42\n      jump\t// in\n    tag_40:\n      mload(0x40)\n      dup1\n      dup3\n      dup2\n      mstore\n      0x20\n      add\n      swap2\n      pop\n      pop\n      mload(0x40)\n      dup1\n      swap2\n      sub\n      swap1\n      return\n        /* \"Users/leilei/Downloads/VRFCoordinator/VRFCoordinator.sol\":2855:3598  function registerProvingKey(... */\n    tag_11:\n      tag_43\n      0x04\n      dup1\n      calldatasize\n      sub\n        /* \"--CODEGEN--\":15:18   */\n      0xa0\n        /* \"--CODEGEN--\":10:13   */\n      dup2\n        /* \"--CODEGEN--\":7:19   */\n      lt\n        /* \"--CODEGEN--\":4:6   */\n      iszero\n      tag_44\n      jumpi\n        /* \"--CODEGEN--\":32:33   */\n      0x00\n        /* \"--CODEGEN--\":29:30   */\n      dup1\n        /* \"--CODEGEN--\":22:34   */\n      revert\n        /* \"--CODEGEN--\":4:6   */\n    tag_44:\n        /* \"Users/leilei/Downloads/VRFCoordinator/VRFCoordinator.sol\":2855:3598  function registerProvingKey(... */\n      dup2\n      add\n      swap1\n      dup1\n      dup1\n      calldataload\n      swap1\n      0x20\n      add\n      swap1\n      swap3\n      swap2\n      swap1\n      dup1\n      calldataload\n      0xffffffffffffffffffffffffffffffffffffffff\n      and\n      swap1\n      0x20\n      add\n      swap1\n      swap3\n      swap2\n      swap1\n      dup1\n      0x40\n      add\n      swap1\n      swap2\n      swap3\n      swap2\n      swap3\n      swap1\n      dup1\n      calldataload\n      swap1\n      0x20\n      add\n      swap1\n      swap3\n      swap2\n      swap1\n      pop\n      pop\n      pop\n      tag_45\n      jump\t// in\n    tag_43:\n      stop\n        /* \"Users/leilei/Downloads/VRFCoordinator/VRF.sol\":24594:24945  uint public constant PROOF_LENGTH = 64 + // PublicKey (uncompressed format.)... */\n    tag_12:\n      tag_46\n      tag_47\n      jump\t// in\n    tag_46:\n      mload(0x40)\n      dup1\n      dup3\n      dup2\n      mstore\n      0x20\n      add\n      swap2\n      pop\n      pop\n      mload(0x40)\n      dup1\n      swap2\n      sub\n      swap1\n      return\n        /* \"Users/leilei/Downloads/VRFCoordinator/VRFCoordinator.sol\":11043:11279  function withdraw(address _recipient, uint256 _amount)... */\n    tag_13:\n      tag_48\n      0x04\n      dup1\n      calldatasize\n      sub\n        /* \"--CODEGEN--\":15:17   */\n      0x40\n        /* \"--CODEGEN--\":10:13   */\n      dup2\n        /* \"--CODEGEN--\":7:18   */\n      lt\n        /* \"--CODEGEN--\":4:6   */\n      iszero\n      tag_49\n      jumpi\n        /* \"--CODEGEN--\":31:32   */\n      0x00\n        /* \"--CODEGEN--\":28:29   */\n      dup1\n        /* \"--CODEGEN--\":21:33   */\n      revert\n        /* \"--CODEGEN--\":4:6   */\n    tag_49:\n        /* \"Users/leilei/Downloads/VRFCoordinator/VRFCoordinator.sol\":11043:11279  function withdraw(address _recipient, uint256 _amount)... */\n      dup2\n      add\n      swap1\n      dup1\n      dup1\n      calldataload\n      0xffffffffffffffffffffffffffffffffffffffff\n      and\n      swap1\n      0x20\n      add\n      swap1\n      swap3\n      swap2\n      swap1\n      dup1\n      calldataload\n      swap1\n      0x20\n      add\n      swap1\n      swap3\n      swap2\n      swap1\n      pop\n      pop\n      pop\n      tag_50\n      jump\t// in\n    tag_48:\n      stop\n        /* \"Users/leilei/Downloads/VRFCoordinator/VRFCoordinator.sol\":1814:1903  mapping(address /* oracle */ => uint256 /* LINK balance */)... */\n    tag_17:\n      mstore(0x20, 0x04)\n      dup1\n      0x00\n      mstore\n      keccak256(0x00, 0x40)\n      0x00\n      swap2\n      pop\n      swap1\n      pop\n      sload\n      dup2\n      jump\t// out\n        /* \"Users/leilei/Downloads/VRFCoordinator/VRFCoordinator.sol\":1654:1724  mapping(bytes32 /* (provingKey, seed) */ => Callback) public callbacks */\n    tag_20:\n      mstore(0x20, 0x02)\n      dup1\n      0x00\n      mstore\n      keccak256(0x00, 0x40)\n      0x00\n      swap2\n      pop\n      swap1\n      pop\n      dup1\n      0x00\n      add\n      0x00\n      swap1\n      sload\n      swap1\n      0x0100\n      exp\n      swap1\n      div\n      0xffffffffffffffffffffffffffffffffffffffff\n      and\n      swap1\n      dup1\n      0x00\n      add\n      0x14\n      swap1\n      sload\n      swap1\n      0x0100\n      exp\n      swap1\n      div\n      0xffffffffffffffffffffffff\n      and\n      swap1\n      dup1\n      0x01\n      add\n      sload\n      swap1\n      pop\n      dup4\n      jump\t// out\n        /* \"Users/leilei/Downloads/VRFCoordinator/VRFCoordinator.sol\":6928:7543  function fulfillRandomnessRequest(bytes memory _proof) public {... */\n    tag_26:\n        /* \"Users/leilei/Downloads/VRFCoordinator/VRFCoordinator.sol\":6997:7019  bytes32 currentKeyHash */\n      0x00\n        /* \"Users/leilei/Downloads/VRFCoordinator/VRFCoordinator.sol\":7021:7045  Callback memory callback */\n      tag_52\n      tag_53\n      jump\t// in\n    tag_52:\n        /* \"Users/leilei/Downloads/VRFCoordinator/VRFCoordinator.sol\":7047:7064  bytes32 requestId */\n      0x00\n        /* \"Users/leilei/Downloads/VRFCoordinator/VRFCoordinator.sol\":7071:7089  uint256 randomness */\n      dup1\n        /* \"Users/leilei/Downloads/VRFCoordinator/VRFCoordinator.sol\":7093:7123  getRandomnessFromProof(_proof) */\n      tag_54\n        /* \"Users/leilei/Downloads/VRFCoordinator/VRFCoordinator.sol\":7116:7122  _proof */\n      dup6\n        /* \"Users/leilei/Downloads/VRFCoordinator/VRFCoordinator.sol\":7093:7115  getRandomnessFromProof */\n      tag_55\n        /* \"Users/leilei/Downloads/VRFCoordinator/VRFCoordinator.sol\":7093:7123  getRandomnessFromProof(_proof) */\n      jump\t// in\n    tag_54:\n        /* \"Users/leilei/Downloads/VRFCoordinator/VRFCoordinator.sol\":6996:7123  (bytes32 currentKeyHash, Callback memory callback, bytes32 requestId,... */\n      swap4\n      pop\n      swap4\n      pop\n      swap4\n      pop\n      swap4\n      pop\n        /* \"Users/leilei/Downloads/VRFCoordinator/VRFCoordinator.sol\":7148:7160  address oadd */\n      0x00\n        /* \"Users/leilei/Downloads/VRFCoordinator/VRFCoordinator.sol\":7163:7180  serviceAgreements */\n      0x03\n        /* \"Users/leilei/Downloads/VRFCoordinator/VRFCoordinator.sol\":7163:7196  serviceAgreements[currentKeyHash] */\n      0x00\n        /* \"Users/leilei/Downloads/VRFCoordinator/VRFCoordinator.sol\":7181:7195  currentKeyHash */\n      dup7\n        /* \"Users/leilei/Downloads/VRFCoordinator/VRFCoordinator.sol\":7163:7196  serviceAgreements[currentKeyHash] */\n      dup2\n      mstore\n      0x20\n      add\n      swap1\n      dup2\n      mstore\n      0x20\n      add\n      0x00\n      keccak256\n        /* \"Users/leilei/Downloads/VRFCoordinator/VRFCoordinator.sol\":7163:7206  serviceAgreements[currentKeyHash].vRFOracle */\n      0x00\n      add\n      0x00\n      swap1\n      sload\n      swap1\n      0x0100\n      exp\n      swap1\n      div\n      0xffffffffffffffffffffffffffffffffffffffff\n      and\n        /* \"Users/leilei/Downloads/VRFCoordinator/VRFCoordinator.sol\":7148:7206  address oadd = serviceAgreements[currentKeyHash].vRFOracle */\n      swap1\n      pop\n        /* \"Users/leilei/Downloads/VRFCoordinator/VRFCoordinator.sol\":7239:7298  withdrawableTokens[oadd].add(... */\n      tag_56\n        /* \"Users/leilei/Downloads/VRFCoordinator/VRFCoordinator.sol\":7275:7283  callback */\n      dup5\n        /* \"Users/leilei/Downloads/VRFCoordinator/VRFCoordinator.sol\":7275:7297  callback.randomnessFee */\n      0x20\n      add\n      mload\n        /* \"Users/leilei/Downloads/VRFCoordinator/VRFCoordinator.sol\":7239:7298  withdrawableTokens[oadd].add(... */\n      0xffffffffffffffffffffffff\n      and\n        /* \"Users/leilei/Downloads/VRFCoordinator/VRFCoordinator.sol\":7239:7257  withdrawableTokens */\n      0x04\n        /* \"Users/leilei/Downloads/VRFCoordinator/VRFCoordinator.sol\":7239:7263  withdrawableTokens[oadd] */\n      0x00\n        /* \"Users/leilei/Downloads/VRFCoordinator/VRFCoordinator.sol\":7258:7262  oadd */\n      dup5\n        /* \"Users/leilei/Downloads/VRFCoordinator/VRFCoordinator.sol\":7239:7263  withdrawableTokens[oadd] */\n      0xffffffffffffffffffffffffffffffffffffffff\n      and\n      0xffffffffffffffffffffffffffffffffffffffff\n      and\n      dup2\n      mstore\n      0x20\n      add\n      swap1\n      dup2\n      mstore\n      0x20\n      add\n      0x00\n      keccak256\n      sload\n        /* \"Users/leilei/Downloads/VRFCoordinator/VRFCoordinator.sol\":7239:7267  withdrawableTokens[oadd].add */\n      tag_57\n      swap1\n        /* \"Users/leilei/Downloads/VRFCoordinator/VRFCoordinator.sol\":7239:7298  withdrawableTokens[oadd].add(... */\n      swap2\n      swap1\n      0xffffffff\n      and\n      jump\t// in\n    tag_56:\n        /* \"Users/leilei/Downloads/VRFCoordinator/VRFCoordinator.sol\":7212:7230  withdrawableTokens */\n      0x04\n        /* \"Users/leilei/Downloads/VRFCoordinator/VRFCoordinator.sol\":7212:7236  withdrawableTokens[oadd] */\n      0x00\n        /* \"Users/leilei/Downloads/VRFCoordinator/VRFCoordinator.sol\":7231:7235  oadd */\n      dup4\n        /* \"Users/leilei/Downloads/VRFCoordinator/VRFCoordinator.sol\":7212:7236  withdrawableTokens[oadd] */\n      0xffffffffffffffffffffffffffffffffffffffff\n      and\n      0xffffffffffffffffffffffffffffffffffffffff\n      and\n      dup2\n      mstore\n      0x20\n      add\n      swap1\n      dup2\n      mstore\n      0x20\n      add\n      0x00\n      keccak256\n        /* \"Users/leilei/Downloads/VRFCoordinator/VRFCoordinator.sol\":7212:7298  withdrawableTokens[oadd] = withdrawableTokens[oadd].add(... */\n      dup2\n      swap1\n      sstore\n      pop\n        /* \"Users/leilei/Downloads/VRFCoordinator/VRFCoordinator.sol\":7379:7388  callbacks */\n      0x02\n        /* \"Users/leilei/Downloads/VRFCoordinator/VRFCoordinator.sol\":7379:7399  callbacks[requestId] */\n      0x00\n        /* \"Users/leilei/Downloads/VRFCoordinator/VRFCoordinator.sol\":7389:7398  requestId */\n      dup5\n        /* \"Users/leilei/Downloads/VRFCoordinator/VRFCoordinator.sol\":7379:7399  callbacks[requestId] */\n      dup2\n      mstore\n      0x20\n      add\n      swap1\n      dup2\n      mstore\n      0x20\n      add\n      0x00\n      keccak256\n      0x00\n        /* \"Users/leilei/Downloads/VRFCoordinator/VRFCoordinator.sol\":7372:7399  delete callbacks[requestId] */\n      dup1\n      dup3\n      add\n      exp(0x0100, 0x00)\n      dup2\n      sload\n      swap1\n      0xffffffffffffffffffffffffffffffffffffffff\n      mul\n      not\n      and\n      swap1\n      sstore\n      0x00\n      dup3\n      add\n      exp(0x0100, 0x14)\n      dup2\n      sload\n      swap1\n      0xffffffffffffffffffffffff\n      mul\n      not\n      and\n      swap1\n      sstore\n      0x01\n      dup3\n      add\n      0x00\n      swap1\n      sstore\n      pop\n      pop\n        /* \"Users/leilei/Downloads/VRFCoordinator/VRFCoordinator.sol\":7405:7477  callBackWithRandomness(requestId, randomness, callback.callbackContract) */\n      tag_58\n        /* \"Users/leilei/Downloads/VRFCoordinator/VRFCoordinator.sol\":7428:7437  requestId */\n      dup4\n        /* \"Users/leilei/Downloads/VRFCoordinator/VRFCoordinator.sol\":7439:7449  randomness */\n      dup4\n        /* \"Users/leilei/Downloads/VRFCoordinator/VRFCoordinator.sol\":7451:7459  callback */\n      dup7\n        /* \"Users/leilei/Downloads/VRFCoordinator/VRFCoordinator.sol\":7451:7476  callback.callbackContract */\n      0x00\n      add\n      mload\n        /* \"Users/leilei/Downloads/VRFCoordinator/VRFCoordinator.sol\":7405:7427  callBackWithRandomness */\n      tag_59\n        /* \"Users/leilei/Downloads/VRFCoordinator/VRFCoordinator.sol\":7405:7477  callBackWithRandomness(requestId, randomness, callback.callbackContract) */\n      jump\t// in\n    tag_58:\n        /* \"Users/leilei/Downloads/VRFCoordinator/VRFCoordinator.sol\":7489:7538  RandomnessRequestFulfilled(requestId, randomness) */\n      0xa2e7a402243ebda4a69ceeb3dfb682943b7a9b3ac66d6eefa8db65894009611c\n        /* \"Users/leilei/Downloads/VRFCoordinator/VRFCoordinator.sol\":7516:7525  requestId */\n      dup4\n        /* \"Users/leilei/Downloads/VRFCoordinator/VRFCoordinator.sol\":7527:7537  randomness */\n      dup4\n        /* \"Users/leilei/Downloads/VRFCoordinator/VRFCoordinator.sol\":7489:7538  RandomnessRequestFulfilled(requestId, randomness) */\n      mload(0x40)\n      dup1\n      dup4\n      dup2\n      mstore\n      0x20\n      add\n      dup3\n      dup2\n      mstore\n      0x20\n      add\n      swap3\n      pop\n      pop\n      pop\n      mload(0x40)\n      dup1\n      swap2\n      sub\n      swap1\n      log1\n        /* \"Users/leilei/Downloads/VRFCoordinator/VRFCoordinator.sol\":6928:7543  function fulfillRandomnessRequest(bytes memory _proof) public {... */\n      pop\n      pop\n      pop\n      pop\n      pop\n      pop\n      jump\t// out\n        /* \"Users/leilei/Downloads/VRFCoordinator/VRFCoordinator.sol\":1728:1810  mapping(bytes32 /* provingKey */ => ServiceAgreement)... */\n    tag_29:\n      mstore(0x20, 0x03)\n      dup1\n      0x00\n      mstore\n      keccak256(0x00, 0x40)\n      0x00\n      swap2\n      pop\n      swap1\n      pop\n      dup1\n      0x00\n      add\n      0x00\n      swap1\n      sload\n      swap1\n      0x0100\n      exp\n      swap1\n      div\n      0xffffffffffffffffffffffffffffffffffffffff\n      and\n      swap1\n      dup1\n      0x00\n      add\n      0x14\n      swap1\n      sload\n      swap1\n      0x0100\n      exp\n      swap1\n      div\n      0xffffffffffffffffffffffff\n      and\n      swap1\n      dup1\n      0x01\n      add\n      sload\n      swap1\n      pop\n      dup4\n      jump\t// out\n        /* \"Users/leilei/Downloads/VRFCoordinator/VRFCoordinator.sol\":6339:6387  uint256 public constant PUBLIC_KEY_OFFSET = 0x20 */\n    tag_31:\n        /* \"Users/leilei/Downloads/VRFCoordinator/VRFCoordinator.sol\":6383:6387  0x20 */\n      0x20\n        /* \"Users/leilei/Downloads/VRFCoordinator/VRFCoordinator.sol\":6339:6387  uint256 public constant PUBLIC_KEY_OFFSET = 0x20 */\n      dup2\n      jump\t// out\n        /* \"Users/leilei/Downloads/VRFCoordinator/VRFCoordinator.sol\":4258:4495  function onTokenTransfer(address _sender, uint256 _fee, bytes memory _data)... */\n    tag_37:\n        /* \"Users/leilei/Downloads/VRFCoordinator/VRFCoordinator.sol\":12050:12054  LINK */\n      0x00\n      dup1\n      swap1\n      sload\n      swap1\n      0x0100\n      exp\n      swap1\n      div\n      0xffffffffffffffffffffffffffffffffffffffff\n      and\n        /* \"Users/leilei/Downloads/VRFCoordinator/VRFCoordinator.sol\":12028:12055  msg.sender == address(LINK) */\n      0xffffffffffffffffffffffffffffffffffffffff\n      and\n        /* \"Users/leilei/Downloads/VRFCoordinator/VRFCoordinator.sol\":12028:12038  msg.sender */\n      caller\n        /* \"Users/leilei/Downloads/VRFCoordinator/VRFCoordinator.sol\":12028:12055  msg.sender == address(LINK) */\n      0xffffffffffffffffffffffffffffffffffffffff\n      and\n      eq\n        /* \"Users/leilei/Downloads/VRFCoordinator/VRFCoordinator.sol\":12020:12079  require(msg.sender == address(LINK), \"Must use LINK token\") */\n      tag_61\n      jumpi\n      mload(0x40)\n      0x08c379a000000000000000000000000000000000000000000000000000000000\n      dup2\n      mstore\n      0x04\n      add\n      dup1\n      dup1\n      0x20\n      add\n      dup3\n      dup2\n      sub\n      dup3\n      mstore\n      0x13\n      dup2\n      mstore\n      0x20\n      add\n      dup1\n      0x4d75737420757365204c494e4b20746f6b656e00000000000000000000000000\n      dup2\n      mstore\n      pop\n      0x20\n      add\n      swap2\n      pop\n      pop\n      mload(0x40)\n      dup1\n      swap2\n      sub\n      swap1\n      revert\n    tag_61:\n        /* \"Users/leilei/Downloads/VRFCoordinator/VRFCoordinator.sol\":4367:4382  bytes32 keyHash */\n      0x00\n        /* \"Users/leilei/Downloads/VRFCoordinator/VRFCoordinator.sol\":4384:4396  uint256 seed */\n      dup1\n        /* \"Users/leilei/Downloads/VRFCoordinator/VRFCoordinator.sol\":4411:4416  _data */\n      dup3\n        /* \"Users/leilei/Downloads/VRFCoordinator/VRFCoordinator.sol\":4400:4437  abi.decode(_data, (bytes32, uint256)) */\n      dup1\n      0x20\n      add\n      swap1\n      mload\n        /* \"--CODEGEN--\":15:17   */\n      0x40\n        /* \"--CODEGEN--\":10:13   */\n      dup2\n        /* \"--CODEGEN--\":7:18   */\n      lt\n        /* \"--CODEGEN--\":4:6   */\n      iszero\n      tag_63\n      jumpi\n        /* \"--CODEGEN--\":31:32   */\n      0x00\n        /* \"--CODEGEN--\":28:29   */\n      dup1\n        /* \"--CODEGEN--\":21:33   */\n      revert\n        /* \"--CODEGEN--\":4:6   */\n    tag_63:\n        /* \"Users/leilei/Downloads/VRFCoordinator/VRFCoordinator.sol\":4400:4437  abi.decode(_data, (bytes32, uint256)) */\n      dup2\n      add\n      swap1\n      dup1\n      dup1\n      mload\n      swap1\n      0x20\n      add\n      swap1\n      swap3\n      swap2\n      swap1\n      dup1\n      mload\n      swap1\n      0x20\n      add\n      swap1\n      swap3\n      swap2\n      swap1\n      pop\n      pop\n      pop\n        /* \"Users/leilei/Downloads/VRFCoordinator/VRFCoordinator.sol\":4366:4437  (bytes32 keyHash, uint256 seed) = abi.decode(_data, (bytes32, uint256)) */\n      swap2\n      pop\n      swap2\n      pop\n        /* \"Users/leilei/Downloads/VRFCoordinator/VRFCoordinator.sol\":4443:4490  randomnessRequest(keyHash, seed, _fee, _sender) */\n      tag_64\n        /* \"Users/leilei/Downloads/VRFCoordinator/VRFCoordinator.sol\":4461:4468  keyHash */\n      dup3\n        /* \"Users/leilei/Downloads/VRFCoordinator/VRFCoordinator.sol\":4470:4474  seed */\n      dup3\n        /* \"Users/leilei/Downloads/VRFCoordinator/VRFCoordinator.sol\":4476:4480  _fee */\n      dup7\n        /* \"Users/leilei/Downloads/VRFCoordinator/VRFCoordinator.sol\":4482:4489  _sender */\n      dup9\n        /* \"Users/leilei/Downloads/VRFCoordinator/VRFCoordinator.sol\":4443:4460  randomnessRequest */\n      tag_65\n        /* \"Users/leilei/Downloads/VRFCoordinator/VRFCoordinator.sol\":4443:4490  randomnessRequest(keyHash, seed, _fee, _sender) */\n      jump\t// in\n    tag_64:\n        /* \"Users/leilei/Downloads/VRFCoordinator/VRFCoordinator.sol\":12085:12086  _ */\n      pop\n      pop\n        /* \"Users/leilei/Downloads/VRFCoordinator/VRFCoordinator.sol\":4258:4495  function onTokenTransfer(address _sender, uint256 _fee, bytes memory _data)... */\n      pop\n      pop\n      pop\n      jump\t// out\n        /* \"Users/leilei/Downloads/VRFCoordinator/VRFCoordinator.sol\":6461:6506  uint256 public constant PRESEED_OFFSET = 0xe0 */\n    tag_39:\n        /* \"Users/leilei/Downloads/VRFCoordinator/VRFCoordinator.sol\":6502:6506  0xe0 */\n      0xe0\n        /* \"Users/leilei/Downloads/VRFCoordinator/VRFCoordinator.sol\":6461:6506  uint256 public constant PRESEED_OFFSET = 0xe0 */\n      dup2\n      jump\t// out\n        /* \"Users/leilei/Downloads/VRFCoordinator/VRFCoordinator.sol\":11431:11567  function hashOfKey(uint256[2] memory _publicKey) public pure returns (bytes32) {... */\n    tag_42:\n        /* \"Users/leilei/Downloads/VRFCoordinator/VRFCoordinator.sol\":11501:11508  bytes32 */\n      0x00\n        /* \"Users/leilei/Downloads/VRFCoordinator/VRFCoordinator.sol\":11550:11560  _publicKey */\n      dup2\n        /* \"Users/leilei/Downloads/VRFCoordinator/VRFCoordinator.sol\":11533:11561  abi.encodePacked(_publicKey) */\n      add(0x20, mload(0x40))\n      dup1\n      dup3\n      mul(0x20, 0x02)\n      dup1\n      dup4\n      dup4\n        /* \"--CODEGEN--\":23:24   */\n      0x00\n        /* \"--CODEGEN--\":8:108   */\n    tag_67:\n        /* \"--CODEGEN--\":33:36   */\n      dup4\n        /* \"--CODEGEN--\":30:31   */\n      dup2\n        /* \"--CODEGEN--\":27:37   */\n      lt\n        /* \"--CODEGEN--\":8:108   */\n      iszero\n      tag_69\n      jumpi\n        /* \"--CODEGEN--\":99:100   */\n      dup1\n        /* \"--CODEGEN--\":94:97   */\n      dup3\n        /* \"--CODEGEN--\":90:101   */\n      add\n        /* \"--CODEGEN--\":84:102   */\n      mload\n        /* \"--CODEGEN--\":80:81   */\n      dup2\n        /* \"--CODEGEN--\":75:78   */\n      dup5\n        /* \"--CODEGEN--\":71:82   */\n      add\n        /* \"--CODEGEN--\":64:103   */\n      mstore\n        /* \"--CODEGEN--\":52:54   */\n      0x20\n        /* \"--CODEGEN--\":49:50   */\n      dup2\n        /* \"--CODEGEN--\":45:55   */\n      add\n        /* \"--CODEGEN--\":40:55   */\n      swap1\n      pop\n        /* \"--CODEGEN--\":8:108   */\n      jump(tag_67)\n    tag_69:\n        /* \"--CODEGEN--\":12:26   */\n      pop\n        /* \"Users/leilei/Downloads/VRFCoordinator/VRFCoordinator.sol\":11533:11561  abi.encodePacked(_publicKey) */\n      pop\n      pop\n      pop\n      swap1\n      pop\n      add\n      swap2\n      pop\n      pop\n      mload(0x40)\n        /* \"--CODEGEN--\":49:53   */\n      0x20\n        /* \"--CODEGEN--\":39:46   */\n      dup2\n        /* \"--CODEGEN--\":30:37   */\n      dup4\n        /* \"--CODEGEN--\":26:47   */\n      sub\n        /* \"--CODEGEN--\":22:54   */\n      sub\n        /* \"--CODEGEN--\":13:20   */\n      dup2\n        /* \"--CODEGEN--\":6:55   */\n      mstore\n        /* \"Users/leilei/Downloads/VRFCoordinator/VRFCoordinator.sol\":11533:11561  abi.encodePacked(_publicKey) */\n      swap1\n      0x40\n      mstore\n        /* \"Users/leilei/Downloads/VRFCoordinator/VRFCoordinator.sol\":11523:11562  keccak256(abi.encodePacked(_publicKey)) */\n      dup1\n      mload\n      swap1\n      0x20\n      add\n      keccak256\n        /* \"Users/leilei/Downloads/VRFCoordinator/VRFCoordinator.sol\":11516:11562  return keccak256(abi.encodePacked(_publicKey)) */\n      swap1\n      pop\n        /* \"Users/leilei/Downloads/VRFCoordinator/VRFCoordinator.sol\":11431:11567  function hashOfKey(uint256[2] memory _publicKey) public pure returns (bytes32) {... */\n      swap2\n      swap1\n      pop\n      jump\t// out\n        /* \"Users/leilei/Downloads/VRFCoordinator/VRFCoordinator.sol\":2855:3598  function registerProvingKey(... */\n    tag_45:\n        /* \"Users/leilei/Downloads/VRFCoordinator/VRFCoordinator.sol\":2998:3013  bytes32 keyHash */\n      0x00\n        /* \"Users/leilei/Downloads/VRFCoordinator/VRFCoordinator.sol\":3016:3044  hashOfKey(_publicProvingKey) */\n      tag_71\n        /* \"Users/leilei/Downloads/VRFCoordinator/VRFCoordinator.sol\":3026:3043  _publicProvingKey */\n      dup4\n        /* \"Users/leilei/Downloads/VRFCoordinator/VRFCoordinator.sol\":3016:3044  hashOfKey(_publicProvingKey) */\n      0x02\n      dup1\n      0x20\n      mul\n      mload(0x40)\n      swap1\n      dup2\n      add\n      0x40\n      mstore\n      dup1\n      swap3\n      swap2\n      swap1\n      dup3\n      mul(0x20, 0x02)\n        /* \"--CODEGEN--\":30:33   */\n      dup1\n        /* \"--CODEGEN--\":22:28   */\n      dup3\n        /* \"--CODEGEN--\":14:20   */\n      dup5\n        /* \"--CODEGEN--\":1:34   */\n      calldatacopy\n        /* \"--CODEGEN--\":99:100   */\n      0x00\n        /* \"--CODEGEN--\":93:96   */\n      dup2\n        /* \"--CODEGEN--\":85:91   */\n      dup5\n        /* \"--CODEGEN--\":81:97   */\n      add\n        /* \"--CODEGEN--\":74:101   */\n      mstore\n        /* \"--CODEGEN--\":137:141   */\n      0x1f\n        /* \"--CODEGEN--\":133:142   */\n      not\n        /* \"--CODEGEN--\":126:130   */\n      0x1f\n        /* \"--CODEGEN--\":121:124   */\n      dup3\n        /* \"--CODEGEN--\":117:131   */\n      add\n        /* \"--CODEGEN--\":113:143   */\n      and\n        /* \"--CODEGEN--\":106:143   */\n      swap1\n      pop\n        /* \"--CODEGEN--\":169:172   */\n      dup1\n        /* \"--CODEGEN--\":161:167   */\n      dup4\n        /* \"--CODEGEN--\":157:173   */\n      add\n        /* \"--CODEGEN--\":147:173   */\n      swap3\n      pop\n        /* \"Users/leilei/Downloads/VRFCoordinator/VRFCoordinator.sol\":3016:3044  hashOfKey(_publicProvingKey) */\n      pop\n      pop\n      pop\n      pop\n      pop\n        /* \"Users/leilei/Downloads/VRFCoordinator/VRFCoordinator.sol\":3016:3025  hashOfKey */\n      tag_42\n        /* \"Users/leilei/Downloads/VRFCoordinator/VRFCoordinator.sol\":3016:3044  hashOfKey(_publicProvingKey) */\n      jump\t// in\n    tag_71:\n        /* \"Users/leilei/Downloads/VRFCoordinator/VRFCoordinator.sol\":2998:3044  bytes32 keyHash = hashOfKey(_publicProvingKey) */\n      swap1\n      pop\n        /* \"Users/leilei/Downloads/VRFCoordinator/VRFCoordinator.sol\":3050:3070  address oldVRFOracle */\n      0x00\n        /* \"Users/leilei/Downloads/VRFCoordinator/VRFCoordinator.sol\":3073:3090  serviceAgreements */\n      0x03\n        /* \"Users/leilei/Downloads/VRFCoordinator/VRFCoordinator.sol\":3073:3099  serviceAgreements[keyHash] */\n      0x00\n        /* \"Users/leilei/Downloads/VRFCoordinator/VRFCoordinator.sol\":3091:3098  keyHash */\n      dup4\n        /* \"Users/leilei/Downloads/VRFCoordinator/VRFCoordinator.sol\":3073:3099  serviceAgreements[keyHash] */\n      dup2\n      mstore\n      0x20\n      add\n      swap1\n      dup2\n      mstore\n      0x20\n      add\n      0x00\n      keccak256\n        /* \"Users/leilei/Downloads/VRFCoordinator/VRFCoordinator.sol\":3073:3109  serviceAgreements[keyHash].vRFOracle */\n      0x00\n      add\n      0x00\n      swap1\n      sload\n      swap1\n      0x0100\n      exp\n      swap1\n      div\n      0xffffffffffffffffffffffffffffffffffffffff\n      and\n        /* \"Users/leilei/Downloads/VRFCoordinator/VRFCoordinator.sol\":3050:3109  address oldVRFOracle = serviceAgreements[keyHash].vRFOracle */\n      swap1\n      pop\n        /* \"Users/leilei/Downloads/VRFCoordinator/VRFCoordinator.sol\":3147:3148  0 */\n      0x00\n        /* \"Users/leilei/Downloads/VRFCoordinator/VRFCoordinator.sol\":3123:3149  oldVRFOracle == address(0) */\n      0xffffffffffffffffffffffffffffffffffffffff\n      and\n        /* \"Users/leilei/Downloads/VRFCoordinator/VRFCoordinator.sol\":3123:3135  oldVRFOracle */\n      dup2\n        /* \"Users/leilei/Downloads/VRFCoordinator/VRFCoordinator.sol\":3123:3149  oldVRFOracle == address(0) */\n      0xffffffffffffffffffffffffffffffffffffffff\n      and\n      eq\n        /* \"Users/leilei/Downloads/VRFCoordinator/VRFCoordinator.sol\":3115:3179  require(oldVRFOracle == address(0), \"please register a new key\") */\n      tag_72\n      jumpi\n      mload(0x40)\n      0x08c379a000000000000000000000000000000000000000000000000000000000\n      dup2\n      mstore\n      0x04\n      add\n      dup1\n      dup1\n      0x20\n      add\n      dup3\n      dup2\n      sub\n      dup3\n      mstore\n      0x19\n      dup2\n      mstore\n      0x20\n      add\n      dup1\n      0x706c656173652072656769737465722061206e6577206b657900000000000000\n      dup2\n      mstore\n      pop\n      0x20\n      add\n      swap2\n      pop\n      pop\n      mload(0x40)\n      dup1\n      swap2\n      sub\n      swap1\n      revert\n    tag_72:\n        /* \"Users/leilei/Downloads/VRFCoordinator/VRFCoordinator.sol\":3212:3213  0 */\n      0x00\n        /* \"Users/leilei/Downloads/VRFCoordinator/VRFCoordinator.sol\":3193:3214  _oracle != address(0) */\n      0xffffffffffffffffffffffffffffffffffffffff\n      and\n        /* \"Users/leilei/Downloads/VRFCoordinator/VRFCoordinator.sol\":3193:3200  _oracle */\n      dup6\n        /* \"Users/leilei/Downloads/VRFCoordinator/VRFCoordinator.sol\":3193:3214  _oracle != address(0) */\n      0xffffffffffffffffffffffffffffffffffffffff\n      and\n      eq\n      iszero\n        /* \"Users/leilei/Downloads/VRFCoordinator/VRFCoordinator.sol\":3185:3242  require(_oracle != address(0), \"_oracle must not be 0x0\") */\n      tag_73\n      jumpi\n      mload(0x40)\n      0x08c379a000000000000000000000000000000000000000000000000000000000\n      dup2\n      mstore\n      0x04\n      add\n      dup1\n      dup1\n      0x20\n      add\n      dup3\n      dup2\n      sub\n      dup3\n      mstore\n      0x17\n      dup2\n      mstore\n      0x20\n      add\n      dup1\n      0x5f6f7261636c65206d757374206e6f7420626520307830000000000000000000\n      dup2\n      mstore\n      pop\n      0x20\n      add\n      swap2\n      pop\n      pop\n      mload(0x40)\n      dup1\n      swap2\n      sub\n      swap1\n      revert\n    tag_73:\n        /* \"Users/leilei/Downloads/VRFCoordinator/VRFCoordinator.sol\":3287:3294  _oracle */\n      dup5\n        /* \"Users/leilei/Downloads/VRFCoordinator/VRFCoordinator.sol\":3248:3265  serviceAgreements */\n      0x03\n        /* \"Users/leilei/Downloads/VRFCoordinator/VRFCoordinator.sol\":3248:3274  serviceAgreements[keyHash] */\n      0x00\n        /* \"Users/leilei/Downloads/VRFCoordinator/VRFCoordinator.sol\":3266:3273  keyHash */\n      dup5\n        /* \"Users/leilei/Downloads/VRFCoordinator/VRFCoordinator.sol\":3248:3274  serviceAgreements[keyHash] */\n      dup2\n      mstore\n      0x20\n      add\n      swap1\n      dup2\n      mstore\n      0x20\n      add\n      0x00\n      keccak256\n        /* \"Users/leilei/Downloads/VRFCoordinator/VRFCoordinator.sol\":3248:3284  serviceAgreements[keyHash].vRFOracle */\n      0x00\n      add\n      0x00\n        /* \"Users/leilei/Downloads/VRFCoordinator/VRFCoordinator.sol\":3248:3294  serviceAgreements[keyHash].vRFOracle = _oracle */\n      0x0100\n      exp\n      dup2\n      sload\n      dup2\n      0xffffffffffffffffffffffffffffffffffffffff\n      mul\n      not\n      and\n      swap1\n      dup4\n      0xffffffffffffffffffffffffffffffffffffffff\n      and\n      mul\n      or\n      swap1\n      sstore\n      pop\n        /* \"Users/leilei/Downloads/VRFCoordinator/VRFCoordinator.sol\":3335:3341  _jobID */\n      dup3\n        /* \"Users/leilei/Downloads/VRFCoordinator/VRFCoordinator.sol\":3300:3317  serviceAgreements */\n      0x03\n        /* \"Users/leilei/Downloads/VRFCoordinator/VRFCoordinator.sol\":3300:3326  serviceAgreements[keyHash] */\n      0x00\n        /* \"Users/leilei/Downloads/VRFCoordinator/VRFCoordinator.sol\":3318:3325  keyHash */\n      dup5\n        /* \"Users/leilei/Downloads/VRFCoordinator/VRFCoordinator.sol\":3300:3326  serviceAgreements[keyHash] */\n      dup2\n      mstore\n      0x20\n      add\n      swap1\n      dup2\n      mstore\n      0x20\n      add\n      0x00\n      keccak256\n        /* \"Users/leilei/Downloads/VRFCoordinator/VRFCoordinator.sol\":3300:3332  serviceAgreements[keyHash].jobID */\n      0x01\n      add\n        /* \"Users/leilei/Downloads/VRFCoordinator/VRFCoordinator.sol\":3300:3341  serviceAgreements[keyHash].jobID = _jobID */\n      dup2\n      swap1\n      sstore\n      pop\n        /* \"Users/leilei/Downloads/VRFCoordinator/VRFCoordinator.sol\":3417:3426  1e9 ether */\n      0x033b2e3c9fd0803ce8000000\n        /* \"Users/leilei/Downloads/VRFCoordinator/VRFCoordinator.sol\":3409:3413  _fee */\n      dup7\n        /* \"Users/leilei/Downloads/VRFCoordinator/VRFCoordinator.sol\":3409:3426  _fee <= 1e9 ether */\n      gt\n      iszero\n        /* \"Users/leilei/Downloads/VRFCoordinator/VRFCoordinator.sol\":3401:3497  require(_fee <= 1e9 ether,... */\n      tag_74\n      jumpi\n      mload(0x40)\n      0x08c379a000000000000000000000000000000000000000000000000000000000\n      dup2\n      mstore\n      0x04\n      add\n      dup1\n      dup1\n      0x20\n      add\n      dup3\n      dup2\n      sub\n      dup3\n      mstore\n      0x3c\n      dup2\n      mstore\n      0x20\n      add\n      dup1\n      data_3a4898a14f86303f4f0f062cf67700e5107caf8a2238d9bba8aa8f9b688110e9\n      0x3c\n      swap2\n      codecopy\n      0x40\n      add\n      swap2\n      pop\n      pop\n      mload(0x40)\n      dup1\n      swap2\n      sub\n      swap1\n      revert\n    tag_74:\n        /* \"Users/leilei/Downloads/VRFCoordinator/VRFCoordinator.sol\":3543:3547  _fee */\n      dup6\n        /* \"Users/leilei/Downloads/VRFCoordinator/VRFCoordinator.sol\":3503:3520  serviceAgreements */\n      0x03\n        /* \"Users/leilei/Downloads/VRFCoordinator/VRFCoordinator.sol\":3503:3529  serviceAgreements[keyHash] */\n      0x00\n        /* \"Users/leilei/Downloads/VRFCoordinator/VRFCoordinator.sol\":3521:3528  keyHash */\n      dup5\n        /* \"Users/leilei/Downloads/VRFCoordinator/VRFCoordinator.sol\":3503:3529  serviceAgreements[keyHash] */\n      dup2\n      mstore\n      0x20\n      add\n      swap1\n      dup2\n      mstore\n      0x20\n      add\n      0x00\n      keccak256\n        /* \"Users/leilei/Downloads/VRFCoordinator/VRFCoordinator.sol\":3503:3533  serviceAgreements[keyHash].fee */\n      0x00\n      add\n      0x14\n        /* \"Users/leilei/Downloads/VRFCoordinator/VRFCoordinator.sol\":3503:3548  serviceAgreements[keyHash].fee = uint96(_fee) */\n      0x0100\n      exp\n      dup2\n      sload\n      dup2\n      0xffffffffffffffffffffffff\n      mul\n      not\n      and\n      swap1\n      dup4\n      0xffffffffffffffffffffffff\n      and\n      mul\n      or\n      swap1\n      sstore\n      pop\n        /* \"Users/leilei/Downloads/VRFCoordinator/VRFCoordinator.sol\":3559:3593  NewServiceAgreement(keyHash, _fee) */\n      0xae189157e0628c1e62315e9179156e1ea10e90e9c15060002f7021e907dc2cfe\n        /* \"Users/leilei/Downloads/VRFCoordinator/VRFCoordinator.sol\":3579:3586  keyHash */\n      dup3\n        /* \"Users/leilei/Downloads/VRFCoordinator/VRFCoordinator.sol\":3588:3592  _fee */\n      dup8\n        /* \"Users/leilei/Downloads/VRFCoordinator/VRFCoordinator.sol\":3559:3593  NewServiceAgreement(keyHash, _fee) */\n      mload(0x40)\n      dup1\n      dup4\n      dup2\n      mstore\n      0x20\n      add\n      dup3\n      dup2\n      mstore\n      0x20\n      add\n      swap3\n      pop\n      pop\n      pop\n      mload(0x40)\n      dup1\n      swap2\n      sub\n      swap1\n      log1\n        /* \"Users/leilei/Downloads/VRFCoordinator/VRFCoordinator.sol\":2855:3598  function registerProvingKey(... */\n      pop\n      pop\n      pop\n      pop\n      pop\n      pop\n      jump\t// out\n        /* \"Users/leilei/Downloads/VRFCoordinator/VRF.sol\":24594:24945  uint public constant PROOF_LENGTH = 64 + // PublicKey (uncompressed format.)... */\n    tag_47:\n        /* \"Users/leilei/Downloads/VRFCoordinator/VRF.sol\":24630:24945  64 + // PublicKey (uncompressed format.)... */\n      0x01a0\n        /* \"Users/leilei/Downloads/VRFCoordinator/VRF.sol\":24594:24945  uint public constant PROOF_LENGTH = 64 + // PublicKey (uncompressed format.)... */\n      dup2\n      jump\t// out\n        /* \"Users/leilei/Downloads/VRFCoordinator/VRFCoordinator.sol\":11043:11279  function withdraw(address _recipient, uint256 _amount)... */\n    tag_50:\n        /* \"Users/leilei/Downloads/VRFCoordinator/VRFCoordinator.sol\":11133:11140  _amount */\n      dup1\n        /* \"Users/leilei/Downloads/VRFCoordinator/VRFCoordinator.sol\":12346:12353  _amount */\n      dup1\n        /* \"Users/leilei/Downloads/VRFCoordinator/VRFCoordinator.sol\":12312:12330  withdrawableTokens */\n      0x04\n        /* \"Users/leilei/Downloads/VRFCoordinator/VRFCoordinator.sol\":12312:12342  withdrawableTokens[msg.sender] */\n      0x00\n        /* \"Users/leilei/Downloads/VRFCoordinator/VRFCoordinator.sol\":12331:12341  msg.sender */\n      caller\n        /* \"Users/leilei/Downloads/VRFCoordinator/VRFCoordinator.sol\":12312:12342  withdrawableTokens[msg.sender] */\n      0xffffffffffffffffffffffffffffffffffffffff\n      and\n      0xffffffffffffffffffffffffffffffffffffffff\n      and\n      dup2\n      mstore\n      0x20\n      add\n      swap1\n      dup2\n      mstore\n      0x20\n      add\n      0x00\n      keccak256\n      sload\n        /* \"Users/leilei/Downloads/VRFCoordinator/VRFCoordinator.sol\":12312:12353  withdrawableTokens[msg.sender] >= _amount */\n      lt\n      iszero\n        /* \"Users/leilei/Downloads/VRFCoordinator/VRFCoordinator.sol\":12304:12390  require(withdrawableTokens[msg.sender] >= _amount, \"can't withdraw more than balance\") */\n      tag_76\n      jumpi\n      mload(0x40)\n      0x08c379a000000000000000000000000000000000000000000000000000000000\n      dup2\n      mstore\n      0x04\n      add\n      dup1\n      dup1\n      0x20\n      add\n      dup3\n      dup2\n      sub\n      dup3\n      mstore\n      0x20\n      dup2\n      mstore\n      0x20\n      add\n      dup1\n      0x63616e2774207769746864726177206d6f7265207468616e2062616c616e6365\n      dup2\n      mstore\n      pop\n      0x20\n      add\n      swap2\n      pop\n      pop\n      mload(0x40)\n      dup1\n      swap2\n      sub\n      swap1\n      revert\n    tag_76:\n        /* \"Users/leilei/Downloads/VRFCoordinator/VRFCoordinator.sol\":11183:11226  withdrawableTokens[msg.sender].sub(_amount) */\n      tag_78\n        /* \"Users/leilei/Downloads/VRFCoordinator/VRFCoordinator.sol\":11218:11225  _amount */\n      dup3\n        /* \"Users/leilei/Downloads/VRFCoordinator/VRFCoordinator.sol\":11183:11201  withdrawableTokens */\n      0x04\n        /* \"Users/leilei/Downloads/VRFCoordinator/VRFCoordinator.sol\":11183:11213  withdrawableTokens[msg.sender] */\n      0x00\n        /* \"Users/leilei/Downloads/VRFCoordinator/VRFCoordinator.sol\":11202:11212  msg.sender */\n      caller\n        /* \"Users/leilei/Downloads/VRFCoordinator/VRFCoordinator.sol\":11183:11213  withdrawableTokens[msg.sender] */\n      0xffffffffffffffffffffffffffffffffffffffff\n      and\n      0xffffffffffffffffffffffffffffffffffffffff\n      and\n      dup2\n      mstore\n      0x20\n      add\n      swap1\n      dup2\n      mstore\n      0x20\n      add\n      0x00\n      keccak256\n      sload\n        /* \"Users/leilei/Downloads/VRFCoordinator/VRFCoordinator.sol\":11183:11217  withdrawableTokens[msg.sender].sub */\n      tag_79\n      swap1\n        /* \"Users/leilei/Downloads/VRFCoordinator/VRFCoordinator.sol\":11183:11226  withdrawableTokens[msg.sender].sub(_amount) */\n      swap2\n      swap1\n      0xffffffff\n      and\n      jump\t// in\n    tag_78:\n        /* \"Users/leilei/Downloads/VRFCoordinator/VRFCoordinator.sol\":11150:11168  withdrawableTokens */\n      0x04\n        /* \"Users/leilei/Downloads/VRFCoordinator/VRFCoordinator.sol\":11150:11180  withdrawableTokens[msg.sender] */\n      0x00\n        /* \"Users/leilei/Downloads/VRFCoordinator/VRFCoordinator.sol\":11169:11179  msg.sender */\n      caller\n        /* \"Users/leilei/Downloads/VRFCoordinator/VRFCoordinator.sol\":11150:11180  withdrawableTokens[msg.sender] */\n      0xffffffffffffffffffffffffffffffffffffffff\n      and\n      0xffffffffffffffffffffffffffffffffffffffff\n      and\n      dup2\n      mstore\n      0x20\n      add\n      swap1\n      dup2\n      mstore\n      0x20\n      add\n      0x00\n      keccak256\n        /* \"Users/leilei/Downloads/VRFCoordinator/VRFCoordinator.sol\":11150:11226  withdrawableTokens[msg.sender] = withdrawableTokens[msg.sender].sub(_amount) */\n      dup2\n      swap1\n      sstore\n      pop\n        /* \"Users/leilei/Downloads/VRFCoordinator/VRFCoordinator.sol\":11239:11243  LINK */\n      0x00\n      dup1\n      swap1\n      sload\n      swap1\n      0x0100\n      exp\n      swap1\n      div\n      0xffffffffffffffffffffffffffffffffffffffff\n      and\n        /* \"Users/leilei/Downloads/VRFCoordinator/VRFCoordinator.sol\":11239:11252  LINK.transfer */\n      0xffffffffffffffffffffffffffffffffffffffff\n      and\n      0xa9059cbb\n        /* \"Users/leilei/Downloads/VRFCoordinator/VRFCoordinator.sol\":11253:11263  _recipient */\n      dup5\n        /* \"Users/leilei/Downloads/VRFCoordinator/VRFCoordinator.sol\":11265:11272  _amount */\n      dup5\n        /* \"Users/leilei/Downloads/VRFCoordinator/VRFCoordinator.sol\":11239:11273  LINK.transfer(_recipient, _amount) */\n      mload(0x40)\n      dup4\n      0xffffffff\n      and\n      0xe0\n      shl\n      dup2\n      mstore\n      0x04\n      add\n      dup1\n      dup4\n      0xffffffffffffffffffffffffffffffffffffffff\n      and\n      0xffffffffffffffffffffffffffffffffffffffff\n      and\n      dup2\n      mstore\n      0x20\n      add\n      dup3\n      dup2\n      mstore\n      0x20\n      add\n      swap3\n      pop\n      pop\n      pop\n      0x20\n      mload(0x40)\n      dup1\n      dup4\n      sub\n      dup2\n      0x00\n      dup8\n      dup1\n      extcodesize\n      iszero\n        /* \"--CODEGEN--\":5:14   */\n      dup1\n        /* \"--CODEGEN--\":2:4   */\n      iszero\n      tag_80\n      jumpi\n        /* \"--CODEGEN--\":27:28   */\n      0x00\n        /* \"--CODEGEN--\":24:25   */\n      dup1\n        /* \"--CODEGEN--\":17:29   */\n      revert\n        /* \"--CODEGEN--\":2:4   */\n    tag_80:\n        /* \"Users/leilei/Downloads/VRFCoordinator/VRFCoordinator.sol\":11239:11273  LINK.transfer(_recipient, _amount) */\n      pop\n      gas\n      call\n      iszero\n        /* \"--CODEGEN--\":8:17   */\n      dup1\n        /* \"--CODEGEN--\":5:7   */\n      iszero\n      tag_82\n      jumpi\n        /* \"--CODEGEN--\":45:61   */\n      returndatasize\n        /* \"--CODEGEN--\":42:43   */\n      0x00\n        /* \"--CODEGEN--\":39:40   */\n      dup1\n        /* \"--CODEGEN--\":24:62   */\n      returndatacopy\n        /* \"--CODEGEN--\":77:93   */\n      returndatasize\n        /* \"--CODEGEN--\":74:75   */\n      0x00\n        /* \"--CODEGEN--\":67:94   */\n      revert\n        /* \"--CODEGEN--\":5:7   */\n    tag_82:\n        /* \"Users/leilei/Downloads/VRFCoordinator/VRFCoordinator.sol\":11239:11273  LINK.transfer(_recipient, _amount) */\n      pop\n      pop\n      pop\n      pop\n      mload(0x40)\n      returndatasize\n        /* \"--CODEGEN--\":15:17   */\n      0x20\n        /* \"--CODEGEN--\":10:13   */\n      dup2\n        /* \"--CODEGEN--\":7:18   */\n      lt\n        /* \"--CODEGEN--\":4:6   */\n      iszero\n      tag_83\n      jumpi\n        /* \"--CODEGEN--\":31:32   */\n      0x00\n        /* \"--CODEGEN--\":28:29   */\n      dup1\n        /* \"--CODEGEN--\":21:33   */\n      revert\n        /* \"--CODEGEN--\":4:6   */\n    tag_83:\n        /* \"Users/leilei/Downloads/VRFCoordinator/VRFCoordinator.sol\":11239:11273  LINK.transfer(_recipient, _amount) */\n      dup2\n      add\n      swap1\n      dup1\n      dup1\n      mload\n      swap1\n      0x20\n      add\n      swap1\n      swap3\n      swap2\n      swap1\n      pop\n      pop\n      pop\n        /* \"Users/leilei/Downloads/VRFCoordinator/VRFCoordinator.sol\":11232:11274  assert(LINK.transfer(_recipient, _amount)) */\n      tag_84\n      jumpi\n      invalid\n    tag_84:\n        /* \"Users/leilei/Downloads/VRFCoordinator/VRFCoordinator.sol\":11043:11279  function withdraw(address _recipient, uint256 _amount)... */\n      pop\n      pop\n      pop\n      jump\t// out\n        /* \"Users/leilei/Downloads/VRFCoordinator/VRFCoordinator.sol\":8940:10819  function getRandomnessFromProof(bytes memory _proof)... */\n    tag_55:\n        /* \"Users/leilei/Downloads/VRFCoordinator/VRFCoordinator.sol\":9020:9042  bytes32 currentKeyHash */\n      0x00\n        /* \"Users/leilei/Downloads/VRFCoordinator/VRFCoordinator.sol\":9044:9068  Callback memory callback */\n      tag_85\n      tag_53\n      jump\t// in\n    tag_85:\n        /* \"Users/leilei/Downloads/VRFCoordinator/VRFCoordinator.sol\":9076:9093  bytes32 requestId */\n      0x00\n        /* \"Users/leilei/Downloads/VRFCoordinator/VRFCoordinator.sol\":9095:9113  uint256 randomness */\n      dup1\n        /* \"Users/leilei/Downloads/VRFCoordinator/VRFCoordinator.sol\":9273:9296  uint256 BLOCKNUM_OFFSET */\n      0x00\n        /* \"Users/leilei/Downloads/VRFCoordinator/VRF.sol\":24630:24945  64 + // PublicKey (uncompressed format.)... */\n      0x01a0\n        /* \"Users/leilei/Downloads/VRFCoordinator/VRFCoordinator.sol\":9299:9303  0x20 */\n      0x20\n        /* \"Users/leilei/Downloads/VRFCoordinator/VRFCoordinator.sol\":9299:9318  0x20 + PROOF_LENGTH */\n      add\n        /* \"Users/leilei/Downloads/VRFCoordinator/VRFCoordinator.sol\":9273:9318  uint256 BLOCKNUM_OFFSET = 0x20 + PROOF_LENGTH */\n      swap1\n      pop\n        /* \"Users/leilei/Downloads/VRFCoordinator/VRFCoordinator.sol\":9473:9488  BLOCKNUM_OFFSET */\n      dup1\n        /* \"Users/leilei/Downloads/VRFCoordinator/VRFCoordinator.sol\":9456:9462  _proof */\n      dup7\n        /* \"Users/leilei/Downloads/VRFCoordinator/VRFCoordinator.sol\":9456:9469  _proof.length */\n      mload\n        /* \"Users/leilei/Downloads/VRFCoordinator/VRFCoordinator.sol\":9456:9488  _proof.length == BLOCKNUM_OFFSET */\n      eq\n        /* \"Users/leilei/Downloads/VRFCoordinator/VRFCoordinator.sol\":9448:9511  require(_proof.length == BLOCKNUM_OFFSET, \"wrong proof length\") */\n      tag_87\n      jumpi\n      mload(0x40)\n      0x08c379a000000000000000000000000000000000000000000000000000000000\n      dup2\n      mstore\n      0x04\n      add\n      dup1\n      dup1\n      0x20\n      add\n      dup3\n      dup2\n      sub\n      dup3\n      mstore\n      0x12\n      dup2\n      mstore\n      0x20\n      add\n      dup1\n      0x77726f6e672070726f6f66206c656e6774680000000000000000000000000000\n      dup2\n      mstore\n      pop\n      0x20\n      add\n      swap2\n      pop\n      pop\n      mload(0x40)\n      dup1\n      swap2\n      sub\n      swap1\n      revert\n    tag_87:\n        /* \"Users/leilei/Downloads/VRFCoordinator/VRFCoordinator.sol\":9517:9544  uint256[2] memory publicKey */\n      tag_88\n      tag_89\n      jump\t// in\n    tag_88:\n        /* \"Users/leilei/Downloads/VRFCoordinator/VRFCoordinator.sol\":9550:9565  uint256 preSeed */\n      0x00\n        /* \"Users/leilei/Downloads/VRFCoordinator/VRFCoordinator.sol\":9571:9587  uint256 blockNum */\n      dup1\n        /* \"Users/leilei/Downloads/VRFCoordinator/VRFCoordinator.sol\":9678:9695  PUBLIC_KEY_OFFSET */\n      0x20\n        /* \"Users/leilei/Downloads/VRFCoordinator/VRFCoordinator.sol\":9670:9676  _proof */\n      dup10\n        /* \"Users/leilei/Downloads/VRFCoordinator/VRFCoordinator.sol\":9666:9696  add(_proof, PUBLIC_KEY_OFFSET) */\n      add\n        /* \"Users/leilei/Downloads/VRFCoordinator/VRFCoordinator.sol\":9653:9696  publicKey := add(_proof, PUBLIC_KEY_OFFSET) */\n      swap3\n      pop\n        /* \"Users/leilei/Downloads/VRFCoordinator/VRFCoordinator.sol\":9732:9746  PRESEED_OFFSET */\n      0xe0\n        /* \"Users/leilei/Downloads/VRFCoordinator/VRFCoordinator.sol\":9724:9730  _proof */\n      dup10\n        /* \"Users/leilei/Downloads/VRFCoordinator/VRFCoordinator.sol\":9720:9747  add(_proof, PRESEED_OFFSET) */\n      add\n        /* \"Users/leilei/Downloads/VRFCoordinator/VRFCoordinator.sol\":9714:9748  mload(add(_proof, PRESEED_OFFSET)) */\n      mload\n        /* \"Users/leilei/Downloads/VRFCoordinator/VRFCoordinator.sol\":9703:9748  preSeed := mload(add(_proof, PRESEED_OFFSET)) */\n      swap2\n      pop\n        /* \"Users/leilei/Downloads/VRFCoordinator/VRFCoordinator.sol\":9785:9800  BLOCKNUM_OFFSET */\n      dup4\n        /* \"Users/leilei/Downloads/VRFCoordinator/VRFCoordinator.sol\":9777:9783  _proof */\n      dup10\n        /* \"Users/leilei/Downloads/VRFCoordinator/VRFCoordinator.sol\":9773:9801  add(_proof, BLOCKNUM_OFFSET) */\n      add\n        /* \"Users/leilei/Downloads/VRFCoordinator/VRFCoordinator.sol\":9767:9802  mload(add(_proof, BLOCKNUM_OFFSET)) */\n      mload\n        /* \"Users/leilei/Downloads/VRFCoordinator/VRFCoordinator.sol\":9755:9802  blockNum := mload(add(_proof, BLOCKNUM_OFFSET)) */\n      swap1\n      pop\n        /* \"Users/leilei/Downloads/VRFCoordinator/VRFCoordinator.sol\":9830:9850  hashOfKey(publicKey) */\n      tag_90\n        /* \"Users/leilei/Downloads/VRFCoordinator/VRFCoordinator.sol\":9840:9849  publicKey */\n      dup4\n        /* \"Users/leilei/Downloads/VRFCoordinator/VRFCoordinator.sol\":9830:9839  hashOfKey */\n      tag_42\n        /* \"Users/leilei/Downloads/VRFCoordinator/VRFCoordinator.sol\":9830:9850  hashOfKey(publicKey) */\n      jump\t// in\n    tag_90:\n        /* \"Users/leilei/Downloads/VRFCoordinator/VRFCoordinator.sol\":9813:9850  currentKeyHash = hashOfKey(publicKey) */\n      swap8\n      pop\n        /* \"Users/leilei/Downloads/VRFCoordinator/VRFCoordinator.sol\":9868:9906  makeRequestId(currentKeyHash, preSeed) */\n      tag_91\n        /* \"Users/leilei/Downloads/VRFCoordinator/VRFCoordinator.sol\":9882:9896  currentKeyHash */\n      dup9\n        /* \"Users/leilei/Downloads/VRFCoordinator/VRFCoordinator.sol\":9898:9905  preSeed */\n      dup4\n        /* \"Users/leilei/Downloads/VRFCoordinator/VRFCoordinator.sol\":9868:9881  makeRequestId */\n      tag_92\n        /* \"Users/leilei/Downloads/VRFCoordinator/VRFCoordinator.sol\":9868:9906  makeRequestId(currentKeyHash, preSeed) */\n      jump\t// in\n    tag_91:\n        /* \"Users/leilei/Downloads/VRFCoordinator/VRFCoordinator.sol\":9856:9906  requestId = makeRequestId(currentKeyHash, preSeed) */\n      swap6\n      pop\n        /* \"Users/leilei/Downloads/VRFCoordinator/VRFCoordinator.sol\":9923:9932  callbacks */\n      0x02\n        /* \"Users/leilei/Downloads/VRFCoordinator/VRFCoordinator.sol\":9923:9943  callbacks[requestId] */\n      0x00\n        /* \"Users/leilei/Downloads/VRFCoordinator/VRFCoordinator.sol\":9933:9942  requestId */\n      dup8\n        /* \"Users/leilei/Downloads/VRFCoordinator/VRFCoordinator.sol\":9923:9943  callbacks[requestId] */\n      dup2\n      mstore\n      0x20\n      add\n      swap1\n      dup2\n      mstore\n      0x20\n      add\n      0x00\n      keccak256\n        /* \"Users/leilei/Downloads/VRFCoordinator/VRFCoordinator.sol\":9912:9943  callback = callbacks[requestId] */\n      mload(0x40)\n      dup1\n      0x60\n      add\n      0x40\n      mstore\n      swap1\n      dup2\n      0x00\n      dup3\n      add\n      0x00\n      swap1\n      sload\n      swap1\n      0x0100\n      exp\n      swap1\n      div\n      0xffffffffffffffffffffffffffffffffffffffff\n      and\n      0xffffffffffffffffffffffffffffffffffffffff\n      and\n      0xffffffffffffffffffffffffffffffffffffffff\n      and\n      dup2\n      mstore\n      0x20\n      add\n      0x00\n      dup3\n      add\n      0x14\n      swap1\n      sload\n      swap1\n      0x0100\n      exp\n      swap1\n      div\n      0xffffffffffffffffffffffff\n      and\n      0xffffffffffffffffffffffff\n      and\n      0xffffffffffffffffffffffff\n      and\n      dup2\n      mstore\n      0x20\n      add\n      0x01\n      dup3\n      add\n      sload\n      dup2\n      mstore\n      pop\n      pop\n      swap7\n      pop\n        /* \"Users/leilei/Downloads/VRFCoordinator/VRFCoordinator.sol\":9994:9995  0 */\n      0x00\n        /* \"Users/leilei/Downloads/VRFCoordinator/VRFCoordinator.sol\":9957:9996  callback.callbackContract != address(0) */\n      0xffffffffffffffffffffffffffffffffffffffff\n      and\n        /* \"Users/leilei/Downloads/VRFCoordinator/VRFCoordinator.sol\":9957:9965  callback */\n      dup8\n        /* \"Users/leilei/Downloads/VRFCoordinator/VRFCoordinator.sol\":9957:9982  callback.callbackContract */\n      0x00\n      add\n      mload\n        /* \"Users/leilei/Downloads/VRFCoordinator/VRFCoordinator.sol\":9957:9996  callback.callbackContract != address(0) */\n      0xffffffffffffffffffffffffffffffffffffffff\n      and\n      eq\n      iszero\n        /* \"Users/leilei/Downloads/VRFCoordinator/VRFCoordinator.sol\":9949:10025  require(callback.callbackContract != address(0), \"no corresponding request\") */\n      tag_93\n      jumpi\n      mload(0x40)\n      0x08c379a000000000000000000000000000000000000000000000000000000000\n      dup2\n      mstore\n      0x04\n      add\n      dup1\n      dup1\n      0x20\n      add\n      dup3\n      dup2\n      sub\n      dup3\n      mstore\n      0x18\n      dup2\n      mstore\n      0x20\n      add\n      dup1\n      0x6e6f20636f72726573706f6e64696e6720726571756573740000000000000000\n      dup2\n      mstore\n      pop\n      0x20\n      add\n      swap2\n      pop\n      pop\n      mload(0x40)\n      dup1\n      swap2\n      sub\n      swap1\n      revert\n    tag_93:\n        /* \"Users/leilei/Downloads/VRFCoordinator/VRFCoordinator.sol\":10094:10101  preSeed */\n      dup2\n        /* \"Users/leilei/Downloads/VRFCoordinator/VRFCoordinator.sol\":10109:10117  blockNum */\n      dup2\n        /* \"Users/leilei/Downloads/VRFCoordinator/VRFCoordinator.sol\":10077:10118  abi.encodePacked(preSeed,... */\n      add(0x20, mload(0x40))\n      dup1\n      dup4\n      dup2\n      mstore\n      0x20\n      add\n      dup3\n      dup2\n      mstore\n      0x20\n      add\n      swap3\n      pop\n      pop\n      pop\n      mload(0x40)\n        /* \"--CODEGEN--\":49:53   */\n      0x20\n        /* \"--CODEGEN--\":39:46   */\n      dup2\n        /* \"--CODEGEN--\":30:37   */\n      dup4\n        /* \"--CODEGEN--\":26:47   */\n      sub\n        /* \"--CODEGEN--\":22:54   */\n      sub\n        /* \"--CODEGEN--\":13:20   */\n      dup2\n        /* \"--CODEGEN--\":6:55   */\n      mstore\n        /* \"Users/leilei/Downloads/VRFCoordinator/VRFCoordinator.sol\":10077:10118  abi.encodePacked(preSeed,... */\n      swap1\n      0x40\n      mstore\n        /* \"Users/leilei/Downloads/VRFCoordinator/VRFCoordinator.sol\":10067:10119  keccak256(abi.encodePacked(preSeed,... */\n      dup1\n      mload\n      swap1\n      0x20\n      add\n      keccak256\n        /* \"Users/leilei/Downloads/VRFCoordinator/VRFCoordinator.sol\":10039:10047  callback */\n      dup8\n        /* \"Users/leilei/Downloads/VRFCoordinator/VRFCoordinator.sol\":10039:10063  callback.seedAndBlockNum */\n      0x40\n      add\n      mload\n        /* \"Users/leilei/Downloads/VRFCoordinator/VRFCoordinator.sol\":10039:10119  callback.seedAndBlockNum == keccak256(abi.encodePacked(preSeed,... */\n      eq\n        /* \"Users/leilei/Downloads/VRFCoordinator/VRFCoordinator.sol\":10031:10150  require(callback.seedAndBlockNum == keccak256(abi.encodePacked(preSeed,... */\n      tag_94\n      jumpi\n      mload(0x40)\n      0x08c379a000000000000000000000000000000000000000000000000000000000\n      dup2\n      mstore\n      0x04\n      add\n      dup1\n      dup1\n      0x20\n      add\n      dup3\n      dup2\n      sub\n      dup3\n      mstore\n      0x1a\n      dup2\n      mstore\n      0x20\n      add\n      dup1\n      0x77726f6e672070726553656564206f7220626c6f636b206e756d000000000000\n      dup2\n      mstore\n      pop\n      0x20\n      add\n      swap2\n      pop\n      pop\n      mload(0x40)\n      dup1\n      swap2\n      sub\n      swap1\n      revert\n    tag_94:\n        /* \"Users/leilei/Downloads/VRFCoordinator/VRFCoordinator.sol\":10157:10174  bytes32 blockHash */\n      0x00\n        /* \"Users/leilei/Downloads/VRFCoordinator/VRFCoordinator.sol\":10187:10195  blockNum */\n      dup2\n        /* \"Users/leilei/Downloads/VRFCoordinator/VRFCoordinator.sol\":10177:10196  blockhash(blockNum) */\n      blockhash\n        /* \"Users/leilei/Downloads/VRFCoordinator/VRFCoordinator.sol\":10157:10196  bytes32 blockHash = blockhash(blockNum) */\n      swap1\n      pop\n        /* \"Users/leilei/Downloads/VRFCoordinator/VRFCoordinator.sol\":10227:10228  0 */\n      0x00\n        /* \"Users/leilei/Downloads/VRFCoordinator/VRFCoordinator.sol\":10219:10229  bytes32(0) */\n      dup1\n      shl\n        /* \"Users/leilei/Downloads/VRFCoordinator/VRFCoordinator.sol\":10206:10215  blockHash */\n      dup2\n        /* \"Users/leilei/Downloads/VRFCoordinator/VRFCoordinator.sol\":10206:10229  blockHash == bytes32(0) */\n      eq\n        /* \"Users/leilei/Downloads/VRFCoordinator/VRFCoordinator.sol\":10202:10361  if (blockHash == bytes32(0)) {... */\n      iszero\n      tag_95\n      jumpi\n        /* \"Users/leilei/Downloads/VRFCoordinator/VRFCoordinator.sol\":10251:10265  blockHashStore */\n      0x01\n      0x00\n      swap1\n      sload\n      swap1\n      0x0100\n      exp\n      swap1\n      div\n      0xffffffffffffffffffffffffffffffffffffffff\n      and\n        /* \"Users/leilei/Downloads/VRFCoordinator/VRFCoordinator.sol\":10251:10278  blockHashStore.getBlockhash */\n      0xffffffffffffffffffffffffffffffffffffffff\n      and\n      0xe9413d38\n        /* \"Users/leilei/Downloads/VRFCoordinator/VRFCoordinator.sol\":10279:10287  blockNum */\n      dup4\n        /* \"Users/leilei/Downloads/VRFCoordinator/VRFCoordinator.sol\":10251:10288  blockHashStore.getBlockhash(blockNum) */\n      mload(0x40)\n      dup3\n      0xffffffff\n      and\n      0xe0\n      shl\n      dup2\n      mstore\n      0x04\n      add\n      dup1\n      dup3\n      dup2\n      mstore\n      0x20\n      add\n      swap2\n      pop\n      pop\n      0x20\n      mload(0x40)\n      dup1\n      dup4\n      sub\n      dup2\n      dup7\n      dup1\n      extcodesize\n      iszero\n        /* \"--CODEGEN--\":5:14   */\n      dup1\n        /* \"--CODEGEN--\":2:4   */\n      iszero\n      tag_96\n      jumpi\n        /* \"--CODEGEN--\":27:28   */\n      0x00\n        /* \"--CODEGEN--\":24:25   */\n      dup1\n        /* \"--CODEGEN--\":17:29   */\n      revert\n        /* \"--CODEGEN--\":2:4   */\n    tag_96:\n        /* \"Users/leilei/Downloads/VRFCoordinator/VRFCoordinator.sol\":10251:10288  blockHashStore.getBlockhash(blockNum) */\n      pop\n      gas\n      staticcall\n      iszero\n        /* \"--CODEGEN--\":8:17   */\n      dup1\n        /* \"--CODEGEN--\":5:7   */\n      iszero\n      tag_98\n      jumpi\n        /* \"--CODEGEN--\":45:61   */\n      returndatasize\n        /* \"--CODEGEN--\":42:43   */\n      0x00\n        /* \"--CODEGEN--\":39:40   */\n      dup1\n        /* \"--CODEGEN--\":24:62   */\n      returndatacopy\n        /* \"--CODEGEN--\":77:93   */\n      returndatasize\n        /* \"--CODEGEN--\":74:75   */\n      0x00\n        /* \"--CODEGEN--\":67:94   */\n      revert\n        /* \"--CODEGEN--\":5:7   */\n    tag_98:\n        /* \"Users/leilei/Downloads/VRFCoordinator/VRFCoordinator.sol\":10251:10288  blockHashStore.getBlockhash(blockNum) */\n      pop\n      pop\n      pop\n      pop\n      mload(0x40)\n      returndatasize\n        /* \"--CODEGEN--\":15:17   */\n      0x20\n        /* \"--CODEGEN--\":10:13   */\n      dup2\n        /* \"--CODEGEN--\":7:18   */\n      lt\n        /* \"--CODEGEN--\":4:6   */\n      iszero\n      tag_99\n      jumpi\n        /* \"--CODEGEN--\":31:32   */\n      0x00\n        /* \"--CODEGEN--\":28:29   */\n      dup1\n        /* \"--CODEGEN--\":21:33   */\n      revert\n        /* \"--CODEGEN--\":4:6   */\n    tag_99:\n        /* \"Users/leilei/Downloads/VRFCoordinator/VRFCoordinator.sol\":10251:10288  blockHashStore.getBlockhash(blockNum) */\n      dup2\n      add\n      swap1\n      dup1\n      dup1\n      mload\n      swap1\n      0x20\n      add\n      swap1\n      swap3\n      swap2\n      swap1\n      pop\n      pop\n      pop\n        /* \"Users/leilei/Downloads/VRFCoordinator/VRFCoordinator.sol\":10239:10288  blockHash = blockHashStore.getBlockhash(blockNum) */\n      swap1\n      pop\n        /* \"Users/leilei/Downloads/VRFCoordinator/VRFCoordinator.sol\":10325:10326  0 */\n      0x00\n        /* \"Users/leilei/Downloads/VRFCoordinator/VRFCoordinator.sol\":10317:10327  bytes32(0) */\n      dup1\n      shl\n        /* \"Users/leilei/Downloads/VRFCoordinator/VRFCoordinator.sol\":10304:10313  blockHash */\n      dup2\n        /* \"Users/leilei/Downloads/VRFCoordinator/VRFCoordinator.sol\":10304:10327  blockHash != bytes32(0) */\n      eq\n      iszero\n        /* \"Users/leilei/Downloads/VRFCoordinator/VRFCoordinator.sol\":10296:10354  require(blockHash != bytes32(0), \"please prove blockhash\") */\n      tag_100\n      jumpi\n      mload(0x40)\n      0x08c379a000000000000000000000000000000000000000000000000000000000\n      dup2\n      mstore\n      0x04\n      add\n      dup1\n      dup1\n      0x20\n      add\n      dup3\n      dup2\n      sub\n      dup3\n      mstore\n      0x16\n      dup2\n      mstore\n      0x20\n      add\n      dup1\n      0x706c656173652070726f766520626c6f636b6861736800000000000000000000\n      dup2\n      mstore\n      pop\n      0x20\n      add\n      swap2\n      pop\n      pop\n      mload(0x40)\n      dup1\n      swap2\n      sub\n      swap1\n      revert\n    tag_100:\n        /* \"Users/leilei/Downloads/VRFCoordinator/VRFCoordinator.sol\":10202:10361  if (blockHash == bytes32(0)) {... */\n    tag_95:\n        /* \"Users/leilei/Downloads/VRFCoordinator/VRFCoordinator.sol\":10442:10460  uint256 actualSeed */\n      0x00\n        /* \"Users/leilei/Downloads/VRFCoordinator/VRFCoordinator.sol\":10498:10505  preSeed */\n      dup4\n        /* \"Users/leilei/Downloads/VRFCoordinator/VRFCoordinator.sol\":10507:10516  blockHash */\n      dup3\n        /* \"Users/leilei/Downloads/VRFCoordinator/VRFCoordinator.sol\":10481:10517  abi.encodePacked(preSeed, blockHash) */\n      add(0x20, mload(0x40))\n      dup1\n      dup4\n      dup2\n      mstore\n      0x20\n      add\n      dup3\n      dup2\n      mstore\n      0x20\n      add\n      swap3\n      pop\n      pop\n      pop\n      mload(0x40)\n        /* \"--CODEGEN--\":49:53   */\n      0x20\n        /* \"--CODEGEN--\":39:46   */\n      dup2\n        /* \"--CODEGEN--\":30:37   */\n      dup4\n        /* \"--CODEGEN--\":26:47   */\n      sub\n        /* \"--CODEGEN--\":22:54   */\n      sub\n        /* \"--CODEGEN--\":13:20   */\n      dup2\n        /* \"--CODEGEN--\":6:55   */\n      mstore\n        /* \"Users/leilei/Downloads/VRFCoordinator/VRFCoordinator.sol\":10481:10517  abi.encodePacked(preSeed, blockHash) */\n      swap1\n      0x40\n      mstore\n        /* \"Users/leilei/Downloads/VRFCoordinator/VRFCoordinator.sol\":10471:10518  keccak256(abi.encodePacked(preSeed, blockHash)) */\n      dup1\n      mload\n      swap1\n      0x20\n      add\n      keccak256\n        /* \"Users/leilei/Downloads/VRFCoordinator/VRFCoordinator.sol\":10463:10519  uint256(keccak256(abi.encodePacked(preSeed, blockHash))) */\n      0x00\n      shr\n        /* \"Users/leilei/Downloads/VRFCoordinator/VRFCoordinator.sol\":10442:10519  uint256 actualSeed = uint256(keccak256(abi.encodePacked(preSeed, blockHash))) */\n      swap1\n      pop\n        /* \"Users/leilei/Downloads/VRFCoordinator/VRFCoordinator.sol\":10687:10697  actualSeed */\n      dup1\n        /* \"Users/leilei/Downloads/VRFCoordinator/VRFCoordinator.sol\":10670:10684  PRESEED_OFFSET */\n      0xe0\n        /* \"Users/leilei/Downloads/VRFCoordinator/VRFCoordinator.sol\":10662:10668  _proof */\n      dup13\n        /* \"Users/leilei/Downloads/VRFCoordinator/VRFCoordinator.sol\":10658:10685  add(_proof, PRESEED_OFFSET) */\n      add\n        /* \"Users/leilei/Downloads/VRFCoordinator/VRFCoordinator.sol\":10651:10698  mstore(add(_proof, PRESEED_OFFSET), actualSeed) */\n      mstore\n        /* \"Users/leilei/Downloads/VRFCoordinator/VRFCoordinator.sol\":10720:10732  PROOF_LENGTH */\n      0x01a0\n        /* \"Users/leilei/Downloads/VRFCoordinator/VRFCoordinator.sol\":10712:10718  _proof */\n      dup12\n        /* \"Users/leilei/Downloads/VRFCoordinator/VRFCoordinator.sol\":10705:10733  mstore(_proof, PROOF_LENGTH) */\n      mstore\n        /* \"Users/leilei/Downloads/VRFCoordinator/VRFCoordinator.sol\":10757:10792  VRF.randomValueFromVRFProof(_proof) */\n      tag_101\n        /* \"Users/leilei/Downloads/VRFCoordinator/VRFCoordinator.sol\":10785:10791  _proof */\n      dup12\n        /* \"Users/leilei/Downloads/VRFCoordinator/VRFCoordinator.sol\":10757:10784  VRF.randomValueFromVRFProof */\n      tag_102\n        /* \"Users/leilei/Downloads/VRFCoordinator/VRFCoordinator.sol\":10757:10792  VRF.randomValueFromVRFProof(_proof) */\n      jump\t// in\n    tag_101:\n        /* \"Users/leilei/Downloads/VRFCoordinator/VRFCoordinator.sol\":10744:10792  randomness = VRF.randomValueFromVRFProof(_proof) */\n      swap7\n      pop\n        /* \"Users/leilei/Downloads/VRFCoordinator/VRFCoordinator.sol\":8940:10819  function getRandomnessFromProof(bytes memory _proof)... */\n      pop\n      pop\n      pop\n      pop\n      pop\n      pop\n      swap2\n      swap4\n      pop\n      swap2\n      swap4\n      jump\t// out\n        /* \"Users/leilei/Downloads/VRFCoordinator/SafeMath.sol\":822:984  function add(uint256 a, uint256 b) internal pure returns (uint256) {... */\n    tag_57:\n        /* \"Users/leilei/Downloads/VRFCoordinator/SafeMath.sol\":880:887  uint256 */\n      0x00\n        /* \"Users/leilei/Downloads/VRFCoordinator/SafeMath.sol\":895:904  uint256 c */\n      dup1\n        /* \"Users/leilei/Downloads/VRFCoordinator/SafeMath.sol\":911:912  b */\n      dup3\n        /* \"Users/leilei/Downloads/VRFCoordinator/SafeMath.sol\":907:908  a */\n      dup5\n        /* \"Users/leilei/Downloads/VRFCoordinator/SafeMath.sol\":907:912  a + b */\n      add\n        /* \"Users/leilei/Downloads/VRFCoordinator/SafeMath.sol\":895:912  uint256 c = a + b */\n      swap1\n      pop\n        /* \"Users/leilei/Downloads/VRFCoordinator/SafeMath.sol\":931:932  a */\n      dup4\n        /* \"Users/leilei/Downloads/VRFCoordinator/SafeMath.sol\":926:927  c */\n      dup2\n        /* \"Users/leilei/Downloads/VRFCoordinator/SafeMath.sol\":926:932  c >= a */\n      lt\n      iszero\n        /* \"Users/leilei/Downloads/VRFCoordinator/SafeMath.sol\":918:964  require(c >= a, \"SafeMath: addition overflow\") */\n      tag_104\n      jumpi\n      mload(0x40)\n      0x08c379a000000000000000000000000000000000000000000000000000000000\n      dup2\n      mstore\n      0x04\n      add\n      dup1\n      dup1\n      0x20\n      add\n      dup3\n      dup2\n      sub\n      dup3\n      mstore\n      0x1b\n      dup2\n      mstore\n      0x20\n      add\n      dup1\n      0x536166654d6174683a206164646974696f6e206f766572666c6f770000000000\n      dup2\n      mstore\n      pop\n      0x20\n      add\n      swap2\n      pop\n      pop\n      mload(0x40)\n      dup1\n      swap2\n      sub\n      swap1\n      revert\n    tag_104:\n        /* \"Users/leilei/Downloads/VRFCoordinator/SafeMath.sol\":978:979  c */\n      dup1\n        /* \"Users/leilei/Downloads/VRFCoordinator/SafeMath.sol\":971:979  return c */\n      swap2\n      pop\n      pop\n        /* \"Users/leilei/Downloads/VRFCoordinator/SafeMath.sol\":822:984  function add(uint256 a, uint256 b) internal pure returns (uint256) {... */\n      swap3\n      swap2\n      pop\n      pop\n      jump\t// out\n        /* \"Users/leilei/Downloads/VRFCoordinator/VRFCoordinator.sol\":7547:8936  function callBackWithRandomness(bytes32 requestId, uint256 randomness,... */\n    tag_59:\n        /* \"Users/leilei/Downloads/VRFCoordinator/VRFCoordinator.sol\":7816:7833  VRFConsumerBase v */\n      0x00\n        /* \"Users/leilei/Downloads/VRFCoordinator/VRFCoordinator.sol\":7839:7856  bytes memory resp */\n      0x60\n        /* \"Users/leilei/Downloads/VRFCoordinator/VRFCoordinator.sol\":7889:7920  v.rawFulfillRandomness.selector */\n      shl(0xe0, 0x94985ddd)\n        /* \"Users/leilei/Downloads/VRFCoordinator/VRFCoordinator.sol\":7922:7931  requestId */\n      dup6\n        /* \"Users/leilei/Downloads/VRFCoordinator/VRFCoordinator.sol\":7933:7943  randomness */\n      dup6\n        /* \"Users/leilei/Downloads/VRFCoordinator/VRFCoordinator.sol\":7859:7944  abi.encodeWithSelector(... */\n      add(0x24, mload(0x40))\n      dup1\n      dup4\n      dup2\n      mstore\n      0x20\n      add\n      dup3\n      dup2\n      mstore\n      0x20\n      add\n      swap3\n      pop\n      pop\n      pop\n      mload(0x40)\n        /* \"--CODEGEN--\":49:53   */\n      0x20\n        /* \"--CODEGEN--\":39:46   */\n      dup2\n        /* \"--CODEGEN--\":30:37   */\n      dup4\n        /* \"--CODEGEN--\":26:47   */\n      sub\n        /* \"--CODEGEN--\":22:54   */\n      sub\n        /* \"--CODEGEN--\":13:20   */\n      dup2\n        /* \"--CODEGEN--\":6:55   */\n      mstore\n        /* \"Users/leilei/Downloads/VRFCoordinator/VRFCoordinator.sol\":7859:7944  abi.encodeWithSelector(... */\n      swap1\n      0x40\n      mstore\n      swap1\n      not(0xffffffffffffffffffffffffffffffffffffffffffffffffffffffff)\n      and\n        /* \"--CODEGEN--\":38:42   */\n      0x20\n        /* \"--CODEGEN--\":29:36   */\n      dup3\n        /* \"--CODEGEN--\":25:43   */\n      add\n        /* \"--CODEGEN--\":67:77   */\n      dup1\n        /* \"--CODEGEN--\":61:78   */\n      mload\n        /* \"--CODEGEN--\":96:154   */\n      0xffffffffffffffffffffffffffffffffffffffffffffffffffffffff\n        /* \"--CODEGEN--\":199:207   */\n      dup4\n        /* \"--CODEGEN--\":192:196   */\n      dup2\n        /* \"--CODEGEN--\":186:190   */\n      dup4\n        /* \"--CODEGEN--\":182:197   */\n      and\n        /* \"--CODEGEN--\":179:208   */\n      or\n        /* \"--CODEGEN--\":167:177   */\n      dup4\n        /* \"--CODEGEN--\":160:209   */\n      mstore\n        /* \"--CODEGEN--\":0:215   */\n      pop\n      pop\n      pop\n        /* \"Users/leilei/Downloads/VRFCoordinator/VRFCoordinator.sol\":7859:7944  abi.encodeWithSelector(... */\n      pop\n        /* \"Users/leilei/Downloads/VRFCoordinator/VRFCoordinator.sol\":7839:7944  bytes memory resp = abi.encodeWithSelector(... */\n      swap1\n      pop\n        /* \"Users/leilei/Downloads/VRFCoordinator/VRFCoordinator.sol\":8213:8222  uint256 b */\n      0x00\n        /* \"Users/leilei/Downloads/VRFCoordinator/VRFCoordinator.sol\":8225:8231  206000 */\n      0x0324b0\n        /* \"Users/leilei/Downloads/VRFCoordinator/VRFCoordinator.sol\":8213:8231  uint256 b = 206000 */\n      swap1\n      pop\n        /* \"Users/leilei/Downloads/VRFCoordinator/VRFCoordinator.sol\":8258:8259  b */\n      dup1\n        /* \"Users/leilei/Downloads/VRFCoordinator/VRFCoordinator.sol\":8245:8254  gasleft() */\n      gas\n        /* \"Users/leilei/Downloads/VRFCoordinator/VRFCoordinator.sol\":8245:8259  gasleft() >= b */\n      lt\n      iszero\n        /* \"Users/leilei/Downloads/VRFCoordinator/VRFCoordinator.sol\":8237:8291  require(gasleft() >= b, \"not enough gas for consumer\") */\n      tag_106\n      jumpi\n      mload(0x40)\n      0x08c379a000000000000000000000000000000000000000000000000000000000\n      dup2\n      mstore\n      0x04\n      add\n      dup1\n      dup1\n      0x20\n      add\n      dup3\n      dup2\n      sub\n      dup3\n      mstore\n      0x1b\n      dup2\n      mstore\n      0x20\n      add\n      dup1\n      0x6e6f7420656e6f7567682067617320666f7220636f6e73756d65720000000000\n      dup2\n      mstore\n      pop\n      0x20\n      add\n      swap2\n      pop\n      pop\n      mload(0x40)\n      dup1\n      swap2\n      sub\n      swap1\n      revert\n    tag_106:\n        /* \"Users/leilei/Downloads/VRFCoordinator/VRFCoordinator.sol\":8716:8728  bool success */\n      0x00\n        /* \"Users/leilei/Downloads/VRFCoordinator/VRFCoordinator.sol\":8733:8749  consumerContract */\n      dup5\n        /* \"Users/leilei/Downloads/VRFCoordinator/VRFCoordinator.sol\":8733:8754  consumerContract.call */\n      0xffffffffffffffffffffffffffffffffffffffff\n      and\n        /* \"Users/leilei/Downloads/VRFCoordinator/VRFCoordinator.sol\":8755:8759  resp */\n      dup4\n        /* \"Users/leilei/Downloads/VRFCoordinator/VRFCoordinator.sol\":8733:8760  consumerContract.call(resp) */\n      mload(0x40)\n      dup1\n      dup3\n      dup1\n      mload\n      swap1\n      0x20\n      add\n      swap1\n      dup1\n      dup4\n      dup4\n        /* \"--CODEGEN--\":36:189   */\n    tag_107:\n        /* \"--CODEGEN--\":66:68   */\n      0x20\n        /* \"--CODEGEN--\":61:64   */\n      dup4\n        /* \"--CODEGEN--\":58:69   */\n      lt\n        /* \"--CODEGEN--\":36:189   */\n      tag_109\n      jumpi\n        /* \"--CODEGEN--\":182:185   */\n      dup1\n        /* \"--CODEGEN--\":176:186   */\n      mload\n        /* \"--CODEGEN--\":171:174   */\n      dup3\n        /* \"--CODEGEN--\":164:187   */\n      mstore\n        /* \"--CODEGEN--\":98:100   */\n      0x20\n        /* \"--CODEGEN--\":93:96   */\n      dup3\n        /* \"--CODEGEN--\":89:101   */\n      add\n        /* \"--CODEGEN--\":82:101   */\n      swap2\n      pop\n        /* \"--CODEGEN--\":123:125   */\n      0x20\n        /* \"--CODEGEN--\":118:121   */\n      dup2\n        /* \"--CODEGEN--\":114:126   */\n      add\n        /* \"--CODEGEN--\":107:126   */\n      swap1\n      pop\n        /* \"--CODEGEN--\":148:150   */\n      0x20\n        /* \"--CODEGEN--\":143:146   */\n      dup4\n        /* \"--CODEGEN--\":139:151   */\n      sub\n        /* \"--CODEGEN--\":132:151   */\n      swap3\n      pop\n        /* \"--CODEGEN--\":36:189   */\n      jump(tag_107)\n    tag_109:\n        /* \"--CODEGEN--\":274:275   */\n      0x01\n        /* \"--CODEGEN--\":267:270   */\n      dup4\n        /* \"--CODEGEN--\":263:265   */\n      0x20\n        /* \"--CODEGEN--\":259:271   */\n      sub\n        /* \"--CODEGEN--\":254:257   */\n      0x0100\n        /* \"--CODEGEN--\":250:272   */\n      exp\n        /* \"--CODEGEN--\":246:276   */\n      sub\n        /* \"--CODEGEN--\":315:319   */\n      dup1\n        /* \"--CODEGEN--\":311:320   */\n      not\n        /* \"--CODEGEN--\":305:308   */\n      dup3\n        /* \"--CODEGEN--\":299:309   */\n      mload\n        /* \"--CODEGEN--\":295:321   */\n      and\n        /* \"--CODEGEN--\":356:360   */\n      dup2\n        /* \"--CODEGEN--\":350:353   */\n      dup5\n        /* \"--CODEGEN--\":344:354   */\n      mload\n        /* \"--CODEGEN--\":340:361   */\n      and\n        /* \"--CODEGEN--\":389:396   */\n      dup1\n        /* \"--CODEGEN--\":380:387   */\n      dup3\n        /* \"--CODEGEN--\":377:397   */\n      or\n        /* \"--CODEGEN--\":372:375   */\n      dup6\n        /* \"--CODEGEN--\":365:398   */\n      mstore\n        /* \"--CODEGEN--\":3:402   */\n      pop\n      pop\n      pop\n        /* \"Users/leilei/Downloads/VRFCoordinator/VRFCoordinator.sol\":8733:8760  consumerContract.call(resp) */\n      pop\n      pop\n      pop\n      swap1\n      pop\n      add\n      swap2\n      pop\n      pop\n      0x00\n      mload(0x40)\n      dup1\n      dup4\n      sub\n      dup2\n      0x00\n      dup7\n      gas\n      call\n      swap2\n      pop\n      pop\n      returndatasize\n        /* \"--CODEGEN--\":12:13   */\n      dup1\n        /* \"--CODEGEN--\":19:20   */\n      0x00\n        /* \"--CODEGEN--\":14:41   */\n      dup2\n      eq\n      tag_112\n      jumpi\n        /* \"--CODEGEN--\":67:71   */\n      0x40\n        /* \"--CODEGEN--\":61:72   */\n      mload\n        /* \"--CODEGEN--\":56:72   */\n      swap2\n      pop\n        /* \"--CODEGEN--\":134:138   */\n      0x1f\n        /* \"--CODEGEN--\":130:139   */\n      not\n        /* \"--CODEGEN--\":123:127   */\n      0x3f\n        /* \"--CODEGEN--\":105:121   */\n      returndatasize\n        /* \"--CODEGEN--\":101:128   */\n      add\n        /* \"--CODEGEN--\":97:140   */\n      and\n        /* \"--CODEGEN--\":94:95   */\n      dup3\n        /* \"--CODEGEN--\":90:141   */\n      add\n        /* \"--CODEGEN--\":84:88   */\n      0x40\n        /* \"--CODEGEN--\":77:142   */\n      mstore\n        /* \"--CODEGEN--\":157:173   */\n      returndatasize\n        /* \"--CODEGEN--\":154:155   */\n      dup3\n        /* \"--CODEGEN--\":147:174   */\n      mstore\n        /* \"--CODEGEN--\":211:227   */\n      returndatasize\n        /* \"--CODEGEN--\":208:209   */\n      0x00\n        /* \"--CODEGEN--\":201:205   */\n      0x20\n        /* \"--CODEGEN--\":198:199   */\n      dup5\n        /* \"--CODEGEN--\":194:206   */\n      add\n        /* \"--CODEGEN--\":179:228   */\n      returndatacopy\n        /* \"--CODEGEN--\":5:233   */\n      jump(tag_111)\n        /* \"--CODEGEN--\":14:41   */\n    tag_112:\n        /* \"--CODEGEN--\":32:36   */\n      0x60\n        /* \"--CODEGEN--\":27:36   */\n      swap2\n      pop\n        /* \"--CODEGEN--\":5:233   */\n    tag_111:\n      pop\n        /* \"Users/leilei/Downloads/VRFCoordinator/VRFCoordinator.sol\":8715:8760  (bool success,) = consumerContract.call(resp) */\n      pop\n      swap1\n      pop\n        /* \"Users/leilei/Downloads/VRFCoordinator/VRFCoordinator.sol\":7547:8936  function callBackWithRandomness(bytes32 requestId, uint256 randomness,... */\n      pop\n      pop\n      pop\n      pop\n      pop\n      pop\n      pop\n      jump\t// out\n        /* \"Users/leilei/Downloads/VRFCoordinator/VRFCoordinator.sol\":5243:6209  function randomnessRequest(... */\n    tag_65:\n        /* \"Users/leilei/Downloads/VRFCoordinator/VRFCoordinator.sol\":5398:5406  _feePaid */\n      dup2\n        /* \"Users/leilei/Downloads/VRFCoordinator/VRFCoordinator.sol\":5408:5416  _keyHash */\n      dup5\n        /* \"Users/leilei/Downloads/VRFCoordinator/VRFCoordinator.sol\":11862:11879  serviceAgreements */\n      0x03\n        /* \"Users/leilei/Downloads/VRFCoordinator/VRFCoordinator.sol\":11862:11889  serviceAgreements[_keyHash] */\n      0x00\n        /* \"Users/leilei/Downloads/VRFCoordinator/VRFCoordinator.sol\":11880:11888  _keyHash */\n      dup3\n        /* \"Users/leilei/Downloads/VRFCoordinator/VRFCoordinator.sol\":11862:11889  serviceAgreements[_keyHash] */\n      dup2\n      mstore\n      0x20\n      add\n      swap1\n      dup2\n      mstore\n      0x20\n      add\n      0x00\n      keccak256\n        /* \"Users/leilei/Downloads/VRFCoordinator/VRFCoordinator.sol\":11862:11893  serviceAgreements[_keyHash].fee */\n      0x00\n      add\n      0x14\n      swap1\n      sload\n      swap1\n      0x0100\n      exp\n      swap1\n      div\n      0xffffffffffffffffffffffff\n      and\n        /* \"Users/leilei/Downloads/VRFCoordinator/VRFCoordinator.sol\":11850:11893  _feePaid >= serviceAgreements[_keyHash].fee */\n      0xffffffffffffffffffffffff\n      and\n        /* \"Users/leilei/Downloads/VRFCoordinator/VRFCoordinator.sol\":11850:11858  _feePaid */\n      dup3\n        /* \"Users/leilei/Downloads/VRFCoordinator/VRFCoordinator.sol\":11850:11893  _feePaid >= serviceAgreements[_keyHash].fee */\n      lt\n      iszero\n        /* \"Users/leilei/Downloads/VRFCoordinator/VRFCoordinator.sol\":11842:11918  require(_feePaid >= serviceAgreements[_keyHash].fee, \"Below agreed payment\") */\n      tag_114\n      jumpi\n      mload(0x40)\n      0x08c379a000000000000000000000000000000000000000000000000000000000\n      dup2\n      mstore\n      0x04\n      add\n      dup1\n      dup1\n      0x20\n      add\n      dup3\n      dup2\n      sub\n      dup3\n      mstore\n      0x14\n      dup2\n      mstore\n      0x20\n      add\n      dup1\n      0x42656c6f7720616772656564207061796d656e74000000000000000000000000\n      dup2\n      mstore\n      pop\n      0x20\n      add\n      swap2\n      pop\n      pop\n      mload(0x40)\n      dup1\n      swap2\n      sub\n      swap1\n      revert\n    tag_114:\n        /* \"Users/leilei/Downloads/VRFCoordinator/VRFCoordinator.sol\":5426:5439  uint256 nonce */\n      0x00\n        /* \"Users/leilei/Downloads/VRFCoordinator/VRFCoordinator.sol\":5442:5448  nonces */\n      0x05\n        /* \"Users/leilei/Downloads/VRFCoordinator/VRFCoordinator.sol\":5442:5458  nonces[_keyHash] */\n      0x00\n        /* \"Users/leilei/Downloads/VRFCoordinator/VRFCoordinator.sol\":5449:5457  _keyHash */\n      dup9\n        /* \"Users/leilei/Downloads/VRFCoordinator/VRFCoordinator.sol\":5442:5458  nonces[_keyHash] */\n      dup2\n      mstore\n      0x20\n      add\n      swap1\n      dup2\n      mstore\n      0x20\n      add\n      0x00\n      keccak256\n        /* \"Users/leilei/Downloads/VRFCoordinator/VRFCoordinator.sol\":5442:5467  nonces[_keyHash][_sender] */\n      0x00\n        /* \"Users/leilei/Downloads/VRFCoordinator/VRFCoordinator.sol\":5459:5466  _sender */\n      dup6\n        /* \"Users/leilei/Downloads/VRFCoordinator/VRFCoordinator.sol\":5442:5467  nonces[_keyHash][_sender] */\n      0xffffffffffffffffffffffffffffffffffffffff\n      and\n      0xffffffffffffffffffffffffffffffffffffffff\n      and\n      dup2\n      mstore\n      0x20\n      add\n      swap1\n      dup2\n      mstore\n      0x20\n      add\n      0x00\n      keccak256\n      sload\n        /* \"Users/leilei/Downloads/VRFCoordinator/VRFCoordinator.sol\":5426:5467  uint256 nonce = nonces[_keyHash][_sender] */\n      swap1\n      pop\n        /* \"Users/leilei/Downloads/VRFCoordinator/VRFCoordinator.sol\":5473:5488  uint256 preSeed */\n      0x00\n        /* \"Users/leilei/Downloads/VRFCoordinator/VRFCoordinator.sol\":5491:5548  makeVRFInputSeed(_keyHash, _consumerSeed, _sender, nonce) */\n      tag_116\n        /* \"Users/leilei/Downloads/VRFCoordinator/VRFCoordinator.sol\":5508:5516  _keyHash */\n      dup9\n        /* \"Users/leilei/Downloads/VRFCoordinator/VRFCoordinator.sol\":5518:5531  _consumerSeed */\n      dup9\n        /* \"Users/leilei/Downloads/VRFCoordinator/VRFCoordinator.sol\":5533:5540  _sender */\n      dup8\n        /* \"Users/leilei/Downloads/VRFCoordinator/VRFCoordinator.sol\":5542:5547  nonce */\n      dup6\n        /* \"Users/leilei/Downloads/VRFCoordinator/VRFCoordinator.sol\":5491:5507  makeVRFInputSeed */\n      tag_117\n        /* \"Users/leilei/Downloads/VRFCoordinator/VRFCoordinator.sol\":5491:5548  makeVRFInputSeed(_keyHash, _consumerSeed, _sender, nonce) */\n      jump\t// in\n    tag_116:\n        /* \"Users/leilei/Downloads/VRFCoordinator/VRFCoordinator.sol\":5473:5548  uint256 preSeed = makeVRFInputSeed(_keyHash, _consumerSeed, _sender, nonce) */\n      swap1\n      pop\n        /* \"Users/leilei/Downloads/VRFCoordinator/VRFCoordinator.sol\":5554:5571  bytes32 requestId */\n      0x00\n        /* \"Users/leilei/Downloads/VRFCoordinator/VRFCoordinator.sol\":5574:5606  makeRequestId(_keyHash, preSeed) */\n      tag_118\n        /* \"Users/leilei/Downloads/VRFCoordinator/VRFCoordinator.sol\":5588:5596  _keyHash */\n      dup10\n        /* \"Users/leilei/Downloads/VRFCoordinator/VRFCoordinator.sol\":5598:5605  preSeed */\n      dup4\n        /* \"Users/leilei/Downloads/VRFCoordinator/VRFCoordinator.sol\":5574:5587  makeRequestId */\n      tag_92\n        /* \"Users/leilei/Downloads/VRFCoordinator/VRFCoordinator.sol\":5574:5606  makeRequestId(_keyHash, preSeed) */\n      jump\t// in\n    tag_118:\n        /* \"Users/leilei/Downloads/VRFCoordinator/VRFCoordinator.sol\":5554:5606  bytes32 requestId = makeRequestId(_keyHash, preSeed) */\n      swap1\n      pop\n        /* \"Users/leilei/Downloads/VRFCoordinator/VRFCoordinator.sol\":5745:5746  0 */\n      0x00\n        /* \"Users/leilei/Downloads/VRFCoordinator/VRFCoordinator.sol\":5696:5747  callbacks[requestId].callbackContract == address(0) */\n      0xffffffffffffffffffffffffffffffffffffffff\n      and\n        /* \"Users/leilei/Downloads/VRFCoordinator/VRFCoordinator.sol\":5696:5705  callbacks */\n      0x02\n        /* \"Users/leilei/Downloads/VRFCoordinator/VRFCoordinator.sol\":5696:5716  callbacks[requestId] */\n      0x00\n        /* \"Users/leilei/Downloads/VRFCoordinator/VRFCoordinator.sol\":5706:5715  requestId */\n      dup4\n        /* \"Users/leilei/Downloads/VRFCoordinator/VRFCoordinator.sol\":5696:5716  callbacks[requestId] */\n      dup2\n      mstore\n      0x20\n      add\n      swap1\n      dup2\n      mstore\n      0x20\n      add\n      0x00\n      keccak256\n        /* \"Users/leilei/Downloads/VRFCoordinator/VRFCoordinator.sol\":5696:5733  callbacks[requestId].callbackContract */\n      0x00\n      add\n      0x00\n      swap1\n      sload\n      swap1\n      0x0100\n      exp\n      swap1\n      div\n      0xffffffffffffffffffffffffffffffffffffffff\n      and\n        /* \"Users/leilei/Downloads/VRFCoordinator/VRFCoordinator.sol\":5696:5747  callbacks[requestId].callbackContract == address(0) */\n      0xffffffffffffffffffffffffffffffffffffffff\n      and\n      eq\n        /* \"Users/leilei/Downloads/VRFCoordinator/VRFCoordinator.sol\":5689:5748  assert(callbacks[requestId].callbackContract == address(0)) */\n      tag_119\n      jumpi\n      invalid\n    tag_119:\n        /* \"Users/leilei/Downloads/VRFCoordinator/VRFCoordinator.sol\":5794:5801  _sender */\n      dup6\n        /* \"Users/leilei/Downloads/VRFCoordinator/VRFCoordinator.sol\":5754:5763  callbacks */\n      0x02\n        /* \"Users/leilei/Downloads/VRFCoordinator/VRFCoordinator.sol\":5754:5774  callbacks[requestId] */\n      0x00\n        /* \"Users/leilei/Downloads/VRFCoordinator/VRFCoordinator.sol\":5764:5773  requestId */\n      dup4\n        /* \"Users/leilei/Downloads/VRFCoordinator/VRFCoordinator.sol\":5754:5774  callbacks[requestId] */\n      dup2\n      mstore\n      0x20\n      add\n      swap1\n      dup2\n      mstore\n      0x20\n      add\n      0x00\n      keccak256\n        /* \"Users/leilei/Downloads/VRFCoordinator/VRFCoordinator.sol\":5754:5791  callbacks[requestId].callbackContract */\n      0x00\n      add\n      0x00\n        /* \"Users/leilei/Downloads/VRFCoordinator/VRFCoordinator.sol\":5754:5801  callbacks[requestId].callbackContract = _sender */\n      0x0100\n      exp\n      dup2\n      sload\n      dup2\n      0xffffffffffffffffffffffffffffffffffffffff\n      mul\n      not\n      and\n      swap1\n      dup4\n      0xffffffffffffffffffffffffffffffffffffffff\n      and\n      mul\n      or\n      swap1\n      sstore\n      pop\n        /* \"Users/leilei/Downloads/VRFCoordinator/VRFCoordinator.sol\":5825:5829  1e27 */\n      0x033b2e3c9fd0803ce8000000\n        /* \"Users/leilei/Downloads/VRFCoordinator/VRFCoordinator.sol\":5814:5822  _feePaid */\n      dup8\n        /* \"Users/leilei/Downloads/VRFCoordinator/VRFCoordinator.sol\":5814:5829  _feePaid < 1e27 */\n      lt\n        /* \"Users/leilei/Downloads/VRFCoordinator/VRFCoordinator.sol\":5807:5830  assert(_feePaid < 1e27) */\n      tag_120\n      jumpi\n      invalid\n    tag_120:\n        /* \"Users/leilei/Downloads/VRFCoordinator/VRFCoordinator.sol\":5909:5917  _feePaid */\n      dup7\n        /* \"Users/leilei/Downloads/VRFCoordinator/VRFCoordinator.sol\":5865:5874  callbacks */\n      0x02\n        /* \"Users/leilei/Downloads/VRFCoordinator/VRFCoordinator.sol\":5865:5885  callbacks[requestId] */\n      0x00\n        /* \"Users/leilei/Downloads/VRFCoordinator/VRFCoordinator.sol\":5875:5884  requestId */\n      dup4\n        /* \"Users/leilei/Downloads/VRFCoordinator/VRFCoordinator.sol\":5865:5885  callbacks[requestId] */\n      dup2\n      mstore\n      0x20\n      add\n      swap1\n      dup2\n      mstore\n      0x20\n      add\n      0x00\n      keccak256\n        /* \"Users/leilei/Downloads/VRFCoordinator/VRFCoordinator.sol\":5865:5899  callbacks[requestId].randomnessFee */\n      0x00\n      add\n      0x14\n        /* \"Users/leilei/Downloads/VRFCoordinator/VRFCoordinator.sol\":5865:5918  callbacks[requestId].randomnessFee = uint96(_feePaid) */\n      0x0100\n      exp\n      dup2\n      sload\n      dup2\n      0xffffffffffffffffffffffff\n      mul\n      not\n      and\n      swap1\n      dup4\n      0xffffffffffffffffffffffff\n      and\n      mul\n      or\n      swap1\n      sstore\n      pop\n        /* \"Users/leilei/Downloads/VRFCoordinator/VRFCoordinator.sol\":5997:6004  preSeed */\n      dup2\n        /* \"Users/leilei/Downloads/VRFCoordinator/VRFCoordinator.sol\":6006:6018  block.number */\n      number\n        /* \"Users/leilei/Downloads/VRFCoordinator/VRFCoordinator.sol\":5973:6019  abi.encodePacked(... */\n      add(0x20, mload(0x40))\n      dup1\n      dup4\n      dup2\n      mstore\n      0x20\n      add\n      dup3\n      dup2\n      mstore\n      0x20\n      add\n      swap3\n      pop\n      pop\n      pop\n      mload(0x40)\n        /* \"--CODEGEN--\":49:53   */\n      0x20\n        /* \"--CODEGEN--\":39:46   */\n      dup2\n        /* \"--CODEGEN--\":30:37   */\n      dup4\n        /* \"--CODEGEN--\":26:47   */\n      sub\n        /* \"--CODEGEN--\":22:54   */\n      sub\n        /* \"--CODEGEN--\":13:20   */\n      dup2\n        /* \"--CODEGEN--\":6:55   */\n      mstore\n        /* \"Users/leilei/Downloads/VRFCoordinator/VRFCoordinator.sol\":5973:6019  abi.encodePacked(... */\n      swap1\n      0x40\n      mstore\n        /* \"Users/leilei/Downloads/VRFCoordinator/VRFCoordinator.sol\":5963:6020  keccak256(abi.encodePacked(... */\n      dup1\n      mload\n      swap1\n      0x20\n      add\n      keccak256\n        /* \"Users/leilei/Downloads/VRFCoordinator/VRFCoordinator.sol\":5924:5933  callbacks */\n      0x02\n        /* \"Users/leilei/Downloads/VRFCoordinator/VRFCoordinator.sol\":5924:5944  callbacks[requestId] */\n      0x00\n        /* \"Users/leilei/Downloads/VRFCoordinator/VRFCoordinator.sol\":5934:5943  requestId */\n      dup4\n        /* \"Users/leilei/Downloads/VRFCoordinator/VRFCoordinator.sol\":5924:5944  callbacks[requestId] */\n      dup2\n      mstore\n      0x20\n      add\n      swap1\n      dup2\n      mstore\n      0x20\n      add\n      0x00\n      keccak256\n        /* \"Users/leilei/Downloads/VRFCoordinator/VRFCoordinator.sol\":5924:5960  callbacks[requestId].seedAndBlockNum */\n      0x01\n      add\n        /* \"Users/leilei/Downloads/VRFCoordinator/VRFCoordinator.sol\":5924:6020  callbacks[requestId].seedAndBlockNum = keccak256(abi.encodePacked(... */\n      dup2\n      swap1\n      sstore\n      pop\n        /* \"Users/leilei/Downloads/VRFCoordinator/VRFCoordinator.sol\":6068:6085  serviceAgreements */\n      0x03\n        /* \"Users/leilei/Downloads/VRFCoordinator/VRFCoordinator.sol\":6068:6095  serviceAgreements[_keyHash] */\n      0x00\n        /* \"Users/leilei/Downloads/VRFCoordinator/VRFCoordinator.sol\":6086:6094  _keyHash */\n      dup11\n        /* \"Users/leilei/Downloads/VRFCoordinator/VRFCoordinator.sol\":6068:6095  serviceAgreements[_keyHash] */\n      dup2\n      mstore\n      0x20\n      add\n      swap1\n      dup2\n      mstore\n      0x20\n      add\n      0x00\n      keccak256\n        /* \"Users/leilei/Downloads/VRFCoordinator/VRFCoordinator.sol\":6068:6101  serviceAgreements[_keyHash].jobID */\n      0x01\n      add\n      sload\n        /* \"Users/leilei/Downloads/VRFCoordinator/VRFCoordinator.sol\":6031:6138  RandomnessRequest(_keyHash, preSeed, serviceAgreements[_keyHash].jobID,... */\n      0x56bd374744a66d531874338def36c906e3a6cf31176eb1e9afd9f1de69725d51\n        /* \"Users/leilei/Downloads/VRFCoordinator/VRFCoordinator.sol\":6049:6057  _keyHash */\n      dup11\n        /* \"Users/leilei/Downloads/VRFCoordinator/VRFCoordinator.sol\":6059:6066  preSeed */\n      dup5\n        /* \"Users/leilei/Downloads/VRFCoordinator/VRFCoordinator.sol\":6109:6116  _sender */\n      dup10\n        /* \"Users/leilei/Downloads/VRFCoordinator/VRFCoordinator.sol\":6118:6126  _feePaid */\n      dup12\n        /* \"Users/leilei/Downloads/VRFCoordinator/VRFCoordinator.sol\":6128:6137  requestId */\n      dup7\n        /* \"Users/leilei/Downloads/VRFCoordinator/VRFCoordinator.sol\":6031:6138  RandomnessRequest(_keyHash, preSeed, serviceAgreements[_keyHash].jobID,... */\n      mload(0x40)\n      dup1\n      dup7\n      dup2\n      mstore\n      0x20\n      add\n      dup6\n      dup2\n      mstore\n      0x20\n      add\n      dup5\n      0xffffffffffffffffffffffffffffffffffffffff\n      and\n      0xffffffffffffffffffffffffffffffffffffffff\n      and\n      dup2\n      mstore\n      0x20\n      add\n      dup4\n      dup2\n      mstore\n      0x20\n      add\n      dup3\n      dup2\n      mstore\n      0x20\n      add\n      swap6\n      pop\n      pop\n      pop\n      pop\n      pop\n      pop\n      mload(0x40)\n      dup1\n      swap2\n      sub\n      swap1\n      log2\n        /* \"Users/leilei/Downloads/VRFCoordinator/VRFCoordinator.sol\":6172:6204  nonces[_keyHash][_sender].add(1) */\n      tag_121\n        /* \"Users/leilei/Downloads/VRFCoordinator/VRFCoordinator.sol\":6202:6203  1 */\n      0x01\n        /* \"Users/leilei/Downloads/VRFCoordinator/VRFCoordinator.sol\":6172:6178  nonces */\n      0x05\n        /* \"Users/leilei/Downloads/VRFCoordinator/VRFCoordinator.sol\":6172:6188  nonces[_keyHash] */\n      0x00\n        /* \"Users/leilei/Downloads/VRFCoordinator/VRFCoordinator.sol\":6179:6187  _keyHash */\n      dup13\n        /* \"Users/leilei/Downloads/VRFCoordinator/VRFCoordinator.sol\":6172:6188  nonces[_keyHash] */\n      dup2\n      mstore\n      0x20\n      add\n      swap1\n      dup2\n      mstore\n      0x20\n      add\n      0x00\n      keccak256\n        /* \"Users/leilei/Downloads/VRFCoordinator/VRFCoordinator.sol\":6172:6197  nonces[_keyHash][_sender] */\n      0x00\n        /* \"Users/leilei/Downloads/VRFCoordinator/VRFCoordinator.sol\":6189:6196  _sender */\n      dup10\n        /* \"Users/leilei/Downloads/VRFCoordinator/VRFCoordinator.sol\":6172:6197  nonces[_keyHash][_sender] */\n      0xffffffffffffffffffffffffffffffffffffffff\n      and\n      0xffffffffffffffffffffffffffffffffffffffff\n      and\n      dup2\n      mstore\n      0x20\n      add\n      swap1\n      dup2\n      mstore\n      0x20\n      add\n      0x00\n      keccak256\n      sload\n        /* \"Users/leilei/Downloads/VRFCoordinator/VRFCoordinator.sol\":6172:6201  nonces[_keyHash][_sender].add */\n      tag_57\n      swap1\n        /* \"Users/leilei/Downloads/VRFCoordinator/VRFCoordinator.sol\":6172:6204  nonces[_keyHash][_sender].add(1) */\n      swap2\n      swap1\n      0xffffffff\n      and\n      jump\t// in\n    tag_121:\n        /* \"Users/leilei/Downloads/VRFCoordinator/VRFCoordinator.sol\":6144:6150  nonces */\n      0x05\n        /* \"Users/leilei/Downloads/VRFCoordinator/VRFCoordinator.sol\":6144:6160  nonces[_keyHash] */\n      0x00\n        /* \"Users/leilei/Downloads/VRFCoordinator/VRFCoordinator.sol\":6151:6159  _keyHash */\n      dup12\n        /* \"Users/leilei/Downloads/VRFCoordinator/VRFCoordinator.sol\":6144:6160  nonces[_keyHash] */\n      dup2\n      mstore\n      0x20\n      add\n      swap1\n      dup2\n      mstore\n      0x20\n      add\n      0x00\n      keccak256\n        /* \"Users/leilei/Downloads/VRFCoordinator/VRFCoordinator.sol\":6144:6169  nonces[_keyHash][_sender] */\n      0x00\n        /* \"Users/leilei/Downloads/VRFCoordinator/VRFCoordinator.sol\":6161:6168  _sender */\n      dup9\n        /* \"Users/leilei/Downloads/VRFCoordinator/VRFCoordinator.sol\":6144:6169  nonces[_keyHash][_sender] */\n      0xffffffffffffffffffffffffffffffffffffffff\n      and\n      0xffffffffffffffffffffffffffffffffffffffff\n      and\n      dup2\n      mstore\n      0x20\n      add\n      swap1\n      dup2\n      mstore\n      0x20\n      add\n      0x00\n      keccak256\n        /* \"Users/leilei/Downloads/VRFCoordinator/VRFCoordinator.sol\":6144:6204  nonces[_keyHash][_sender] = nonces[_keyHash][_sender].add(1) */\n      dup2\n      swap1\n      sstore\n      pop\n        /* \"Users/leilei/Downloads/VRFCoordinator/VRFCoordinator.sol\":11924:11925  _ */\n      pop\n      pop\n      pop\n        /* \"Users/leilei/Downloads/VRFCoordinator/VRFCoordinator.sol\":5243:6209  function randomnessRequest(... */\n      pop\n      pop\n      pop\n      pop\n      pop\n      pop\n      jump\t// out\n        /* \"Users/leilei/Downloads/VRFCoordinator/SafeMath.sol\":1236:1401  function sub(uint256 a, uint256 b) internal pure returns (uint256) {... */\n    tag_79:\n        /* \"Users/leilei/Downloads/VRFCoordinator/SafeMath.sol\":1294:1301  uint256 */\n      0x00\n        /* \"Users/leilei/Downloads/VRFCoordinator/SafeMath.sol\":1322:1323  a */\n      dup3\n        /* \"Users/leilei/Downloads/VRFCoordinator/SafeMath.sol\":1317:1318  b */\n      dup3\n        /* \"Users/leilei/Downloads/VRFCoordinator/SafeMath.sol\":1317:1323  b <= a */\n      gt\n      iszero\n        /* \"Users/leilei/Downloads/VRFCoordinator/SafeMath.sol\":1309:1358  require(b <= a, \"SafeMath: subtraction overflow\") */\n      tag_123\n      jumpi\n      mload(0x40)\n      0x08c379a000000000000000000000000000000000000000000000000000000000\n      dup2\n      mstore\n      0x04\n      add\n      dup1\n      dup1\n      0x20\n      add\n      dup3\n      dup2\n      sub\n      dup3\n      mstore\n      0x1e\n      dup2\n      mstore\n      0x20\n      add\n      dup1\n      0x536166654d6174683a207375627472616374696f6e206f766572666c6f770000\n      dup2\n      mstore\n      pop\n      0x20\n      add\n      swap2\n      pop\n      pop\n      mload(0x40)\n      dup1\n      swap2\n      sub\n      swap1\n      revert\n    tag_123:\n        /* \"Users/leilei/Downloads/VRFCoordinator/SafeMath.sol\":1364:1373  uint256 c */\n      0x00\n        /* \"Users/leilei/Downloads/VRFCoordinator/SafeMath.sol\":1380:1381  b */\n      dup3\n        /* \"Users/leilei/Downloads/VRFCoordinator/SafeMath.sol\":1376:1377  a */\n      dup5\n        /* \"Users/leilei/Downloads/VRFCoordinator/SafeMath.sol\":1376:1381  a - b */\n      sub\n        /* \"Users/leilei/Downloads/VRFCoordinator/SafeMath.sol\":1364:1381  uint256 c = a - b */\n      swap1\n      pop\n        /* \"Users/leilei/Downloads/VRFCoordinator/SafeMath.sol\":1395:1396  c */\n      dup1\n        /* \"Users/leilei/Downloads/VRFCoordinator/SafeMath.sol\":1388:1396  return c */\n      swap2\n      pop\n      pop\n        /* \"Users/leilei/Downloads/VRFCoordinator/SafeMath.sol\":1236:1401  function sub(uint256 a, uint256 b) internal pure returns (uint256) {... */\n      swap3\n      swap2\n      pop\n      pop\n      jump\t// out\n        /* \"Users/leilei/Downloads/VRFCoordinator/VRFRequestIDBase.sol\":1376:1547  function makeRequestId(... */\n    tag_92:\n        /* \"Users/leilei/Downloads/VRFCoordinator/VRFRequestIDBase.sol\":1468:1475  bytes32 */\n      0x00\n        /* \"Users/leilei/Downloads/VRFCoordinator/VRFRequestIDBase.sol\":1517:1525  _keyHash */\n      dup3\n        /* \"Users/leilei/Downloads/VRFCoordinator/VRFRequestIDBase.sol\":1527:1540  _vRFInputSeed */\n      dup3\n        /* \"Users/leilei/Downloads/VRFCoordinator/VRFRequestIDBase.sol\":1500:1541  abi.encodePacked(_keyHash, _vRFInputSeed) */\n      add(0x20, mload(0x40))\n      dup1\n      dup4\n      dup2\n      mstore\n      0x20\n      add\n      dup3\n      dup2\n      mstore\n      0x20\n      add\n      swap3\n      pop\n      pop\n      pop\n      mload(0x40)\n        /* \"--CODEGEN--\":49:53   */\n      0x20\n        /* \"--CODEGEN--\":39:46   */\n      dup2\n        /* \"--CODEGEN--\":30:37   */\n      dup4\n        /* \"--CODEGEN--\":26:47   */\n      sub\n        /* \"--CODEGEN--\":22:54   */\n      sub\n        /* \"--CODEGEN--\":13:20   */\n      dup2\n        /* \"--CODEGEN--\":6:55   */\n      mstore\n        /* \"Users/leilei/Downloads/VRFCoordinator/VRFRequestIDBase.sol\":1500:1541  abi.encodePacked(_keyHash, _vRFInputSeed) */\n      swap1\n      0x40\n      mstore\n        /* \"Users/leilei/Downloads/VRFCoordinator/VRFRequestIDBase.sol\":1490:1542  keccak256(abi.encodePacked(_keyHash, _vRFInputSeed)) */\n      dup1\n      mload\n      swap1\n      0x20\n      add\n      keccak256\n        /* \"Users/leilei/Downloads/VRFCoordinator/VRFRequestIDBase.sol\":1483:1542  return keccak256(abi.encodePacked(_keyHash, _vRFInputSeed)) */\n      swap1\n      pop\n        /* \"Users/leilei/Downloads/VRFCoordinator/VRFRequestIDBase.sol\":1376:1547  function makeRequestId(... */\n      swap3\n      swap2\n      pop\n      pop\n      jump\t// out\n        /* \"Users/leilei/Downloads/VRFCoordinator/VRF.sol\":25549:26546  function randomValueFromVRFProof(bytes memory proof)... */\n    tag_102:\n        /* \"Users/leilei/Downloads/VRFCoordinator/VRF.sol\":25629:25643  uint256 output */\n      0x00\n        /* \"Users/leilei/Downloads/VRFCoordinator/VRF.sol\":24630:24945  64 + // PublicKey (uncompressed format.)... */\n      0x01a0\n        /* \"Users/leilei/Downloads/VRFCoordinator/VRF.sol\":25661:25666  proof */\n      dup3\n        /* \"Users/leilei/Downloads/VRFCoordinator/VRF.sol\":25661:25673  proof.length */\n      mload\n        /* \"Users/leilei/Downloads/VRFCoordinator/VRF.sol\":25661:25689  proof.length == PROOF_LENGTH */\n      eq\n        /* \"Users/leilei/Downloads/VRFCoordinator/VRF.sol\":25653:25712  require(proof.length == PROOF_LENGTH, \"wrong proof length\") */\n      tag_126\n      jumpi\n      mload(0x40)\n      0x08c379a000000000000000000000000000000000000000000000000000000000\n      dup2\n      mstore\n      0x04\n      add\n      dup1\n      dup1\n      0x20\n      add\n      dup3\n      dup2\n      sub\n      dup3\n      mstore\n      0x12\n      dup2\n      mstore\n      0x20\n      add\n      dup1\n      0x77726f6e672070726f6f66206c656e6774680000000000000000000000000000\n      dup2\n      mstore\n      pop\n      0x20\n      add\n      swap2\n      pop\n      pop\n      mload(0x40)\n      dup1\n      swap2\n      sub\n      swap1\n      revert\n    tag_126:\n        /* \"Users/leilei/Downloads/VRFCoordinator/VRF.sol\":25721:25741  uint256[2] memory pk */\n      tag_127\n      tag_89\n      jump\t// in\n    tag_127:\n        /* \"Users/leilei/Downloads/VRFCoordinator/VRF.sol\":25794:25817  uint256[2] memory gamma */\n      tag_128\n      tag_89\n      jump\t// in\n    tag_128:\n        /* \"Users/leilei/Downloads/VRFCoordinator/VRF.sol\":25903:25927  uint256[3] memory cSSeed */\n      tag_129\n      tag_130\n      jump\t// in\n    tag_129:\n        /* \"Users/leilei/Downloads/VRFCoordinator/VRF.sol\":25935:25951  address uWitness */\n      0x00\n        /* \"Users/leilei/Downloads/VRFCoordinator/VRF.sol\":25959:25990  uint256[2] memory cGammaWitness */\n      tag_131\n      tag_89\n      jump\t// in\n    tag_131:\n        /* \"Users/leilei/Downloads/VRFCoordinator/VRF.sol\":25998:26028  uint256[2] memory sHashWitness */\n      tag_132\n      tag_89\n      jump\t// in\n    tag_132:\n        /* \"Users/leilei/Downloads/VRFCoordinator/VRF.sol\":26036:26048  uint256 zInv */\n      0x00\n        /* \"Users/leilei/Downloads/VRFCoordinator/VRF.sol\":26143:26148  proof */\n      dup9\n        /* \"Users/leilei/Downloads/VRFCoordinator/VRF.sol\":26123:26245  abi.decode(... */\n      dup1\n      0x20\n      add\n      swap1\n      mload\n        /* \"--CODEGEN--\":15:18   */\n      0x01a0\n        /* \"--CODEGEN--\":10:13   */\n      dup2\n        /* \"--CODEGEN--\":7:19   */\n      lt\n        /* \"--CODEGEN--\":4:6   */\n      iszero\n      tag_133\n      jumpi\n        /* \"--CODEGEN--\":32:33   */\n      0x00\n        /* \"--CODEGEN--\":29:30   */\n      dup1\n        /* \"--CODEGEN--\":22:34   */\n      revert\n        /* \"--CODEGEN--\":4:6   */\n    tag_133:\n        /* \"Users/leilei/Downloads/VRFCoordinator/VRF.sol\":26123:26245  abi.decode(... */\n      dup2\n      add\n      swap1\n      dup1\n      swap2\n      swap1\n      dup3\n      0x40\n      add\n      swap2\n      swap1\n      dup3\n      0x40\n      add\n      swap2\n      swap1\n      dup3\n      0x60\n      add\n      dup1\n      mload\n      swap1\n      0x20\n      add\n      swap1\n      swap3\n      swap2\n      swap1\n      swap2\n      swap1\n      dup3\n      0x40\n      add\n      swap2\n      swap1\n      dup3\n      0x40\n      add\n      dup1\n      mload\n      swap1\n      0x20\n      add\n      swap1\n      swap3\n      swap2\n      swap1\n      pop\n      pop\n      pop\n        /* \"Users/leilei/Downloads/VRFCoordinator/VRF.sol\":26056:26245  (pk, gamma, cSSeed, uWitness, cGammaWitness, sHashWitness, zInv) = abi.decode(... */\n      dup4\n      swap4\n      pop\n      dup1\n      swap8\n      pop\n      dup2\n      swap9\n      pop\n      dup3\n      swap10\n      pop\n      dup4\n      swap11\n      pop\n      dup5\n      swap12\n      pop\n      dup6\n      swap13\n      pop\n      dup7\n      swap14\n      pop\n      pop\n      pop\n      pop\n      pop\n      pop\n      pop\n      pop\n        /* \"Users/leilei/Downloads/VRFCoordinator/VRF.sol\":26253:26454  verifyVRFProof(... */\n      tag_134\n        /* \"Users/leilei/Downloads/VRFCoordinator/VRF.sol\":26277:26279  pk */\n      dup8\n        /* \"Users/leilei/Downloads/VRFCoordinator/VRF.sol\":26289:26294  gamma */\n      dup8\n        /* \"Users/leilei/Downloads/VRFCoordinator/VRF.sol\":26304:26310  cSSeed */\n      dup8\n        /* \"Users/leilei/Downloads/VRFCoordinator/VRF.sol\":26311:26312  0 */\n      0x00\n        /* \"Users/leilei/Downloads/VRFCoordinator/VRF.sol\":26304:26313  cSSeed[0] */\n      0x03\n      dup2\n      lt\n      tag_135\n      jumpi\n      invalid\n    tag_135:\n      0x20\n      mul\n      add\n      mload\n        /* \"Users/leilei/Downloads/VRFCoordinator/VRF.sol\":26328:26334  cSSeed */\n      dup9\n        /* \"Users/leilei/Downloads/VRFCoordinator/VRF.sol\":26335:26336  1 */\n      0x01\n        /* \"Users/leilei/Downloads/VRFCoordinator/VRF.sol\":26328:26337  cSSeed[1] */\n      0x03\n      dup2\n      lt\n      tag_136\n      jumpi\n      invalid\n    tag_136:\n      0x20\n      mul\n      add\n      mload\n        /* \"Users/leilei/Downloads/VRFCoordinator/VRF.sol\":26352:26358  cSSeed */\n      dup10\n        /* \"Users/leilei/Downloads/VRFCoordinator/VRF.sol\":26359:26360  2 */\n      0x02\n        /* \"Users/leilei/Downloads/VRFCoordinator/VRF.sol\":26352:26361  cSSeed[2] */\n      0x03\n      dup2\n      lt\n      tag_137\n      jumpi\n      invalid\n    tag_137:\n      0x20\n      mul\n      add\n      mload\n        /* \"Users/leilei/Downloads/VRFCoordinator/VRF.sol\":26379:26387  uWitness */\n      dup10\n        /* \"Users/leilei/Downloads/VRFCoordinator/VRF.sol\":26397:26410  cGammaWitness */\n      dup10\n        /* \"Users/leilei/Downloads/VRFCoordinator/VRF.sol\":26420:26432  sHashWitness */\n      dup10\n        /* \"Users/leilei/Downloads/VRFCoordinator/VRF.sol\":26442:26446  zInv */\n      dup10\n        /* \"Users/leilei/Downloads/VRFCoordinator/VRF.sol\":26253:26267  verifyVRFProof */\n      tag_138\n        /* \"Users/leilei/Downloads/VRFCoordinator/VRF.sol\":26253:26454  verifyVRFProof(... */\n      jump\t// in\n    tag_134:\n        /* \"Users/leilei/Downloads/VRFCoordinator/VRF.sol\":24519:24520  3 */\n      0x03\n        /* \"Users/leilei/Downloads/VRFCoordinator/VRF.sol\":26531:26536  gamma */\n      dup7\n        /* \"Users/leilei/Downloads/VRFCoordinator/VRF.sol\":26489:26537  abi.encode(VRF_RANDOM_OUTPUT_HASH_PREFIX, gamma) */\n      add(0x20, mload(0x40))\n      dup1\n      dup4\n      dup2\n      mstore\n      0x20\n      add\n      dup3\n      mul(0x20, 0x02)\n      dup1\n      dup4\n      dup4\n        /* \"--CODEGEN--\":23:24   */\n      0x00\n        /* \"--CODEGEN--\":8:108   */\n    tag_139:\n        /* \"--CODEGEN--\":33:36   */\n      dup4\n        /* \"--CODEGEN--\":30:31   */\n      dup2\n        /* \"--CODEGEN--\":27:37   */\n      lt\n        /* \"--CODEGEN--\":8:108   */\n      iszero\n      tag_141\n      jumpi\n        /* \"--CODEGEN--\":99:100   */\n      dup1\n        /* \"--CODEGEN--\":94:97   */\n      dup3\n        /* \"--CODEGEN--\":90:101   */\n      add\n        /* \"--CODEGEN--\":84:102   */\n      mload\n        /* \"--CODEGEN--\":80:81   */\n      dup2\n        /* \"--CODEGEN--\":75:78   */\n      dup5\n        /* \"--CODEGEN--\":71:82   */\n      add\n        /* \"--CODEGEN--\":64:103   */\n      mstore\n        /* \"--CODEGEN--\":52:54   */\n      0x20\n        /* \"--CODEGEN--\":49:50   */\n      dup2\n        /* \"--CODEGEN--\":45:55   */\n      add\n        /* \"--CODEGEN--\":40:55   */\n      swap1\n      pop\n        /* \"--CODEGEN--\":8:108   */\n      jump(tag_139)\n    tag_141:\n        /* \"--CODEGEN--\":12:26   */\n      pop\n        /* \"Users/leilei/Downloads/VRFCoordinator/VRF.sol\":26489:26537  abi.encode(VRF_RANDOM_OUTPUT_HASH_PREFIX, gamma) */\n      pop\n      pop\n      pop\n      swap1\n      pop\n      add\n      swap3\n      pop\n      pop\n      pop\n      mload(0x40)\n        /* \"--CODEGEN--\":49:53   */\n      0x20\n        /* \"--CODEGEN--\":39:46   */\n      dup2\n        /* \"--CODEGEN--\":30:37   */\n      dup4\n        /* \"--CODEGEN--\":26:47   */\n      sub\n        /* \"--CODEGEN--\":22:54   */\n      sub\n        /* \"--CODEGEN--\":13:20   */\n      dup2\n        /* \"--CODEGEN--\":6:55   */\n      mstore\n        /* \"Users/leilei/Downloads/VRFCoordinator/VRF.sol\":26489:26537  abi.encode(VRF_RANDOM_OUTPUT_HASH_PREFIX, gamma) */\n      swap1\n      0x40\n      mstore\n        /* \"Users/leilei/Downloads/VRFCoordinator/VRF.sol\":26479:26538  keccak256(abi.encode(VRF_RANDOM_OUTPUT_HASH_PREFIX, gamma)) */\n      dup1\n      mload\n      swap1\n      0x20\n      add\n      keccak256\n        /* \"Users/leilei/Downloads/VRFCoordinator/VRF.sol\":26471:26539  uint256(keccak256(abi.encode(VRF_RANDOM_OUTPUT_HASH_PREFIX, gamma))) */\n      0x00\n      shr\n        /* \"Users/leilei/Downloads/VRFCoordinator/VRF.sol\":26462:26539  output = uint256(keccak256(abi.encode(VRF_RANDOM_OUTPUT_HASH_PREFIX, gamma))) */\n      swap8\n      pop\n        /* \"Users/leilei/Downloads/VRFCoordinator/VRF.sol\":25549:26546  function randomValueFromVRFProof(bytes memory proof)... */\n      pop\n      pop\n      pop\n      pop\n      pop\n      pop\n      pop\n      swap2\n      swap1\n      pop\n      jump\t// out\n        /* \"Users/leilei/Downloads/VRFCoordinator/VRFRequestIDBase.sol\":765:996  function makeVRFInputSeed(bytes32 _keyHash, uint256 _userSeed,... */\n    tag_117:\n        /* \"Users/leilei/Downloads/VRFCoordinator/VRFRequestIDBase.sol\":895:902  uint256 */\n      0x00\n        /* \"Users/leilei/Downloads/VRFCoordinator/VRFRequestIDBase.sol\":949:957  _keyHash */\n      dup5\n        /* \"Users/leilei/Downloads/VRFCoordinator/VRFRequestIDBase.sol\":959:968  _userSeed */\n      dup5\n        /* \"Users/leilei/Downloads/VRFCoordinator/VRFRequestIDBase.sol\":970:980  _requester */\n      dup5\n        /* \"Users/leilei/Downloads/VRFCoordinator/VRFRequestIDBase.sol\":982:988  _nonce */\n      dup5\n        /* \"Users/leilei/Downloads/VRFCoordinator/VRFRequestIDBase.sol\":938:989  abi.encode(_keyHash, _userSeed, _requester, _nonce) */\n      add(0x20, mload(0x40))\n      dup1\n      dup6\n      dup2\n      mstore\n      0x20\n      add\n      dup5\n      dup2\n      mstore\n      0x20\n      add\n      dup4\n      0xffffffffffffffffffffffffffffffffffffffff\n      and\n      0xffffffffffffffffffffffffffffffffffffffff\n      and\n      dup2\n      mstore\n      0x20\n      add\n      dup3\n      dup2\n      mstore\n      0x20\n      add\n      swap5\n      pop\n      pop\n      pop\n      pop\n      pop\n      mload(0x40)\n        /* \"--CODEGEN--\":49:53   */\n      0x20\n        /* \"--CODEGEN--\":39:46   */\n      dup2\n        /* \"--CODEGEN--\":30:37   */\n      dup4\n        /* \"--CODEGEN--\":26:47   */\n      sub\n        /* \"--CODEGEN--\":22:54   */\n      sub\n        /* \"--CODEGEN--\":13:20   */\n      dup2\n        /* \"--CODEGEN--\":6:55   */\n      mstore\n        /* \"Users/leilei/Downloads/VRFCoordinator/VRFRequestIDBase.sol\":938:989  abi.encode(_keyHash, _userSeed, _requester, _nonce) */\n      swap1\n      0x40\n      mstore\n        /* \"Users/leilei/Downloads/VRFCoordinator/VRFRequestIDBase.sol\":928:990  keccak256(abi.encode(_keyHash, _userSeed, _requester, _nonce)) */\n      dup1\n      mload\n      swap1\n      0x20\n      add\n      keccak256\n        /* \"Users/leilei/Downloads/VRFCoordinator/VRFRequestIDBase.sol\":920:991  uint256(keccak256(abi.encode(_keyHash, _userSeed, _requester, _nonce))) */\n      0x00\n      shr\n        /* \"Users/leilei/Downloads/VRFCoordinator/VRFRequestIDBase.sol\":912:991  return  uint256(keccak256(abi.encode(_keyHash, _userSeed, _requester, _nonce))) */\n      swap1\n      pop\n        /* \"Users/leilei/Downloads/VRFCoordinator/VRFRequestIDBase.sol\":765:996  function makeVRFInputSeed(bytes32 _keyHash, uint256 _userSeed,... */\n      swap5\n      swap4\n      pop\n      pop\n      pop\n      pop\n      jump\t// out\n        /* \"Users/leilei/Downloads/VRFCoordinator/VRF.sol\":22819:24340  function verifyVRFProof(... */\n    tag_138:\n        /* \"Users/leilei/Downloads/VRFCoordinator/VRF.sol\":23070:23083  isOnCurve(pk) */\n      tag_144\n        /* \"Users/leilei/Downloads/VRFCoordinator/VRF.sol\":23080:23082  pk */\n      dup10\n        /* \"Users/leilei/Downloads/VRFCoordinator/VRF.sol\":23070:23079  isOnCurve */\n      tag_145\n        /* \"Users/leilei/Downloads/VRFCoordinator/VRF.sol\":23070:23083  isOnCurve(pk) */\n      jump\t// in\n    tag_144:\n        /* \"Users/leilei/Downloads/VRFCoordinator/VRF.sol\":23062:23114  require(isOnCurve(pk), \"public key is not on curve\") */\n      tag_146\n      jumpi\n      mload(0x40)\n      0x08c379a000000000000000000000000000000000000000000000000000000000\n      dup2\n      mstore\n      0x04\n      add\n      dup1\n      dup1\n      0x20\n      add\n      dup3\n      dup2\n      sub\n      dup3\n      mstore\n      0x1a\n      dup2\n      mstore\n      0x20\n      add\n      dup1\n      0x7075626c6963206b6579206973206e6f74206f6e206375727665000000000000\n      dup2\n      mstore\n      pop\n      0x20\n      add\n      swap2\n      pop\n      pop\n      mload(0x40)\n      dup1\n      swap2\n      sub\n      swap1\n      revert\n    tag_146:\n        /* \"Users/leilei/Downloads/VRFCoordinator/VRF.sol\":23130:23146  isOnCurve(gamma) */\n      tag_147\n        /* \"Users/leilei/Downloads/VRFCoordinator/VRF.sol\":23140:23145  gamma */\n      dup9\n        /* \"Users/leilei/Downloads/VRFCoordinator/VRF.sol\":23130:23139  isOnCurve */\n      tag_145\n        /* \"Users/leilei/Downloads/VRFCoordinator/VRF.sol\":23130:23146  isOnCurve(gamma) */\n      jump\t// in\n    tag_147:\n        /* \"Users/leilei/Downloads/VRFCoordinator/VRF.sol\":23122:23172  require(isOnCurve(gamma), \"gamma is not on curve\") */\n      tag_148\n      jumpi\n      mload(0x40)\n      0x08c379a000000000000000000000000000000000000000000000000000000000\n      dup2\n      mstore\n      0x04\n      add\n      dup1\n      dup1\n      0x20\n      add\n      dup3\n      dup2\n      sub\n      dup3\n      mstore\n      0x15\n      dup2\n      mstore\n      0x20\n      add\n      dup1\n      0x67616d6d61206973206e6f74206f6e2063757276650000000000000000000000\n      dup2\n      mstore\n      pop\n      0x20\n      add\n      swap2\n      pop\n      pop\n      mload(0x40)\n      dup1\n      swap2\n      sub\n      swap1\n      revert\n    tag_148:\n        /* \"Users/leilei/Downloads/VRFCoordinator/VRF.sol\":23188:23212  isOnCurve(cGammaWitness) */\n      tag_149\n        /* \"Users/leilei/Downloads/VRFCoordinator/VRF.sol\":23198:23211  cGammaWitness */\n      dup4\n        /* \"Users/leilei/Downloads/VRFCoordinator/VRF.sol\":23188:23197  isOnCurve */\n      tag_145\n        /* \"Users/leilei/Downloads/VRFCoordinator/VRF.sol\":23188:23212  isOnCurve(cGammaWitness) */\n      jump\t// in\n    tag_149:\n        /* \"Users/leilei/Downloads/VRFCoordinator/VRF.sol\":23180:23246  require(isOnCurve(cGammaWitness), \"cGammaWitness is not on curve\") */\n      tag_150\n      jumpi\n      mload(0x40)\n      0x08c379a000000000000000000000000000000000000000000000000000000000\n      dup2\n      mstore\n      0x04\n      add\n      dup1\n      dup1\n      0x20\n      add\n      dup3\n      dup2\n      sub\n      dup3\n      mstore\n      0x1d\n      dup2\n      mstore\n      0x20\n      add\n      dup1\n      0x6347616d6d615769746e657373206973206e6f74206f6e206375727665000000\n      dup2\n      mstore\n      pop\n      0x20\n      add\n      swap2\n      pop\n      pop\n      mload(0x40)\n      dup1\n      swap2\n      sub\n      swap1\n      revert\n    tag_150:\n        /* \"Users/leilei/Downloads/VRFCoordinator/VRF.sol\":23262:23285  isOnCurve(sHashWitness) */\n      tag_151\n        /* \"Users/leilei/Downloads/VRFCoordinator/VRF.sol\":23272:23284  sHashWitness */\n      dup3\n        /* \"Users/leilei/Downloads/VRFCoordinator/VRF.sol\":23262:23271  isOnCurve */\n      tag_145\n        /* \"Users/leilei/Downloads/VRFCoordinator/VRF.sol\":23262:23285  isOnCurve(sHashWitness) */\n      jump\t// in\n    tag_151:\n        /* \"Users/leilei/Downloads/VRFCoordinator/VRF.sol\":23254:23318  require(isOnCurve(sHashWitness), \"sHashWitness is not on curve\") */\n      tag_152\n      jumpi\n      mload(0x40)\n      0x08c379a000000000000000000000000000000000000000000000000000000000\n      dup2\n      mstore\n      0x04\n      add\n      dup1\n      dup1\n      0x20\n      add\n      dup3\n      dup2\n      sub\n      dup3\n      mstore\n      0x1c\n      dup2\n      mstore\n      0x20\n      add\n      dup1\n      0x73486173685769746e657373206973206e6f74206f6e20637572766500000000\n      dup2\n      mstore\n      pop\n      0x20\n      add\n      swap2\n      pop\n      pop\n      mload(0x40)\n      dup1\n      swap2\n      sub\n      swap1\n      revert\n    tag_152:\n        /* \"Users/leilei/Downloads/VRFCoordinator/VRF.sol\":23720:23776  verifyLinearCombinationWithGenerator(c, pk, s, uWitness) */\n      tag_153\n        /* \"Users/leilei/Downloads/VRFCoordinator/VRF.sol\":23757:23758  c */\n      dup8\n        /* \"Users/leilei/Downloads/VRFCoordinator/VRF.sol\":23760:23762  pk */\n      dup11\n        /* \"Users/leilei/Downloads/VRFCoordinator/VRF.sol\":23764:23765  s */\n      dup9\n        /* \"Users/leilei/Downloads/VRFCoordinator/VRF.sol\":23767:23775  uWitness */\n      dup8\n        /* \"Users/leilei/Downloads/VRFCoordinator/VRF.sol\":23720:23756  verifyLinearCombinationWithGenerator */\n      tag_154\n        /* \"Users/leilei/Downloads/VRFCoordinator/VRF.sol\":23720:23776  verifyLinearCombinationWithGenerator(c, pk, s, uWitness) */\n      jump\t// in\n    tag_153:\n        /* \"Users/leilei/Downloads/VRFCoordinator/VRF.sol\":23703:23822  require(... */\n      tag_155\n      jumpi\n      mload(0x40)\n      0x08c379a000000000000000000000000000000000000000000000000000000000\n      dup2\n      mstore\n      0x04\n      add\n      dup1\n      dup1\n      0x20\n      add\n      dup3\n      dup2\n      sub\n      dup3\n      mstore\n      0x1a\n      dup2\n      mstore\n      0x20\n      add\n      dup1\n      0x6164647228632a706b2b732a6729e289a05f755769746e657373000000000000\n      dup2\n      mstore\n      pop\n      0x20\n      add\n      swap2\n      pop\n      pop\n      mload(0x40)\n      dup1\n      swap2\n      sub\n      swap1\n      revert\n    tag_155:\n        /* \"Users/leilei/Downloads/VRFCoordinator/VRF.sol\":23917:23939  uint256[2] memory hash */\n      tag_156\n      tag_89\n      jump\t// in\n    tag_156:\n        /* \"Users/leilei/Downloads/VRFCoordinator/VRF.sol\":23942:23963  hashToCurve(pk, seed) */\n      tag_157\n        /* \"Users/leilei/Downloads/VRFCoordinator/VRF.sol\":23954:23956  pk */\n      dup11\n        /* \"Users/leilei/Downloads/VRFCoordinator/VRF.sol\":23958:23962  seed */\n      dup8\n        /* \"Users/leilei/Downloads/VRFCoordinator/VRF.sol\":23942:23953  hashToCurve */\n      tag_158\n        /* \"Users/leilei/Downloads/VRFCoordinator/VRF.sol\":23942:23963  hashToCurve(pk, seed) */\n      jump\t// in\n    tag_157:\n        /* \"Users/leilei/Downloads/VRFCoordinator/VRF.sol\":23917:23963  uint256[2] memory hash = hashToCurve(pk, seed) */\n      swap1\n      pop\n        /* \"Users/leilei/Downloads/VRFCoordinator/VRF.sol\":24055:24074  uint256[2] memory v */\n      tag_159\n      tag_89\n      jump\t// in\n    tag_159:\n        /* \"Users/leilei/Downloads/VRFCoordinator/VRF.sol\":24077:24157  linearCombination(... */\n      tag_160\n        /* \"Users/leilei/Downloads/VRFCoordinator/VRF.sol\":24104:24105  c */\n      dup10\n        /* \"Users/leilei/Downloads/VRFCoordinator/VRF.sol\":24107:24112  gamma */\n      dup12\n        /* \"Users/leilei/Downloads/VRFCoordinator/VRF.sol\":24114:24127  cGammaWitness */\n      dup8\n        /* \"Users/leilei/Downloads/VRFCoordinator/VRF.sol\":24129:24130  s */\n      dup12\n        /* \"Users/leilei/Downloads/VRFCoordinator/VRF.sol\":24132:24136  hash */\n      dup7\n        /* \"Users/leilei/Downloads/VRFCoordinator/VRF.sol\":24138:24150  sHashWitness */\n      dup10\n        /* \"Users/leilei/Downloads/VRFCoordinator/VRF.sol\":24152:24156  zInv */\n      dup10\n        /* \"Users/leilei/Downloads/VRFCoordinator/VRF.sol\":24077:24094  linearCombination */\n      tag_161\n        /* \"Users/leilei/Downloads/VRFCoordinator/VRF.sol\":24077:24157  linearCombination(... */\n      jump\t// in\n    tag_160:\n        /* \"Users/leilei/Downloads/VRFCoordinator/VRF.sol\":24055:24157  uint256[2] memory v = linearCombination(... */\n      swap1\n      pop\n        /* \"Users/leilei/Downloads/VRFCoordinator/VRF.sol\":24216:24232  uint256 derivedC */\n      0x00\n        /* \"Users/leilei/Downloads/VRFCoordinator/VRF.sol\":24235:24286  scalarFromCurvePoints(hash, pk, gamma, uWitness, v) */\n      tag_162\n        /* \"Users/leilei/Downloads/VRFCoordinator/VRF.sol\":24257:24261  hash */\n      dup4\n        /* \"Users/leilei/Downloads/VRFCoordinator/VRF.sol\":24263:24265  pk */\n      dup14\n        /* \"Users/leilei/Downloads/VRFCoordinator/VRF.sol\":24267:24272  gamma */\n      dup14\n        /* \"Users/leilei/Downloads/VRFCoordinator/VRF.sol\":24274:24282  uWitness */\n      dup11\n        /* \"Users/leilei/Downloads/VRFCoordinator/VRF.sol\":24284:24285  v */\n      dup7\n        /* \"Users/leilei/Downloads/VRFCoordinator/VRF.sol\":24235:24256  scalarFromCurvePoints */\n      tag_163\n        /* \"Users/leilei/Downloads/VRFCoordinator/VRF.sol\":24235:24286  scalarFromCurvePoints(hash, pk, gamma, uWitness, v) */\n      jump\t// in\n    tag_162:\n        /* \"Users/leilei/Downloads/VRFCoordinator/VRF.sol\":24216:24286  uint256 derivedC = scalarFromCurvePoints(hash, pk, gamma, uWitness, v) */\n      swap1\n      pop\n        /* \"Users/leilei/Downloads/VRFCoordinator/VRF.sol\":24307:24315  derivedC */\n      dup1\n        /* \"Users/leilei/Downloads/VRFCoordinator/VRF.sol\":24302:24303  c */\n      dup11\n        /* \"Users/leilei/Downloads/VRFCoordinator/VRF.sol\":24302:24315  c == derivedC */\n      eq\n        /* \"Users/leilei/Downloads/VRFCoordinator/VRF.sol\":24294:24333  require(c == derivedC, \"invalid proof\") */\n      tag_164\n      jumpi\n      mload(0x40)\n      0x08c379a000000000000000000000000000000000000000000000000000000000\n      dup2\n      mstore\n      0x04\n      add\n      dup1\n      dup1\n      0x20\n      add\n      dup3\n      dup2\n      sub\n      dup3\n      mstore\n      0x0d\n      dup2\n      mstore\n      0x20\n      add\n      dup1\n      0x696e76616c69642070726f6f6600000000000000000000000000000000000000\n      dup2\n      mstore\n      pop\n      0x20\n      add\n      swap2\n      pop\n      pop\n      mload(0x40)\n      dup1\n      swap2\n      sub\n      swap1\n      revert\n    tag_164:\n        /* \"Users/leilei/Downloads/VRFCoordinator/VRF.sol\":22819:24340  function verifyVRFProof(... */\n      pop\n      pop\n      pop\n      pop\n      pop\n      pop\n      pop\n      pop\n      pop\n      pop\n      pop\n      pop\n      jump\t// out\n        /* \"Users/leilei/Downloads/VRFCoordinator/VRF.sol\":9658:9793  function isOnCurve(uint256[2] memory p) internal pure returns (bool) {... */\n    tag_145:\n        /* \"Users/leilei/Downloads/VRFCoordinator/VRF.sol\":9721:9725  bool */\n      0x00\n        /* \"Users/leilei/Downloads/VRFCoordinator/VRF.sol\":7588:7654  0xFFFFFFFFFFFFFFFFFFFFFFFFFFFFFFFFFFFFFFFFFFFFFFFFFFFFFFFEFFFFFC2F */\n      0xfffffffffffffffffffffffffffffffffffffffffffffffffffffffefffffc2f\n        /* \"Users/leilei/Downloads/VRFCoordinator/VRF.sol\":9758:9788  mulmod(p[1], p[1], FIELD_SIZE) */\n      dup1\n      tag_166\n      jumpi\n      invalid\n    tag_166:\n        /* \"Users/leilei/Downloads/VRFCoordinator/VRF.sol\":9771:9772  p */\n      dup3\n        /* \"Users/leilei/Downloads/VRFCoordinator/VRF.sol\":9773:9774  1 */\n      0x01\n        /* \"Users/leilei/Downloads/VRFCoordinator/VRF.sol\":9771:9775  p[1] */\n      0x02\n      dup2\n      lt\n      tag_167\n      jumpi\n      invalid\n    tag_167:\n      0x20\n      mul\n      add\n      mload\n        /* \"Users/leilei/Downloads/VRFCoordinator/VRF.sol\":9765:9766  p */\n      dup4\n        /* \"Users/leilei/Downloads/VRFCoordinator/VRF.sol\":9767:9768  1 */\n      0x01\n        /* \"Users/leilei/Downloads/VRFCoordinator/VRF.sol\":9765:9769  p[1] */\n      0x02\n      dup2\n      lt\n      tag_168\n      jumpi\n      invalid\n    tag_168:\n      0x20\n      mul\n      add\n      mload\n        /* \"Users/leilei/Downloads/VRFCoordinator/VRF.sol\":9758:9788  mulmod(p[1], p[1], FIELD_SIZE) */\n      mulmod\n        /* \"Users/leilei/Downloads/VRFCoordinator/VRF.sol\":9740:9754  ySquared(p[0]) */\n      tag_169\n        /* \"Users/leilei/Downloads/VRFCoordinator/VRF.sol\":9749:9750  p */\n      dup4\n        /* \"Users/leilei/Downloads/VRFCoordinator/VRF.sol\":9751:9752  0 */\n      0x00\n        /* \"Users/leilei/Downloads/VRFCoordinator/VRF.sol\":9749:9753  p[0] */\n      0x02\n      dup2\n      lt\n      tag_170\n      jumpi\n      invalid\n    tag_170:\n      0x20\n      mul\n      add\n      mload\n        /* \"Users/leilei/Downloads/VRFCoordinator/VRF.sol\":9740:9748  ySquared */\n      tag_171\n        /* \"Users/leilei/Downloads/VRFCoordinator/VRF.sol\":9740:9754  ySquared(p[0]) */\n      jump\t// in\n    tag_169:\n        /* \"Users/leilei/Downloads/VRFCoordinator/VRF.sol\":9740:9788  ySquared(p[0]) == mulmod(p[1], p[1], FIELD_SIZE) */\n      eq\n        /* \"Users/leilei/Downloads/VRFCoordinator/VRF.sol\":9733:9788  return ySquared(p[0]) == mulmod(p[1], p[1], FIELD_SIZE) */\n      swap1\n      pop\n        /* \"Users/leilei/Downloads/VRFCoordinator/VRF.sol\":9658:9793  function isOnCurve(uint256[2] memory p) internal pure returns (bool) {... */\n      swap2\n      swap1\n      pop\n      jump\t// out\n        /* \"Users/leilei/Downloads/VRFCoordinator/VRF.sol\":18872:19916  function verifyLinearCombinationWithGenerator(... */\n    tag_154:\n        /* \"Users/leilei/Downloads/VRFCoordinator/VRF.sol\":19012:19016  bool */\n      0x00\n        /* \"Users/leilei/Downloads/VRFCoordinator/VRF.sol\":19121:19122  0 */\n      dup1\n        /* \"Users/leilei/Downloads/VRFCoordinator/VRF.sol\":19100:19123  lcWitness != address(0) */\n      0xffffffffffffffffffffffffffffffffffffffff\n      and\n        /* \"Users/leilei/Downloads/VRFCoordinator/VRF.sol\":19100:19109  lcWitness */\n      dup3\n        /* \"Users/leilei/Downloads/VRFCoordinator/VRF.sol\":19100:19123  lcWitness != address(0) */\n      0xffffffffffffffffffffffffffffffffffffffff\n      and\n      eq\n      iszero\n        /* \"Users/leilei/Downloads/VRFCoordinator/VRF.sol\":19092:19139  require(lcWitness != address(0), \"bad witness\") */\n      tag_173\n      jumpi\n      mload(0x40)\n      0x08c379a000000000000000000000000000000000000000000000000000000000\n      dup2\n      mstore\n      0x04\n      add\n      dup1\n      dup1\n      0x20\n      add\n      dup3\n      dup2\n      sub\n      dup3\n      mstore\n      0x0b\n      dup2\n      mstore\n      0x20\n      add\n      dup1\n      0x626164207769746e657373000000000000000000000000000000000000000000\n      dup2\n      mstore\n      pop\n      0x20\n      add\n      swap2\n      pop\n      pop\n      mload(0x40)\n      dup1\n      swap2\n      sub\n      swap1\n      revert\n    tag_173:\n        /* \"Users/leilei/Downloads/VRFCoordinator/VRF.sol\":19147:19154  uint8 v */\n      0x00\n        /* \"Users/leilei/Downloads/VRFCoordinator/VRF.sol\":19170:19171  0 */\n      dup1\n        /* \"Users/leilei/Downloads/VRFCoordinator/VRF.sol\":19165:19166  2 */\n      0x02\n        /* \"Users/leilei/Downloads/VRFCoordinator/VRF.sol\":19158:19159  p */\n      dup7\n        /* \"Users/leilei/Downloads/VRFCoordinator/VRF.sol\":19160:19161  1 */\n      0x01\n        /* \"Users/leilei/Downloads/VRFCoordinator/VRF.sol\":19158:19162  p[1] */\n      0x02\n      dup2\n      lt\n      tag_174\n      jumpi\n      invalid\n    tag_174:\n      0x20\n      mul\n      add\n      mload\n        /* \"Users/leilei/Downloads/VRFCoordinator/VRF.sol\":19158:19166  p[1] % 2 */\n      dup2\n      tag_175\n      jumpi\n      invalid\n    tag_175:\n      mod\n        /* \"Users/leilei/Downloads/VRFCoordinator/VRF.sol\":19158:19171  p[1] % 2 == 0 */\n      eq\n        /* \"Users/leilei/Downloads/VRFCoordinator/VRF.sol\":19157:19182  (p[1] % 2 == 0) ? 27 : 28 */\n      tag_176\n      jumpi\n        /* \"Users/leilei/Downloads/VRFCoordinator/VRF.sol\":19180:19182  28 */\n      0x1c\n        /* \"Users/leilei/Downloads/VRFCoordinator/VRF.sol\":19157:19182  (p[1] % 2 == 0) ? 27 : 28 */\n      jump(tag_177)\n    tag_176:\n        /* \"Users/leilei/Downloads/VRFCoordinator/VRF.sol\":19175:19177  27 */\n      0x1b\n        /* \"Users/leilei/Downloads/VRFCoordinator/VRF.sol\":19157:19182  (p[1] % 2 == 0) ? 27 : 28 */\n    tag_177:\n        /* \"Users/leilei/Downloads/VRFCoordinator/VRF.sol\":19147:19182  uint8 v = (p[1] % 2 == 0) ? 27 : 28 */\n      swap1\n      pop\n        /* \"Users/leilei/Downloads/VRFCoordinator/VRF.sol\":19219:19237  bytes32 pseudoHash */\n      0x00\n        /* \"Users/leilei/Downloads/VRFCoordinator/VRF.sol\":7354:7420  0xFFFFFFFFFFFFFFFFFFFFFFFFFFFFFFFEBAAEDCE6AF48A03BBFD25E8CD0364141 */\n      0xfffffffffffffffffffffffffffffffebaaedce6af48a03bbfd25e8cd0364141\n        /* \"Users/leilei/Downloads/VRFCoordinator/VRF.sol\":19262:19290  mulmod(p[0], s, GROUP_ORDER) */\n      dup1\n      tag_178\n      jumpi\n      invalid\n    tag_178:\n        /* \"Users/leilei/Downloads/VRFCoordinator/VRF.sol\":19275:19276  s */\n      dup6\n        /* \"Users/leilei/Downloads/VRFCoordinator/VRF.sol\":19269:19270  p */\n      dup8\n        /* \"Users/leilei/Downloads/VRFCoordinator/VRF.sol\":19271:19272  0 */\n      0x00\n        /* \"Users/leilei/Downloads/VRFCoordinator/VRF.sol\":19269:19273  p[0] */\n      0x02\n      dup2\n      lt\n      tag_179\n      jumpi\n      invalid\n    tag_179:\n      0x20\n      mul\n      add\n      mload\n        /* \"Users/leilei/Downloads/VRFCoordinator/VRF.sol\":19262:19290  mulmod(p[0], s, GROUP_ORDER) */\n      mulmod\n        /* \"Users/leilei/Downloads/VRFCoordinator/VRF.sol\":7354:7420  0xFFFFFFFFFFFFFFFFFFFFFFFFFFFFFFFEBAAEDCE6AF48A03BBFD25E8CD0364141 */\n      0xfffffffffffffffffffffffffffffffebaaedce6af48a03bbfd25e8cd0364141\n        /* \"Users/leilei/Downloads/VRFCoordinator/VRF.sol\":19248:19290  GROUP_ORDER - mulmod(p[0], s, GROUP_ORDER) */\n      sub\n        /* \"Users/leilei/Downloads/VRFCoordinator/VRF.sol\":19240:19291  bytes32(GROUP_ORDER - mulmod(p[0], s, GROUP_ORDER)) */\n      0x00\n      shl\n        /* \"Users/leilei/Downloads/VRFCoordinator/VRF.sol\":19219:19291  bytes32 pseudoHash = bytes32(GROUP_ORDER - mulmod(p[0], s, GROUP_ORDER)) */\n      swap1\n      pop\n        /* \"Users/leilei/Downloads/VRFCoordinator/VRF.sol\":19310:19333  bytes32 pseudoSignature */\n      0x00\n        /* \"Users/leilei/Downloads/VRFCoordinator/VRF.sol\":7354:7420  0xFFFFFFFFFFFFFFFFFFFFFFFFFFFFFFFEBAAEDCE6AF48A03BBFD25E8CD0364141 */\n      0xfffffffffffffffffffffffffffffffebaaedce6af48a03bbfd25e8cd0364141\n        /* \"Users/leilei/Downloads/VRFCoordinator/VRF.sol\":19344:19372  mulmod(c, p[0], GROUP_ORDER) */\n      dup1\n      tag_180\n      jumpi\n      invalid\n    tag_180:\n        /* \"Users/leilei/Downloads/VRFCoordinator/VRF.sol\":19354:19355  p */\n      dup8\n        /* \"Users/leilei/Downloads/VRFCoordinator/VRF.sol\":19356:19357  0 */\n      0x00\n        /* \"Users/leilei/Downloads/VRFCoordinator/VRF.sol\":19354:19358  p[0] */\n      0x02\n      dup2\n      lt\n      tag_181\n      jumpi\n      invalid\n    tag_181:\n      0x20\n      mul\n      add\n      mload\n        /* \"Users/leilei/Downloads/VRFCoordinator/VRF.sol\":19351:19352  c */\n      dup10\n        /* \"Users/leilei/Downloads/VRFCoordinator/VRF.sol\":19344:19372  mulmod(c, p[0], GROUP_ORDER) */\n      mulmod\n        /* \"Users/leilei/Downloads/VRFCoordinator/VRF.sol\":19336:19373  bytes32(mulmod(c, p[0], GROUP_ORDER)) */\n      0x00\n      shl\n        /* \"Users/leilei/Downloads/VRFCoordinator/VRF.sol\":19310:19373  bytes32 pseudoSignature = bytes32(mulmod(c, p[0], GROUP_ORDER)) */\n      swap1\n      pop\n        /* \"Users/leilei/Downloads/VRFCoordinator/VRF.sol\":19798:19814  address computed */\n      0x00\n        /* \"Users/leilei/Downloads/VRFCoordinator/VRF.sol\":19817:19873  ecrecover(pseudoHash, v, bytes32(p[0]), pseudoSignature) */\n      0x01\n        /* \"Users/leilei/Downloads/VRFCoordinator/VRF.sol\":19827:19837  pseudoHash */\n      dup4\n        /* \"Users/leilei/Downloads/VRFCoordinator/VRF.sol\":19839:19840  v */\n      dup6\n        /* \"Users/leilei/Downloads/VRFCoordinator/VRF.sol\":19850:19851  p */\n      dup11\n        /* \"Users/leilei/Downloads/VRFCoordinator/VRF.sol\":19852:19853  0 */\n      0x00\n        /* \"Users/leilei/Downloads/VRFCoordinator/VRF.sol\":19850:19854  p[0] */\n      0x02\n      dup2\n      lt\n      tag_182\n      jumpi\n      invalid\n    tag_182:\n      0x20\n      mul\n      add\n      mload\n        /* \"Users/leilei/Downloads/VRFCoordinator/VRF.sol\":19842:19855  bytes32(p[0]) */\n      0x00\n      shl\n        /* \"Users/leilei/Downloads/VRFCoordinator/VRF.sol\":19857:19872  pseudoSignature */\n      dup6\n        /* \"Users/leilei/Downloads/VRFCoordinator/VRF.sol\":19817:19873  ecrecover(pseudoHash, v, bytes32(p[0]), pseudoSignature) */\n      mload(0x40)\n      0x00\n      dup2\n      mstore\n      0x20\n      add\n      0x40\n      mstore\n      mload(0x40)\n      dup1\n      dup6\n      dup2\n      mstore\n      0x20\n      add\n      dup5\n      0xff\n      and\n      0xff\n      and\n      dup2\n      mstore\n      0x20\n      add\n      dup4\n      dup2\n      mstore\n      0x20\n      add\n      dup3\n      dup2\n      mstore\n      0x20\n      add\n      swap5\n      pop\n      pop\n      pop\n      pop\n      pop\n      0x20\n      mload(0x40)\n      0x20\n      dup2\n      sub\n      swap1\n      dup1\n      dup5\n      sub\n      swap1\n      dup6\n      gas\n      staticcall\n      iszero\n        /* \"--CODEGEN--\":8:17   */\n      dup1\n        /* \"--CODEGEN--\":5:7   */\n      iszero\n      tag_184\n      jumpi\n        /* \"--CODEGEN--\":45:61   */\n      returndatasize\n        /* \"--CODEGEN--\":42:43   */\n      0x00\n        /* \"--CODEGEN--\":39:40   */\n      dup1\n        /* \"--CODEGEN--\":24:62   */\n      returndatacopy\n        /* \"--CODEGEN--\":77:93   */\n      returndatasize\n        /* \"--CODEGEN--\":74:75   */\n      0x00\n        /* \"--CODEGEN--\":67:94   */\n      revert\n        /* \"--CODEGEN--\":5:7   */\n    tag_184:\n        /* \"Users/leilei/Downloads/VRFCoordinator/VRF.sol\":19817:19873  ecrecover(pseudoHash, v, bytes32(p[0]), pseudoSignature) */\n      pop\n      pop\n      pop\n      mload(sub(mload(0x40), 0x20))\n        /* \"Users/leilei/Downloads/VRFCoordinator/VRF.sol\":19798:19873  address computed = ecrecover(pseudoHash, v, bytes32(p[0]), pseudoSignature) */\n      swap1\n      pop\n        /* \"Users/leilei/Downloads/VRFCoordinator/VRF.sol\":19900:19909  lcWitness */\n      dup6\n        /* \"Users/leilei/Downloads/VRFCoordinator/VRF.sol\":19888:19909  computed == lcWitness */\n      0xffffffffffffffffffffffffffffffffffffffff\n      and\n        /* \"Users/leilei/Downloads/VRFCoordinator/VRF.sol\":19888:19896  computed */\n      dup2\n        /* \"Users/leilei/Downloads/VRFCoordinator/VRF.sol\":19888:19909  computed == lcWitness */\n      0xffffffffffffffffffffffffffffffffffffffff\n      and\n      eq\n        /* \"Users/leilei/Downloads/VRFCoordinator/VRF.sol\":19881:19909  return computed == lcWitness */\n      swap5\n      pop\n      pop\n      pop\n      pop\n      pop\n        /* \"Users/leilei/Downloads/VRFCoordinator/VRF.sol\":18872:19916  function verifyLinearCombinationWithGenerator(... */\n      swap5\n      swap4\n      pop\n      pop\n      pop\n      pop\n      jump\t// out\n        /* \"Users/leilei/Downloads/VRFCoordinator/VRF.sol\":11832:12201  function hashToCurve(uint256[2] memory pk, uint256 input)... */\n    tag_158:\n        /* \"Users/leilei/Downloads/VRFCoordinator/VRF.sol\":11917:11937  uint256[2] memory rv */\n      tag_185\n      tag_89\n      jump\t// in\n    tag_185:\n        /* \"Users/leilei/Downloads/VRFCoordinator/VRF.sol\":11952:12089  newCandidateSecp256k1Point(abi.encodePacked(HASH_TO_CURVE_HASH_PREFIX,... */\n      tag_187\n        /* \"Users/leilei/Downloads/VRFCoordinator/VRF.sol\":11058:11059  1 */\n      0x01\n        /* \"Users/leilei/Downloads/VRFCoordinator/VRF.sol\":12078:12080  pk */\n      dup5\n        /* \"Users/leilei/Downloads/VRFCoordinator/VRF.sol\":12082:12087  input */\n      dup5\n        /* \"Users/leilei/Downloads/VRFCoordinator/VRF.sol\":11979:12088  abi.encodePacked(HASH_TO_CURVE_HASH_PREFIX,... */\n      add(0x20, mload(0x40))\n      dup1\n      dup5\n      dup2\n      mstore\n      0x20\n      add\n      dup4\n      mul(0x20, 0x02)\n      dup1\n      dup4\n      dup4\n        /* \"--CODEGEN--\":23:24   */\n      0x00\n        /* \"--CODEGEN--\":8:108   */\n    tag_188:\n        /* \"--CODEGEN--\":33:36   */\n      dup4\n        /* \"--CODEGEN--\":30:31   */\n      dup2\n        /* \"--CODEGEN--\":27:37   */\n      lt\n        /* \"--CODEGEN--\":8:108   */\n      iszero\n      tag_190\n      jumpi\n        /* \"--CODEGEN--\":99:100   */\n      dup1\n        /* \"--CODEGEN--\":94:97   */\n      dup3\n        /* \"--CODEGEN--\":90:101   */\n      add\n        /* \"--CODEGEN--\":84:102   */\n      mload\n        /* \"--CODEGEN--\":80:81   */\n      dup2\n        /* \"--CODEGEN--\":75:78   */\n      dup5\n        /* \"--CODEGEN--\":71:82   */\n      add\n        /* \"--CODEGEN--\":64:103   */\n      mstore\n        /* \"--CODEGEN--\":52:54   */\n      0x20\n        /* \"--CODEGEN--\":49:50   */\n      dup2\n        /* \"--CODEGEN--\":45:55   */\n      add\n        /* \"--CODEGEN--\":40:55   */\n      swap1\n      pop\n        /* \"--CODEGEN--\":8:108   */\n      jump(tag_188)\n    tag_190:\n        /* \"--CODEGEN--\":12:26   */\n      pop\n        /* \"Users/leilei/Downloads/VRFCoordinator/VRF.sol\":11979:12088  abi.encodePacked(HASH_TO_CURVE_HASH_PREFIX,... */\n      pop\n      pop\n      pop\n      swap1\n      pop\n      add\n      dup3\n      dup2\n      mstore\n      0x20\n      add\n      swap4\n      pop\n      pop\n      pop\n      pop\n      mload(0x40)\n        /* \"--CODEGEN--\":49:53   */\n      0x20\n        /* \"--CODEGEN--\":39:46   */\n      dup2\n        /* \"--CODEGEN--\":30:37   */\n      dup4\n        /* \"--CODEGEN--\":26:47   */\n      sub\n        /* \"--CODEGEN--\":22:54   */\n      sub\n        /* \"--CODEGEN--\":13:20   */\n      dup2\n        /* \"--CODEGEN--\":6:55   */\n      mstore\n        /* \"Users/leilei/Downloads/VRFCoordinator/VRF.sol\":11979:12088  abi.encodePacked(HASH_TO_CURVE_HASH_PREFIX,... */\n      swap1\n      0x40\n      mstore\n        /* \"Users/leilei/Downloads/VRFCoordinator/VRF.sol\":11952:11978  newCandidateSecp256k1Point */\n      tag_191\n        /* \"Users/leilei/Downloads/VRFCoordinator/VRF.sol\":11952:12089  newCandidateSecp256k1Point(abi.encodePacked(HASH_TO_CURVE_HASH_PREFIX,... */\n      jump\t// in\n    tag_187:\n        /* \"Users/leilei/Downloads/VRFCoordinator/VRF.sol\":11947:12089  rv = newCandidateSecp256k1Point(abi.encodePacked(HASH_TO_CURVE_HASH_PREFIX,... */\n      swap1\n      pop\n        /* \"Users/leilei/Downloads/VRFCoordinator/VRF.sol\":12097:12195  while (!isOnCurve(rv)) {... */\n    tag_192:\n        /* \"Users/leilei/Downloads/VRFCoordinator/VRF.sol\":12105:12118  isOnCurve(rv) */\n      tag_194\n        /* \"Users/leilei/Downloads/VRFCoordinator/VRF.sol\":12115:12117  rv */\n      dup2\n        /* \"Users/leilei/Downloads/VRFCoordinator/VRF.sol\":12105:12114  isOnCurve */\n      tag_145\n        /* \"Users/leilei/Downloads/VRFCoordinator/VRF.sol\":12105:12118  isOnCurve(rv) */\n      jump\t// in\n    tag_194:\n        /* \"Users/leilei/Downloads/VRFCoordinator/VRF.sol\":12097:12195  while (!isOnCurve(rv)) {... */\n      tag_193\n      jumpi\n        /* \"Users/leilei/Downloads/VRFCoordinator/VRF.sol\":12135:12186  newCandidateSecp256k1Point(abi.encodePacked(rv[0])) */\n      tag_195\n        /* \"Users/leilei/Downloads/VRFCoordinator/VRF.sol\":12179:12181  rv */\n      dup2\n        /* \"Users/leilei/Downloads/VRFCoordinator/VRF.sol\":12182:12183  0 */\n      0x00\n        /* \"Users/leilei/Downloads/VRFCoordinator/VRF.sol\":12179:12184  rv[0] */\n      0x02\n      dup2\n      lt\n      tag_196\n      jumpi\n      invalid\n    tag_196:\n      0x20\n      mul\n      add\n      mload\n        /* \"Users/leilei/Downloads/VRFCoordinator/VRF.sol\":12162:12185  abi.encodePacked(rv[0]) */\n      add(0x20, mload(0x40))\n      dup1\n      dup3\n      dup2\n      mstore\n      0x20\n      add\n      swap2\n      pop\n      pop\n      mload(0x40)\n        /* \"--CODEGEN--\":49:53   */\n      0x20\n        /* \"--CODEGEN--\":39:46   */\n      dup2\n        /* \"--CODEGEN--\":30:37   */\n      dup4\n        /* \"--CODEGEN--\":26:47   */\n      sub\n        /* \"--CODEGEN--\":22:54   */\n      sub\n        /* \"--CODEGEN--\":13:20   */\n      dup2\n        /* \"--CODEGEN--\":6:55   */\n      mstore\n        /* \"Users/leilei/Downloads/VRFCoordinator/VRF.sol\":12162:12185  abi.encodePacked(rv[0]) */\n      swap1\n      0x40\n      mstore\n        /* \"Users/leilei/Downloads/VRFCoordinator/VRF.sol\":12135:12161  newCandidateSecp256k1Point */\n      tag_191\n        /* \"Users/leilei/Downloads/VRFCoordinator/VRF.sol\":12135:12186  newCandidateSecp256k1Point(abi.encodePacked(rv[0])) */\n      jump\t// in\n    tag_195:\n        /* \"Users/leilei/Downloads/VRFCoordinator/VRF.sol\":12130:12186  rv = newCandidateSecp256k1Point(abi.encodePacked(rv[0])) */\n      swap1\n      pop\n        /* \"Users/leilei/Downloads/VRFCoordinator/VRF.sol\":12097:12195  while (!isOnCurve(rv)) {... */\n      jump(tag_192)\n    tag_193:\n        /* \"Users/leilei/Downloads/VRFCoordinator/VRF.sol\":11832:12201  function hashToCurve(uint256[2] memory pk, uint256 input)... */\n      swap3\n      swap2\n      pop\n      pop\n      jump\t// out\n        /* \"Users/leilei/Downloads/VRFCoordinator/VRF.sol\":20399:20971  function linearCombination(... */\n    tag_161:\n        /* \"Users/leilei/Downloads/VRFCoordinator/VRF.sol\":20606:20623  uint256[2] memory */\n      tag_197\n      tag_89\n      jump\t// in\n    tag_197:\n        /* \"Users/leilei/Downloads/VRFCoordinator/VRF.sol\":20689:20690  0 */\n      0x00\n        /* \"Users/leilei/Downloads/VRFCoordinator/VRF.sol\":7588:7654  0xFFFFFFFFFFFFFFFFFFFFFFFFFFFFFFFFFFFFFFFFFFFFFFFFFFFFFFFEFFFFFC2F */\n      0xfffffffffffffffffffffffffffffffffffffffffffffffffffffffefffffc2f\n        /* \"Users/leilei/Downloads/VRFCoordinator/VRF.sol\":20658:20668  sp2Witness */\n      dup5\n        /* \"Users/leilei/Downloads/VRFCoordinator/VRF.sol\":20669:20670  0 */\n      0x00\n        /* \"Users/leilei/Downloads/VRFCoordinator/VRF.sol\":20658:20671  sp2Witness[0] */\n      0x02\n      dup2\n      lt\n      tag_199\n      jumpi\n      invalid\n    tag_199:\n      0x20\n      mul\n      add\n      mload\n        /* \"Users/leilei/Downloads/VRFCoordinator/VRF.sol\":20642:20652  cp1Witness */\n      dup9\n        /* \"Users/leilei/Downloads/VRFCoordinator/VRF.sol\":20653:20654  0 */\n      0x00\n        /* \"Users/leilei/Downloads/VRFCoordinator/VRF.sol\":20642:20655  cp1Witness[0] */\n      0x02\n      dup2\n      lt\n      tag_200\n      jumpi\n      invalid\n    tag_200:\n      0x20\n      mul\n      add\n      mload\n        /* \"Users/leilei/Downloads/VRFCoordinator/VRF.sol\":20642:20671  cp1Witness[0] - sp2Witness[0] */\n      sub\n        /* \"Users/leilei/Downloads/VRFCoordinator/VRF.sol\":20641:20685  (cp1Witness[0] - sp2Witness[0]) % FIELD_SIZE */\n      dup2\n      tag_201\n      jumpi\n      invalid\n    tag_201:\n      mod\n        /* \"Users/leilei/Downloads/VRFCoordinator/VRF.sol\":20641:20690  (cp1Witness[0] - sp2Witness[0]) % FIELD_SIZE != 0 */\n      eq\n      iszero\n        /* \"Users/leilei/Downloads/VRFCoordinator/VRF.sol\":20633:20739  require((cp1Witness[0] - sp2Witness[0]) % FIELD_SIZE != 0,... */\n      tag_202\n      jumpi\n      mload(0x40)\n      0x08c379a000000000000000000000000000000000000000000000000000000000\n      dup2\n      mstore\n      0x04\n      add\n      dup1\n      dup1\n      0x20\n      add\n      dup3\n      dup2\n      sub\n      dup3\n      mstore\n      0x1e\n      dup2\n      mstore\n      0x20\n      add\n      dup1\n      0x706f696e747320696e2073756d206d7573742062652064697374696e63740000\n      dup2\n      mstore\n      pop\n      0x20\n      add\n      swap2\n      pop\n      pop\n      mload(0x40)\n      dup1\n      swap2\n      sub\n      swap1\n      revert\n    tag_202:\n        /* \"Users/leilei/Downloads/VRFCoordinator/VRF.sol\":20755:20785  ecmulVerify(p1, c, cp1Witness) */\n      tag_203\n        /* \"Users/leilei/Downloads/VRFCoordinator/VRF.sol\":20767:20769  p1 */\n      dup8\n        /* \"Users/leilei/Downloads/VRFCoordinator/VRF.sol\":20771:20772  c */\n      dup10\n        /* \"Users/leilei/Downloads/VRFCoordinator/VRF.sol\":20774:20784  cp1Witness */\n      dup9\n        /* \"Users/leilei/Downloads/VRFCoordinator/VRF.sol\":20755:20766  ecmulVerify */\n      tag_204\n        /* \"Users/leilei/Downloads/VRFCoordinator/VRF.sol\":20755:20785  ecmulVerify(p1, c, cp1Witness) */\n      jump\t// in\n    tag_203:\n        /* \"Users/leilei/Downloads/VRFCoordinator/VRF.sol\":20747:20823  require(ecmulVerify(p1, c, cp1Witness), \"First multiplication check failed\") */\n      tag_205\n      jumpi\n      mload(0x40)\n      0x08c379a000000000000000000000000000000000000000000000000000000000\n      dup2\n      mstore\n      0x04\n      add\n      dup1\n      dup1\n      0x20\n      add\n      dup3\n      dup2\n      sub\n      dup3\n      mstore\n      0x21\n      dup2\n      mstore\n      0x20\n      add\n      dup1\n      data_40e788544e29554c975084a69228c0b0b4a1c9c1f6404406ec2b6d9b86d179a9\n      0x21\n      swap2\n      codecopy\n      0x40\n      add\n      swap2\n      pop\n      pop\n      mload(0x40)\n      dup1\n      swap2\n      sub\n      swap1\n      revert\n    tag_205:\n        /* \"Users/leilei/Downloads/VRFCoordinator/VRF.sol\":20839:20869  ecmulVerify(p2, s, sp2Witness) */\n      tag_206\n        /* \"Users/leilei/Downloads/VRFCoordinator/VRF.sol\":20851:20853  p2 */\n      dup5\n        /* \"Users/leilei/Downloads/VRFCoordinator/VRF.sol\":20855:20856  s */\n      dup7\n        /* \"Users/leilei/Downloads/VRFCoordinator/VRF.sol\":20858:20868  sp2Witness */\n      dup6\n        /* \"Users/leilei/Downloads/VRFCoordinator/VRF.sol\":20839:20850  ecmulVerify */\n      tag_204\n        /* \"Users/leilei/Downloads/VRFCoordinator/VRF.sol\":20839:20869  ecmulVerify(p2, s, sp2Witness) */\n      jump\t// in\n    tag_206:\n        /* \"Users/leilei/Downloads/VRFCoordinator/VRF.sol\":20831:20908  require(ecmulVerify(p2, s, sp2Witness), \"Second multiplication check failed\") */\n      tag_207\n      jumpi\n      mload(0x40)\n      0x08c379a000000000000000000000000000000000000000000000000000000000\n      dup2\n      mstore\n      0x04\n      add\n      dup1\n      dup1\n      0x20\n      add\n      dup3\n      dup2\n      sub\n      dup3\n      mstore\n      0x22\n      dup2\n      mstore\n      0x20\n      add\n      dup1\n      data_4bae64ba22ed7fbb776e6032297d511b182dfd08020c93d70fec3cfcc33a5267\n      0x22\n      swap2\n      codecopy\n      0x40\n      add\n      swap2\n      pop\n      pop\n      mload(0x40)\n      dup1\n      swap2\n      sub\n      swap1\n      revert\n    tag_207:\n        /* \"Users/leilei/Downloads/VRFCoordinator/VRF.sol\":20923:20964  affineECAdd(cp1Witness, sp2Witness, zInv) */\n      tag_208\n        /* \"Users/leilei/Downloads/VRFCoordinator/VRF.sol\":20935:20945  cp1Witness */\n      dup7\n        /* \"Users/leilei/Downloads/VRFCoordinator/VRF.sol\":20947:20957  sp2Witness */\n      dup5\n        /* \"Users/leilei/Downloads/VRFCoordinator/VRF.sol\":20959:20963  zInv */\n      dup5\n        /* \"Users/leilei/Downloads/VRFCoordinator/VRF.sol\":20923:20934  affineECAdd */\n      tag_209\n        /* \"Users/leilei/Downloads/VRFCoordinator/VRF.sol\":20923:20964  affineECAdd(cp1Witness, sp2Witness, zInv) */\n      jump\t// in\n    tag_208:\n        /* \"Users/leilei/Downloads/VRFCoordinator/VRF.sol\":20916:20964  return affineECAdd(cp1Witness, sp2Witness, zInv) */\n      swap1\n      pop\n        /* \"Users/leilei/Downloads/VRFCoordinator/VRF.sol\":20399:20971  function linearCombination(... */\n      swap8\n      swap7\n      pop\n      pop\n      pop\n      pop\n      pop\n      pop\n      pop\n      jump\t// out\n        /* \"Users/leilei/Downloads/VRFCoordinator/VRF.sol\":21878:22236  function scalarFromCurvePoints(... */\n    tag_163:\n        /* \"Users/leilei/Downloads/VRFCoordinator/VRF.sol\":22055:22064  uint256 s */\n      0x00\n        /* \"Users/leilei/Downloads/VRFCoordinator/VRF.sol\":21159:21160  2 */\n      0x02\n        /* \"Users/leilei/Downloads/VRFCoordinator/VRF.sol\":22198:22202  hash */\n      dup7\n        /* \"Users/leilei/Downloads/VRFCoordinator/VRF.sol\":22204:22206  pk */\n      dup7\n        /* \"Users/leilei/Downloads/VRFCoordinator/VRF.sol\":22208:22213  gamma */\n      dup7\n        /* \"Users/leilei/Downloads/VRFCoordinator/VRF.sol\":22215:22216  v */\n      dup6\n        /* \"Users/leilei/Downloads/VRFCoordinator/VRF.sol\":22218:22226  uWitness */\n      dup8\n        /* \"Users/leilei/Downloads/VRFCoordinator/VRF.sol\":22108:22227  abi.encodePacked(SCALAR_FROM_CURVE_POINTS_HASH_PREFIX,... */\n      add(0x20, mload(0x40))\n      dup1\n      dup8\n      dup2\n      mstore\n      0x20\n      add\n      dup7\n      mul(0x20, 0x02)\n      dup1\n      dup4\n      dup4\n        /* \"--CODEGEN--\":23:24   */\n      0x00\n        /* \"--CODEGEN--\":8:108   */\n    tag_211:\n        /* \"--CODEGEN--\":33:36   */\n      dup4\n        /* \"--CODEGEN--\":30:31   */\n      dup2\n        /* \"--CODEGEN--\":27:37   */\n      lt\n        /* \"--CODEGEN--\":8:108   */\n      iszero\n      tag_213\n      jumpi\n        /* \"--CODEGEN--\":99:100   */\n      dup1\n        /* \"--CODEGEN--\":94:97   */\n      dup3\n        /* \"--CODEGEN--\":90:101   */\n      add\n        /* \"--CODEGEN--\":84:102   */\n      mload\n        /* \"--CODEGEN--\":80:81   */\n      dup2\n        /* \"--CODEGEN--\":75:78   */\n      dup5\n        /* \"--CODEGEN--\":71:82   */\n      add\n        /* \"--CODEGEN--\":64:103   */\n      mstore\n        /* \"--CODEGEN--\":52:54   */\n      0x20\n        /* \"--CODEGEN--\":49:50   */\n      dup2\n        /* \"--CODEGEN--\":45:55   */\n      add\n        /* \"--CODEGEN--\":40:55   */\n      swap1\n      pop\n        /* \"--CODEGEN--\":8:108   */\n      jump(tag_211)\n    tag_213:\n        /* \"--CODEGEN--\":12:26   */\n      pop\n        /* \"Users/leilei/Downloads/VRFCoordinator/VRF.sol\":22108:22227  abi.encodePacked(SCALAR_FROM_CURVE_POINTS_HASH_PREFIX,... */\n      pop\n      pop\n      pop\n      swap1\n      pop\n      add\n      dup6\n      mul(0x20, 0x02)\n      dup1\n      dup4\n      dup4\n        /* \"--CODEGEN--\":23:24   */\n      0x00\n        /* \"--CODEGEN--\":8:108   */\n    tag_214:\n        /* \"--CODEGEN--\":33:36   */\n      dup4\n        /* \"--CODEGEN--\":30:31   */\n      dup2\n        /* \"--CODEGEN--\":27:37   */\n      lt\n        /* \"--CODEGEN--\":8:108   */\n      iszero\n      tag_216\n      jumpi\n        /* \"--CODEGEN--\":99:100   */\n      dup1\n        /* \"--CODEGEN--\":94:97   */\n      dup3\n        /* \"--CODEGEN--\":90:101   */\n      add\n        /* \"--CODEGEN--\":84:102   */\n      mload\n        /* \"--CODEGEN--\":80:81   */\n      dup2\n        /* \"--CODEGEN--\":75:78   */\n      dup5\n        /* \"--CODEGEN--\":71:82   */\n      add\n        /* \"--CODEGEN--\":64:103   */\n      mstore\n        /* \"--CODEGEN--\":52:54   */\n      0x20\n        /* \"--CODEGEN--\":49:50   */\n      dup2\n        /* \"--CODEGEN--\":45:55   */\n      add\n        /* \"--CODEGEN--\":40:55   */\n      swap1\n      pop\n        /* \"--CODEGEN--\":8:108   */\n      jump(tag_214)\n    tag_216:\n        /* \"--CODEGEN--\":12:26   */\n      pop\n        /* \"Users/leilei/Downloads/VRFCoordinator/VRF.sol\":22108:22227  abi.encodePacked(SCALAR_FROM_CURVE_POINTS_HASH_PREFIX,... */\n      pop\n      pop\n      pop\n      swap1\n      pop\n      add\n      dup5\n      mul(0x20, 0x02)\n      dup1\n      dup4\n      dup4\n        /* \"--CODEGEN--\":23:24   */\n      0x00\n        /* \"--CODEGEN--\":8:108   */\n    tag_217:\n        /* \"--CODEGEN--\":33:36   */\n      dup4\n        /* \"--CODEGEN--\":30:31   */\n      dup2\n        /* \"--CODEGEN--\":27:37   */\n      lt\n        /* \"--CODEGEN--\":8:108   */\n      iszero\n      tag_219\n      jumpi\n        /* \"--CODEGEN--\":99:100   */\n      dup1\n        /* \"--CODEGEN--\":94:97   */\n      dup3\n        /* \"--CODEGEN--\":90:101   */\n      add\n        /* \"--CODEGEN--\":84:102   */\n      mload\n        /* \"--CODEGEN--\":80:81   */\n      dup2\n        /* \"--CODEGEN--\":75:78   */\n      dup5\n        /* \"--CODEGEN--\":71:82   */\n      add\n        /* \"--CODEGEN--\":64:103   */\n      mstore\n        /* \"--CODEGEN--\":52:54   */\n      0x20\n        /* \"--CODEGEN--\":49:50   */\n      dup2\n        /* \"--CODEGEN--\":45:55   */\n      add\n        /* \"--CODEGEN--\":40:55   */\n      swap1\n      pop\n        /* \"--CODEGEN--\":8:108   */\n      jump(tag_217)\n    tag_219:\n        /* \"--CODEGEN--\":12:26   */\n      pop\n        /* \"Users/leilei/Downloads/VRFCoordinator/VRF.sol\":22108:22227  abi.encodePacked(SCALAR_FROM_CURVE_POINTS_HASH_PREFIX,... */\n      pop\n      pop\n      pop\n      swap1\n      pop\n      add\n      dup4\n      mul(0x20, 0x02)\n      dup1\n      dup4\n      dup4\n        /* \"--CODEGEN--\":23:24   */\n      0x00\n        /* \"--CODEGEN--\":8:108   */\n    tag_220:\n        /* \"--CODEGEN--\":33:36   */\n      dup4\n        /* \"--CODEGEN--\":30:31   */\n      dup2\n        /* \"--CODEGEN--\":27:37   */\n      lt\n        /* \"--CODEGEN--\":8:108   */\n      iszero\n      tag_222\n      jumpi\n        /* \"--CODEGEN--\":99:100   */\n      dup1\n        /* \"--CODEGEN--\":94:97   */\n      dup3\n        /* \"--CODEGEN--\":90:101   */\n      add\n        /* \"--CODEGEN--\":84:102   */\n      mload\n        /* \"--CODEGEN--\":80:81   */\n      dup2\n        /* \"--CODEGEN--\":75:78   */\n      dup5\n        /* \"--CODEGEN--\":71:82   */\n      add\n        /* \"--CODEGEN--\":64:103   */\n      mstore\n        /* \"--CODEGEN--\":52:54   */\n      0x20\n        /* \"--CODEGEN--\":49:50   */\n      dup2\n        /* \"--CODEGEN--\":45:55   */\n      add\n        /* \"--CODEGEN--\":40:55   */\n      swap1\n      pop\n        /* \"--CODEGEN--\":8:108   */\n      jump(tag_220)\n    tag_222:\n        /* \"--CODEGEN--\":12:26   */\n      pop\n        /* \"Users/leilei/Downloads/VRFCoordinator/VRF.sol\":22108:22227  abi.encodePacked(SCALAR_FROM_CURVE_POINTS_HASH_PREFIX,... */\n      pop\n      pop\n      pop\n      swap1\n      pop\n      add\n      dup3\n      0xffffffffffffffffffffffffffffffffffffffff\n      and\n      0xffffffffffffffffffffffffffffffffffffffff\n      and\n      0x60\n      shl\n      dup2\n      mstore\n      0x14\n      add\n      swap7\n      pop\n      pop\n      pop\n      pop\n      pop\n      pop\n      pop\n      mload(0x40)\n        /* \"--CODEGEN--\":49:53   */\n      0x20\n        /* \"--CODEGEN--\":39:46   */\n      dup2\n        /* \"--CODEGEN--\":30:37   */\n      dup4\n        /* \"--CODEGEN--\":26:47   */\n      sub\n        /* \"--CODEGEN--\":22:54   */\n      sub\n        /* \"--CODEGEN--\":13:20   */\n      dup2\n        /* \"--CODEGEN--\":6:55   */\n      mstore\n        /* \"Users/leilei/Downloads/VRFCoordinator/VRF.sol\":22108:22227  abi.encodePacked(SCALAR_FROM_CURVE_POINTS_HASH_PREFIX,... */\n      swap1\n      0x40\n      mstore\n        /* \"Users/leilei/Downloads/VRFCoordinator/VRF.sol\":22098:22228  keccak256(abi.encodePacked(SCALAR_FROM_CURVE_POINTS_HASH_PREFIX,... */\n      dup1\n      mload\n      swap1\n      0x20\n      add\n      keccak256\n        /* \"Users/leilei/Downloads/VRFCoordinator/VRF.sol\":22081:22229  uint256(... */\n      0x00\n      shr\n        /* \"Users/leilei/Downloads/VRFCoordinator/VRF.sol\":22074:22229  return uint256(... */\n      swap1\n      pop\n        /* \"Users/leilei/Downloads/VRFCoordinator/VRF.sol\":21878:22236  function scalarFromCurvePoints(... */\n      swap6\n      swap5\n      pop\n      pop\n      pop\n      pop\n      pop\n      jump\t// out\n        /* \"Users/leilei/Downloads/VRFCoordinator/VRF.sol\":9363:9622  function ySquared(uint256 x) internal pure returns (uint256) {... */\n    tag_171:\n        /* \"Users/leilei/Downloads/VRFCoordinator/VRF.sol\":9415:9422  uint256 */\n      0x00\n        /* \"Users/leilei/Downloads/VRFCoordinator/VRF.sol\":9511:9525  uint256 xCubed */\n      dup1\n        /* \"Users/leilei/Downloads/VRFCoordinator/VRF.sol\":7588:7654  0xFFFFFFFFFFFFFFFFFFFFFFFFFFFFFFFFFFFFFFFFFFFFFFFFFFFFFFFEFFFFFC2F */\n      0xfffffffffffffffffffffffffffffffffffffffffffffffffffffffefffffc2f\n        /* \"Users/leilei/Downloads/VRFCoordinator/VRF.sol\":9528:9575  mulmod(x, mulmod(x, x, FIELD_SIZE), FIELD_SIZE) */\n      dup1\n      tag_224\n      jumpi\n      invalid\n    tag_224:\n        /* \"Users/leilei/Downloads/VRFCoordinator/VRF.sol\":7588:7654  0xFFFFFFFFFFFFFFFFFFFFFFFFFFFFFFFFFFFFFFFFFFFFFFFFFFFFFFFEFFFFFC2F */\n      0xfffffffffffffffffffffffffffffffffffffffffffffffffffffffefffffc2f\n        /* \"Users/leilei/Downloads/VRFCoordinator/VRF.sol\":9538:9562  mulmod(x, x, FIELD_SIZE) */\n      dup1\n      tag_225\n      jumpi\n      invalid\n    tag_225:\n        /* \"Users/leilei/Downloads/VRFCoordinator/VRF.sol\":9548:9549  x */\n      dup5\n        /* \"Users/leilei/Downloads/VRFCoordinator/VRF.sol\":9545:9546  x */\n      dup6\n        /* \"Users/leilei/Downloads/VRFCoordinator/VRF.sol\":9538:9562  mulmod(x, x, FIELD_SIZE) */\n      mulmod\n        /* \"Users/leilei/Downloads/VRFCoordinator/VRF.sol\":9535:9536  x */\n      dup5\n        /* \"Users/leilei/Downloads/VRFCoordinator/VRF.sol\":9528:9575  mulmod(x, mulmod(x, x, FIELD_SIZE), FIELD_SIZE) */\n      mulmod\n        /* \"Users/leilei/Downloads/VRFCoordinator/VRF.sol\":9511:9575  uint256 xCubed = mulmod(x, mulmod(x, x, FIELD_SIZE), FIELD_SIZE) */\n      swap1\n      pop\n        /* \"Users/leilei/Downloads/VRFCoordinator/VRF.sol\":7588:7654  0xFFFFFFFFFFFFFFFFFFFFFFFFFFFFFFFFFFFFFFFFFFFFFFFFFFFFFFFEFFFFFC2F */\n      0xfffffffffffffffffffffffffffffffffffffffffffffffffffffffefffffc2f\n        /* \"Users/leilei/Downloads/VRFCoordinator/VRF.sol\":9588:9617  addmod(xCubed, 7, FIELD_SIZE) */\n      dup1\n      tag_226\n      jumpi\n      invalid\n    tag_226:\n        /* \"Users/leilei/Downloads/VRFCoordinator/VRF.sol\":9603:9604  7 */\n      0x07\n        /* \"Users/leilei/Downloads/VRFCoordinator/VRF.sol\":9595:9601  xCubed */\n      dup3\n        /* \"Users/leilei/Downloads/VRFCoordinator/VRF.sol\":9588:9617  addmod(xCubed, 7, FIELD_SIZE) */\n      addmod\n        /* \"Users/leilei/Downloads/VRFCoordinator/VRF.sol\":9581:9617  return addmod(xCubed, 7, FIELD_SIZE) */\n      swap2\n      pop\n      pop\n        /* \"Users/leilei/Downloads/VRFCoordinator/VRF.sol\":9363:9622  function ySquared(uint256 x) internal pure returns (uint256) {... */\n      swap2\n      swap1\n      pop\n      jump\t// out\n        /* \"Users/leilei/Downloads/VRFCoordinator/VRF.sol\":10656:10900  function newCandidateSecp256k1Point(bytes memory b)... */\n    tag_191:\n        /* \"Users/leilei/Downloads/VRFCoordinator/VRF.sol\":10735:10754  uint256[2] memory p */\n      tag_227\n      tag_89\n      jump\t// in\n    tag_227:\n        /* \"Users/leilei/Downloads/VRFCoordinator/VRF.sol\":10771:10783  fieldHash(b) */\n      tag_229\n        /* \"Users/leilei/Downloads/VRFCoordinator/VRF.sol\":10781:10782  b */\n      dup3\n        /* \"Users/leilei/Downloads/VRFCoordinator/VRF.sol\":10771:10780  fieldHash */\n      tag_230\n        /* \"Users/leilei/Downloads/VRFCoordinator/VRF.sol\":10771:10783  fieldHash(b) */\n      jump\t// in\n    tag_229:\n        /* \"Users/leilei/Downloads/VRFCoordinator/VRF.sol\":10764:10765  p */\n      dup2\n        /* \"Users/leilei/Downloads/VRFCoordinator/VRF.sol\":10766:10767  0 */\n      0x00\n        /* \"Users/leilei/Downloads/VRFCoordinator/VRF.sol\":10764:10768  p[0] */\n      0x02\n      dup2\n      lt\n      tag_231\n      jumpi\n      invalid\n    tag_231:\n      0x20\n      mul\n      add\n        /* \"Users/leilei/Downloads/VRFCoordinator/VRF.sol\":10764:10783  p[0] = fieldHash(b) */\n      dup2\n      dup2\n      mstore\n      pop\n      pop\n        /* \"Users/leilei/Downloads/VRFCoordinator/VRF.sol\":10798:10824  squareRoot(ySquared(p[0])) */\n      tag_232\n        /* \"Users/leilei/Downloads/VRFCoordinator/VRF.sol\":10809:10823  ySquared(p[0]) */\n      tag_233\n        /* \"Users/leilei/Downloads/VRFCoordinator/VRF.sol\":10818:10819  p */\n      dup3\n        /* \"Users/leilei/Downloads/VRFCoordinator/VRF.sol\":10820:10821  0 */\n      0x00\n        /* \"Users/leilei/Downloads/VRFCoordinator/VRF.sol\":10818:10822  p[0] */\n      0x02\n      dup2\n      lt\n      tag_234\n      jumpi\n      invalid\n    tag_234:\n      0x20\n      mul\n      add\n      mload\n        /* \"Users/leilei/Downloads/VRFCoordinator/VRF.sol\":10809:10817  ySquared */\n      tag_171\n        /* \"Users/leilei/Downloads/VRFCoordinator/VRF.sol\":10809:10823  ySquared(p[0]) */\n      jump\t// in\n    tag_233:\n        /* \"Users/leilei/Downloads/VRFCoordinator/VRF.sol\":10798:10808  squareRoot */\n      tag_235\n        /* \"Users/leilei/Downloads/VRFCoordinator/VRF.sol\":10798:10824  squareRoot(ySquared(p[0])) */\n      jump\t// in\n    tag_232:\n        /* \"Users/leilei/Downloads/VRFCoordinator/VRF.sol\":10791:10792  p */\n      dup2\n        /* \"Users/leilei/Downloads/VRFCoordinator/VRF.sol\":10793:10794  1 */\n      0x01\n        /* \"Users/leilei/Downloads/VRFCoordinator/VRF.sol\":10791:10795  p[1] */\n      0x02\n      dup2\n      lt\n      tag_236\n      jumpi\n      invalid\n    tag_236:\n      0x20\n      mul\n      add\n        /* \"Users/leilei/Downloads/VRFCoordinator/VRF.sol\":10791:10824  p[1] = squareRoot(ySquared(p[0])) */\n      dup2\n      dup2\n      mstore\n      pop\n      pop\n        /* \"Users/leilei/Downloads/VRFCoordinator/VRF.sol\":10848:10849  1 */\n      0x01\n        /* \"Users/leilei/Downloads/VRFCoordinator/VRF.sol\":10843:10844  2 */\n      0x02\n        /* \"Users/leilei/Downloads/VRFCoordinator/VRF.sol\":10836:10837  p */\n      dup3\n        /* \"Users/leilei/Downloads/VRFCoordinator/VRF.sol\":10838:10839  1 */\n      0x01\n        /* \"Users/leilei/Downloads/VRFCoordinator/VRF.sol\":10836:10840  p[1] */\n      0x02\n      dup2\n      lt\n      tag_237\n      jumpi\n      invalid\n    tag_237:\n      0x20\n      mul\n      add\n      mload\n        /* \"Users/leilei/Downloads/VRFCoordinator/VRF.sol\":10836:10844  p[1] % 2 */\n      dup2\n      tag_238\n      jumpi\n      invalid\n    tag_238:\n      mod\n        /* \"Users/leilei/Downloads/VRFCoordinator/VRF.sol\":10836:10849  p[1] % 2 == 1 */\n      eq\n        /* \"Users/leilei/Downloads/VRFCoordinator/VRF.sol\":10832:10894  if (p[1] % 2 == 1) {... */\n      iszero\n      tag_239\n      jumpi\n        /* \"Users/leilei/Downloads/VRFCoordinator/VRF.sol\":10881:10882  p */\n      dup1\n        /* \"Users/leilei/Downloads/VRFCoordinator/VRF.sol\":10883:10884  1 */\n      0x01\n        /* \"Users/leilei/Downloads/VRFCoordinator/VRF.sol\":10881:10885  p[1] */\n      0x02\n      dup2\n      lt\n      tag_240\n      jumpi\n      invalid\n    tag_240:\n      0x20\n      mul\n      add\n      mload\n        /* \"Users/leilei/Downloads/VRFCoordinator/VRF.sol\":7588:7654  0xFFFFFFFFFFFFFFFFFFFFFFFFFFFFFFFFFFFFFFFFFFFFFFFFFFFFFFFEFFFFFC2F */\n      0xfffffffffffffffffffffffffffffffffffffffffffffffffffffffefffffc2f\n        /* \"Users/leilei/Downloads/VRFCoordinator/VRF.sol\":10868:10885  FIELD_SIZE - p[1] */\n      sub\n        /* \"Users/leilei/Downloads/VRFCoordinator/VRF.sol\":10861:10862  p */\n      dup2\n        /* \"Users/leilei/Downloads/VRFCoordinator/VRF.sol\":10863:10864  1 */\n      0x01\n        /* \"Users/leilei/Downloads/VRFCoordinator/VRF.sol\":10861:10865  p[1] */\n      0x02\n      dup2\n      lt\n      tag_241\n      jumpi\n      invalid\n    tag_241:\n      0x20\n      mul\n      add\n        /* \"Users/leilei/Downloads/VRFCoordinator/VRF.sol\":10861:10885  p[1] = FIELD_SIZE - p[1] */\n      dup2\n      dup2\n      mstore\n      pop\n      pop\n        /* \"Users/leilei/Downloads/VRFCoordinator/VRF.sol\":10832:10894  if (p[1] % 2 == 1) {... */\n    tag_239:\n        /* \"Users/leilei/Downloads/VRFCoordinator/VRF.sol\":10656:10900  function newCandidateSecp256k1Point(bytes memory b)... */\n      swap2\n      swap1\n      pop\n      jump\t// out\n        /* \"Users/leilei/Downloads/VRFCoordinator/VRF.sol\":12693:13671  function ecmulVerify(uint256[2] memory multiplicand, uint256 scalar,... */\n    tag_204:\n        /* \"Users/leilei/Downloads/VRFCoordinator/VRF.sol\":12815:12828  bool verifies */\n      0x00\n        /* \"Users/leilei/Downloads/VRFCoordinator/VRF.sol\":12856:12857  0 */\n      dup1\n        /* \"Users/leilei/Downloads/VRFCoordinator/VRF.sol\":12846:12852  scalar */\n      dup4\n        /* \"Users/leilei/Downloads/VRFCoordinator/VRF.sol\":12846:12857  scalar != 0 */\n      eq\n      iszero\n        /* \"Users/leilei/Downloads/VRFCoordinator/VRF.sol\":12838:12858  require(scalar != 0) */\n      tag_243\n      jumpi\n        /* \"--CODEGEN--\":12:13   */\n      0x00\n        /* \"--CODEGEN--\":9:10   */\n      dup1\n        /* \"--CODEGEN--\":2:14   */\n      revert\n        /* \"Users/leilei/Downloads/VRFCoordinator/VRF.sol\":12838:12858  require(scalar != 0) */\n    tag_243:\n        /* \"Users/leilei/Downloads/VRFCoordinator/VRF.sol\":12903:12912  uint256 x */\n      0x00\n        /* \"Users/leilei/Downloads/VRFCoordinator/VRF.sol\":12915:12927  multiplicand */\n      dup5\n        /* \"Users/leilei/Downloads/VRFCoordinator/VRF.sol\":12928:12929  0 */\n      0x00\n        /* \"Users/leilei/Downloads/VRFCoordinator/VRF.sol\":12915:12930  multiplicand[0] */\n      0x02\n      dup2\n      lt\n      tag_244\n      jumpi\n      invalid\n    tag_244:\n      0x20\n      mul\n      add\n      mload\n        /* \"Users/leilei/Downloads/VRFCoordinator/VRF.sol\":12903:12930  uint256 x = multiplicand[0] */\n      swap1\n      pop\n        /* \"Users/leilei/Downloads/VRFCoordinator/VRF.sol\":12966:12973  uint8 v */\n      0x00\n        /* \"Users/leilei/Downloads/VRFCoordinator/VRF.sol\":12999:13000  0 */\n      dup1\n        /* \"Users/leilei/Downloads/VRFCoordinator/VRF.sol\":12994:12995  2 */\n      0x02\n        /* \"Users/leilei/Downloads/VRFCoordinator/VRF.sol\":12976:12988  multiplicand */\n      dup8\n        /* \"Users/leilei/Downloads/VRFCoordinator/VRF.sol\":12989:12990  1 */\n      0x01\n        /* \"Users/leilei/Downloads/VRFCoordinator/VRF.sol\":12976:12991  multiplicand[1] */\n      0x02\n      dup2\n      lt\n      tag_245\n      jumpi\n      invalid\n    tag_245:\n      0x20\n      mul\n      add\n      mload\n        /* \"Users/leilei/Downloads/VRFCoordinator/VRF.sol\":12976:12995  multiplicand[1] % 2 */\n      dup2\n      tag_246\n      jumpi\n      invalid\n    tag_246:\n      mod\n        /* \"Users/leilei/Downloads/VRFCoordinator/VRF.sol\":12976:13000  multiplicand[1] % 2 == 0 */\n      eq\n        /* \"Users/leilei/Downloads/VRFCoordinator/VRF.sol\":12976:13010  multiplicand[1] % 2 == 0 ? 27 : 28 */\n      tag_247\n      jumpi\n        /* \"Users/leilei/Downloads/VRFCoordinator/VRF.sol\":13008:13010  28 */\n      0x1c\n        /* \"Users/leilei/Downloads/VRFCoordinator/VRF.sol\":12976:13010  multiplicand[1] % 2 == 0 ? 27 : 28 */\n      jump(tag_248)\n    tag_247:\n        /* \"Users/leilei/Downloads/VRFCoordinator/VRF.sol\":13003:13005  27 */\n      0x1b\n        /* \"Users/leilei/Downloads/VRFCoordinator/VRF.sol\":12976:13010  multiplicand[1] % 2 == 0 ? 27 : 28 */\n    tag_248:\n        /* \"Users/leilei/Downloads/VRFCoordinator/VRF.sol\":12966:13010  uint8 v = multiplicand[1] % 2 == 0 ? 27 : 28 */\n      swap1\n      pop\n        /* \"Users/leilei/Downloads/VRFCoordinator/VRF.sol\":13359:13379  bytes32 scalarTimesX */\n      0x00\n        /* \"Users/leilei/Downloads/VRFCoordinator/VRF.sol\":7354:7420  0xFFFFFFFFFFFFFFFFFFFFFFFFFFFFFFFEBAAEDCE6AF48A03BBFD25E8CD0364141 */\n      0xfffffffffffffffffffffffffffffffebaaedce6af48a03bbfd25e8cd0364141\n        /* \"Users/leilei/Downloads/VRFCoordinator/VRF.sol\":13390:13420  mulmod(scalar, x, GROUP_ORDER) */\n      dup1\n      tag_249\n      jumpi\n      invalid\n    tag_249:\n        /* \"Users/leilei/Downloads/VRFCoordinator/VRF.sol\":13405:13406  x */\n      dup4\n        /* \"Users/leilei/Downloads/VRFCoordinator/VRF.sol\":13397:13403  scalar */\n      dup8\n        /* \"Users/leilei/Downloads/VRFCoordinator/VRF.sol\":13390:13420  mulmod(scalar, x, GROUP_ORDER) */\n      mulmod\n        /* \"Users/leilei/Downloads/VRFCoordinator/VRF.sol\":13382:13421  bytes32(mulmod(scalar, x, GROUP_ORDER)) */\n      0x00\n      shl\n        /* \"Users/leilei/Downloads/VRFCoordinator/VRF.sol\":13359:13421  bytes32 scalarTimesX = bytes32(mulmod(scalar, x, GROUP_ORDER)) */\n      swap1\n      pop\n        /* \"Users/leilei/Downloads/VRFCoordinator/VRF.sol\":13427:13441  address actual */\n      0x00\n        /* \"Users/leilei/Downloads/VRFCoordinator/VRF.sol\":13444:13494  ecrecover(bytes32(0), v, bytes32(x), scalarTimesX) */\n      0x01\n        /* \"Users/leilei/Downloads/VRFCoordinator/VRF.sol\":13462:13463  0 */\n      0x00\n        /* \"Users/leilei/Downloads/VRFCoordinator/VRF.sol\":13454:13464  bytes32(0) */\n      dup1\n      shl\n        /* \"Users/leilei/Downloads/VRFCoordinator/VRF.sol\":13466:13467  v */\n      dup5\n        /* \"Users/leilei/Downloads/VRFCoordinator/VRF.sol\":13477:13478  x */\n      dup7\n        /* \"Users/leilei/Downloads/VRFCoordinator/VRF.sol\":13469:13479  bytes32(x) */\n      0x00\n      shl\n        /* \"Users/leilei/Downloads/VRFCoordinator/VRF.sol\":13481:13493  scalarTimesX */\n      dup6\n        /* \"Users/leilei/Downloads/VRFCoordinator/VRF.sol\":13444:13494  ecrecover(bytes32(0), v, bytes32(x), scalarTimesX) */\n      mload(0x40)\n      0x00\n      dup2\n      mstore\n      0x20\n      add\n      0x40\n      mstore\n      mload(0x40)\n      dup1\n      dup6\n      dup2\n      mstore\n      0x20\n      add\n      dup5\n      0xff\n      and\n      0xff\n      and\n      dup2\n      mstore\n      0x20\n      add\n      dup4\n      dup2\n      mstore\n      0x20\n      add\n      dup3\n      dup2\n      mstore\n      0x20\n      add\n      swap5\n      pop\n      pop\n      pop\n      pop\n      pop\n      0x20\n      mload(0x40)\n      0x20\n      dup2\n      sub\n      swap1\n      dup1\n      dup5\n      sub\n      swap1\n      dup6\n      gas\n      staticcall\n      iszero\n        /* \"--CODEGEN--\":8:17   */\n      dup1\n        /* \"--CODEGEN--\":5:7   */\n      iszero\n      tag_251\n      jumpi\n        /* \"--CODEGEN--\":45:61   */\n      returndatasize\n        /* \"--CODEGEN--\":42:43   */\n      0x00\n        /* \"--CODEGEN--\":39:40   */\n      dup1\n        /* \"--CODEGEN--\":24:62   */\n      returndatacopy\n        /* \"--CODEGEN--\":77:93   */\n      returndatasize\n        /* \"--CODEGEN--\":74:75   */\n      0x00\n        /* \"--CODEGEN--\":67:94   */\n      revert\n        /* \"--CODEGEN--\":5:7   */\n    tag_251:\n        /* \"Users/leilei/Downloads/VRFCoordinator/VRF.sol\":13444:13494  ecrecover(bytes32(0), v, bytes32(x), scalarTimesX) */\n      pop\n      pop\n      pop\n      mload(sub(mload(0x40), 0x20))\n        /* \"Users/leilei/Downloads/VRFCoordinator/VRF.sol\":13427:13494  address actual = ecrecover(bytes32(0), v, bytes32(x), scalarTimesX) */\n      swap1\n      pop\n        /* \"Users/leilei/Downloads/VRFCoordinator/VRF.sol\":13560:13576  address expected */\n      0x00\n        /* \"Users/leilei/Downloads/VRFCoordinator/VRF.sol\":13622:13629  product */\n      dup7\n        /* \"Users/leilei/Downloads/VRFCoordinator/VRF.sol\":13605:13630  abi.encodePacked(product) */\n      add(0x20, mload(0x40))\n      dup1\n      dup3\n      mul(0x20, 0x02)\n      dup1\n      dup4\n      dup4\n        /* \"--CODEGEN--\":23:24   */\n      0x00\n        /* \"--CODEGEN--\":8:108   */\n    tag_252:\n        /* \"--CODEGEN--\":33:36   */\n      dup4\n        /* \"--CODEGEN--\":30:31   */\n      dup2\n        /* \"--CODEGEN--\":27:37   */\n      lt\n        /* \"--CODEGEN--\":8:108   */\n      iszero\n      tag_254\n      jumpi\n        /* \"--CODEGEN--\":99:100   */\n      dup1\n        /* \"--CODEGEN--\":94:97   */\n      dup3\n        /* \"--CODEGEN--\":90:101   */\n      add\n        /* \"--CODEGEN--\":84:102   */\n      mload\n        /* \"--CODEGEN--\":80:81   */\n      dup2\n        /* \"--CODEGEN--\":75:78   */\n      dup5\n        /* \"--CODEGEN--\":71:82   */\n      add\n        /* \"--CODEGEN--\":64:103   */\n      mstore\n        /* \"--CODEGEN--\":52:54   */\n      0x20\n        /* \"--CODEGEN--\":49:50   */\n      dup2\n        /* \"--CODEGEN--\":45:55   */\n      add\n        /* \"--CODEGEN--\":40:55   */\n      swap1\n      pop\n        /* \"--CODEGEN--\":8:108   */\n      jump(tag_252)\n    tag_254:\n        /* \"--CODEGEN--\":12:26   */\n      pop\n        /* \"Users/leilei/Downloads/VRFCoordinator/VRF.sol\":13605:13630  abi.encodePacked(product) */\n      pop\n      pop\n      pop\n      swap1\n      pop\n      add\n      swap2\n      pop\n      pop\n      mload(0x40)\n        /* \"--CODEGEN--\":49:53   */\n      0x20\n        /* \"--CODEGEN--\":39:46   */\n      dup2\n        /* \"--CODEGEN--\":30:37   */\n      dup4\n        /* \"--CODEGEN--\":26:47   */\n      sub\n        /* \"--CODEGEN--\":22:54   */\n      sub\n        /* \"--CODEGEN--\":13:20   */\n      dup2\n        /* \"--CODEGEN--\":6:55   */\n      mstore\n        /* \"Users/leilei/Downloads/VRFCoordinator/VRF.sol\":13605:13630  abi.encodePacked(product) */\n      swap1\n      0x40\n      mstore\n        /* \"Users/leilei/Downloads/VRFCoordinator/VRF.sol\":13595:13631  keccak256(abi.encodePacked(product)) */\n      dup1\n      mload\n      swap1\n      0x20\n      add\n      keccak256\n        /* \"Users/leilei/Downloads/VRFCoordinator/VRF.sol\":13587:13632  uint256(keccak256(abi.encodePacked(product))) */\n      0x00\n      shr\n        /* \"Users/leilei/Downloads/VRFCoordinator/VRF.sol\":13560:13633  address expected = address(uint256(keccak256(abi.encodePacked(product)))) */\n      swap1\n      pop\n        /* \"Users/leilei/Downloads/VRFCoordinator/VRF.sol\":13657:13665  expected */\n      dup1\n        /* \"Users/leilei/Downloads/VRFCoordinator/VRF.sol\":13647:13665  actual == expected */\n      0xffffffffffffffffffffffffffffffffffffffff\n      and\n        /* \"Users/leilei/Downloads/VRFCoordinator/VRF.sol\":13647:13653  actual */\n      dup3\n        /* \"Users/leilei/Downloads/VRFCoordinator/VRF.sol\":13647:13665  actual == expected */\n      0xffffffffffffffffffffffffffffffffffffffff\n      and\n      eq\n        /* \"Users/leilei/Downloads/VRFCoordinator/VRF.sol\":13639:13666  return (actual == expected) */\n      swap6\n      pop\n      pop\n      pop\n      pop\n      pop\n      pop\n        /* \"Users/leilei/Downloads/VRFCoordinator/VRF.sol\":12693:13671  function ecmulVerify(uint256[2] memory multiplicand, uint256 scalar,... */\n      swap4\n      swap3\n      pop\n      pop\n      pop\n      jump\t// out\n        /* \"Users/leilei/Downloads/VRFCoordinator/VRF.sol\":18234:18753  function affineECAdd(... */\n    tag_209:\n        /* \"Users/leilei/Downloads/VRFCoordinator/VRF.sol\":18345:18362  uint256[2] memory */\n      tag_255\n      tag_89\n      jump\t// in\n    tag_255:\n        /* \"Users/leilei/Downloads/VRFCoordinator/VRF.sol\":18370:18379  uint256 x */\n      0x00\n        /* \"Users/leilei/Downloads/VRFCoordinator/VRF.sol\":18385:18394  uint256 y */\n      dup1\n        /* \"Users/leilei/Downloads/VRFCoordinator/VRF.sol\":18400:18409  uint256 z */\n      0x00\n        /* \"Users/leilei/Downloads/VRFCoordinator/VRF.sol\":18427:18470  projectiveECAdd(p1[0], p1[1], p2[0], p2[1]) */\n      tag_257\n        /* \"Users/leilei/Downloads/VRFCoordinator/VRF.sol\":18443:18445  p1 */\n      dup8\n        /* \"Users/leilei/Downloads/VRFCoordinator/VRF.sol\":18446:18447  0 */\n      0x00\n        /* \"Users/leilei/Downloads/VRFCoordinator/VRF.sol\":18443:18448  p1[0] */\n      0x02\n      dup2\n      lt\n      tag_258\n      jumpi\n      invalid\n    tag_258:\n      0x20\n      mul\n      add\n      mload\n        /* \"Users/leilei/Downloads/VRFCoordinator/VRF.sol\":18450:18452  p1 */\n      dup9\n        /* \"Users/leilei/Downloads/VRFCoordinator/VRF.sol\":18453:18454  1 */\n      0x01\n        /* \"Users/leilei/Downloads/VRFCoordinator/VRF.sol\":18450:18455  p1[1] */\n      0x02\n      dup2\n      lt\n      tag_259\n      jumpi\n      invalid\n    tag_259:\n      0x20\n      mul\n      add\n      mload\n        /* \"Users/leilei/Downloads/VRFCoordinator/VRF.sol\":18457:18459  p2 */\n      dup9\n        /* \"Users/leilei/Downloads/VRFCoordinator/VRF.sol\":18460:18461  0 */\n      0x00\n        /* \"Users/leilei/Downloads/VRFCoordinator/VRF.sol\":18457:18462  p2[0] */\n      0x02\n      dup2\n      lt\n      tag_260\n      jumpi\n      invalid\n    tag_260:\n      0x20\n      mul\n      add\n      mload\n        /* \"Users/leilei/Downloads/VRFCoordinator/VRF.sol\":18464:18466  p2 */\n      dup10\n        /* \"Users/leilei/Downloads/VRFCoordinator/VRF.sol\":18467:18468  1 */\n      0x01\n        /* \"Users/leilei/Downloads/VRFCoordinator/VRF.sol\":18464:18469  p2[1] */\n      0x02\n      dup2\n      lt\n      tag_261\n      jumpi\n      invalid\n    tag_261:\n      0x20\n      mul\n      add\n      mload\n        /* \"Users/leilei/Downloads/VRFCoordinator/VRF.sol\":18427:18442  projectiveECAdd */\n      tag_262\n        /* \"Users/leilei/Downloads/VRFCoordinator/VRF.sol\":18427:18470  projectiveECAdd(p1[0], p1[1], p2[0], p2[1]) */\n      jump\t// in\n    tag_257:\n        /* \"Users/leilei/Downloads/VRFCoordinator/VRF.sol\":18415:18470  (x, y, z) = projectiveECAdd(p1[0], p1[1], p2[0], p2[1]) */\n      dup1\n      swap4\n      pop\n      dup2\n      swap5\n      pop\n      dup3\n      swap6\n      pop\n      pop\n      pop\n      pop\n        /* \"Users/leilei/Downloads/VRFCoordinator/VRF.sol\":18515:18516  1 */\n      0x01\n        /* \"Users/leilei/Downloads/VRFCoordinator/VRF.sol\":7588:7654  0xFFFFFFFFFFFFFFFFFFFFFFFFFFFFFFFFFFFFFFFFFFFFFFFFFFFFFFFEFFFFFC2F */\n      0xfffffffffffffffffffffffffffffffffffffffffffffffffffffffefffffc2f\n        /* \"Users/leilei/Downloads/VRFCoordinator/VRF.sol\":18484:18511  mulmod(z, invZ, FIELD_SIZE) */\n      dup1\n      tag_263\n      jumpi\n      invalid\n    tag_263:\n        /* \"Users/leilei/Downloads/VRFCoordinator/VRF.sol\":18494:18498  invZ */\n      dup7\n        /* \"Users/leilei/Downloads/VRFCoordinator/VRF.sol\":18491:18492  z */\n      dup4\n        /* \"Users/leilei/Downloads/VRFCoordinator/VRF.sol\":18484:18511  mulmod(z, invZ, FIELD_SIZE) */\n      mulmod\n        /* \"Users/leilei/Downloads/VRFCoordinator/VRF.sol\":18484:18516  mulmod(z, invZ, FIELD_SIZE) == 1 */\n      eq\n        /* \"Users/leilei/Downloads/VRFCoordinator/VRF.sol\":18476:18546  require(mulmod(z, invZ, FIELD_SIZE) == 1, \"invZ must be inverse of z\") */\n      tag_264\n      jumpi\n      mload(0x40)\n      0x08c379a000000000000000000000000000000000000000000000000000000000\n      dup2\n      mstore\n      0x04\n      add\n      dup1\n      dup1\n      0x20\n      add\n      dup3\n      dup2\n      sub\n      dup3\n      mstore\n      0x19\n      dup2\n      mstore\n      0x20\n      add\n      dup1\n      0x696e765a206d75737420626520696e7665727365206f66207a00000000000000\n      dup2\n      mstore\n      pop\n      0x20\n      add\n      swap2\n      pop\n      pop\n      mload(0x40)\n      dup1\n      swap2\n      sub\n      swap1\n      revert\n    tag_264:\n        /* \"Users/leilei/Downloads/VRFCoordinator/VRF.sol\":18683:18748  return [mulmod(x, invZ, FIELD_SIZE), mulmod(y, invZ, FIELD_SIZE)] */\n      mload(0x40)\n      dup1\n      0x40\n      add\n      0x40\n      mstore\n      dup1\n        /* \"Users/leilei/Downloads/VRFCoordinator/VRF.sol\":7588:7654  0xFFFFFFFFFFFFFFFFFFFFFFFFFFFFFFFFFFFFFFFFFFFFFFFFFFFFFFFEFFFFFC2F */\n      0xfffffffffffffffffffffffffffffffffffffffffffffffffffffffefffffc2f\n        /* \"Users/leilei/Downloads/VRFCoordinator/VRF.sol\":18691:18718  mulmod(x, invZ, FIELD_SIZE) */\n      dup1\n      tag_265\n      jumpi\n      invalid\n    tag_265:\n        /* \"Users/leilei/Downloads/VRFCoordinator/VRF.sol\":18701:18705  invZ */\n      dup8\n        /* \"Users/leilei/Downloads/VRFCoordinator/VRF.sol\":18698:18699  x */\n      dup7\n        /* \"Users/leilei/Downloads/VRFCoordinator/VRF.sol\":18691:18718  mulmod(x, invZ, FIELD_SIZE) */\n      mulmod\n        /* \"Users/leilei/Downloads/VRFCoordinator/VRF.sol\":18683:18748  return [mulmod(x, invZ, FIELD_SIZE), mulmod(y, invZ, FIELD_SIZE)] */\n      dup2\n      mstore\n      0x20\n      add\n        /* \"Users/leilei/Downloads/VRFCoordinator/VRF.sol\":7588:7654  0xFFFFFFFFFFFFFFFFFFFFFFFFFFFFFFFFFFFFFFFFFFFFFFFFFFFFFFFEFFFFFC2F */\n      0xfffffffffffffffffffffffffffffffffffffffffffffffffffffffefffffc2f\n        /* \"Users/leilei/Downloads/VRFCoordinator/VRF.sol\":18720:18747  mulmod(y, invZ, FIELD_SIZE) */\n      dup1\n      tag_266\n      jumpi\n      invalid\n    tag_266:\n        /* \"Users/leilei/Downloads/VRFCoordinator/VRF.sol\":18730:18734  invZ */\n      dup8\n        /* \"Users/leilei/Downloads/VRFCoordinator/VRF.sol\":18727:18728  y */\n      dup6\n        /* \"Users/leilei/Downloads/VRFCoordinator/VRF.sol\":18720:18747  mulmod(y, invZ, FIELD_SIZE) */\n      mulmod\n        /* \"Users/leilei/Downloads/VRFCoordinator/VRF.sol\":18683:18748  return [mulmod(x, invZ, FIELD_SIZE), mulmod(y, invZ, FIELD_SIZE)] */\n      dup2\n      mstore\n      pop\n      swap4\n      pop\n      pop\n      pop\n      pop\n        /* \"Users/leilei/Downloads/VRFCoordinator/VRF.sol\":18234:18753  function affineECAdd(... */\n      swap4\n      swap3\n      pop\n      pop\n      pop\n      jump\t// out\n        /* \"Users/leilei/Downloads/VRFCoordinator/VRF.sol\":9848:10242  function fieldHash(bytes memory b) internal pure returns (uint256 x_) {... */\n    tag_230:\n        /* \"Users/leilei/Downloads/VRFCoordinator/VRF.sol\":9906:9916  uint256 x_ */\n      0x00\n        /* \"Users/leilei/Downloads/VRFCoordinator/VRF.sol\":9947:9948  b */\n      dup2\n        /* \"Users/leilei/Downloads/VRFCoordinator/VRF.sol\":9937:9949  keccak256(b) */\n      dup1\n      mload\n      swap1\n      0x20\n      add\n      keccak256\n        /* \"Users/leilei/Downloads/VRFCoordinator/VRF.sol\":9929:9950  uint256(keccak256(b)) */\n      0x00\n      shr\n        /* \"Users/leilei/Downloads/VRFCoordinator/VRF.sol\":9924:9950  x_ = uint256(keccak256(b)) */\n      swap1\n      pop\n        /* \"Users/leilei/Downloads/VRFCoordinator/VRF.sol\":10153:10238  while (x_ >= FIELD_SIZE) {... */\n    tag_268:\n        /* \"Users/leilei/Downloads/VRFCoordinator/VRF.sol\":7588:7654  0xFFFFFFFFFFFFFFFFFFFFFFFFFFFFFFFFFFFFFFFFFFFFFFFFFFFFFFFEFFFFFC2F */\n      0xfffffffffffffffffffffffffffffffffffffffffffffffffffffffefffffc2f\n        /* \"Users/leilei/Downloads/VRFCoordinator/VRF.sol\":10160:10162  x_ */\n      dup2\n        /* \"Users/leilei/Downloads/VRFCoordinator/VRF.sol\":10160:10176  x_ >= FIELD_SIZE */\n      lt\n        /* \"Users/leilei/Downloads/VRFCoordinator/VRF.sol\":10153:10238  while (x_ >= FIELD_SIZE) {... */\n      tag_269\n      jumpi\n        /* \"Users/leilei/Downloads/VRFCoordinator/VRF.sol\":10226:10228  x_ */\n      dup1\n        /* \"Users/leilei/Downloads/VRFCoordinator/VRF.sol\":10209:10229  abi.encodePacked(x_) */\n      add(0x20, mload(0x40))\n      dup1\n      dup3\n      dup2\n      mstore\n      0x20\n      add\n      swap2\n      pop\n      pop\n      mload(0x40)\n        /* \"--CODEGEN--\":49:53   */\n      0x20\n        /* \"--CODEGEN--\":39:46   */\n      dup2\n        /* \"--CODEGEN--\":30:37   */\n      dup4\n        /* \"--CODEGEN--\":26:47   */\n      sub\n        /* \"--CODEGEN--\":22:54   */\n      sub\n        /* \"--CODEGEN--\":13:20   */\n      dup2\n        /* \"--CODEGEN--\":6:55   */\n      mstore\n        /* \"Users/leilei/Downloads/VRFCoordinator/VRF.sol\":10209:10229  abi.encodePacked(x_) */\n      swap1\n      0x40\n      mstore\n        /* \"Users/leilei/Downloads/VRFCoordinator/VRF.sol\":10199:10230  keccak256(abi.encodePacked(x_)) */\n      dup1\n      mload\n      swap1\n      0x20\n      add\n      keccak256\n        /* \"Users/leilei/Downloads/VRFCoordinator/VRF.sol\":10191:10231  uint256(keccak256(abi.encodePacked(x_))) */\n      0x00\n      shr\n        /* \"Users/leilei/Downloads/VRFCoordinator/VRF.sol\":10186:10231  x_ = uint256(keccak256(abi.encodePacked(x_))) */\n      swap1\n      pop\n        /* \"Users/leilei/Downloads/VRFCoordinator/VRF.sol\":10153:10238  while (x_ >= FIELD_SIZE) {... */\n      jump(tag_268)\n    tag_269:\n        /* \"Users/leilei/Downloads/VRFCoordinator/VRF.sol\":9848:10242  function fieldHash(bytes memory b) internal pure returns (uint256 x_) {... */\n      swap2\n      swap1\n      pop\n      jump\t// out\n        /* \"Users/leilei/Downloads/VRFCoordinator/VRF.sol\":9198:9303  function squareRoot(uint256 x) internal view returns (uint256) {... */\n    tag_235:\n        /* \"Users/leilei/Downloads/VRFCoordinator/VRF.sol\":9252:9259  uint256 */\n      0x00\n        /* \"Users/leilei/Downloads/VRFCoordinator/VRF.sol\":9274:9298  bigModExp(x, SQRT_POWER) */\n      tag_271\n        /* \"Users/leilei/Downloads/VRFCoordinator/VRF.sol\":9284:9285  x */\n      dup3\n        /* \"Users/leilei/Downloads/VRFCoordinator/VRF.sol\":9132:9133  2 */\n      0x02\n        /* \"Users/leilei/Downloads/VRFCoordinator/VRF.sol\":9126:9127  1 */\n      0x01\n        /* \"Users/leilei/Downloads/VRFCoordinator/VRF.sol\":7588:7654  0xFFFFFFFFFFFFFFFFFFFFFFFFFFFFFFFFFFFFFFFFFFFFFFFFFFFFFFFEFFFFFC2F */\n      0xfffffffffffffffffffffffffffffffffffffffffffffffffffffffefffffc2f\n        /* \"Users/leilei/Downloads/VRFCoordinator/VRF.sol\":9113:9127  FIELD_SIZE + 1 */\n      add\n        /* \"Users/leilei/Downloads/VRFCoordinator/VRF.sol\":9112:9133  (FIELD_SIZE + 1) >> 2 */\n      swap1\n      shr\n        /* \"Users/leilei/Downloads/VRFCoordinator/VRF.sol\":9274:9283  bigModExp */\n      tag_272\n        /* \"Users/leilei/Downloads/VRFCoordinator/VRF.sol\":9274:9298  bigModExp(x, SQRT_POWER) */\n      jump\t// in\n    tag_271:\n        /* \"Users/leilei/Downloads/VRFCoordinator/VRF.sol\":9267:9298  return bigModExp(x, SQRT_POWER) */\n      swap1\n      pop\n        /* \"Users/leilei/Downloads/VRFCoordinator/VRF.sol\":9198:9303  function squareRoot(uint256 x) internal view returns (uint256) {... */\n      swap2\n      swap1\n      pop\n      jump\t// out\n        /* \"Users/leilei/Downloads/VRFCoordinator/VRF.sol\":15969:17965  function projectiveECAdd(uint256 px, uint256 py, uint256 qx, uint256 qy)... */\n    tag_262:\n        /* \"Users/leilei/Downloads/VRFCoordinator/VRF.sol\":16068:16078  uint256 sx */\n      0x00\n        /* \"Users/leilei/Downloads/VRFCoordinator/VRF.sol\":16080:16090  uint256 sy */\n      dup1\n        /* \"Users/leilei/Downloads/VRFCoordinator/VRF.sol\":16092:16102  uint256 sz */\n      0x00\n        /* \"Users/leilei/Downloads/VRFCoordinator/VRF.sol\":16783:16793  uint256 z1 */\n      dup1\n        /* \"Users/leilei/Downloads/VRFCoordinator/VRF.sol\":16795:16805  uint256 z2 */\n      0x00\n        /* \"Users/leilei/Downloads/VRFCoordinator/VRF.sol\":16810:16811  1 */\n      0x01\n        /* \"Users/leilei/Downloads/VRFCoordinator/VRF.sol\":16813:16814  1 */\n      dup1\n        /* \"Users/leilei/Downloads/VRFCoordinator/VRF.sol\":16782:16815  (uint256 z1, uint256 z2) = (1, 1) */\n      swap2\n      pop\n      swap2\n      pop\n        /* \"Users/leilei/Downloads/VRFCoordinator/VRF.sol\":16892:16902  uint256 lx */\n      0x00\n        /* \"Users/leilei/Downloads/VRFCoordinator/VRF.sol\":7588:7654  0xFFFFFFFFFFFFFFFFFFFFFFFFFFFFFFFFFFFFFFFFFFFFFFFFFFFFFFFEFFFFFC2F */\n      0xfffffffffffffffffffffffffffffffffffffffffffffffffffffffefffffc2f\n        /* \"Users/leilei/Downloads/VRFCoordinator/VRF.sol\":16905:16944  addmod(qy, FIELD_SIZE - py, FIELD_SIZE) */\n      dup1\n      tag_274\n      jumpi\n      invalid\n    tag_274:\n        /* \"Users/leilei/Downloads/VRFCoordinator/VRF.sol\":16929:16931  py */\n      dup10\n        /* \"Users/leilei/Downloads/VRFCoordinator/VRF.sol\":7588:7654  0xFFFFFFFFFFFFFFFFFFFFFFFFFFFFFFFFFFFFFFFFFFFFFFFFFFFFFFFEFFFFFC2F */\n      0xfffffffffffffffffffffffffffffffffffffffffffffffffffffffefffffc2f\n        /* \"Users/leilei/Downloads/VRFCoordinator/VRF.sol\":16916:16931  FIELD_SIZE - py */\n      sub\n        /* \"Users/leilei/Downloads/VRFCoordinator/VRF.sol\":16912:16914  qy */\n      dup9\n        /* \"Users/leilei/Downloads/VRFCoordinator/VRF.sol\":16905:16944  addmod(qy, FIELD_SIZE - py, FIELD_SIZE) */\n      addmod\n        /* \"Users/leilei/Downloads/VRFCoordinator/VRF.sol\":16892:16944  uint256 lx = addmod(qy, FIELD_SIZE - py, FIELD_SIZE) */\n      swap1\n      pop\n        /* \"Users/leilei/Downloads/VRFCoordinator/VRF.sol\":16952:16962  uint256 lz */\n      0x00\n        /* \"Users/leilei/Downloads/VRFCoordinator/VRF.sol\":7588:7654  0xFFFFFFFFFFFFFFFFFFFFFFFFFFFFFFFFFFFFFFFFFFFFFFFFFFFFFFFEFFFFFC2F */\n      0xfffffffffffffffffffffffffffffffffffffffffffffffffffffffefffffc2f\n        /* \"Users/leilei/Downloads/VRFCoordinator/VRF.sol\":16965:17004  addmod(qx, FIELD_SIZE - px, FIELD_SIZE) */\n      dup1\n      tag_275\n      jumpi\n      invalid\n    tag_275:\n        /* \"Users/leilei/Downloads/VRFCoordinator/VRF.sol\":16989:16991  px */\n      dup12\n        /* \"Users/leilei/Downloads/VRFCoordinator/VRF.sol\":7588:7654  0xFFFFFFFFFFFFFFFFFFFFFFFFFFFFFFFFFFFFFFFFFFFFFFFFFFFFFFFEFFFFFC2F */\n      0xfffffffffffffffffffffffffffffffffffffffffffffffffffffffefffffc2f\n        /* \"Users/leilei/Downloads/VRFCoordinator/VRF.sol\":16976:16991  FIELD_SIZE - px */\n      sub\n        /* \"Users/leilei/Downloads/VRFCoordinator/VRF.sol\":16972:16974  qx */\n      dup11\n        /* \"Users/leilei/Downloads/VRFCoordinator/VRF.sol\":16965:17004  addmod(qx, FIELD_SIZE - px, FIELD_SIZE) */\n      addmod\n        /* \"Users/leilei/Downloads/VRFCoordinator/VRF.sol\":16952:17004  uint256 lz = addmod(qx, FIELD_SIZE - px, FIELD_SIZE) */\n      swap1\n      pop\n        /* \"Users/leilei/Downloads/VRFCoordinator/VRF.sol\":17013:17023  uint256 dx */\n      0x00\n        /* \"Users/leilei/Downloads/VRFCoordinator/VRF.sol\":17127:17156  projectiveMul(lx, lz, lx, lz) */\n      tag_276\n        /* \"Users/leilei/Downloads/VRFCoordinator/VRF.sol\":17141:17143  lx */\n      dup4\n        /* \"Users/leilei/Downloads/VRFCoordinator/VRF.sol\":17145:17147  lz */\n      dup4\n        /* \"Users/leilei/Downloads/VRFCoordinator/VRF.sol\":17149:17151  lx */\n      dup6\n        /* \"Users/leilei/Downloads/VRFCoordinator/VRF.sol\":17153:17155  lz */\n      dup6\n        /* \"Users/leilei/Downloads/VRFCoordinator/VRF.sol\":17127:17140  projectiveMul */\n      tag_277\n        /* \"Users/leilei/Downloads/VRFCoordinator/VRF.sol\":17127:17156  projectiveMul(lx, lz, lx, lz) */\n      jump\t// in\n    tag_276:\n        /* \"Users/leilei/Downloads/VRFCoordinator/VRF.sol\":17116:17156  (sx, dx) = projectiveMul(lx, lz, lx, lz) */\n      dup1\n      swap3\n      pop\n      dup2\n      swap10\n      pop\n      pop\n      pop\n        /* \"Users/leilei/Downloads/VRFCoordinator/VRF.sol\":17198:17227  projectiveSub(sx, dx, px, z1) */\n      tag_278\n        /* \"Users/leilei/Downloads/VRFCoordinator/VRF.sol\":17212:17214  sx */\n      dup9\n        /* \"Users/leilei/Downloads/VRFCoordinator/VRF.sol\":17216:17218  dx */\n      dup3\n        /* \"Users/leilei/Downloads/VRFCoordinator/VRF.sol\":17220:17222  px */\n      dup15\n        /* \"Users/leilei/Downloads/VRFCoordinator/VRF.sol\":17224:17226  z1 */\n      dup9\n        /* \"Users/leilei/Downloads/VRFCoordinator/VRF.sol\":17198:17211  projectiveSub */\n      tag_279\n        /* \"Users/leilei/Downloads/VRFCoordinator/VRF.sol\":17198:17227  projectiveSub(sx, dx, px, z1) */\n      jump\t// in\n    tag_278:\n        /* \"Users/leilei/Downloads/VRFCoordinator/VRF.sol\":17187:17227  (sx, dx) = projectiveSub(sx, dx, px, z1) */\n      dup1\n      swap3\n      pop\n      dup2\n      swap10\n      pop\n      pop\n      pop\n        /* \"Users/leilei/Downloads/VRFCoordinator/VRF.sol\":17272:17301  projectiveSub(sx, dx, qx, z2) */\n      tag_280\n        /* \"Users/leilei/Downloads/VRFCoordinator/VRF.sol\":17286:17288  sx */\n      dup9\n        /* \"Users/leilei/Downloads/VRFCoordinator/VRF.sol\":17290:17292  dx */\n      dup3\n        /* \"Users/leilei/Downloads/VRFCoordinator/VRF.sol\":17294:17296  qx */\n      dup13\n        /* \"Users/leilei/Downloads/VRFCoordinator/VRF.sol\":17298:17300  z2 */\n      dup8\n        /* \"Users/leilei/Downloads/VRFCoordinator/VRF.sol\":17272:17285  projectiveSub */\n      tag_279\n        /* \"Users/leilei/Downloads/VRFCoordinator/VRF.sol\":17272:17301  projectiveSub(sx, dx, qx, z2) */\n      jump\t// in\n    tag_280:\n        /* \"Users/leilei/Downloads/VRFCoordinator/VRF.sol\":17261:17301  (sx, dx) = projectiveSub(sx, dx, qx, z2) */\n      dup1\n      swap3\n      pop\n      dup2\n      swap10\n      pop\n      pop\n      pop\n        /* \"Users/leilei/Downloads/VRFCoordinator/VRF.sol\":17339:17349  uint256 dy */\n      0x00\n        /* \"Users/leilei/Downloads/VRFCoordinator/VRF.sol\":17455:17484  projectiveSub(px, z1, sx, dx) */\n      tag_281\n        /* \"Users/leilei/Downloads/VRFCoordinator/VRF.sol\":17469:17471  px */\n      dup14\n        /* \"Users/leilei/Downloads/VRFCoordinator/VRF.sol\":17473:17475  z1 */\n      dup8\n        /* \"Users/leilei/Downloads/VRFCoordinator/VRF.sol\":17477:17479  sx */\n      dup12\n        /* \"Users/leilei/Downloads/VRFCoordinator/VRF.sol\":17481:17483  dx */\n      dup6\n        /* \"Users/leilei/Downloads/VRFCoordinator/VRF.sol\":17455:17468  projectiveSub */\n      tag_279\n        /* \"Users/leilei/Downloads/VRFCoordinator/VRF.sol\":17455:17484  projectiveSub(px, z1, sx, dx) */\n      jump\t// in\n    tag_281:\n        /* \"Users/leilei/Downloads/VRFCoordinator/VRF.sol\":17444:17484  (sy, dy) = projectiveSub(px, z1, sx, dx) */\n      dup1\n      swap3\n      pop\n      dup2\n      swap10\n      pop\n      pop\n      pop\n        /* \"Users/leilei/Downloads/VRFCoordinator/VRF.sol\":17512:17541  projectiveMul(sy, dy, lx, lz) */\n      tag_282\n        /* \"Users/leilei/Downloads/VRFCoordinator/VRF.sol\":17526:17528  sy */\n      dup9\n        /* \"Users/leilei/Downloads/VRFCoordinator/VRF.sol\":17530:17532  dy */\n      dup3\n        /* \"Users/leilei/Downloads/VRFCoordinator/VRF.sol\":17534:17536  lx */\n      dup7\n        /* \"Users/leilei/Downloads/VRFCoordinator/VRF.sol\":17538:17540  lz */\n      dup7\n        /* \"Users/leilei/Downloads/VRFCoordinator/VRF.sol\":17512:17525  projectiveMul */\n      tag_277\n        /* \"Users/leilei/Downloads/VRFCoordinator/VRF.sol\":17512:17541  projectiveMul(sy, dy, lx, lz) */\n      jump\t// in\n    tag_282:\n        /* \"Users/leilei/Downloads/VRFCoordinator/VRF.sol\":17501:17541  (sy, dy) = projectiveMul(sy, dy, lx, lz) */\n      dup1\n      swap3\n      pop\n      dup2\n      swap10\n      pop\n      pop\n      pop\n        /* \"Users/leilei/Downloads/VRFCoordinator/VRF.sol\":17588:17617  projectiveSub(sy, dy, py, z1) */\n      tag_283\n        /* \"Users/leilei/Downloads/VRFCoordinator/VRF.sol\":17602:17604  sy */\n      dup9\n        /* \"Users/leilei/Downloads/VRFCoordinator/VRF.sol\":17606:17608  dy */\n      dup3\n        /* \"Users/leilei/Downloads/VRFCoordinator/VRF.sol\":17610:17612  py */\n      dup15\n        /* \"Users/leilei/Downloads/VRFCoordinator/VRF.sol\":17614:17616  z1 */\n      dup10\n        /* \"Users/leilei/Downloads/VRFCoordinator/VRF.sol\":17588:17601  projectiveSub */\n      tag_279\n        /* \"Users/leilei/Downloads/VRFCoordinator/VRF.sol\":17588:17617  projectiveSub(sy, dy, py, z1) */\n      jump\t// in\n    tag_283:\n        /* \"Users/leilei/Downloads/VRFCoordinator/VRF.sol\":17577:17617  (sy, dy) = projectiveSub(sy, dy, py, z1) */\n      dup1\n      swap3\n      pop\n      dup2\n      swap10\n      pop\n      pop\n      pop\n        /* \"Users/leilei/Downloads/VRFCoordinator/VRF.sol\":17667:17669  dy */\n      dup1\n        /* \"Users/leilei/Downloads/VRFCoordinator/VRF.sol\":17661:17663  dx */\n      dup3\n        /* \"Users/leilei/Downloads/VRFCoordinator/VRF.sol\":17661:17669  dx != dy */\n      eq\n        /* \"Users/leilei/Downloads/VRFCoordinator/VRF.sol\":17657:17959  if (dx != dy) { // Cross-multiply to put everything over a common denominator... */\n      tag_284\n      jumpi\n        /* \"Users/leilei/Downloads/VRFCoordinator/VRF.sol\":7588:7654  0xFFFFFFFFFFFFFFFFFFFFFFFFFFFFFFFFFFFFFFFFFFFFFFFFFFFFFFFEFFFFFC2F */\n      0xfffffffffffffffffffffffffffffffffffffffffffffffffffffffefffffc2f\n        /* \"Users/leilei/Downloads/VRFCoordinator/VRF.sol\":17748:17774  mulmod(sx, dy, FIELD_SIZE) */\n      dup1\n      tag_285\n      jumpi\n      invalid\n    tag_285:\n        /* \"Users/leilei/Downloads/VRFCoordinator/VRF.sol\":17759:17761  dy */\n      dup2\n        /* \"Users/leilei/Downloads/VRFCoordinator/VRF.sol\":17755:17757  sx */\n      dup11\n        /* \"Users/leilei/Downloads/VRFCoordinator/VRF.sol\":17748:17774  mulmod(sx, dy, FIELD_SIZE) */\n      mulmod\n        /* \"Users/leilei/Downloads/VRFCoordinator/VRF.sol\":17743:17774  sx = mulmod(sx, dy, FIELD_SIZE) */\n      swap9\n      pop\n        /* \"Users/leilei/Downloads/VRFCoordinator/VRF.sol\":7588:7654  0xFFFFFFFFFFFFFFFFFFFFFFFFFFFFFFFFFFFFFFFFFFFFFFFFFFFFFFFEFFFFFC2F */\n      0xfffffffffffffffffffffffffffffffffffffffffffffffffffffffefffffc2f\n        /* \"Users/leilei/Downloads/VRFCoordinator/VRF.sol\":17789:17815  mulmod(sy, dx, FIELD_SIZE) */\n      dup1\n      tag_286\n      jumpi\n      invalid\n    tag_286:\n        /* \"Users/leilei/Downloads/VRFCoordinator/VRF.sol\":17800:17802  dx */\n      dup3\n        /* \"Users/leilei/Downloads/VRFCoordinator/VRF.sol\":17796:17798  sy */\n      dup10\n        /* \"Users/leilei/Downloads/VRFCoordinator/VRF.sol\":17789:17815  mulmod(sy, dx, FIELD_SIZE) */\n      mulmod\n        /* \"Users/leilei/Downloads/VRFCoordinator/VRF.sol\":17784:17815  sy = mulmod(sy, dx, FIELD_SIZE) */\n      swap8\n      pop\n        /* \"Users/leilei/Downloads/VRFCoordinator/VRF.sol\":7588:7654  0xFFFFFFFFFFFFFFFFFFFFFFFFFFFFFFFFFFFFFFFFFFFFFFFFFFFFFFFEFFFFFC2F */\n      0xfffffffffffffffffffffffffffffffffffffffffffffffffffffffefffffc2f\n        /* \"Users/leilei/Downloads/VRFCoordinator/VRF.sol\":17830:17856  mulmod(dx, dy, FIELD_SIZE) */\n      dup1\n      tag_287\n      jumpi\n      invalid\n    tag_287:\n        /* \"Users/leilei/Downloads/VRFCoordinator/VRF.sol\":17841:17843  dy */\n      dup2\n        /* \"Users/leilei/Downloads/VRFCoordinator/VRF.sol\":17837:17839  dx */\n      dup4\n        /* \"Users/leilei/Downloads/VRFCoordinator/VRF.sol\":17830:17856  mulmod(dx, dy, FIELD_SIZE) */\n      mulmod\n        /* \"Users/leilei/Downloads/VRFCoordinator/VRF.sol\":17825:17856  sz = mulmod(dx, dy, FIELD_SIZE) */\n      swap7\n      pop\n        /* \"Users/leilei/Downloads/VRFCoordinator/VRF.sol\":17657:17959  if (dx != dy) { // Cross-multiply to put everything over a common denominator... */\n      jump(tag_288)\n    tag_284:\n        /* \"Users/leilei/Downloads/VRFCoordinator/VRF.sol\":17948:17950  dx */\n      dup2\n        /* \"Users/leilei/Downloads/VRFCoordinator/VRF.sol\":17943:17950  sz = dx */\n      swap7\n      pop\n        /* \"Users/leilei/Downloads/VRFCoordinator/VRF.sol\":17657:17959  if (dx != dy) { // Cross-multiply to put everything over a common denominator... */\n    tag_288:\n        /* \"Users/leilei/Downloads/VRFCoordinator/VRF.sol\":15969:17965  function projectiveECAdd(uint256 px, uint256 py, uint256 qx, uint256 qy)... */\n      pop\n      pop\n      pop\n      pop\n      pop\n      pop\n      swap5\n      pop\n      swap5\n      pop\n      swap5\n      swap2\n      pop\n      pop\n      jump\t// out\n        /* \"Users/leilei/Downloads/VRFCoordinator/VRF.sol\":7827:8899  function bigModExp(uint256 base, uint256 exponent)... */\n    tag_272:\n        /* \"Users/leilei/Downloads/VRFCoordinator/VRF.sol\":7905:7927  uint256 exponentiation */\n      0x00\n        /* \"Users/leilei/Downloads/VRFCoordinator/VRF.sol\":7937:7955  uint256 callResult */\n      dup1\n        /* \"Users/leilei/Downloads/VRFCoordinator/VRF.sol\":7963:8004  uint256[6] memory bigModExpContractInputs */\n      tag_290\n      tag_291\n      jump\t// in\n    tag_290:\n        /* \"Users/leilei/Downloads/VRFCoordinator/VRF.sol\":7703:7707  0x20 */\n      0x20\n        /* \"Users/leilei/Downloads/VRFCoordinator/VRF.sol\":8012:8035  bigModExpContractInputs */\n      dup2\n        /* \"Users/leilei/Downloads/VRFCoordinator/VRF.sol\":8036:8037  0 */\n      0x00\n        /* \"Users/leilei/Downloads/VRFCoordinator/VRF.sol\":8012:8038  bigModExpContractInputs[0] */\n      0x06\n      dup2\n      lt\n      tag_292\n      jumpi\n      invalid\n    tag_292:\n      0x20\n      mul\n      add\n        /* \"Users/leilei/Downloads/VRFCoordinator/VRF.sol\":8012:8058  bigModExpContractInputs[0] = WORD_LENGTH_BYTES */\n      dup2\n      dup2\n      mstore\n      pop\n      pop\n        /* \"Users/leilei/Downloads/VRFCoordinator/VRF.sol\":7703:7707  0x20 */\n      0x20\n        /* \"Users/leilei/Downloads/VRFCoordinator/VRF.sol\":8085:8108  bigModExpContractInputs */\n      dup2\n        /* \"Users/leilei/Downloads/VRFCoordinator/VRF.sol\":8109:8110  1 */\n      0x01\n        /* \"Users/leilei/Downloads/VRFCoordinator/VRF.sol\":8085:8111  bigModExpContractInputs[1] */\n      0x06\n      dup2\n      lt\n      tag_293\n      jumpi\n      invalid\n    tag_293:\n      0x20\n      mul\n      add\n        /* \"Users/leilei/Downloads/VRFCoordinator/VRF.sol\":8085:8131  bigModExpContractInputs[1] = WORD_LENGTH_BYTES */\n      dup2\n      dup2\n      mstore\n      pop\n      pop\n        /* \"Users/leilei/Downloads/VRFCoordinator/VRF.sol\":7703:7707  0x20 */\n      0x20\n        /* \"Users/leilei/Downloads/VRFCoordinator/VRF.sol\":8162:8185  bigModExpContractInputs */\n      dup2\n        /* \"Users/leilei/Downloads/VRFCoordinator/VRF.sol\":8186:8187  2 */\n      0x02\n        /* \"Users/leilei/Downloads/VRFCoordinator/VRF.sol\":8162:8188  bigModExpContractInputs[2] */\n      0x06\n      dup2\n      lt\n      tag_294\n      jumpi\n      invalid\n    tag_294:\n      0x20\n      mul\n      add\n        /* \"Users/leilei/Downloads/VRFCoordinator/VRF.sol\":8162:8208  bigModExpContractInputs[2] = WORD_LENGTH_BYTES */\n      dup2\n      dup2\n      mstore\n      pop\n      pop\n        /* \"Users/leilei/Downloads/VRFCoordinator/VRF.sol\":8267:8271  base */\n      dup5\n        /* \"Users/leilei/Downloads/VRFCoordinator/VRF.sol\":8238:8261  bigModExpContractInputs */\n      dup2\n        /* \"Users/leilei/Downloads/VRFCoordinator/VRF.sol\":8262:8263  3 */\n      0x03\n        /* \"Users/leilei/Downloads/VRFCoordinator/VRF.sol\":8238:8264  bigModExpContractInputs[3] */\n      0x06\n      dup2\n      lt\n      tag_295\n      jumpi\n      invalid\n    tag_295:\n      0x20\n      mul\n      add\n        /* \"Users/leilei/Downloads/VRFCoordinator/VRF.sol\":8238:8271  bigModExpContractInputs[3] = base */\n      dup2\n      dup2\n      mstore\n      pop\n      pop\n        /* \"Users/leilei/Downloads/VRFCoordinator/VRF.sol\":8308:8316  exponent */\n      dup4\n        /* \"Users/leilei/Downloads/VRFCoordinator/VRF.sol\":8279:8302  bigModExpContractInputs */\n      dup2\n        /* \"Users/leilei/Downloads/VRFCoordinator/VRF.sol\":8303:8304  4 */\n      0x04\n        /* \"Users/leilei/Downloads/VRFCoordinator/VRF.sol\":8279:8305  bigModExpContractInputs[4] */\n      0x06\n      dup2\n      lt\n      tag_296\n      jumpi\n      invalid\n    tag_296:\n      0x20\n      mul\n      add\n        /* \"Users/leilei/Downloads/VRFCoordinator/VRF.sol\":8279:8316  bigModExpContractInputs[4] = exponent */\n      dup2\n      dup2\n      mstore\n      pop\n      pop\n        /* \"Users/leilei/Downloads/VRFCoordinator/VRF.sol\":7588:7654  0xFFFFFFFFFFFFFFFFFFFFFFFFFFFFFFFFFFFFFFFFFFFFFFFFFFFFFFFEFFFFFC2F */\n      0xfffffffffffffffffffffffffffffffffffffffffffffffffffffffefffffc2f\n        /* \"Users/leilei/Downloads/VRFCoordinator/VRF.sol\":8324:8347  bigModExpContractInputs */\n      dup2\n        /* \"Users/leilei/Downloads/VRFCoordinator/VRF.sol\":8348:8349  5 */\n      0x05\n        /* \"Users/leilei/Downloads/VRFCoordinator/VRF.sol\":8324:8350  bigModExpContractInputs[5] */\n      0x06\n      dup2\n      lt\n      tag_297\n      jumpi\n      invalid\n    tag_297:\n      0x20\n      mul\n      add\n        /* \"Users/leilei/Downloads/VRFCoordinator/VRF.sol\":8324:8363  bigModExpContractInputs[5] = FIELD_SIZE */\n      dup2\n      dup2\n      mstore\n      pop\n      pop\n        /* \"Users/leilei/Downloads/VRFCoordinator/VRF.sol\":8371:8395  uint256[1] memory output */\n      tag_298\n      tag_299\n      jump\t// in\n    tag_298:\n        /* \"Users/leilei/Downloads/VRFCoordinator/VRF.sol\":8741:8745  0x20 */\n      0x20\n        /* \"Users/leilei/Downloads/VRFCoordinator/VRF.sol\":8725:8731  output */\n      dup2\n        /* \"Users/leilei/Downloads/VRFCoordinator/VRF.sol\":8650:8654  0xc0 */\n      0xc0\n        /* \"Users/leilei/Downloads/VRFCoordinator/VRF.sol\":8617:8640  bigModExpContractInputs */\n      dup5\n        /* \"Users/leilei/Downloads/VRFCoordinator/VRF.sol\":8553:8557  0x05 */\n      0x05\n        /* \"Users/leilei/Downloads/VRFCoordinator/VRF.sol\":8501:8502  0 */\n      0x00\n        /* \"Users/leilei/Downloads/VRFCoordinator/VRF.sol\":8497:8503  not(0) */\n      not\n        /* \"Users/leilei/Downloads/VRFCoordinator/VRF.sol\":8477:8802  staticcall(... */\n      staticcall\n        /* \"Users/leilei/Downloads/VRFCoordinator/VRF.sol\":8463:8802  callResult := staticcall(... */\n      swap3\n      pop\n        /* \"Users/leilei/Downloads/VRFCoordinator/VRF.sol\":8835:8836  0 */\n      0x00\n        /* \"Users/leilei/Downloads/VRFCoordinator/VRF.sol\":8821:8831  callResult */\n      dup4\n        /* \"Users/leilei/Downloads/VRFCoordinator/VRF.sol\":8821:8836  callResult == 0 */\n      eq\n        /* \"Users/leilei/Downloads/VRFCoordinator/VRF.sol\":8817:8869  if (callResult == 0) {revert(\"bigModExp failure!\");} */\n      iszero\n      tag_300\n      jumpi\n        /* \"Users/leilei/Downloads/VRFCoordinator/VRF.sol\":8839:8867  revert(\"bigModExp failure!\") */\n      mload(0x40)\n      0x08c379a000000000000000000000000000000000000000000000000000000000\n      dup2\n      mstore\n      0x04\n      add\n      dup1\n      dup1\n      0x20\n      add\n      dup3\n      dup2\n      sub\n      dup3\n      mstore\n      0x12\n      dup2\n      mstore\n      0x20\n      add\n      dup1\n      0x6269674d6f64457870206661696c757265210000000000000000000000000000\n      dup2\n      mstore\n      pop\n      0x20\n      add\n      swap2\n      pop\n      pop\n      mload(0x40)\n      dup1\n      swap2\n      sub\n      swap1\n      revert\n        /* \"Users/leilei/Downloads/VRFCoordinator/VRF.sol\":8817:8869  if (callResult == 0) {revert(\"bigModExp failure!\");} */\n    tag_300:\n        /* \"Users/leilei/Downloads/VRFCoordinator/VRF.sol\":8883:8889  output */\n      dup1\n        /* \"Users/leilei/Downloads/VRFCoordinator/VRF.sol\":8890:8891  0 */\n      0x00\n        /* \"Users/leilei/Downloads/VRFCoordinator/VRF.sol\":8883:8892  output[0] */\n      0x01\n      dup2\n      lt\n      tag_301\n      jumpi\n      invalid\n    tag_301:\n      0x20\n      mul\n      add\n      mload\n        /* \"Users/leilei/Downloads/VRFCoordinator/VRF.sol\":8876:8892  return output[0] */\n      swap4\n      pop\n      pop\n      pop\n      pop\n        /* \"Users/leilei/Downloads/VRFCoordinator/VRF.sol\":7827:8899  function bigModExp(uint256 base, uint256 exponent)... */\n      swap3\n      swap2\n      pop\n      pop\n      jump\t// out\n        /* \"Users/leilei/Downloads/VRFCoordinator/VRF.sol\":14165:14368  function projectiveMul(uint256 x1, uint256 z1, uint256 x2, uint256 z2)... */\n    tag_277:\n        /* \"Users/leilei/Downloads/VRFCoordinator/VRF.sol\":14262:14272  uint256 x3 */\n      0x00\n        /* \"Users/leilei/Downloads/VRFCoordinator/VRF.sol\":14274:14284  uint256 z3 */\n      dup1\n        /* \"Users/leilei/Downloads/VRFCoordinator/VRF.sol\":7588:7654  0xFFFFFFFFFFFFFFFFFFFFFFFFFFFFFFFFFFFFFFFFFFFFFFFFFFFFFFFEFFFFFC2F */\n      0xfffffffffffffffffffffffffffffffffffffffffffffffffffffffefffffc2f\n        /* \"Users/leilei/Downloads/VRFCoordinator/VRF.sol\":14306:14332  mulmod(x1, x2, FIELD_SIZE) */\n      dup1\n      tag_303\n      jumpi\n      invalid\n    tag_303:\n        /* \"Users/leilei/Downloads/VRFCoordinator/VRF.sol\":14317:14319  x2 */\n      dup5\n        /* \"Users/leilei/Downloads/VRFCoordinator/VRF.sol\":14313:14315  x1 */\n      dup8\n        /* \"Users/leilei/Downloads/VRFCoordinator/VRF.sol\":14306:14332  mulmod(x1, x2, FIELD_SIZE) */\n      mulmod\n        /* \"Users/leilei/Downloads/VRFCoordinator/VRF.sol\":7588:7654  0xFFFFFFFFFFFFFFFFFFFFFFFFFFFFFFFFFFFFFFFFFFFFFFFFFFFFFFFEFFFFFC2F */\n      0xfffffffffffffffffffffffffffffffffffffffffffffffffffffffefffffc2f\n        /* \"Users/leilei/Downloads/VRFCoordinator/VRF.sol\":14334:14360  mulmod(z1, z2, FIELD_SIZE) */\n      dup1\n      tag_304\n      jumpi\n      invalid\n    tag_304:\n        /* \"Users/leilei/Downloads/VRFCoordinator/VRF.sol\":14345:14347  z2 */\n      dup5\n        /* \"Users/leilei/Downloads/VRFCoordinator/VRF.sol\":14341:14343  z1 */\n      dup8\n        /* \"Users/leilei/Downloads/VRFCoordinator/VRF.sol\":14334:14360  mulmod(z1, z2, FIELD_SIZE) */\n      mulmod\n        /* \"Users/leilei/Downloads/VRFCoordinator/VRF.sol\":14294:14361  (x3, z3) = (mulmod(x1, x2, FIELD_SIZE), mulmod(z1, z2, FIELD_SIZE)) */\n      dup1\n      swap3\n      pop\n      dup2\n      swap4\n      pop\n      pop\n      pop\n        /* \"Users/leilei/Downloads/VRFCoordinator/VRF.sol\":14165:14368  function projectiveMul(uint256 x1, uint256 z1, uint256 x2, uint256 z2)... */\n      swap5\n      pop\n      swap5\n      swap3\n      pop\n      pop\n      pop\n      jump\t// out\n        /* \"Users/leilei/Downloads/VRFCoordinator/VRF.sol\":13761:14079  function projectiveSub(uint256 x1, uint256 z1, uint256 x2, uint256 z2)... */\n    tag_279:\n        /* \"Users/leilei/Downloads/VRFCoordinator/VRF.sol\":13858:13868  uint256 x3 */\n      0x00\n        /* \"Users/leilei/Downloads/VRFCoordinator/VRF.sol\":13870:13880  uint256 z3 */\n      dup1\n        /* \"Users/leilei/Downloads/VRFCoordinator/VRF.sol\":13890:13902  uint256 num1 */\n      0x00\n        /* \"Users/leilei/Downloads/VRFCoordinator/VRF.sol\":7588:7654  0xFFFFFFFFFFFFFFFFFFFFFFFFFFFFFFFFFFFFFFFFFFFFFFFFFFFFFFFEFFFFFC2F */\n      0xfffffffffffffffffffffffffffffffffffffffffffffffffffffffefffffc2f\n        /* \"Users/leilei/Downloads/VRFCoordinator/VRF.sol\":13905:13931  mulmod(z2, x1, FIELD_SIZE) */\n      dup1\n      tag_306\n      jumpi\n      invalid\n    tag_306:\n        /* \"Users/leilei/Downloads/VRFCoordinator/VRF.sol\":13916:13918  x1 */\n      dup8\n        /* \"Users/leilei/Downloads/VRFCoordinator/VRF.sol\":13912:13914  z2 */\n      dup6\n        /* \"Users/leilei/Downloads/VRFCoordinator/VRF.sol\":13905:13931  mulmod(z2, x1, FIELD_SIZE) */\n      mulmod\n        /* \"Users/leilei/Downloads/VRFCoordinator/VRF.sol\":13890:13931  uint256 num1 = mulmod(z2, x1, FIELD_SIZE) */\n      swap1\n      pop\n        /* \"Users/leilei/Downloads/VRFCoordinator/VRF.sol\":13939:13951  uint256 num2 */\n      0x00\n        /* \"Users/leilei/Downloads/VRFCoordinator/VRF.sol\":7588:7654  0xFFFFFFFFFFFFFFFFFFFFFFFFFFFFFFFFFFFFFFFFFFFFFFFFFFFFFFFEFFFFFC2F */\n      0xfffffffffffffffffffffffffffffffffffffffffffffffffffffffefffffc2f\n        /* \"Users/leilei/Downloads/VRFCoordinator/VRF.sol\":13954:13993  mulmod(FIELD_SIZE - x2, z1, FIELD_SIZE) */\n      dup1\n      tag_307\n      jumpi\n      invalid\n    tag_307:\n        /* \"Users/leilei/Downloads/VRFCoordinator/VRF.sol\":13978:13980  z1 */\n      dup8\n        /* \"Users/leilei/Downloads/VRFCoordinator/VRF.sol\":13974:13976  x2 */\n      dup8\n        /* \"Users/leilei/Downloads/VRFCoordinator/VRF.sol\":7588:7654  0xFFFFFFFFFFFFFFFFFFFFFFFFFFFFFFFFFFFFFFFFFFFFFFFFFFFFFFFEFFFFFC2F */\n      0xfffffffffffffffffffffffffffffffffffffffffffffffffffffffefffffc2f\n        /* \"Users/leilei/Downloads/VRFCoordinator/VRF.sol\":13961:13976  FIELD_SIZE - x2 */\n      sub\n        /* \"Users/leilei/Downloads/VRFCoordinator/VRF.sol\":13954:13993  mulmod(FIELD_SIZE - x2, z1, FIELD_SIZE) */\n      mulmod\n        /* \"Users/leilei/Downloads/VRFCoordinator/VRF.sol\":13939:13993  uint256 num2 = mulmod(FIELD_SIZE - x2, z1, FIELD_SIZE) */\n      swap1\n      pop\n        /* \"Users/leilei/Downloads/VRFCoordinator/VRF.sol\":7588:7654  0xFFFFFFFFFFFFFFFFFFFFFFFFFFFFFFFFFFFFFFFFFFFFFFFFFFFFFFFEFFFFFC2F */\n      0xfffffffffffffffffffffffffffffffffffffffffffffffffffffffefffffc2f\n        /* \"Users/leilei/Downloads/VRFCoordinator/VRF.sol\":14013:14043  addmod(num1, num2, FIELD_SIZE) */\n      dup1\n      tag_308\n      jumpi\n      invalid\n    tag_308:\n        /* \"Users/leilei/Downloads/VRFCoordinator/VRF.sol\":14026:14030  num2 */\n      dup2\n        /* \"Users/leilei/Downloads/VRFCoordinator/VRF.sol\":14020:14024  num1 */\n      dup4\n        /* \"Users/leilei/Downloads/VRFCoordinator/VRF.sol\":14013:14043  addmod(num1, num2, FIELD_SIZE) */\n      addmod\n        /* \"Users/leilei/Downloads/VRFCoordinator/VRF.sol\":7588:7654  0xFFFFFFFFFFFFFFFFFFFFFFFFFFFFFFFFFFFFFFFFFFFFFFFFFFFFFFFEFFFFFC2F */\n      0xfffffffffffffffffffffffffffffffffffffffffffffffffffffffefffffc2f\n        /* \"Users/leilei/Downloads/VRFCoordinator/VRF.sol\":14045:14071  mulmod(z1, z2, FIELD_SIZE) */\n      dup1\n      tag_309\n      jumpi\n      invalid\n    tag_309:\n        /* \"Users/leilei/Downloads/VRFCoordinator/VRF.sol\":14056:14058  z2 */\n      dup7\n        /* \"Users/leilei/Downloads/VRFCoordinator/VRF.sol\":14052:14054  z1 */\n      dup10\n        /* \"Users/leilei/Downloads/VRFCoordinator/VRF.sol\":14045:14071  mulmod(z1, z2, FIELD_SIZE) */\n      mulmod\n        /* \"Users/leilei/Downloads/VRFCoordinator/VRF.sol\":14001:14072  (x3, z3) = (addmod(num1, num2, FIELD_SIZE), mulmod(z1, z2, FIELD_SIZE)) */\n      dup1\n      swap5\n      pop\n      dup2\n      swap6\n      pop\n      pop\n      pop\n        /* \"Users/leilei/Downloads/VRFCoordinator/VRF.sol\":13761:14079  function projectiveSub(uint256 x1, uint256 z1, uint256 x2, uint256 z2)... */\n      pop\n      pop\n      swap5\n      pop\n      swap5\n      swap3\n      pop\n      pop\n      pop\n      jump\t// out\n        /* \"Users/leilei/Downloads/VRFCoordinator/VRFCoordinator.sol\":354:12405  contract VRFCoordinator is VRF, VRFRequestIDBase {... */\n    tag_53:\n      mload(0x40)\n      dup1\n      0x60\n      add\n      0x40\n      mstore\n      dup1\n      and(0xffffffffffffffffffffffffffffffffffffffff, 0x00)\n      dup2\n      mstore\n      0x20\n      add\n      and(0xffffffffffffffffffffffff, 0x00)\n      dup2\n      mstore\n      0x20\n      add\n      0x00\n      dup1\n      not\n      and\n      dup2\n      mstore\n      pop\n      swap1\n      jump\t// out\n    tag_89:\n      mload(0x40)\n      dup1\n      0x40\n      add\n      0x40\n      mstore\n      dup1\n      0x02\n      swap1\n        /* \"--CODEGEN--\":29:31   */\n      0x20\n        /* \"--CODEGEN--\":21:27   */\n      dup3\n        /* \"--CODEGEN--\":17:32   */\n      mul\n        /* \"--CODEGEN--\":125:129   */\n      dup1\n        /* \"--CODEGEN--\":109:123   */\n      calldatasize\n        /* \"--CODEGEN--\":101:107   */\n      dup4\n        /* \"--CODEGEN--\":88:130   */\n      calldatacopy\n        /* \"--CODEGEN--\":156:160   */\n      dup1\n        /* \"--CODEGEN--\":148:154   */\n      dup3\n        /* \"--CODEGEN--\":144:161   */\n      add\n        /* \"--CODEGEN--\":134:161   */\n      swap2\n      pop\n        /* \"--CODEGEN--\":0:165   */\n      pop\n        /* \"Users/leilei/Downloads/VRFCoordinator/VRFCoordinator.sol\":354:12405  contract VRFCoordinator is VRF, VRFRequestIDBase {... */\n      swap1\n      pop\n      pop\n      swap1\n      jump\t// out\n    tag_130:\n      mload(0x40)\n      dup1\n      0x60\n      add\n      0x40\n      mstore\n      dup1\n      0x03\n      swap1\n        /* \"--CODEGEN--\":29:31   */\n      0x20\n        /* \"--CODEGEN--\":21:27   */\n      dup3\n        /* \"--CODEGEN--\":17:32   */\n      mul\n        /* \"--CODEGEN--\":125:129   */\n      dup1\n        /* \"--CODEGEN--\":109:123   */\n      calldatasize\n        /* \"--CODEGEN--\":101:107   */\n      dup4\n        /* \"--CODEGEN--\":88:130   */\n      calldatacopy\n        /* \"--CODEGEN--\":156:160   */\n      dup1\n        /* \"--CODEGEN--\":148:154   */\n      dup3\n        /* \"--CODEGEN--\":144:161   */\n      add\n        /* \"--CODEGEN--\":134:161   */\n      swap2\n      pop\n        /* \"--CODEGEN--\":0:165   */\n      pop\n        /* \"Users/leilei/Downloads/VRFCoordinator/VRFCoordinator.sol\":354:12405  contract VRFCoordinator is VRF, VRFRequestIDBase {... */\n      swap1\n      pop\n      pop\n      swap1\n      jump\t// out\n    tag_291:\n      mload(0x40)\n      dup1\n      0xc0\n      add\n      0x40\n      mstore\n      dup1\n      0x06\n      swap1\n        /* \"--CODEGEN--\":29:31   */\n      0x20\n        /* \"--CODEGEN--\":21:27   */\n      dup3\n        /* \"--CODEGEN--\":17:32   */\n      mul\n        /* \"--CODEGEN--\":125:129   */\n      dup1\n        /* \"--CODEGEN--\":109:123   */\n      calldatasize\n        /* \"--CODEGEN--\":101:107   */\n      dup4\n        /* \"--CODEGEN--\":88:130   */\n      calldatacopy\n        /* \"--CODEGEN--\":156:160   */\n      dup1\n        /* \"--CODEGEN--\":148:154   */\n      dup3\n        /* \"--CODEGEN--\":144:161   */\n      add\n        /* \"--CODEGEN--\":134:161   */\n      swap2\n      pop\n        /* \"--CODEGEN--\":0:165   */\n      pop\n        /* \"Users/leilei/Downloads/VRFCoordinator/VRFCoordinator.sol\":354:12405  contract VRFCoordinator is VRF, VRFRequestIDBase {... */\n      swap1\n      pop\n      pop\n      swap1\n      jump\t// out\n    tag_299:\n      mload(0x40)\n      dup1\n      0x20\n      add\n      0x40\n      mstore\n      dup1\n      0x01\n      swap1\n        /* \"--CODEGEN--\":29:31   */\n      0x20\n        /* \"--CODEGEN--\":21:27   */\n      dup3\n        /* \"--CODEGEN--\":17:32   */\n      mul\n        /* \"--CODEGEN--\":125:129   */\n      dup1\n        /* \"--CODEGEN--\":109:123   */\n      calldatasize\n        /* \"--CODEGEN--\":101:107   */\n      dup4\n        /* \"--CODEGEN--\":88:130   */\n      calldatacopy\n        /* \"--CODEGEN--\":156:160   */\n      dup1\n        /* \"--CODEGEN--\":148:154   */\n      dup3\n        /* \"--CODEGEN--\":144:161   */\n      add\n        /* \"--CODEGEN--\":134:161   */\n      swap2\n      pop\n        /* \"--CODEGEN--\":0:165   */\n      pop\n        /* \"Users/leilei/Downloads/VRFCoordinator/VRFCoordinator.sol\":354:12405  contract VRFCoordinator is VRF, VRFRequestIDBase {... */\n      swap1\n      pop\n      pop\n      swap1\n      jump\t// out\n    stop\n    data_3a4898a14f86303f4f0f062cf67700e5107caf8a2238d9bba8aa8f9b688110e9 796f752063616e277420636861726765206d6f7265207468616e20616c6c20746865204c494e4b20696e2074686520776f726c642c20677265656479\n    data_40e788544e29554c975084a69228c0b0b4a1c9c1f6404406ec2b6d9b86d179a9 4669727374206d756c7469706c69636174696f6e20636865636b206661696c6564\n    data_4bae64ba22ed7fbb776e6032297d511b182dfd08020c93d70fec3cfcc33a5267 5365636f6e64206d756c7469706c69636174696f6e20636865636b206661696c6564\n\n    auxdata: 0xa26469706673582212202cbb5936f85bb28390ed5658cf81ead0fb229e68d4b7c071b7662b4caa3142d064736f6c63430006060033\n}\n",
				"bytecode": {
					"linkReferences": {},
					"object": "608060405234801561001057600080fd5b506040516131ba3803806131ba8339818101604052604081101561003357600080fd5b810190808051906020019092919080519060200190929190505050816000806101000a81548173ffffffffffffffffffffffffffffffffffffffff021916908373ffffffffffffffffffffffffffffffffffffffff16021790555080600160006101000a81548173ffffffffffffffffffffffffffffffffffffffff021916908373ffffffffffffffffffffffffffffffffffffffff16021790555050506130da806100e06000396000f3fe608060405234801561001057600080fd5b50600436106100a85760003560e01c8063a4c0ed3611610071578063a4c0ed361461030e578063b415f4f5146103f3578063caf70c4a14610411578063d83402091461048a578063e911439c146104ec578063f3fef3a31461050a576100a8565b80626f6ad0146100ad57806321f36509146101055780635e1c10591461019d57806375d35070146102585780638aa7927b146102f0575b600080fd5b6100ef600480360360208110156100c357600080fd5b81019080803573ffffffffffffffffffffffffffffffffffffffff169060200190929190505050610558565b6040518082815260200191505060405180910390f35b6101316004803603602081101561011b57600080fd5b8101908080359060200190929190505050610570565b604051808473ffffffffffffffffffffffffffffffffffffffff1673ffffffffffffffffffffffffffffffffffffffff168152602001836bffffffffffffffffffffffff166bffffffffffffffffffffffff168152602001828152602001935050505060405180910390f35b610256600480360360208110156101b357600080fd5b81019080803590602001906401000000008111156101d057600080fd5b8201836020820111156101e257600080fd5b8035906020019184600183028401116401000000008311171561020457600080fd5b91908080601f016020809104026020016040519081016040528093929190818152602001838380828437600081840152601f19601f8201169050808301925050505050505091929192905050506105d2565b005b6102846004803603602081101561026e57600080fd5b810190808035906020019092919050505061078c565b604051808473ffffffffffffffffffffffffffffffffffffffff1673ffffffffffffffffffffffffffffffffffffffff168152602001836bffffffffffffffffffffffff166bffffffffffffffffffffffff168152602001828152602001935050505060405180910390f35b6102f86107ee565b6040518082815260200191505060405180910390f35b6103f16004803603606081101561032457600080fd5b81019080803573ffffffffffffffffffffffffffffffffffffffff169060200190929190803590602001909291908035906020019064010000000081111561036b57600080fd5b82018360208201111561037d57600080fd5b8035906020019184600183028401116401000000008311171561039f57600080fd5b91908080601f016020809104026020016040519081016040528093929190818152602001838380828437600081840152601f19601f8201169050808301925050505050505091929192905050506107f3565b005b6103fb6108ff565b6040518082815260200191505060405180910390f35b6104746004803603604081101561042757600080fd5b8101908080604001906002806020026040519081016040528092919082600260200280828437600081840152601f19601f8201169050808301925050505050509192919290505050610904565b6040518082815260200191505060405180910390f35b6104ea600480360360a08110156104a057600080fd5b8101908080359060200190929190803573ffffffffffffffffffffffffffffffffffffffff169060200190929190806040019091929192908035906020019092919050505061095c565b005b6104f4610c81565b6040518082815260200191505060405180910390f35b6105566004803603604081101561052057600080fd5b81019080803573ffffffffffffffffffffffffffffffffffffffff16906020019092919080359060200190929190505050610c87565b005b60046020528060005260406000206000915090505481565b60026020528060005260406000206000915090508060000160009054906101000a900473ffffffffffffffffffffffffffffffffffffffff16908060000160149054906101000a90046bffffffffffffffffffffffff16908060010154905083565b60006105dc612f55565b6000806105e885610ec0565b935093509350935060006003600086815260200190815260200160002060000160009054906101000a900473ffffffffffffffffffffffffffffffffffffffff16905061068f84602001516bffffffffffffffffffffffff16600460008473ffffffffffffffffffffffffffffffffffffffff1673ffffffffffffffffffffffffffffffffffffffff1681526020019081526020016000205461132290919063ffffffff16565b600460008373ffffffffffffffffffffffffffffffffffffffff1673ffffffffffffffffffffffffffffffffffffffff1681526020019081526020016000208190555060026000848152602001908152602001600020600080820160006101000a81549073ffffffffffffffffffffffffffffffffffffffff02191690556000820160146101000a8154906bffffffffffffffffffffffff021916905560018201600090555050610745838386600001516113aa565b7fa2e7a402243ebda4a69ceeb3dfb682943b7a9b3ac66d6eefa8db65894009611c8383604051808381526020018281526020019250505060405180910390a1505050505050565b60036020528060005260406000206000915090508060000160009054906101000a900473ffffffffffffffffffffffffffffffffffffffff16908060000160149054906101000a90046bffffffffffffffffffffffff16908060010154905083565b602081565b6000809054906101000a900473ffffffffffffffffffffffffffffffffffffffff1673ffffffffffffffffffffffffffffffffffffffff163373ffffffffffffffffffffffffffffffffffffffff16146108b5576040517f08c379a00000000000000000000000000000000000000000000000000000000081526004018080602001828103825260138152602001807f4d75737420757365204c494e4b20746f6b656e0000000000000000000000000081525060200191505060405180910390fd5b6000808280602001905160408110156108cd57600080fd5b810190808051906020019092919080519060200190929190505050915091506108f88282868861156d565b5050505050565b60e081565b6000816040516020018082600260200280838360005b8381101561093557808201518184015260208101905061091a565b50505050905001915050604051602081830303815290604052805190602001209050919050565b600061099e836002806020026040519081016040528092919082600260200280828437600081840152601f19601f820116905080830192505050505050610904565b905060006003600083815260200190815260200160002060000160009054906101000a900473ffffffffffffffffffffffffffffffffffffffff169050600073ffffffffffffffffffffffffffffffffffffffff168173ffffffffffffffffffffffffffffffffffffffff1614610a7d576040517f08c379a00000000000000000000000000000000000000000000000000000000081526004018080602001828103825260198152602001807f706c656173652072656769737465722061206e6577206b65790000000000000081525060200191505060405180910390fd5b600073ffffffffffffffffffffffffffffffffffffffff168573ffffffffffffffffffffffffffffffffffffffff161415610b20576040517f08c379a00000000000000000000000000000000000000000000000000000000081526004018080602001828103825260178152602001807f5f6f7261636c65206d757374206e6f742062652030783000000000000000000081525060200191505060405180910390fd5b846003600084815260200190815260200160002060000160006101000a81548173ffffffffffffffffffffffffffffffffffffffff021916908373ffffffffffffffffffffffffffffffffffffffff1602179055508260036000848152602001908152602001600020600101819055506b033b2e3c9fd0803ce8000000861115610bf5576040517f08c379a000000000000000000000000000000000000000000000000000000000815260040180806020018281038252603c815260200180613026603c913960400191505060405180910390fd5b856003600084815260200190815260200160002060000160146101000a8154816bffffffffffffffffffffffff02191690836bffffffffffffffffffffffff1602179055507fae189157e0628c1e62315e9179156e1ea10e90e9c15060002f7021e907dc2cfe8287604051808381526020018281526020019250505060405180910390a1505050505050565b6101a081565b8080600460003373ffffffffffffffffffffffffffffffffffffffff1673ffffffffffffffffffffffffffffffffffffffff168152602001908152602001600020541015610d3d576040517f08c379a00000000000000000000000000000000000000000000000000000000081526004018080602001828103825260208152602001807f63616e2774207769746864726177206d6f7265207468616e2062616c616e636581525060200191505060405180910390fd5b610d8f82600460003373ffffffffffffffffffffffffffffffffffffffff1673ffffffffffffffffffffffffffffffffffffffff1681526020019081526020016000205461195590919063ffffffff16565b600460003373ffffffffffffffffffffffffffffffffffffffff1673ffffffffffffffffffffffffffffffffffffffff168152602001908152602001600020819055506000809054906101000a900473ffffffffffffffffffffffffffffffffffffffff1673ffffffffffffffffffffffffffffffffffffffff1663a9059cbb84846040518363ffffffff1660e01b8152600401808373ffffffffffffffffffffffffffffffffffffffff1673ffffffffffffffffffffffffffffffffffffffff16815260200182815260200192505050602060405180830381600087803b158015610e7a57600080fd5b505af1158015610e8e573d6000803e3d6000fd5b505050506040513d6020811015610ea457600080fd5b8101908080519060200190929190505050610ebb57fe5b505050565b6000610eca612f55565b60008060006101a0602001905080865114610f4d576040517f08c379a00000000000000000000000000000000000000000000000000000000081526004018080602001828103825260128152602001807f77726f6e672070726f6f66206c656e677468000000000000000000000000000081525060200191505060405180910390fd5b610f55612f9d565b60008060208901925060e08901519150838901519050610f7483610904565b9750610f8088836119de565b9550600260008781526020019081526020016000206040518060600160405290816000820160009054906101000a900473ffffffffffffffffffffffffffffffffffffffff1673ffffffffffffffffffffffffffffffffffffffff1673ffffffffffffffffffffffffffffffffffffffff1681526020016000820160149054906101000a90046bffffffffffffffffffffffff166bffffffffffffffffffffffff166bffffffffffffffffffffffff1681526020016001820154815250509650600073ffffffffffffffffffffffffffffffffffffffff16876000015173ffffffffffffffffffffffffffffffffffffffff1614156110e7576040517f08c379a00000000000000000000000000000000000000000000000000000000081526004018080602001828103825260188152602001807f6e6f20636f72726573706f6e64696e672072657175657374000000000000000081525060200191505060405180910390fd5b818160405160200180838152602001828152602001925050506040516020818303038152906040528051906020012087604001511461118e576040517f08c379a000000000000000000000000000000000000000000000000000000000815260040180806020018281038252601a8152602001807f77726f6e672070726553656564206f7220626c6f636b206e756d00000000000081525060200191505060405180910390fd5b6000814090506000801b8114156112c957600160009054906101000a900473ffffffffffffffffffffffffffffffffffffffff1673ffffffffffffffffffffffffffffffffffffffff1663e9413d38836040518263ffffffff1660e01b81526004018082815260200191505060206040518083038186803b15801561121257600080fd5b505afa158015611226573d6000803e3d6000fd5b505050506040513d602081101561123c57600080fd5b810190808051906020019092919050505090506000801b8114156112c8576040517f08c379a00000000000000000000000000000000000000000000000000000000081526004018080602001828103825260168152602001807f706c656173652070726f766520626c6f636b686173680000000000000000000081525060200191505060405180910390fd5b5b6000838260405160200180838152602001828152602001925050506040516020818303038152906040528051906020012060001c90508060e08c01526101a08b526113138b611a17565b96505050505050509193509193565b6000808284019050838110156113a0576040517f08c379a000000000000000000000000000000000000000000000000000000000815260040180806020018281038252601b8152602001807f536166654d6174683a206164646974696f6e206f766572666c6f77000000000081525060200191505060405180910390fd5b8091505092915050565b600060606394985ddd60e01b85856040516024018083815260200182815260200192505050604051602081830303815290604052907bffffffffffffffffffffffffffffffffffffffffffffffffffffffff19166020820180517bffffffffffffffffffffffffffffffffffffffffffffffffffffffff838183161783525050505090506000620324b09050805a10156114ac576040517f08c379a000000000000000000000000000000000000000000000000000000000815260040180806020018281038252601b8152602001807f6e6f7420656e6f7567682067617320666f7220636f6e73756d6572000000000081525060200191505060405180910390fd5b60008473ffffffffffffffffffffffffffffffffffffffff16836040518082805190602001908083835b602083106114f957805182526020820191506020810190506020830392506114d6565b6001836020036101000a0380198251168184511680821785525050505050509050019150506000604051808303816000865af19150503d806000811461155b576040519150601f19603f3d011682016040523d82523d6000602084013e611560565b606091505b5050905050505050505050565b81846003600082815260200190815260200160002060000160149054906101000a90046bffffffffffffffffffffffff166bffffffffffffffffffffffff16821015611621576040517f08c379a00000000000000000000000000000000000000000000000000000000081526004018080602001828103825260148152602001807f42656c6f7720616772656564207061796d656e7400000000000000000000000081525060200191505060405180910390fd5b60006005600088815260200190815260200160002060008573ffffffffffffffffffffffffffffffffffffffff1673ffffffffffffffffffffffffffffffffffffffff168152602001908152602001600020549050600061168488888785611bd8565b9050600061169289836119de565b9050600073ffffffffffffffffffffffffffffffffffffffff166002600083815260200190815260200160002060000160009054906101000a900473ffffffffffffffffffffffffffffffffffffffff1673ffffffffffffffffffffffffffffffffffffffff161461170057fe5b856002600083815260200190815260200160002060000160006101000a81548173ffffffffffffffffffffffffffffffffffffffff021916908373ffffffffffffffffffffffffffffffffffffffff1602179055506b033b2e3c9fd0803ce8000000871061176a57fe5b866002600083815260200190815260200160002060000160146101000a8154816bffffffffffffffffffffffff02191690836bffffffffffffffffffffffff16021790555081436040516020018083815260200182815260200192505050604051602081830303815290604052805190602001206002600083815260200190815260200160002060010181905550600360008a8152602001908152602001600020600101547f56bd374744a66d531874338def36c906e3a6cf31176eb1e9afd9f1de69725d518a84898b86604051808681526020018581526020018473ffffffffffffffffffffffffffffffffffffffff1673ffffffffffffffffffffffffffffffffffffffff1681526020018381526020018281526020019550505050505060405180910390a26118f66001600560008c815260200190815260200160002060008973ffffffffffffffffffffffffffffffffffffffff1673ffffffffffffffffffffffffffffffffffffffff1681526020019081526020016000205461132290919063ffffffff16565b600560008b815260200190815260200160002060008873ffffffffffffffffffffffffffffffffffffffff1673ffffffffffffffffffffffffffffffffffffffff16815260200190815260200160002081905550505050505050505050565b6000828211156119cd576040517f08c379a000000000000000000000000000000000000000000000000000000000815260040180806020018281038252601e8152602001807f536166654d6174683a207375627472616374696f6e206f766572666c6f77000081525060200191505060405180910390fd5b600082840390508091505092915050565b60008282604051602001808381526020018281526020019250505060405160208183030381529060405280519060200120905092915050565b60006101a0825114611a91576040517f08c379a00000000000000000000000000000000000000000000000000000000081526004018080602001828103825260128152602001807f77726f6e672070726f6f66206c656e677468000000000000000000000000000081525060200191505060405180910390fd5b611a99612f9d565b611aa1612f9d565b611aa9612fbf565b6000611ab3612f9d565b611abb612f9d565b6000888060200190516101a0811015611ad357600080fd5b810190809190826040019190826040019190826060018051906020019092919091908260400191908260400180519060200190929190505050839350809750819850829950839a50849b50859c50869d5050505050505050611b6f878787600060038110611b3d57fe5b602002015188600160038110611b4f57fe5b602002015189600260038110611b6157fe5b602002015189898989611c52565b6003866040516020018083815260200182600260200280838360005b83811015611ba6578082015181840152602081019050611b8b565b50505050905001925050506040516020818303038152906040528051906020012060001c975050505050505050919050565b600084848484604051602001808581526020018481526020018373ffffffffffffffffffffffffffffffffffffffff1673ffffffffffffffffffffffffffffffffffffffff1681526020018281526020019450505050506040516020818303038152906040528051906020012060001c9050949350505050565b611c5b89611f7d565b611ccd576040517f08c379a000000000000000000000000000000000000000000000000000000000815260040180806020018281038252601a8152602001807f7075626c6963206b6579206973206e6f74206f6e20637572766500000000000081525060200191505060405180910390fd5b611cd688611f7d565b611d48576040517f08c379a00000000000000000000000000000000000000000000000000000000081526004018080602001828103825260158152602001807f67616d6d61206973206e6f74206f6e206375727665000000000000000000000081525060200191505060405180910390fd5b611d5183611f7d565b611dc3576040517f08c379a000000000000000000000000000000000000000000000000000000000815260040180806020018281038252601d8152602001807f6347616d6d615769746e657373206973206e6f74206f6e20637572766500000081525060200191505060405180910390fd5b611dcc82611f7d565b611e3e576040517f08c379a000000000000000000000000000000000000000000000000000000000815260040180806020018281038252601c8152602001807f73486173685769746e657373206973206e6f74206f6e2063757276650000000081525060200191505060405180910390fd5b611e4a878a8887611fee565b611ebc576040517f08c379a000000000000000000000000000000000000000000000000000000000815260040180806020018281038252601a8152602001807f6164647228632a706b2b732a6729e289a05f755769746e65737300000000000081525060200191505060405180910390fd5b611ec4612f9d565b611ece8a87612226565b9050611ed8612f9d565b611ee7898b878b8689896122e5565b90506000611ef8838d8d8a86612489565b9050808a14611f6f576040517f08c379a000000000000000000000000000000000000000000000000000000000815260040180806020018281038252600d8152602001807f696e76616c69642070726f6f660000000000000000000000000000000000000081525060200191505060405180910390fd5b505050505050505050505050565b60007ffffffffffffffffffffffffffffffffffffffffffffffffffffffffefffffc2f80611fa757fe5b82600160028110611fb457fe5b602002015183600160028110611fc657fe5b602002015109611fe683600060028110611fdc57fe5b60200201516125b8565b149050919050565b60008073ffffffffffffffffffffffffffffffffffffffff168273ffffffffffffffffffffffffffffffffffffffff161415612092576040517f08c379a000000000000000000000000000000000000000000000000000000000815260040180806020018281038252600b8152602001807f626164207769746e65737300000000000000000000000000000000000000000081525060200191505060405180910390fd5b6000806002866001600281106120a457fe5b6020020151816120b057fe5b06146120bd57601c6120c0565b601b5b905060007ffffffffffffffffffffffffffffffffebaaedce6af48a03bbfd25e8cd0364141806120ec57fe5b85876000600281106120fa57fe5b6020020151097ffffffffffffffffffffffffffffffffebaaedce6af48a03bbfd25e8cd03641410360001b905060007ffffffffffffffffffffffffffffffffebaaedce6af48a03bbfd25e8cd03641418061215157fe5b8760006002811061215e57fe5b6020020151890960001b90506000600183858a60006002811061217d57fe5b602002015160001b8560405160008152602001604052604051808581526020018460ff1660ff1681526020018381526020018281526020019450505050506020604051602081039080840390855afa1580156121dd573d6000803e3d6000fd5b5050506020604051035190508573ffffffffffffffffffffffffffffffffffffffff168173ffffffffffffffffffffffffffffffffffffffff1614945050505050949350505050565b61222e612f9d565b61228f600184846040516020018084815260200183600260200280838360005b8381101561226957808201518184015260208101905061224e565b505050509050018281526020019350505050604051602081830303815290604052612646565b90505b61229b81611f7d565b6122df576122d8816000600281106122af57fe5b602002015160405160200180828152602001915050604051602081830303815290604052612646565b9050612292565b92915050565b6122ed612f9d565b60007ffffffffffffffffffffffffffffffffffffffffffffffffffffffffefffffc2f8460006002811061231d57fe5b60200201518860006002811061232f57fe5b6020020151038161233c57fe5b0614156123b1576040517f08c379a000000000000000000000000000000000000000000000000000000000815260040180806020018281038252601e8152602001807f706f696e747320696e2073756d206d7573742062652064697374696e6374000081525060200191505060405180910390fd5b6123bc878988612719565b612411576040517f08c379a00000000000000000000000000000000000000000000000000000000081526004018080602001828103825260218152602001806130626021913960400191505060405180910390fd5b61241c848685612719565b612471576040517f08c379a00000000000000000000000000000000000000000000000000000000081526004018080602001828103825260228152602001806130836022913960400191505060405180910390fd5b61247c8684846128a4565b9050979650505050505050565b6000600286868685876040516020018087815260200186600260200280838360005b838110156124c65780820151818401526020810190506124ab565b5050505090500185600260200280838360005b838110156124f45780820151818401526020810190506124d9565b5050505090500184600260200280838360005b83811015612522578082015181840152602081019050612507565b5050505090500183600260200280838360005b83811015612550578082015181840152602081019050612535565b505050509050018273ffffffffffffffffffffffffffffffffffffffff1673ffffffffffffffffffffffffffffffffffffffff1660601b815260140196505050505050506040516020818303038152906040528051906020012060001c905095945050505050565b6000807ffffffffffffffffffffffffffffffffffffffffffffffffffffffffefffffc2f806125e357fe5b7ffffffffffffffffffffffffffffffffffffffffffffffffffffffffefffffc2f8061260b57fe5b848509840990507ffffffffffffffffffffffffffffffffffffffffffffffffffffffffefffffc2f8061263a57fe5b60078208915050919050565b61264e612f9d565b61265782612a22565b8160006002811061266457fe5b60200201818152505061268f61268a8260006002811061268057fe5b60200201516125b8565b612a8f565b8160016002811061269c57fe5b60200201818152505060016002826001600281106126b657fe5b6020020151816126c257fe5b06141561271457806001600281106126d657fe5b60200201517ffffffffffffffffffffffffffffffffffffffffffffffffffffffffefffffc2f038160016002811061270a57fe5b6020020181815250505b919050565b60008083141561272857600080fd5b60008460006002811061273757fe5b6020020151905060008060028760016002811061275057fe5b60200201518161275c57fe5b061461276957601c61276c565b601b5b905060007ffffffffffffffffffffffffffffffffebaaedce6af48a03bbfd25e8cd03641418061279857fe5b83870960001b9050600060016000801b848660001b8560405160008152602001604052604051808581526020018460ff1660ff1681526020018381526020018281526020019450505050506020604051602081039080840390855afa158015612805573d6000803e3d6000fd5b5050506020604051035190506000866040516020018082600260200280838360005b83811015612842578082015181840152602081019050612827565b505050509050019150506040516020818303038152906040528051906020012060001c90508073ffffffffffffffffffffffffffffffffffffffff168273ffffffffffffffffffffffffffffffffffffffff1614955050505050509392505050565b6128ac612f9d565b6000806000612901876000600281106128c157fe5b6020020151886001600281106128d357fe5b6020020151886000600281106128e557fe5b6020020151896001600281106128f757fe5b6020020151612ac9565b80935081945082955050505060017ffffffffffffffffffffffffffffffffffffffffffffffffffffffffefffffc2f8061293757fe5b868309146129ad576040517f08c379a00000000000000000000000000000000000000000000000000000000081526004018080602001828103825260198152602001807f696e765a206d75737420626520696e7665727365206f66207a0000000000000081525060200191505060405180910390fd5b60405180604001604052807ffffffffffffffffffffffffffffffffffffffffffffffffffffffffefffffc2f806129e057fe5b87860981526020017ffffffffffffffffffffffffffffffffffffffffffffffffffffffffefffffc2f80612a1057fe5b87850981525093505050509392505050565b6000818051906020012060001c90505b7ffffffffffffffffffffffffffffffffffffffffffffffffffffffffefffffc2f8110612a8a5780604051602001808281526020019150506040516020818303038152906040528051906020012060001c9050612a32565b919050565b6000612ac282600260017ffffffffffffffffffffffffffffffffffffffffffffffffffffffffefffffc2f01901c612c9d565b9050919050565b60008060008060006001809150915060007ffffffffffffffffffffffffffffffffffffffffffffffffffffffffefffffc2f80612b0257fe5b897ffffffffffffffffffffffffffffffffffffffffffffffffffffffffefffffc2f038808905060007ffffffffffffffffffffffffffffffffffffffffffffffffffffffffefffffc2f80612b5357fe5b8b7ffffffffffffffffffffffffffffffffffffffffffffffffffffffffefffffc2f038a0890506000612b8883838585612dff565b8092508199505050612b9c88828e88612e69565b8092508199505050612bb088828c87612e69565b80925081995050506000612bc68d878b85612e69565b8092508199505050612bda88828686612dff565b8092508199505050612bee88828e89612e69565b8092508199505050808214612c89577ffffffffffffffffffffffffffffffffffffffffffffffffffffffffefffffc2f80612c2557fe5b818a0998507ffffffffffffffffffffffffffffffffffffffffffffffffffffffffefffffc2f80612c5257fe5b82890997507ffffffffffffffffffffffffffffffffffffffffffffffffffffffffefffffc2f80612c7f57fe5b8183099650612c8d565b8196505b5050505050509450945094915050565b600080612ca8612fe1565b602081600060068110612cb757fe5b602002018181525050602081600160068110612ccf57fe5b602002018181525050602081600260068110612ce757fe5b6020020181815250508481600360068110612cfe57fe5b6020020181815250508381600460068110612d1557fe5b6020020181815250507ffffffffffffffffffffffffffffffffffffffffffffffffffffffffefffffc2f81600560068110612d4c57fe5b602002018181525050612d5d613003565b60208160c0846005600019fa92506000831415612de2576040517f08c379a00000000000000000000000000000000000000000000000000000000081526004018080602001828103825260128152602001807f6269674d6f64457870206661696c75726521000000000000000000000000000081525060200191505060405180910390fd5b80600060018110612def57fe5b6020020151935050505092915050565b6000807ffffffffffffffffffffffffffffffffffffffffffffffffffffffffefffffc2f80612e2a57fe5b8487097ffffffffffffffffffffffffffffffffffffffffffffffffffffffffefffffc2f80612e5557fe5b848709809250819350505094509492505050565b60008060007ffffffffffffffffffffffffffffffffffffffffffffffffffffffffefffffc2f80612e9657fe5b878509905060007ffffffffffffffffffffffffffffffffffffffffffffffffffffffffefffffc2f80612ec557fe5b87877ffffffffffffffffffffffffffffffffffffffffffffffffffffffffefffffc2f030990507ffffffffffffffffffffffffffffffffffffffffffffffffffffffffefffffc2f80612f1457fe5b8183087ffffffffffffffffffffffffffffffffffffffffffffffffffffffffefffffc2f80612f3f57fe5b8689098094508195505050505094509492505050565b6040518060600160405280600073ffffffffffffffffffffffffffffffffffffffff16815260200160006bffffffffffffffffffffffff168152602001600080191681525090565b6040518060400160405280600290602082028036833780820191505090505090565b6040518060600160405280600390602082028036833780820191505090505090565b6040518060c00160405280600690602082028036833780820191505090505090565b604051806020016040528060019060208202803683378082019150509050509056fe796f752063616e277420636861726765206d6f7265207468616e20616c6c20746865204c494e4b20696e2074686520776f726c642c206772656564794669727374206d756c7469706c69636174696f6e20636865636b206661696c65645365636f6e64206d756c7469706c69636174696f6e20636865636b206661696c6564a26469706673582212202cbb5936f85bb28390ed5658cf81ead0fb229e68d4b7c071b7662b4caa3142d064736f6c63430006060033",
					"opcodes": "PUSH1 0x80 PUSH1 0x40 MSTORE CALLVALUE DUP1 ISZERO PUSH2 0x10 JUMPI PUSH1 0x0 DUP1 REVERT JUMPDEST POP PUSH1 0x40 MLOAD PUSH2 0x31BA CODESIZE SUB DUP1 PUSH2 0x31BA DUP4 CODECOPY DUP2 DUP2 ADD PUSH1 0x40 MSTORE PUSH1 0x40 DUP2 LT ISZERO PUSH2 0x33 JUMPI PUSH1 0x0 DUP1 REVERT JUMPDEST DUP2 ADD SWAP1 DUP1 DUP1 MLOAD SWAP1 PUSH1 0x20 ADD SWAP1 SWAP3 SWAP2 SWAP1 DUP1 MLOAD SWAP1 PUSH1 0x20 ADD SWAP1 SWAP3 SWAP2 SWAP1 POP POP POP DUP2 PUSH1 0x0 DUP1 PUSH2 0x100 EXP DUP2 SLOAD DUP2 PUSH20 0xFFFFFFFFFFFFFFFFFFFFFFFFFFFFFFFFFFFFFFFF MUL NOT AND SWAP1 DUP4 PUSH20 0xFFFFFFFFFFFFFFFFFFFFFFFFFFFFFFFFFFFFFFFF AND MUL OR SWAP1 SSTORE POP DUP1 PUSH1 0x1 PUSH1 0x0 PUSH2 0x100 EXP DUP2 SLOAD DUP2 PUSH20 0xFFFFFFFFFFFFFFFFFFFFFFFFFFFFFFFFFFFFFFFF MUL NOT AND SWAP1 DUP4 PUSH20 0xFFFFFFFFFFFFFFFFFFFFFFFFFFFFFFFFFFFFFFFF AND MUL OR SWAP1 SSTORE POP POP POP PUSH2 0x30DA DUP1 PUSH2 0xE0 PUSH1 0x0 CODECOPY PUSH1 0x0 RETURN INVALID PUSH1 0x80 PUSH1 0x40 MSTORE CALLVALUE DUP1 ISZERO PUSH2 0x10 JUMPI PUSH1 0x0 DUP1 REVERT JUMPDEST POP PUSH1 0x4 CALLDATASIZE LT PUSH2 0xA8 JUMPI PUSH1 0x0 CALLDATALOAD PUSH1 0xE0 SHR DUP1 PUSH4 0xA4C0ED36 GT PUSH2 0x71 JUMPI DUP1 PUSH4 0xA4C0ED36 EQ PUSH2 0x30E JUMPI DUP1 PUSH4 0xB415F4F5 EQ PUSH2 0x3F3 JUMPI DUP1 PUSH4 0xCAF70C4A EQ PUSH2 0x411 JUMPI DUP1 PUSH4 0xD8340209 EQ PUSH2 0x48A JUMPI DUP1 PUSH4 0xE911439C EQ PUSH2 0x4EC JUMPI DUP1 PUSH4 0xF3FEF3A3 EQ PUSH2 0x50A JUMPI PUSH2 0xA8 JUMP JUMPDEST DUP1 PUSH3 0x6F6AD0 EQ PUSH2 0xAD JUMPI DUP1 PUSH4 0x21F36509 EQ PUSH2 0x105 JUMPI DUP1 PUSH4 0x5E1C1059 EQ PUSH2 0x19D JUMPI DUP1 PUSH4 0x75D35070 EQ PUSH2 0x258 JUMPI DUP1 PUSH4 0x8AA7927B EQ PUSH2 0x2F0 JUMPI JUMPDEST PUSH1 0x0 DUP1 REVERT JUMPDEST PUSH2 0xEF PUSH1 0x4 DUP1 CALLDATASIZE SUB PUSH1 0x20 DUP2 LT ISZERO PUSH2 0xC3 JUMPI PUSH1 0x0 DUP1 REVERT JUMPDEST DUP2 ADD SWAP1 DUP1 DUP1 CALLDATALOAD PUSH20 0xFFFFFFFFFFFFFFFFFFFFFFFFFFFFFFFFFFFFFFFF AND SWAP1 PUSH1 0x20 ADD SWAP1 SWAP3 SWAP2 SWAP1 POP POP POP PUSH2 0x558 JUMP JUMPDEST PUSH1 0x40 MLOAD DUP1 DUP3 DUP2 MSTORE PUSH1 0x20 ADD SWAP2 POP POP PUSH1 0x40 MLOAD DUP1 SWAP2 SUB SWAP1 RETURN JUMPDEST PUSH2 0x131 PUSH1 0x4 DUP1 CALLDATASIZE SUB PUSH1 0x20 DUP2 LT ISZERO PUSH2 0x11B JUMPI PUSH1 0x0 DUP1 REVERT JUMPDEST DUP2 ADD SWAP1 DUP1 DUP1 CALLDATALOAD SWAP1 PUSH1 0x20 ADD SWAP1 SWAP3 SWAP2 SWAP1 POP POP POP PUSH2 0x570 JUMP JUMPDEST PUSH1 0x40 MLOAD DUP1 DUP5 PUSH20 0xFFFFFFFFFFFFFFFFFFFFFFFFFFFFFFFFFFFFFFFF AND PUSH20 0xFFFFFFFFFFFFFFFFFFFFFFFFFFFFFFFFFFFFFFFF AND DUP2 MSTORE PUSH1 0x20 ADD DUP4 PUSH12 0xFFFFFFFFFFFFFFFFFFFFFFFF AND PUSH12 0xFFFFFFFFFFFFFFFFFFFFFFFF AND DUP2 MSTORE PUSH1 0x20 ADD DUP3 DUP2 MSTORE PUSH1 0x20 ADD SWAP4 POP POP POP POP PUSH1 0x40 MLOAD DUP1 SWAP2 SUB SWAP1 RETURN JUMPDEST PUSH2 0x256 PUSH1 0x4 DUP1 CALLDATASIZE SUB PUSH1 0x20 DUP2 LT ISZERO PUSH2 0x1B3 JUMPI PUSH1 0x0 DUP1 REVERT JUMPDEST DUP2 ADD SWAP1 DUP1 DUP1 CALLDATALOAD SWAP1 PUSH1 0x20 ADD SWAP1 PUSH5 0x100000000 DUP2 GT ISZERO PUSH2 0x1D0 JUMPI PUSH1 0x0 DUP1 REVERT JUMPDEST DUP3 ADD DUP4 PUSH1 0x20 DUP3 ADD GT ISZERO PUSH2 0x1E2 JUMPI PUSH1 0x0 DUP1 REVERT JUMPDEST DUP1 CALLDATALOAD SWAP1 PUSH1 0x20 ADD SWAP2 DUP5 PUSH1 0x1 DUP4 MUL DUP5 ADD GT PUSH5 0x100000000 DUP4 GT OR ISZERO PUSH2 0x204 JUMPI PUSH1 0x0 DUP1 REVERT JUMPDEST SWAP2 SWAP1 DUP1 DUP1 PUSH1 0x1F ADD PUSH1 0x20 DUP1 SWAP2 DIV MUL PUSH1 0x20 ADD PUSH1 0x40 MLOAD SWAP1 DUP2 ADD PUSH1 0x40 MSTORE DUP1 SWAP4 SWAP3 SWAP2 SWAP1 DUP2 DUP2 MSTORE PUSH1 0x20 ADD DUP4 DUP4 DUP1 DUP3 DUP5 CALLDATACOPY PUSH1 0x0 DUP2 DUP5 ADD MSTORE PUSH1 0x1F NOT PUSH1 0x1F DUP3 ADD AND SWAP1 POP DUP1 DUP4 ADD SWAP3 POP POP POP POP POP POP POP SWAP2 SWAP3 SWAP2 SWAP3 SWAP1 POP POP POP PUSH2 0x5D2 JUMP JUMPDEST STOP JUMPDEST PUSH2 0x284 PUSH1 0x4 DUP1 CALLDATASIZE SUB PUSH1 0x20 DUP2 LT ISZERO PUSH2 0x26E JUMPI PUSH1 0x0 DUP1 REVERT JUMPDEST DUP2 ADD SWAP1 DUP1 DUP1 CALLDATALOAD SWAP1 PUSH1 0x20 ADD SWAP1 SWAP3 SWAP2 SWAP1 POP POP POP PUSH2 0x78C JUMP JUMPDEST PUSH1 0x40 MLOAD DUP1 DUP5 PUSH20 0xFFFFFFFFFFFFFFFFFFFFFFFFFFFFFFFFFFFFFFFF AND PUSH20 0xFFFFFFFFFFFFFFFFFFFFFFFFFFFFFFFFFFFFFFFF AND DUP2 MSTORE PUSH1 0x20 ADD DUP4 PUSH12 0xFFFFFFFFFFFFFFFFFFFFFFFF AND PUSH12 0xFFFFFFFFFFFFFFFFFFFFFFFF AND DUP2 MSTORE PUSH1 0x20 ADD DUP3 DUP2 MSTORE PUSH1 0x20 ADD SWAP4 POP POP POP POP PUSH1 0x40 MLOAD DUP1 SWAP2 SUB SWAP1 RETURN JUMPDEST PUSH2 0x2F8 PUSH2 0x7EE JUMP JUMPDEST PUSH1 0x40 MLOAD DUP1 DUP3 DUP2 MSTORE PUSH1 0x20 ADD SWAP2 POP POP PUSH1 0x40 MLOAD DUP1 SWAP2 SUB SWAP1 RETURN JUMPDEST PUSH2 0x3F1 PUSH1 0x4 DUP1 CALLDATASIZE SUB PUSH1 0x60 DUP2 LT ISZERO PUSH2 0x324 JUMPI PUSH1 0x0 DUP1 REVERT JUMPDEST DUP2 ADD SWAP1 DUP1 DUP1 CALLDATALOAD PUSH20 0xFFFFFFFFFFFFFFFFFFFFFFFFFFFFFFFFFFFFFFFF AND SWAP1 PUSH1 0x20 ADD SWAP1 SWAP3 SWAP2 SWAP1 DUP1 CALLDATALOAD SWAP1 PUSH1 0x20 ADD SWAP1 SWAP3 SWAP2 SWAP1 DUP1 CALLDATALOAD SWAP1 PUSH1 0x20 ADD SWAP1 PUSH5 0x100000000 DUP2 GT ISZERO PUSH2 0x36B JUMPI PUSH1 0x0 DUP1 REVERT JUMPDEST DUP3 ADD DUP4 PUSH1 0x20 DUP3 ADD GT ISZERO PUSH2 0x37D JUMPI PUSH1 0x0 DUP1 REVERT JUMPDEST DUP1 CALLDATALOAD SWAP1 PUSH1 0x20 ADD SWAP2 DUP5 PUSH1 0x1 DUP4 MUL DUP5 ADD GT PUSH5 0x100000000 DUP4 GT OR ISZERO PUSH2 0x39F JUMPI PUSH1 0x0 DUP1 REVERT JUMPDEST SWAP2 SWAP1 DUP1 DUP1 PUSH1 0x1F ADD PUSH1 0x20 DUP1 SWAP2 DIV MUL PUSH1 0x20 ADD PUSH1 0x40 MLOAD SWAP1 DUP2 ADD PUSH1 0x40 MSTORE DUP1 SWAP4 SWAP3 SWAP2 SWAP1 DUP2 DUP2 MSTORE PUSH1 0x20 ADD DUP4 DUP4 DUP1 DUP3 DUP5 CALLDATACOPY PUSH1 0x0 DUP2 DUP5 ADD MSTORE PUSH1 0x1F NOT PUSH1 0x1F DUP3 ADD AND SWAP1 POP DUP1 DUP4 ADD SWAP3 POP POP POP POP POP POP POP SWAP2 SWAP3 SWAP2 SWAP3 SWAP1 POP POP POP PUSH2 0x7F3 JUMP JUMPDEST STOP JUMPDEST PUSH2 0x3FB PUSH2 0x8FF JUMP JUMPDEST PUSH1 0x40 MLOAD DUP1 DUP3 DUP2 MSTORE PUSH1 0x20 ADD SWAP2 POP POP PUSH1 0x40 MLOAD DUP1 SWAP2 SUB SWAP1 RETURN JUMPDEST PUSH2 0x474 PUSH1 0x4 DUP1 CALLDATASIZE SUB PUSH1 0x40 DUP2 LT ISZERO PUSH2 0x427 JUMPI PUSH1 0x0 DUP1 REVERT JUMPDEST DUP2 ADD SWAP1 DUP1 DUP1 PUSH1 0x40 ADD SWAP1 PUSH1 0x2 DUP1 PUSH1 0x20 MUL PUSH1 0x40 MLOAD SWAP1 DUP2 ADD PUSH1 0x40 MSTORE DUP1 SWAP3 SWAP2 SWAP1 DUP3 PUSH1 0x2 PUSH1 0x20 MUL DUP1 DUP3 DUP5 CALLDATACOPY PUSH1 0x0 DUP2 DUP5 ADD MSTORE PUSH1 0x1F NOT PUSH1 0x1F DUP3 ADD AND SWAP1 POP DUP1 DUP4 ADD SWAP3 POP POP POP POP POP POP SWAP2 SWAP3 SWAP2 SWAP3 SWAP1 POP POP POP PUSH2 0x904 JUMP JUMPDEST PUSH1 0x40 MLOAD DUP1 DUP3 DUP2 MSTORE PUSH1 0x20 ADD SWAP2 POP POP PUSH1 0x40 MLOAD DUP1 SWAP2 SUB SWAP1 RETURN JUMPDEST PUSH2 0x4EA PUSH1 0x4 DUP1 CALLDATASIZE SUB PUSH1 0xA0 DUP2 LT ISZERO PUSH2 0x4A0 JUMPI PUSH1 0x0 DUP1 REVERT JUMPDEST DUP2 ADD SWAP1 DUP1 DUP1 CALLDATALOAD SWAP1 PUSH1 0x20 ADD SWAP1 SWAP3 SWAP2 SWAP1 DUP1 CALLDATALOAD PUSH20 0xFFFFFFFFFFFFFFFFFFFFFFFFFFFFFFFFFFFFFFFF AND SWAP1 PUSH1 0x20 ADD SWAP1 SWAP3 SWAP2 SWAP1 DUP1 PUSH1 0x40 ADD SWAP1 SWAP2 SWAP3 SWAP2 SWAP3 SWAP1 DUP1 CALLDATALOAD SWAP1 PUSH1 0x20 ADD SWAP1 SWAP3 SWAP2 SWAP1 POP POP POP PUSH2 0x95C JUMP JUMPDEST STOP JUMPDEST PUSH2 0x4F4 PUSH2 0xC81 JUMP JUMPDEST PUSH1 0x40 MLOAD DUP1 DUP3 DUP2 MSTORE PUSH1 0x20 ADD SWAP2 POP POP PUSH1 0x40 MLOAD DUP1 SWAP2 SUB SWAP1 RETURN JUMPDEST PUSH2 0x556 PUSH1 0x4 DUP1 CALLDATASIZE SUB PUSH1 0x40 DUP2 LT ISZERO PUSH2 0x520 JUMPI PUSH1 0x0 DUP1 REVERT JUMPDEST DUP2 ADD SWAP1 DUP1 DUP1 CALLDATALOAD PUSH20 0xFFFFFFFFFFFFFFFFFFFFFFFFFFFFFFFFFFFFFFFF AND SWAP1 PUSH1 0x20 ADD SWAP1 SWAP3 SWAP2 SWAP1 DUP1 CALLDATALOAD SWAP1 PUSH1 0x20 ADD SWAP1 SWAP3 SWAP2 SWAP1 POP POP POP PUSH2 0xC87 JUMP JUMPDEST STOP JUMPDEST PUSH1 0x4 PUSH1 0x20 MSTORE DUP1 PUSH1 0x0 MSTORE PUSH1 0x40 PUSH1 0x0 KECCAK256 PUSH1 0x0 SWAP2 POP SWAP1 POP SLOAD DUP2 JUMP JUMPDEST PUSH1 0x2 PUSH1 0x20 MSTORE DUP1 PUSH1 0x0 MSTORE PUSH1 0x40 PUSH1 0x0 KECCAK256 PUSH1 0x0 SWAP2 POP SWAP1 POP DUP1 PUSH1 0x0 ADD PUSH1 0x0 SWAP1 SLOAD SWAP1 PUSH2 0x100 EXP SWAP1 DIV PUSH20 0xFFFFFFFFFFFFFFFFFFFFFFFFFFFFFFFFFFFFFFFF AND SWAP1 DUP1 PUSH1 0x0 ADD PUSH1 0x14 SWAP1 SLOAD SWAP1 PUSH2 0x100 EXP SWAP1 DIV PUSH12 0xFFFFFFFFFFFFFFFFFFFFFFFF AND SWAP1 DUP1 PUSH1 0x1 ADD SLOAD SWAP1 POP DUP4 JUMP JUMPDEST PUSH1 0x0 PUSH2 0x5DC PUSH2 0x2F55 JUMP JUMPDEST PUSH1 0x0 DUP1 PUSH2 0x5E8 DUP6 PUSH2 0xEC0 JUMP JUMPDEST SWAP4 POP SWAP4 POP SWAP4 POP SWAP4 POP PUSH1 0x0 PUSH1 0x3 PUSH1 0x0 DUP7 DUP2 MSTORE PUSH1 0x20 ADD SWAP1 DUP2 MSTORE PUSH1 0x20 ADD PUSH1 0x0 KECCAK256 PUSH1 0x0 ADD PUSH1 0x0 SWAP1 SLOAD SWAP1 PUSH2 0x100 EXP SWAP1 DIV PUSH20 0xFFFFFFFFFFFFFFFFFFFFFFFFFFFFFFFFFFFFFFFF AND SWAP1 POP PUSH2 0x68F DUP5 PUSH1 0x20 ADD MLOAD PUSH12 0xFFFFFFFFFFFFFFFFFFFFFFFF AND PUSH1 0x4 PUSH1 0x0 DUP5 PUSH20 0xFFFFFFFFFFFFFFFFFFFFFFFFFFFFFFFFFFFFFFFF AND PUSH20 0xFFFFFFFFFFFFFFFFFFFFFFFFFFFFFFFFFFFFFFFF AND DUP2 MSTORE PUSH1 0x20 ADD SWAP1 DUP2 MSTORE PUSH1 0x20 ADD PUSH1 0x0 KECCAK256 SLOAD PUSH2 0x1322 SWAP1 SWAP2 SWAP1 PUSH4 0xFFFFFFFF AND JUMP JUMPDEST PUSH1 0x4 PUSH1 0x0 DUP4 PUSH20 0xFFFFFFFFFFFFFFFFFFFFFFFFFFFFFFFFFFFFFFFF AND PUSH20 0xFFFFFFFFFFFFFFFFFFFFFFFFFFFFFFFFFFFFFFFF AND DUP2 MSTORE PUSH1 0x20 ADD SWAP1 DUP2 MSTORE PUSH1 0x20 ADD PUSH1 0x0 KECCAK256 DUP2 SWAP1 SSTORE POP PUSH1 0x2 PUSH1 0x0 DUP5 DUP2 MSTORE PUSH1 0x20 ADD SWAP1 DUP2 MSTORE PUSH1 0x20 ADD PUSH1 0x0 KECCAK256 PUSH1 0x0 DUP1 DUP3 ADD PUSH1 0x0 PUSH2 0x100 EXP DUP2 SLOAD SWAP1 PUSH20 0xFFFFFFFFFFFFFFFFFFFFFFFFFFFFFFFFFFFFFFFF MUL NOT AND SWAP1 SSTORE PUSH1 0x0 DUP3 ADD PUSH1 0x14 PUSH2 0x100 EXP DUP2 SLOAD SWAP1 PUSH12 0xFFFFFFFFFFFFFFFFFFFFFFFF MUL NOT AND SWAP1 SSTORE PUSH1 0x1 DUP3 ADD PUSH1 0x0 SWAP1 SSTORE POP POP PUSH2 0x745 DUP4 DUP4 DUP7 PUSH1 0x0 ADD MLOAD PUSH2 0x13AA JUMP JUMPDEST PUSH32 0xA2E7A402243EBDA4A69CEEB3DFB682943B7A9B3AC66D6EEFA8DB65894009611C DUP4 DUP4 PUSH1 0x40 MLOAD DUP1 DUP4 DUP2 MSTORE PUSH1 0x20 ADD DUP3 DUP2 MSTORE PUSH1 0x20 ADD SWAP3 POP POP POP PUSH1 0x40 MLOAD DUP1 SWAP2 SUB SWAP1 LOG1 POP POP POP POP POP POP JUMP JUMPDEST PUSH1 0x3 PUSH1 0x20 MSTORE DUP1 PUSH1 0x0 MSTORE PUSH1 0x40 PUSH1 0x0 KECCAK256 PUSH1 0x0 SWAP2 POP SWAP1 POP DUP1 PUSH1 0x0 ADD PUSH1 0x0 SWAP1 SLOAD SWAP1 PUSH2 0x100 EXP SWAP1 DIV PUSH20 0xFFFFFFFFFFFFFFFFFFFFFFFFFFFFFFFFFFFFFFFF AND SWAP1 DUP1 PUSH1 0x0 ADD PUSH1 0x14 SWAP1 SLOAD SWAP1 PUSH2 0x100 EXP SWAP1 DIV PUSH12 0xFFFFFFFFFFFFFFFFFFFFFFFF AND SWAP1 DUP1 PUSH1 0x1 ADD SLOAD SWAP1 POP DUP4 JUMP JUMPDEST PUSH1 0x20 DUP2 JUMP JUMPDEST PUSH1 0x0 DUP1 SWAP1 SLOAD SWAP1 PUSH2 0x100 EXP SWAP1 DIV PUSH20 0xFFFFFFFFFFFFFFFFFFFFFFFFFFFFFFFFFFFFFFFF AND PUSH20 0xFFFFFFFFFFFFFFFFFFFFFFFFFFFFFFFFFFFFFFFF AND CALLER PUSH20 0xFFFFFFFFFFFFFFFFFFFFFFFFFFFFFFFFFFFFFFFF AND EQ PUSH2 0x8B5 JUMPI PUSH1 0x40 MLOAD PUSH32 0x8C379A000000000000000000000000000000000000000000000000000000000 DUP2 MSTORE PUSH1 0x4 ADD DUP1 DUP1 PUSH1 0x20 ADD DUP3 DUP2 SUB DUP3 MSTORE PUSH1 0x13 DUP2 MSTORE PUSH1 0x20 ADD DUP1 PUSH32 0x4D75737420757365204C494E4B20746F6B656E00000000000000000000000000 DUP2 MSTORE POP PUSH1 0x20 ADD SWAP2 POP POP PUSH1 0x40 MLOAD DUP1 SWAP2 SUB SWAP1 REVERT JUMPDEST PUSH1 0x0 DUP1 DUP3 DUP1 PUSH1 0x20 ADD SWAP1 MLOAD PUSH1 0x40 DUP2 LT ISZERO PUSH2 0x8CD JUMPI PUSH1 0x0 DUP1 REVERT JUMPDEST DUP2 ADD SWAP1 DUP1 DUP1 MLOAD SWAP1 PUSH1 0x20 ADD SWAP1 SWAP3 SWAP2 SWAP1 DUP1 MLOAD SWAP1 PUSH1 0x20 ADD SWAP1 SWAP3 SWAP2 SWAP1 POP POP POP SWAP2 POP SWAP2 POP PUSH2 0x8F8 DUP3 DUP3 DUP7 DUP9 PUSH2 0x156D JUMP JUMPDEST POP POP POP POP POP JUMP JUMPDEST PUSH1 0xE0 DUP2 JUMP JUMPDEST PUSH1 0x0 DUP2 PUSH1 0x40 MLOAD PUSH1 0x20 ADD DUP1 DUP3 PUSH1 0x2 PUSH1 0x20 MUL DUP1 DUP4 DUP4 PUSH1 0x0 JUMPDEST DUP4 DUP2 LT ISZERO PUSH2 0x935 JUMPI DUP1 DUP3 ADD MLOAD DUP2 DUP5 ADD MSTORE PUSH1 0x20 DUP2 ADD SWAP1 POP PUSH2 0x91A JUMP JUMPDEST POP POP POP POP SWAP1 POP ADD SWAP2 POP POP PUSH1 0x40 MLOAD PUSH1 0x20 DUP2 DUP4 SUB SUB DUP2 MSTORE SWAP1 PUSH1 0x40 MSTORE DUP1 MLOAD SWAP1 PUSH1 0x20 ADD KECCAK256 SWAP1 POP SWAP2 SWAP1 POP JUMP JUMPDEST PUSH1 0x0 PUSH2 0x99E DUP4 PUSH1 0x2 DUP1 PUSH1 0x20 MUL PUSH1 0x40 MLOAD SWAP1 DUP2 ADD PUSH1 0x40 MSTORE DUP1 SWAP3 SWAP2 SWAP1 DUP3 PUSH1 0x2 PUSH1 0x20 MUL DUP1 DUP3 DUP5 CALLDATACOPY PUSH1 0x0 DUP2 DUP5 ADD MSTORE PUSH1 0x1F NOT PUSH1 0x1F DUP3 ADD AND SWAP1 POP DUP1 DUP4 ADD SWAP3 POP POP POP POP POP POP PUSH2 0x904 JUMP JUMPDEST SWAP1 POP PUSH1 0x0 PUSH1 0x3 PUSH1 0x0 DUP4 DUP2 MSTORE PUSH1 0x20 ADD SWAP1 DUP2 MSTORE PUSH1 0x20 ADD PUSH1 0x0 KECCAK256 PUSH1 0x0 ADD PUSH1 0x0 SWAP1 SLOAD SWAP1 PUSH2 0x100 EXP SWAP1 DIV PUSH20 0xFFFFFFFFFFFFFFFFFFFFFFFFFFFFFFFFFFFFFFFF AND SWAP1 POP PUSH1 0x0 PUSH20 0xFFFFFFFFFFFFFFFFFFFFFFFFFFFFFFFFFFFFFFFF AND DUP2 PUSH20 0xFFFFFFFFFFFFFFFFFFFFFFFFFFFFFFFFFFFFFFFF AND EQ PUSH2 0xA7D JUMPI PUSH1 0x40 MLOAD PUSH32 0x8C379A000000000000000000000000000000000000000000000000000000000 DUP2 MSTORE PUSH1 0x4 ADD DUP1 DUP1 PUSH1 0x20 ADD DUP3 DUP2 SUB DUP3 MSTORE PUSH1 0x19 DUP2 MSTORE PUSH1 0x20 ADD DUP1 PUSH32 0x706C656173652072656769737465722061206E6577206B657900000000000000 DUP2 MSTORE POP PUSH1 0x20 ADD SWAP2 POP POP PUSH1 0x40 MLOAD DUP1 SWAP2 SUB SWAP1 REVERT JUMPDEST PUSH1 0x0 PUSH20 0xFFFFFFFFFFFFFFFFFFFFFFFFFFFFFFFFFFFFFFFF AND DUP6 PUSH20 0xFFFFFFFFFFFFFFFFFFFFFFFFFFFFFFFFFFFFFFFF AND EQ ISZERO PUSH2 0xB20 JUMPI PUSH1 0x40 MLOAD PUSH32 0x8C379A000000000000000000000000000000000000000000000000000000000 DUP2 MSTORE PUSH1 0x4 ADD DUP1 DUP1 PUSH1 0x20 ADD DUP3 DUP2 SUB DUP3 MSTORE PUSH1 0x17 DUP2 MSTORE PUSH1 0x20 ADD DUP1 PUSH32 0x5F6F7261636C65206D757374206E6F7420626520307830000000000000000000 DUP2 MSTORE POP PUSH1 0x20 ADD SWAP2 POP POP PUSH1 0x40 MLOAD DUP1 SWAP2 SUB SWAP1 REVERT JUMPDEST DUP5 PUSH1 0x3 PUSH1 0x0 DUP5 DUP2 MSTORE PUSH1 0x20 ADD SWAP1 DUP2 MSTORE PUSH1 0x20 ADD PUSH1 0x0 KECCAK256 PUSH1 0x0 ADD PUSH1 0x0 PUSH2 0x100 EXP DUP2 SLOAD DUP2 PUSH20 0xFFFFFFFFFFFFFFFFFFFFFFFFFFFFFFFFFFFFFFFF MUL NOT AND SWAP1 DUP4 PUSH20 0xFFFFFFFFFFFFFFFFFFFFFFFFFFFFFFFFFFFFFFFF AND MUL OR SWAP1 SSTORE POP DUP3 PUSH1 0x3 PUSH1 0x0 DUP5 DUP2 MSTORE PUSH1 0x20 ADD SWAP1 DUP2 MSTORE PUSH1 0x20 ADD PUSH1 0x0 KECCAK256 PUSH1 0x1 ADD DUP2 SWAP1 SSTORE POP PUSH12 0x33B2E3C9FD0803CE8000000 DUP7 GT ISZERO PUSH2 0xBF5 JUMPI PUSH1 0x40 MLOAD PUSH32 0x8C379A000000000000000000000000000000000000000000000000000000000 DUP2 MSTORE PUSH1 0x4 ADD DUP1 DUP1 PUSH1 0x20 ADD DUP3 DUP2 SUB DUP3 MSTORE PUSH1 0x3C DUP2 MSTORE PUSH1 0x20 ADD DUP1 PUSH2 0x3026 PUSH1 0x3C SWAP2 CODECOPY PUSH1 0x40 ADD SWAP2 POP POP PUSH1 0x40 MLOAD DUP1 SWAP2 SUB SWAP1 REVERT JUMPDEST DUP6 PUSH1 0x3 PUSH1 0x0 DUP5 DUP2 MSTORE PUSH1 0x20 ADD SWAP1 DUP2 MSTORE PUSH1 0x20 ADD PUSH1 0x0 KECCAK256 PUSH1 0x0 ADD PUSH1 0x14 PUSH2 0x100 EXP DUP2 SLOAD DUP2 PUSH12 0xFFFFFFFFFFFFFFFFFFFFFFFF MUL NOT AND SWAP1 DUP4 PUSH12 0xFFFFFFFFFFFFFFFFFFFFFFFF AND MUL OR SWAP1 SSTORE POP PUSH32 0xAE189157E0628C1E62315E9179156E1EA10E90E9C15060002F7021E907DC2CFE DUP3 DUP8 PUSH1 0x40 MLOAD DUP1 DUP4 DUP2 MSTORE PUSH1 0x20 ADD DUP3 DUP2 MSTORE PUSH1 0x20 ADD SWAP3 POP POP POP PUSH1 0x40 MLOAD DUP1 SWAP2 SUB SWAP1 LOG1 POP POP POP POP POP POP JUMP JUMPDEST PUSH2 0x1A0 DUP2 JUMP JUMPDEST DUP1 DUP1 PUSH1 0x4 PUSH1 0x0 CALLER PUSH20 0xFFFFFFFFFFFFFFFFFFFFFFFFFFFFFFFFFFFFFFFF AND PUSH20 0xFFFFFFFFFFFFFFFFFFFFFFFFFFFFFFFFFFFFFFFF AND DUP2 MSTORE PUSH1 0x20 ADD SWAP1 DUP2 MSTORE PUSH1 0x20 ADD PUSH1 0x0 KECCAK256 SLOAD LT ISZERO PUSH2 0xD3D JUMPI PUSH1 0x40 MLOAD PUSH32 0x8C379A000000000000000000000000000000000000000000000000000000000 DUP2 MSTORE PUSH1 0x4 ADD DUP1 DUP1 PUSH1 0x20 ADD DUP3 DUP2 SUB DUP3 MSTORE PUSH1 0x20 DUP2 MSTORE PUSH1 0x20 ADD DUP1 PUSH32 0x63616E2774207769746864726177206D6F7265207468616E2062616C616E6365 DUP2 MSTORE POP PUSH1 0x20 ADD SWAP2 POP POP PUSH1 0x40 MLOAD DUP1 SWAP2 SUB SWAP1 REVERT JUMPDEST PUSH2 0xD8F DUP3 PUSH1 0x4 PUSH1 0x0 CALLER PUSH20 0xFFFFFFFFFFFFFFFFFFFFFFFFFFFFFFFFFFFFFFFF AND PUSH20 0xFFFFFFFFFFFFFFFFFFFFFFFFFFFFFFFFFFFFFFFF AND DUP2 MSTORE PUSH1 0x20 ADD SWAP1 DUP2 MSTORE PUSH1 0x20 ADD PUSH1 0x0 KECCAK256 SLOAD PUSH2 0x1955 SWAP1 SWAP2 SWAP1 PUSH4 0xFFFFFFFF AND JUMP JUMPDEST PUSH1 0x4 PUSH1 0x0 CALLER PUSH20 0xFFFFFFFFFFFFFFFFFFFFFFFFFFFFFFFFFFFFFFFF AND PUSH20 0xFFFFFFFFFFFFFFFFFFFFFFFFFFFFFFFFFFFFFFFF AND DUP2 MSTORE PUSH1 0x20 ADD SWAP1 DUP2 MSTORE PUSH1 0x20 ADD PUSH1 0x0 KECCAK256 DUP2 SWAP1 SSTORE POP PUSH1 0x0 DUP1 SWAP1 SLOAD SWAP1 PUSH2 0x100 EXP SWAP1 DIV PUSH20 0xFFFFFFFFFFFFFFFFFFFFFFFFFFFFFFFFFFFFFFFF AND PUSH20 0xFFFFFFFFFFFFFFFFFFFFFFFFFFFFFFFFFFFFFFFF AND PUSH4 0xA9059CBB DUP5 DUP5 PUSH1 0x40 MLOAD DUP4 PUSH4 0xFFFFFFFF AND PUSH1 0xE0 SHL DUP2 MSTORE PUSH1 0x4 ADD DUP1 DUP4 PUSH20 0xFFFFFFFFFFFFFFFFFFFFFFFFFFFFFFFFFFFFFFFF AND PUSH20 0xFFFFFFFFFFFFFFFFFFFFFFFFFFFFFFFFFFFFFFFF AND DUP2 MSTORE PUSH1 0x20 ADD DUP3 DUP2 MSTORE PUSH1 0x20 ADD SWAP3 POP POP POP PUSH1 0x20 PUSH1 0x40 MLOAD DUP1 DUP4 SUB DUP2 PUSH1 0x0 DUP8 DUP1 EXTCODESIZE ISZERO DUP1 ISZERO PUSH2 0xE7A JUMPI PUSH1 0x0 DUP1 REVERT JUMPDEST POP GAS CALL ISZERO DUP1 ISZERO PUSH2 0xE8E JUMPI RETURNDATASIZE PUSH1 0x0 DUP1 RETURNDATACOPY RETURNDATASIZE PUSH1 0x0 REVERT JUMPDEST POP POP POP POP PUSH1 0x40 MLOAD RETURNDATASIZE PUSH1 0x20 DUP2 LT ISZERO PUSH2 0xEA4 JUMPI PUSH1 0x0 DUP1 REVERT JUMPDEST DUP2 ADD SWAP1 DUP1 DUP1 MLOAD SWAP1 PUSH1 0x20 ADD SWAP1 SWAP3 SWAP2 SWAP1 POP POP POP PUSH2 0xEBB JUMPI INVALID JUMPDEST POP POP POP JUMP JUMPDEST PUSH1 0x0 PUSH2 0xECA PUSH2 0x2F55 JUMP JUMPDEST PUSH1 0x0 DUP1 PUSH1 0x0 PUSH2 0x1A0 PUSH1 0x20 ADD SWAP1 POP DUP1 DUP7 MLOAD EQ PUSH2 0xF4D JUMPI PUSH1 0x40 MLOAD PUSH32 0x8C379A000000000000000000000000000000000000000000000000000000000 DUP2 MSTORE PUSH1 0x4 ADD DUP1 DUP1 PUSH1 0x20 ADD DUP3 DUP2 SUB DUP3 MSTORE PUSH1 0x12 DUP2 MSTORE PUSH1 0x20 ADD DUP1 PUSH32 0x77726F6E672070726F6F66206C656E6774680000000000000000000000000000 DUP2 MSTORE POP PUSH1 0x20 ADD SWAP2 POP POP PUSH1 0x40 MLOAD DUP1 SWAP2 SUB SWAP1 REVERT JUMPDEST PUSH2 0xF55 PUSH2 0x2F9D JUMP JUMPDEST PUSH1 0x0 DUP1 PUSH1 0x20 DUP10 ADD SWAP3 POP PUSH1 0xE0 DUP10 ADD MLOAD SWAP2 POP DUP4 DUP10 ADD MLOAD SWAP1 POP PUSH2 0xF74 DUP4 PUSH2 0x904 JUMP JUMPDEST SWAP8 POP PUSH2 0xF80 DUP9 DUP4 PUSH2 0x19DE JUMP JUMPDEST SWAP6 POP PUSH1 0x2 PUSH1 0x0 DUP8 DUP2 MSTORE PUSH1 0x20 ADD SWAP1 DUP2 MSTORE PUSH1 0x20 ADD PUSH1 0x0 KECCAK256 PUSH1 0x40 MLOAD DUP1 PUSH1 0x60 ADD PUSH1 0x40 MSTORE SWAP1 DUP2 PUSH1 0x0 DUP3 ADD PUSH1 0x0 SWAP1 SLOAD SWAP1 PUSH2 0x100 EXP SWAP1 DIV PUSH20 0xFFFFFFFFFFFFFFFFFFFFFFFFFFFFFFFFFFFFFFFF AND PUSH20 0xFFFFFFFFFFFFFFFFFFFFFFFFFFFFFFFFFFFFFFFF AND PUSH20 0xFFFFFFFFFFFFFFFFFFFFFFFFFFFFFFFFFFFFFFFF AND DUP2 MSTORE PUSH1 0x20 ADD PUSH1 0x0 DUP3 ADD PUSH1 0x14 SWAP1 SLOAD SWAP1 PUSH2 0x100 EXP SWAP1 DIV PUSH12 0xFFFFFFFFFFFFFFFFFFFFFFFF AND PUSH12 0xFFFFFFFFFFFFFFFFFFFFFFFF AND PUSH12 0xFFFFFFFFFFFFFFFFFFFFFFFF AND DUP2 MSTORE PUSH1 0x20 ADD PUSH1 0x1 DUP3 ADD SLOAD DUP2 MSTORE POP POP SWAP7 POP PUSH1 0x0 PUSH20 0xFFFFFFFFFFFFFFFFFFFFFFFFFFFFFFFFFFFFFFFF AND DUP8 PUSH1 0x0 ADD MLOAD PUSH20 0xFFFFFFFFFFFFFFFFFFFFFFFFFFFFFFFFFFFFFFFF AND EQ ISZERO PUSH2 0x10E7 JUMPI PUSH1 0x40 MLOAD PUSH32 0x8C379A000000000000000000000000000000000000000000000000000000000 DUP2 MSTORE PUSH1 0x4 ADD DUP1 DUP1 PUSH1 0x20 ADD DUP3 DUP2 SUB DUP3 MSTORE PUSH1 0x18 DUP2 MSTORE PUSH1 0x20 ADD DUP1 PUSH32 0x6E6F20636F72726573706F6E64696E6720726571756573740000000000000000 DUP2 MSTORE POP PUSH1 0x20 ADD SWAP2 POP POP PUSH1 0x40 MLOAD DUP1 SWAP2 SUB SWAP1 REVERT JUMPDEST DUP2 DUP2 PUSH1 0x40 MLOAD PUSH1 0x20 ADD DUP1 DUP4 DUP2 MSTORE PUSH1 0x20 ADD DUP3 DUP2 MSTORE PUSH1 0x20 ADD SWAP3 POP POP POP PUSH1 0x40 MLOAD PUSH1 0x20 DUP2 DUP4 SUB SUB DUP2 MSTORE SWAP1 PUSH1 0x40 MSTORE DUP1 MLOAD SWAP1 PUSH1 0x20 ADD KECCAK256 DUP8 PUSH1 0x40 ADD MLOAD EQ PUSH2 0x118E JUMPI PUSH1 0x40 MLOAD PUSH32 0x8C379A000000000000000000000000000000000000000000000000000000000 DUP2 MSTORE PUSH1 0x4 ADD DUP1 DUP1 PUSH1 0x20 ADD DUP3 DUP2 SUB DUP3 MSTORE PUSH1 0x1A DUP2 MSTORE PUSH1 0x20 ADD DUP1 PUSH32 0x77726F6E672070726553656564206F7220626C6F636B206E756D000000000000 DUP2 MSTORE POP PUSH1 0x20 ADD SWAP2 POP POP PUSH1 0x40 MLOAD DUP1 SWAP2 SUB SWAP1 REVERT JUMPDEST PUSH1 0x0 DUP2 BLOCKHASH SWAP1 POP PUSH1 0x0 DUP1 SHL DUP2 EQ ISZERO PUSH2 0x12C9 JUMPI PUSH1 0x1 PUSH1 0x0 SWAP1 SLOAD SWAP1 PUSH2 0x100 EXP SWAP1 DIV PUSH20 0xFFFFFFFFFFFFFFFFFFFFFFFFFFFFFFFFFFFFFFFF AND PUSH20 0xFFFFFFFFFFFFFFFFFFFFFFFFFFFFFFFFFFFFFFFF AND PUSH4 0xE9413D38 DUP4 PUSH1 0x40 MLOAD DUP3 PUSH4 0xFFFFFFFF AND PUSH1 0xE0 SHL DUP2 MSTORE PUSH1 0x4 ADD DUP1 DUP3 DUP2 MSTORE PUSH1 0x20 ADD SWAP2 POP POP PUSH1 0x20 PUSH1 0x40 MLOAD DUP1 DUP4 SUB DUP2 DUP7 DUP1 EXTCODESIZE ISZERO DUP1 ISZERO PUSH2 0x1212 JUMPI PUSH1 0x0 DUP1 REVERT JUMPDEST POP GAS STATICCALL ISZERO DUP1 ISZERO PUSH2 0x1226 JUMPI RETURNDATASIZE PUSH1 0x0 DUP1 RETURNDATACOPY RETURNDATASIZE PUSH1 0x0 REVERT JUMPDEST POP POP POP POP PUSH1 0x40 MLOAD RETURNDATASIZE PUSH1 0x20 DUP2 LT ISZERO PUSH2 0x123C JUMPI PUSH1 0x0 DUP1 REVERT JUMPDEST DUP2 ADD SWAP1 DUP1 DUP1 MLOAD SWAP1 PUSH1 0x20 ADD SWAP1 SWAP3 SWAP2 SWAP1 POP POP POP SWAP1 POP PUSH1 0x0 DUP1 SHL DUP2 EQ ISZERO PUSH2 0x12C8 JUMPI PUSH1 0x40 MLOAD PUSH32 0x8C379A000000000000000000000000000000000000000000000000000000000 DUP2 MSTORE PUSH1 0x4 ADD DUP1 DUP1 PUSH1 0x20 ADD DUP3 DUP2 SUB DUP3 MSTORE PUSH1 0x16 DUP2 MSTORE PUSH1 0x20 ADD DUP1 PUSH32 0x706C656173652070726F766520626C6F636B6861736800000000000000000000 DUP2 MSTORE POP PUSH1 0x20 ADD SWAP2 POP POP PUSH1 0x40 MLOAD DUP1 SWAP2 SUB SWAP1 REVERT JUMPDEST JUMPDEST PUSH1 0x0 DUP4 DUP3 PUSH1 0x40 MLOAD PUSH1 0x20 ADD DUP1 DUP4 DUP2 MSTORE PUSH1 0x20 ADD DUP3 DUP2 MSTORE PUSH1 0x20 ADD SWAP3 POP POP POP PUSH1 0x40 MLOAD PUSH1 0x20 DUP2 DUP4 SUB SUB DUP2 MSTORE SWAP1 PUSH1 0x40 MSTORE DUP1 MLOAD SWAP1 PUSH1 0x20 ADD KECCAK256 PUSH1 0x0 SHR SWAP1 POP DUP1 PUSH1 0xE0 DUP13 ADD MSTORE PUSH2 0x1A0 DUP12 MSTORE PUSH2 0x1313 DUP12 PUSH2 0x1A17 JUMP JUMPDEST SWAP7 POP POP POP POP POP POP POP SWAP2 SWAP4 POP SWAP2 SWAP4 JUMP JUMPDEST PUSH1 0x0 DUP1 DUP3 DUP5 ADD SWAP1 POP DUP4 DUP2 LT ISZERO PUSH2 0x13A0 JUMPI PUSH1 0x40 MLOAD PUSH32 0x8C379A000000000000000000000000000000000000000000000000000000000 DUP2 MSTORE PUSH1 0x4 ADD DUP1 DUP1 PUSH1 0x20 ADD DUP3 DUP2 SUB DUP3 MSTORE PUSH1 0x1B DUP2 MSTORE PUSH1 0x20 ADD DUP1 PUSH32 0x536166654D6174683A206164646974696F6E206F766572666C6F770000000000 DUP2 MSTORE POP PUSH1 0x20 ADD SWAP2 POP POP PUSH1 0x40 MLOAD DUP1 SWAP2 SUB SWAP1 REVERT JUMPDEST DUP1 SWAP2 POP POP SWAP3 SWAP2 POP POP JUMP JUMPDEST PUSH1 0x0 PUSH1 0x60 PUSH4 0x94985DDD PUSH1 0xE0 SHL DUP6 DUP6 PUSH1 0x40 MLOAD PUSH1 0x24 ADD DUP1 DUP4 DUP2 MSTORE PUSH1 0x20 ADD DUP3 DUP2 MSTORE PUSH1 0x20 ADD SWAP3 POP POP POP PUSH1 0x40 MLOAD PUSH1 0x20 DUP2 DUP4 SUB SUB DUP2 MSTORE SWAP1 PUSH1 0x40 MSTORE SWAP1 PUSH28 0xFFFFFFFFFFFFFFFFFFFFFFFFFFFFFFFFFFFFFFFFFFFFFFFFFFFFFFFF NOT AND PUSH1 0x20 DUP3 ADD DUP1 MLOAD PUSH28 0xFFFFFFFFFFFFFFFFFFFFFFFFFFFFFFFFFFFFFFFFFFFFFFFFFFFFFFFF DUP4 DUP2 DUP4 AND OR DUP4 MSTORE POP POP POP POP SWAP1 POP PUSH1 0x0 PUSH3 0x324B0 SWAP1 POP DUP1 GAS LT ISZERO PUSH2 0x14AC JUMPI PUSH1 0x40 MLOAD PUSH32 0x8C379A000000000000000000000000000000000000000000000000000000000 DUP2 MSTORE PUSH1 0x4 ADD DUP1 DUP1 PUSH1 0x20 ADD DUP3 DUP2 SUB DUP3 MSTORE PUSH1 0x1B DUP2 MSTORE PUSH1 0x20 ADD DUP1 PUSH32 0x6E6F7420656E6F7567682067617320666F7220636F6E73756D65720000000000 DUP2 MSTORE POP PUSH1 0x20 ADD SWAP2 POP POP PUSH1 0x40 MLOAD DUP1 SWAP2 SUB SWAP1 REVERT JUMPDEST PUSH1 0x0 DUP5 PUSH20 0xFFFFFFFFFFFFFFFFFFFFFFFFFFFFFFFFFFFFFFFF AND DUP4 PUSH1 0x40 MLOAD DUP1 DUP3 DUP1 MLOAD SWAP1 PUSH1 0x20 ADD SWAP1 DUP1 DUP4 DUP4 JUMPDEST PUSH1 0x20 DUP4 LT PUSH2 0x14F9 JUMPI DUP1 MLOAD DUP3 MSTORE PUSH1 0x20 DUP3 ADD SWAP2 POP PUSH1 0x20 DUP2 ADD SWAP1 POP PUSH1 0x20 DUP4 SUB SWAP3 POP PUSH2 0x14D6 JUMP JUMPDEST PUSH1 0x1 DUP4 PUSH1 0x20 SUB PUSH2 0x100 EXP SUB DUP1 NOT DUP3 MLOAD AND DUP2 DUP5 MLOAD AND DUP1 DUP3 OR DUP6 MSTORE POP POP POP POP POP POP SWAP1 POP ADD SWAP2 POP POP PUSH1 0x0 PUSH1 0x40 MLOAD DUP1 DUP4 SUB DUP2 PUSH1 0x0 DUP7 GAS CALL SWAP2 POP POP RETURNDATASIZE DUP1 PUSH1 0x0 DUP2 EQ PUSH2 0x155B JUMPI PUSH1 0x40 MLOAD SWAP2 POP PUSH1 0x1F NOT PUSH1 0x3F RETURNDATASIZE ADD AND DUP3 ADD PUSH1 0x40 MSTORE RETURNDATASIZE DUP3 MSTORE RETURNDATASIZE PUSH1 0x0 PUSH1 0x20 DUP5 ADD RETURNDATACOPY PUSH2 0x1560 JUMP JUMPDEST PUSH1 0x60 SWAP2 POP JUMPDEST POP POP SWAP1 POP POP POP POP POP POP POP POP JUMP JUMPDEST DUP2 DUP5 PUSH1 0x3 PUSH1 0x0 DUP3 DUP2 MSTORE PUSH1 0x20 ADD SWAP1 DUP2 MSTORE PUSH1 0x20 ADD PUSH1 0x0 KECCAK256 PUSH1 0x0 ADD PUSH1 0x14 SWAP1 SLOAD SWAP1 PUSH2 0x100 EXP SWAP1 DIV PUSH12 0xFFFFFFFFFFFFFFFFFFFFFFFF AND PUSH12 0xFFFFFFFFFFFFFFFFFFFFFFFF AND DUP3 LT ISZERO PUSH2 0x1621 JUMPI PUSH1 0x40 MLOAD PUSH32 0x8C379A000000000000000000000000000000000000000000000000000000000 DUP2 MSTORE PUSH1 0x4 ADD DUP1 DUP1 PUSH1 0x20 ADD DUP3 DUP2 SUB DUP3 MSTORE PUSH1 0x14 DUP2 MSTORE PUSH1 0x20 ADD DUP1 PUSH32 0x42656C6F7720616772656564207061796D656E74000000000000000000000000 DUP2 MSTORE POP PUSH1 0x20 ADD SWAP2 POP POP PUSH1 0x40 MLOAD DUP1 SWAP2 SUB SWAP1 REVERT JUMPDEST PUSH1 0x0 PUSH1 0x5 PUSH1 0x0 DUP9 DUP2 MSTORE PUSH1 0x20 ADD SWAP1 DUP2 MSTORE PUSH1 0x20 ADD PUSH1 0x0 KECCAK256 PUSH1 0x0 DUP6 PUSH20 0xFFFFFFFFFFFFFFFFFFFFFFFFFFFFFFFFFFFFFFFF AND PUSH20 0xFFFFFFFFFFFFFFFFFFFFFFFFFFFFFFFFFFFFFFFF AND DUP2 MSTORE PUSH1 0x20 ADD SWAP1 DUP2 MSTORE PUSH1 0x20 ADD PUSH1 0x0 KECCAK256 SLOAD SWAP1 POP PUSH1 0x0 PUSH2 0x1684 DUP9 DUP9 DUP8 DUP6 PUSH2 0x1BD8 JUMP JUMPDEST SWAP1 POP PUSH1 0x0 PUSH2 0x1692 DUP10 DUP4 PUSH2 0x19DE JUMP JUMPDEST SWAP1 POP PUSH1 0x0 PUSH20 0xFFFFFFFFFFFFFFFFFFFFFFFFFFFFFFFFFFFFFFFF AND PUSH1 0x2 PUSH1 0x0 DUP4 DUP2 MSTORE PUSH1 0x20 ADD SWAP1 DUP2 MSTORE PUSH1 0x20 ADD PUSH1 0x0 KECCAK256 PUSH1 0x0 ADD PUSH1 0x0 SWAP1 SLOAD SWAP1 PUSH2 0x100 EXP SWAP1 DIV PUSH20 0xFFFFFFFFFFFFFFFFFFFFFFFFFFFFFFFFFFFFFFFF AND PUSH20 0xFFFFFFFFFFFFFFFFFFFFFFFFFFFFFFFFFFFFFFFF AND EQ PUSH2 0x1700 JUMPI INVALID JUMPDEST DUP6 PUSH1 0x2 PUSH1 0x0 DUP4 DUP2 MSTORE PUSH1 0x20 ADD SWAP1 DUP2 MSTORE PUSH1 0x20 ADD PUSH1 0x0 KECCAK256 PUSH1 0x0 ADD PUSH1 0x0 PUSH2 0x100 EXP DUP2 SLOAD DUP2 PUSH20 0xFFFFFFFFFFFFFFFFFFFFFFFFFFFFFFFFFFFFFFFF MUL NOT AND SWAP1 DUP4 PUSH20 0xFFFFFFFFFFFFFFFFFFFFFFFFFFFFFFFFFFFFFFFF AND MUL OR SWAP1 SSTORE POP PUSH12 0x33B2E3C9FD0803CE8000000 DUP8 LT PUSH2 0x176A JUMPI INVALID JUMPDEST DUP7 PUSH1 0x2 PUSH1 0x0 DUP4 DUP2 MSTORE PUSH1 0x20 ADD SWAP1 DUP2 MSTORE PUSH1 0x20 ADD PUSH1 0x0 KECCAK256 PUSH1 0x0 ADD PUSH1 0x14 PUSH2 0x100 EXP DUP2 SLOAD DUP2 PUSH12 0xFFFFFFFFFFFFFFFFFFFFFFFF MUL NOT AND SWAP1 DUP4 PUSH12 0xFFFFFFFFFFFFFFFFFFFFFFFF AND MUL OR SWAP1 SSTORE POP DUP2 NUMBER PUSH1 0x40 MLOAD PUSH1 0x20 ADD DUP1 DUP4 DUP2 MSTORE PUSH1 0x20 ADD DUP3 DUP2 MSTORE PUSH1 0x20 ADD SWAP3 POP POP POP PUSH1 0x40 MLOAD PUSH1 0x20 DUP2 DUP4 SUB SUB DUP2 MSTORE SWAP1 PUSH1 0x40 MSTORE DUP1 MLOAD SWAP1 PUSH1 0x20 ADD KECCAK256 PUSH1 0x2 PUSH1 0x0 DUP4 DUP2 MSTORE PUSH1 0x20 ADD SWAP1 DUP2 MSTORE PUSH1 0x20 ADD PUSH1 0x0 KECCAK256 PUSH1 0x1 ADD DUP2 SWAP1 SSTORE POP PUSH1 0x3 PUSH1 0x0 DUP11 DUP2 MSTORE PUSH1 0x20 ADD SWAP1 DUP2 MSTORE PUSH1 0x20 ADD PUSH1 0x0 KECCAK256 PUSH1 0x1 ADD SLOAD PUSH32 0x56BD374744A66D531874338DEF36C906E3A6CF31176EB1E9AFD9F1DE69725D51 DUP11 DUP5 DUP10 DUP12 DUP7 PUSH1 0x40 MLOAD DUP1 DUP7 DUP2 MSTORE PUSH1 0x20 ADD DUP6 DUP2 MSTORE PUSH1 0x20 ADD DUP5 PUSH20 0xFFFFFFFFFFFFFFFFFFFFFFFFFFFFFFFFFFFFFFFF AND PUSH20 0xFFFFFFFFFFFFFFFFFFFFFFFFFFFFFFFFFFFFFFFF AND DUP2 MSTORE PUSH1 0x20 ADD DUP4 DUP2 MSTORE PUSH1 0x20 ADD DUP3 DUP2 MSTORE PUSH1 0x20 ADD SWAP6 POP POP POP POP POP POP PUSH1 0x40 MLOAD DUP1 SWAP2 SUB SWAP1 LOG2 PUSH2 0x18F6 PUSH1 0x1 PUSH1 0x5 PUSH1 0x0 DUP13 DUP2 MSTORE PUSH1 0x20 ADD SWAP1 DUP2 MSTORE PUSH1 0x20 ADD PUSH1 0x0 KECCAK256 PUSH1 0x0 DUP10 PUSH20 0xFFFFFFFFFFFFFFFFFFFFFFFFFFFFFFFFFFFFFFFF AND PUSH20 0xFFFFFFFFFFFFFFFFFFFFFFFFFFFFFFFFFFFFFFFF AND DUP2 MSTORE PUSH1 0x20 ADD SWAP1 DUP2 MSTORE PUSH1 0x20 ADD PUSH1 0x0 KECCAK256 SLOAD PUSH2 0x1322 SWAP1 SWAP2 SWAP1 PUSH4 0xFFFFFFFF AND JUMP JUMPDEST PUSH1 0x5 PUSH1 0x0 DUP12 DUP2 MSTORE PUSH1 0x20 ADD SWAP1 DUP2 MSTORE PUSH1 0x20 ADD PUSH1 0x0 KECCAK256 PUSH1 0x0 DUP9 PUSH20 0xFFFFFFFFFFFFFFFFFFFFFFFFFFFFFFFFFFFFFFFF AND PUSH20 0xFFFFFFFFFFFFFFFFFFFFFFFFFFFFFFFFFFFFFFFF AND DUP2 MSTORE PUSH1 0x20 ADD SWAP1 DUP2 MSTORE PUSH1 0x20 ADD PUSH1 0x0 KECCAK256 DUP2 SWAP1 SSTORE POP POP POP POP POP POP POP POP POP POP JUMP JUMPDEST PUSH1 0x0 DUP3 DUP3 GT ISZERO PUSH2 0x19CD JUMPI PUSH1 0x40 MLOAD PUSH32 0x8C379A000000000000000000000000000000000000000000000000000000000 DUP2 MSTORE PUSH1 0x4 ADD DUP1 DUP1 PUSH1 0x20 ADD DUP3 DUP2 SUB DUP3 MSTORE PUSH1 0x1E DUP2 MSTORE PUSH1 0x20 ADD DUP1 PUSH32 0x536166654D6174683A207375627472616374696F6E206F766572666C6F770000 DUP2 MSTORE POP PUSH1 0x20 ADD SWAP2 POP POP PUSH1 0x40 MLOAD DUP1 SWAP2 SUB SWAP1 REVERT JUMPDEST PUSH1 0x0 DUP3 DUP5 SUB SWAP1 POP DUP1 SWAP2 POP POP SWAP3 SWAP2 POP POP JUMP JUMPDEST PUSH1 0x0 DUP3 DUP3 PUSH1 0x40 MLOAD PUSH1 0x20 ADD DUP1 DUP4 DUP2 MSTORE PUSH1 0x20 ADD DUP3 DUP2 MSTORE PUSH1 0x20 ADD SWAP3 POP POP POP PUSH1 0x40 MLOAD PUSH1 0x20 DUP2 DUP4 SUB SUB DUP2 MSTORE SWAP1 PUSH1 0x40 MSTORE DUP1 MLOAD SWAP1 PUSH1 0x20 ADD KECCAK256 SWAP1 POP SWAP3 SWAP2 POP POP JUMP JUMPDEST PUSH1 0x0 PUSH2 0x1A0 DUP3 MLOAD EQ PUSH2 0x1A91 JUMPI PUSH1 0x40 MLOAD PUSH32 0x8C379A000000000000000000000000000000000000000000000000000000000 DUP2 MSTORE PUSH1 0x4 ADD DUP1 DUP1 PUSH1 0x20 ADD DUP3 DUP2 SUB DUP3 MSTORE PUSH1 0x12 DUP2 MSTORE PUSH1 0x20 ADD DUP1 PUSH32 0x77726F6E672070726F6F66206C656E6774680000000000000000000000000000 DUP2 MSTORE POP PUSH1 0x20 ADD SWAP2 POP POP PUSH1 0x40 MLOAD DUP1 SWAP2 SUB SWAP1 REVERT JUMPDEST PUSH2 0x1A99 PUSH2 0x2F9D JUMP JUMPDEST PUSH2 0x1AA1 PUSH2 0x2F9D JUMP JUMPDEST PUSH2 0x1AA9 PUSH2 0x2FBF JUMP JUMPDEST PUSH1 0x0 PUSH2 0x1AB3 PUSH2 0x2F9D JUMP JUMPDEST PUSH2 0x1ABB PUSH2 0x2F9D JUMP JUMPDEST PUSH1 0x0 DUP9 DUP1 PUSH1 0x20 ADD SWAP1 MLOAD PUSH2 0x1A0 DUP2 LT ISZERO PUSH2 0x1AD3 JUMPI PUSH1 0x0 DUP1 REVERT JUMPDEST DUP2 ADD SWAP1 DUP1 SWAP2 SWAP1 DUP3 PUSH1 0x40 ADD SWAP2 SWAP1 DUP3 PUSH1 0x40 ADD SWAP2 SWAP1 DUP3 PUSH1 0x60 ADD DUP1 MLOAD SWAP1 PUSH1 0x20 ADD SWAP1 SWAP3 SWAP2 SWAP1 SWAP2 SWAP1 DUP3 PUSH1 0x40 ADD SWAP2 SWAP1 DUP3 PUSH1 0x40 ADD DUP1 MLOAD SWAP1 PUSH1 0x20 ADD SWAP1 SWAP3 SWAP2 SWAP1 POP POP POP DUP4 SWAP4 POP DUP1 SWAP8 POP DUP2 SWAP9 POP DUP3 SWAP10 POP DUP4 SWAP11 POP DUP5 SWAP12 POP DUP6 SWAP13 POP DUP7 SWAP14 POP POP POP POP POP POP POP POP PUSH2 0x1B6F DUP8 DUP8 DUP8 PUSH1 0x0 PUSH1 0x3 DUP2 LT PUSH2 0x1B3D JUMPI INVALID JUMPDEST PUSH1 0x20 MUL ADD MLOAD DUP9 PUSH1 0x1 PUSH1 0x3 DUP2 LT PUSH2 0x1B4F JUMPI INVALID JUMPDEST PUSH1 0x20 MUL ADD MLOAD DUP10 PUSH1 0x2 PUSH1 0x3 DUP2 LT PUSH2 0x1B61 JUMPI INVALID JUMPDEST PUSH1 0x20 MUL ADD MLOAD DUP10 DUP10 DUP10 DUP10 PUSH2 0x1C52 JUMP JUMPDEST PUSH1 0x3 DUP7 PUSH1 0x40 MLOAD PUSH1 0x20 ADD DUP1 DUP4 DUP2 MSTORE PUSH1 0x20 ADD DUP3 PUSH1 0x2 PUSH1 0x20 MUL DUP1 DUP4 DUP4 PUSH1 0x0 JUMPDEST DUP4 DUP2 LT ISZERO PUSH2 0x1BA6 JUMPI DUP1 DUP3 ADD MLOAD DUP2 DUP5 ADD MSTORE PUSH1 0x20 DUP2 ADD SWAP1 POP PUSH2 0x1B8B JUMP JUMPDEST POP POP POP POP SWAP1 POP ADD SWAP3 POP POP POP PUSH1 0x40 MLOAD PUSH1 0x20 DUP2 DUP4 SUB SUB DUP2 MSTORE SWAP1 PUSH1 0x40 MSTORE DUP1 MLOAD SWAP1 PUSH1 0x20 ADD KECCAK256 PUSH1 0x0 SHR SWAP8 POP POP POP POP POP POP POP POP SWAP2 SWAP1 POP JUMP JUMPDEST PUSH1 0x0 DUP5 DUP5 DUP5 DUP5 PUSH1 0x40 MLOAD PUSH1 0x20 ADD DUP1 DUP6 DUP2 MSTORE PUSH1 0x20 ADD DUP5 DUP2 MSTORE PUSH1 0x20 ADD DUP4 PUSH20 0xFFFFFFFFFFFFFFFFFFFFFFFFFFFFFFFFFFFFFFFF AND PUSH20 0xFFFFFFFFFFFFFFFFFFFFFFFFFFFFFFFFFFFFFFFF AND DUP2 MSTORE PUSH1 0x20 ADD DUP3 DUP2 MSTORE PUSH1 0x20 ADD SWAP5 POP POP POP POP POP PUSH1 0x40 MLOAD PUSH1 0x20 DUP2 DUP4 SUB SUB DUP2 MSTORE SWAP1 PUSH1 0x40 MSTORE DUP1 MLOAD SWAP1 PUSH1 0x20 ADD KECCAK256 PUSH1 0x0 SHR SWAP1 POP SWAP5 SWAP4 POP POP POP POP JUMP JUMPDEST PUSH2 0x1C5B DUP10 PUSH2 0x1F7D JUMP JUMPDEST PUSH2 0x1CCD JUMPI PUSH1 0x40 MLOAD PUSH32 0x8C379A000000000000000000000000000000000000000000000000000000000 DUP2 MSTORE PUSH1 0x4 ADD DUP1 DUP1 PUSH1 0x20 ADD DUP3 DUP2 SUB DUP3 MSTORE PUSH1 0x1A DUP2 MSTORE PUSH1 0x20 ADD DUP1 PUSH32 0x7075626C6963206B6579206973206E6F74206F6E206375727665000000000000 DUP2 MSTORE POP PUSH1 0x20 ADD SWAP2 POP POP PUSH1 0x40 MLOAD DUP1 SWAP2 SUB SWAP1 REVERT JUMPDEST PUSH2 0x1CD6 DUP9 PUSH2 0x1F7D JUMP JUMPDEST PUSH2 0x1D48 JUMPI PUSH1 0x40 MLOAD PUSH32 0x8C379A000000000000000000000000000000000000000000000000000000000 DUP2 MSTORE PUSH1 0x4 ADD DUP1 DUP1 PUSH1 0x20 ADD DUP3 DUP2 SUB DUP3 MSTORE PUSH1 0x15 DUP2 MSTORE PUSH1 0x20 ADD DUP1 PUSH32 0x67616D6D61206973206E6F74206F6E2063757276650000000000000000000000 DUP2 MSTORE POP PUSH1 0x20 ADD SWAP2 POP POP PUSH1 0x40 MLOAD DUP1 SWAP2 SUB SWAP1 REVERT JUMPDEST PUSH2 0x1D51 DUP4 PUSH2 0x1F7D JUMP JUMPDEST PUSH2 0x1DC3 JUMPI PUSH1 0x40 MLOAD PUSH32 0x8C379A000000000000000000000000000000000000000000000000000000000 DUP2 MSTORE PUSH1 0x4 ADD DUP1 DUP1 PUSH1 0x20 ADD DUP3 DUP2 SUB DUP3 MSTORE PUSH1 0x1D DUP2 MSTORE PUSH1 0x20 ADD DUP1 PUSH32 0x6347616D6D615769746E657373206973206E6F74206F6E206375727665000000 DUP2 MSTORE POP PUSH1 0x20 ADD SWAP2 POP POP PUSH1 0x40 MLOAD DUP1 SWAP2 SUB SWAP1 REVERT JUMPDEST PUSH2 0x1DCC DUP3 PUSH2 0x1F7D JUMP JUMPDEST PUSH2 0x1E3E JUMPI PUSH1 0x40 MLOAD PUSH32 0x8C379A000000000000000000000000000000000000000000000000000000000 DUP2 MSTORE PUSH1 0x4 ADD DUP1 DUP1 PUSH1 0x20 ADD DUP3 DUP2 SUB DUP3 MSTORE PUSH1 0x1C DUP2 MSTORE PUSH1 0x20 ADD DUP1 PUSH32 0x73486173685769746E657373206973206E6F74206F6E20637572766500000000 DUP2 MSTORE POP PUSH1 0x20 ADD SWAP2 POP POP PUSH1 0x40 MLOAD DUP1 SWAP2 SUB SWAP1 REVERT JUMPDEST PUSH2 0x1E4A DUP8 DUP11 DUP9 DUP8 PUSH2 0x1FEE JUMP JUMPDEST PUSH2 0x1EBC JUMPI PUSH1 0x40 MLOAD PUSH32 0x8C379A000000000000000000000000000000000000000000000000000000000 DUP2 MSTORE PUSH1 0x4 ADD DUP1 DUP1 PUSH1 0x20 ADD DUP3 DUP2 SUB DUP3 MSTORE PUSH1 0x1A DUP2 MSTORE PUSH1 0x20 ADD DUP1 PUSH32 0x6164647228632A706B2B732A6729E289A05F755769746E657373000000000000 DUP2 MSTORE POP PUSH1 0x20 ADD SWAP2 POP POP PUSH1 0x40 MLOAD DUP1 SWAP2 SUB SWAP1 REVERT JUMPDEST PUSH2 0x1EC4 PUSH2 0x2F9D JUMP JUMPDEST PUSH2 0x1ECE DUP11 DUP8 PUSH2 0x2226 JUMP JUMPDEST SWAP1 POP PUSH2 0x1ED8 PUSH2 0x2F9D JUMP JUMPDEST PUSH2 0x1EE7 DUP10 DUP12 DUP8 DUP12 DUP7 DUP10 DUP10 PUSH2 0x22E5 JUMP JUMPDEST SWAP1 POP PUSH1 0x0 PUSH2 0x1EF8 DUP4 DUP14 DUP14 DUP11 DUP7 PUSH2 0x2489 JUMP JUMPDEST SWAP1 POP DUP1 DUP11 EQ PUSH2 0x1F6F JUMPI PUSH1 0x40 MLOAD PUSH32 0x8C379A000000000000000000000000000000000000000000000000000000000 DUP2 MSTORE PUSH1 0x4 ADD DUP1 DUP1 PUSH1 0x20 ADD DUP3 DUP2 SUB DUP3 MSTORE PUSH1 0xD DUP2 MSTORE PUSH1 0x20 ADD DUP1 PUSH32 0x696E76616C69642070726F6F6600000000000000000000000000000000000000 DUP2 MSTORE POP PUSH1 0x20 ADD SWAP2 POP POP PUSH1 0x40 MLOAD DUP1 SWAP2 SUB SWAP1 REVERT JUMPDEST POP POP POP POP POP POP POP POP POP POP POP POP JUMP JUMPDEST PUSH1 0x0 PUSH32 0xFFFFFFFFFFFFFFFFFFFFFFFFFFFFFFFFFFFFFFFFFFFFFFFFFFFFFFFEFFFFFC2F DUP1 PUSH2 0x1FA7 JUMPI INVALID JUMPDEST DUP3 PUSH1 0x1 PUSH1 0x2 DUP2 LT PUSH2 0x1FB4 JUMPI INVALID JUMPDEST PUSH1 0x20 MUL ADD MLOAD DUP4 PUSH1 0x1 PUSH1 0x2 DUP2 LT PUSH2 0x1FC6 JUMPI INVALID JUMPDEST PUSH1 0x20 MUL ADD MLOAD MULMOD PUSH2 0x1FE6 DUP4 PUSH1 0x0 PUSH1 0x2 DUP2 LT PUSH2 0x1FDC JUMPI INVALID JUMPDEST PUSH1 0x20 MUL ADD MLOAD PUSH2 0x25B8 JUMP JUMPDEST EQ SWAP1 POP SWAP2 SWAP1 POP JUMP JUMPDEST PUSH1 0x0 DUP1 PUSH20 0xFFFFFFFFFFFFFFFFFFFFFFFFFFFFFFFFFFFFFFFF AND DUP3 PUSH20 0xFFFFFFFFFFFFFFFFFFFFFFFFFFFFFFFFFFFFFFFF AND EQ ISZERO PUSH2 0x2092 JUMPI PUSH1 0x40 MLOAD PUSH32 0x8C379A000000000000000000000000000000000000000000000000000000000 DUP2 MSTORE PUSH1 0x4 ADD DUP1 DUP1 PUSH1 0x20 ADD DUP3 DUP2 SUB DUP3 MSTORE PUSH1 0xB DUP2 MSTORE PUSH1 0x20 ADD DUP1 PUSH32 0x626164207769746E657373000000000000000000000000000000000000000000 DUP2 MSTORE POP PUSH1 0x20 ADD SWAP2 POP POP PUSH1 0x40 MLOAD DUP1 SWAP2 SUB SWAP1 REVERT JUMPDEST PUSH1 0x0 DUP1 PUSH1 0x2 DUP7 PUSH1 0x1 PUSH1 0x2 DUP2 LT PUSH2 0x20A4 JUMPI INVALID JUMPDEST PUSH1 0x20 MUL ADD MLOAD DUP2 PUSH2 0x20B0 JUMPI INVALID JUMPDEST MOD EQ PUSH2 0x20BD JUMPI PUSH1 0x1C PUSH2 0x20C0 JUMP JUMPDEST PUSH1 0x1B JUMPDEST SWAP1 POP PUSH1 0x0 PUSH32 0xFFFFFFFFFFFFFFFFFFFFFFFFFFFFFFFEBAAEDCE6AF48A03BBFD25E8CD0364141 DUP1 PUSH2 0x20EC JUMPI INVALID JUMPDEST DUP6 DUP8 PUSH1 0x0 PUSH1 0x2 DUP2 LT PUSH2 0x20FA JUMPI INVALID JUMPDEST PUSH1 0x20 MUL ADD MLOAD MULMOD PUSH32 0xFFFFFFFFFFFFFFFFFFFFFFFFFFFFFFFEBAAEDCE6AF48A03BBFD25E8CD0364141 SUB PUSH1 0x0 SHL SWAP1 POP PUSH1 0x0 PUSH32 0xFFFFFFFFFFFFFFFFFFFFFFFFFFFFFFFEBAAEDCE6AF48A03BBFD25E8CD0364141 DUP1 PUSH2 0x2151 JUMPI INVALID JUMPDEST DUP8 PUSH1 0x0 PUSH1 0x2 DUP2 LT PUSH2 0x215E JUMPI INVALID JUMPDEST PUSH1 0x20 MUL ADD MLOAD DUP10 MULMOD PUSH1 0x0 SHL SWAP1 POP PUSH1 0x0 PUSH1 0x1 DUP4 DUP6 DUP11 PUSH1 0x0 PUSH1 0x2 DUP2 LT PUSH2 0x217D JUMPI INVALID JUMPDEST PUSH1 0x20 MUL ADD MLOAD PUSH1 0x0 SHL DUP6 PUSH1 0x40 MLOAD PUSH1 0x0 DUP2 MSTORE PUSH1 0x20 ADD PUSH1 0x40 MSTORE PUSH1 0x40 MLOAD DUP1 DUP6 DUP2 MSTORE PUSH1 0x20 ADD DUP5 PUSH1 0xFF AND PUSH1 0xFF AND DUP2 MSTORE PUSH1 0x20 ADD DUP4 DUP2 MSTORE PUSH1 0x20 ADD DUP3 DUP2 MSTORE PUSH1 0x20 ADD SWAP5 POP POP POP POP POP PUSH1 0x20 PUSH1 0x40 MLOAD PUSH1 0x20 DUP2 SUB SWAP1 DUP1 DUP5 SUB SWAP1 DUP6 GAS STATICCALL ISZERO DUP1 ISZERO PUSH2 0x21DD JUMPI RETURNDATASIZE PUSH1 0x0 DUP1 RETURNDATACOPY RETURNDATASIZE PUSH1 0x0 REVERT JUMPDEST POP POP POP PUSH1 0x20 PUSH1 0x40 MLOAD SUB MLOAD SWAP1 POP DUP6 PUSH20 0xFFFFFFFFFFFFFFFFFFFFFFFFFFFFFFFFFFFFFFFF AND DUP2 PUSH20 0xFFFFFFFFFFFFFFFFFFFFFFFFFFFFFFFFFFFFFFFF AND EQ SWAP5 POP POP POP POP POP SWAP5 SWAP4 POP POP POP POP JUMP JUMPDEST PUSH2 0x222E PUSH2 0x2F9D JUMP JUMPDEST PUSH2 0x228F PUSH1 0x1 DUP5 DUP5 PUSH1 0x40 MLOAD PUSH1 0x20 ADD DUP1 DUP5 DUP2 MSTORE PUSH1 0x20 ADD DUP4 PUSH1 0x2 PUSH1 0x20 MUL DUP1 DUP4 DUP4 PUSH1 0x0 JUMPDEST DUP4 DUP2 LT ISZERO PUSH2 0x2269 JUMPI DUP1 DUP3 ADD MLOAD DUP2 DUP5 ADD MSTORE PUSH1 0x20 DUP2 ADD SWAP1 POP PUSH2 0x224E JUMP JUMPDEST POP POP POP POP SWAP1 POP ADD DUP3 DUP2 MSTORE PUSH1 0x20 ADD SWAP4 POP POP POP POP PUSH1 0x40 MLOAD PUSH1 0x20 DUP2 DUP4 SUB SUB DUP2 MSTORE SWAP1 PUSH1 0x40 MSTORE PUSH2 0x2646 JUMP JUMPDEST SWAP1 POP JUMPDEST PUSH2 0x229B DUP2 PUSH2 0x1F7D JUMP JUMPDEST PUSH2 0x22DF JUMPI PUSH2 0x22D8 DUP2 PUSH1 0x0 PUSH1 0x2 DUP2 LT PUSH2 0x22AF JUMPI INVALID JUMPDEST PUSH1 0x20 MUL ADD MLOAD PUSH1 0x40 MLOAD PUSH1 0x20 ADD DUP1 DUP3 DUP2 MSTORE PUSH1 0x20 ADD SWAP2 POP POP PUSH1 0x40 MLOAD PUSH1 0x20 DUP2 DUP4 SUB SUB DUP2 MSTORE SWAP1 PUSH1 0x40 MSTORE PUSH2 0x2646 JUMP JUMPDEST SWAP1 POP PUSH2 0x2292 JUMP JUMPDEST SWAP3 SWAP2 POP POP JUMP JUMPDEST PUSH2 0x22ED PUSH2 0x2F9D JUMP JUMPDEST PUSH1 0x0 PUSH32 0xFFFFFFFFFFFFFFFFFFFFFFFFFFFFFFFFFFFFFFFFFFFFFFFFFFFFFFFEFFFFFC2F DUP5 PUSH1 0x0 PUSH1 0x2 DUP2 LT PUSH2 0x231D JUMPI INVALID JUMPDEST PUSH1 0x20 MUL ADD MLOAD DUP9 PUSH1 0x0 PUSH1 0x2 DUP2 LT PUSH2 0x232F JUMPI INVALID JUMPDEST PUSH1 0x20 MUL ADD MLOAD SUB DUP2 PUSH2 0x233C JUMPI INVALID JUMPDEST MOD EQ ISZERO PUSH2 0x23B1 JUMPI PUSH1 0x40 MLOAD PUSH32 0x8C379A000000000000000000000000000000000000000000000000000000000 DUP2 MSTORE PUSH1 0x4 ADD DUP1 DUP1 PUSH1 0x20 ADD DUP3 DUP2 SUB DUP3 MSTORE PUSH1 0x1E DUP2 MSTORE PUSH1 0x20 ADD DUP1 PUSH32 0x706F696E747320696E2073756D206D7573742062652064697374696E63740000 DUP2 MSTORE POP PUSH1 0x20 ADD SWAP2 POP POP PUSH1 0x40 MLOAD DUP1 SWAP2 SUB SWAP1 REVERT JUMPDEST PUSH2 0x23BC DUP8 DUP10 DUP9 PUSH2 0x2719 JUMP JUMPDEST PUSH2 0x2411 JUMPI PUSH1 0x40 MLOAD PUSH32 0x8C379A000000000000000000000000000000000000000000000000000000000 DUP2 MSTORE PUSH1 0x4 ADD DUP1 DUP1 PUSH1 0x20 ADD DUP3 DUP2 SUB DUP3 MSTORE PUSH1 0x21 DUP2 MSTORE PUSH1 0x20 ADD DUP1 PUSH2 0x3062 PUSH1 0x21 SWAP2 CODECOPY PUSH1 0x40 ADD SWAP2 POP POP PUSH1 0x40 MLOAD DUP1 SWAP2 SUB SWAP1 REVERT JUMPDEST PUSH2 0x241C DUP5 DUP7 DUP6 PUSH2 0x2719 JUMP JUMPDEST PUSH2 0x2471 JUMPI PUSH1 0x40 MLOAD PUSH32 0x8C379A000000000000000000000000000000000000000000000000000000000 DUP2 MSTORE PUSH1 0x4 ADD DUP1 DUP1 PUSH1 0x20 ADD DUP3 DUP2 SUB DUP3 MSTORE PUSH1 0x22 DUP2 MSTORE PUSH1 0x20 ADD DUP1 PUSH2 0x3083 PUSH1 0x22 SWAP2 CODECOPY PUSH1 0x40 ADD SWAP2 POP POP PUSH1 0x40 MLOAD DUP1 SWAP2 SUB SWAP1 REVERT JUMPDEST PUSH2 0x247C DUP7 DUP5 DUP5 PUSH2 0x28A4 JUMP JUMPDEST SWAP1 POP SWAP8 SWAP7 POP POP POP POP POP POP POP JUMP JUMPDEST PUSH1 0x0 PUSH1 0x2 DUP7 DUP7 DUP7 DUP6 DUP8 PUSH1 0x40 MLOAD PUSH1 0x20 ADD DUP1 DUP8 DUP2 MSTORE PUSH1 0x20 ADD DUP7 PUSH1 0x2 PUSH1 0x20 MUL DUP1 DUP4 DUP4 PUSH1 0x0 JUMPDEST DUP4 DUP2 LT ISZERO PUSH2 0x24C6 JUMPI DUP1 DUP3 ADD MLOAD DUP2 DUP5 ADD MSTORE PUSH1 0x20 DUP2 ADD SWAP1 POP PUSH2 0x24AB JUMP JUMPDEST POP POP POP POP SWAP1 POP ADD DUP6 PUSH1 0x2 PUSH1 0x20 MUL DUP1 DUP4 DUP4 PUSH1 0x0 JUMPDEST DUP4 DUP2 LT ISZERO PUSH2 0x24F4 JUMPI DUP1 DUP3 ADD MLOAD DUP2 DUP5 ADD MSTORE PUSH1 0x20 DUP2 ADD SWAP1 POP PUSH2 0x24D9 JUMP JUMPDEST POP POP POP POP SWAP1 POP ADD DUP5 PUSH1 0x2 PUSH1 0x20 MUL DUP1 DUP4 DUP4 PUSH1 0x0 JUMPDEST DUP4 DUP2 LT ISZERO PUSH2 0x2522 JUMPI DUP1 DUP3 ADD MLOAD DUP2 DUP5 ADD MSTORE PUSH1 0x20 DUP2 ADD SWAP1 POP PUSH2 0x2507 JUMP JUMPDEST POP POP POP POP SWAP1 POP ADD DUP4 PUSH1 0x2 PUSH1 0x20 MUL DUP1 DUP4 DUP4 PUSH1 0x0 JUMPDEST DUP4 DUP2 LT ISZERO PUSH2 0x2550 JUMPI DUP1 DUP3 ADD MLOAD DUP2 DUP5 ADD MSTORE PUSH1 0x20 DUP2 ADD SWAP1 POP PUSH2 0x2535 JUMP JUMPDEST POP POP POP POP SWAP1 POP ADD DUP3 PUSH20 0xFFFFFFFFFFFFFFFFFFFFFFFFFFFFFFFFFFFFFFFF AND PUSH20 0xFFFFFFFFFFFFFFFFFFFFFFFFFFFFFFFFFFFFFFFF AND PUSH1 0x60 SHL DUP2 MSTORE PUSH1 0x14 ADD SWAP7 POP POP POP POP POP POP POP PUSH1 0x40 MLOAD PUSH1 0x20 DUP2 DUP4 SUB SUB DUP2 MSTORE SWAP1 PUSH1 0x40 MSTORE DUP1 MLOAD SWAP1 PUSH1 0x20 ADD KECCAK256 PUSH1 0x0 SHR SWAP1 POP SWAP6 SWAP5 POP POP POP POP POP JUMP JUMPDEST PUSH1 0x0 DUP1 PUSH32 0xFFFFFFFFFFFFFFFFFFFFFFFFFFFFFFFFFFFFFFFFFFFFFFFFFFFFFFFEFFFFFC2F DUP1 PUSH2 0x25E3 JUMPI INVALID JUMPDEST PUSH32 0xFFFFFFFFFFFFFFFFFFFFFFFFFFFFFFFFFFFFFFFFFFFFFFFFFFFFFFFEFFFFFC2F DUP1 PUSH2 0x260B JUMPI INVALID JUMPDEST DUP5 DUP6 MULMOD DUP5 MULMOD SWAP1 POP PUSH32 0xFFFFFFFFFFFFFFFFFFFFFFFFFFFFFFFFFFFFFFFFFFFFFFFFFFFFFFFEFFFFFC2F DUP1 PUSH2 0x263A JUMPI INVALID JUMPDEST PUSH1 0x7 DUP3 ADDMOD SWAP2 POP POP SWAP2 SWAP1 POP JUMP JUMPDEST PUSH2 0x264E PUSH2 0x2F9D JUMP JUMPDEST PUSH2 0x2657 DUP3 PUSH2 0x2A22 JUMP JUMPDEST DUP2 PUSH1 0x0 PUSH1 0x2 DUP2 LT PUSH2 0x2664 JUMPI INVALID JUMPDEST PUSH1 0x20 MUL ADD DUP2 DUP2 MSTORE POP POP PUSH2 0x268F PUSH2 0x268A DUP3 PUSH1 0x0 PUSH1 0x2 DUP2 LT PUSH2 0x2680 JUMPI INVALID JUMPDEST PUSH1 0x20 MUL ADD MLOAD PUSH2 0x25B8 JUMP JUMPDEST PUSH2 0x2A8F JUMP JUMPDEST DUP2 PUSH1 0x1 PUSH1 0x2 DUP2 LT PUSH2 0x269C JUMPI INVALID JUMPDEST PUSH1 0x20 MUL ADD DUP2 DUP2 MSTORE POP POP PUSH1 0x1 PUSH1 0x2 DUP3 PUSH1 0x1 PUSH1 0x2 DUP2 LT PUSH2 0x26B6 JUMPI INVALID JUMPDEST PUSH1 0x20 MUL ADD MLOAD DUP2 PUSH2 0x26C2 JUMPI INVALID JUMPDEST MOD EQ ISZERO PUSH2 0x2714 JUMPI DUP1 PUSH1 0x1 PUSH1 0x2 DUP2 LT PUSH2 0x26D6 JUMPI INVALID JUMPDEST PUSH1 0x20 MUL ADD MLOAD PUSH32 0xFFFFFFFFFFFFFFFFFFFFFFFFFFFFFFFFFFFFFFFFFFFFFFFFFFFFFFFEFFFFFC2F SUB DUP2 PUSH1 0x1 PUSH1 0x2 DUP2 LT PUSH2 0x270A JUMPI INVALID JUMPDEST PUSH1 0x20 MUL ADD DUP2 DUP2 MSTORE POP POP JUMPDEST SWAP2 SWAP1 POP JUMP JUMPDEST PUSH1 0x0 DUP1 DUP4 EQ ISZERO PUSH2 0x2728 JUMPI PUSH1 0x0 DUP1 REVERT JUMPDEST PUSH1 0x0 DUP5 PUSH1 0x0 PUSH1 0x2 DUP2 LT PUSH2 0x2737 JUMPI INVALID JUMPDEST PUSH1 0x20 MUL ADD MLOAD SWAP1 POP PUSH1 0x0 DUP1 PUSH1 0x2 DUP8 PUSH1 0x1 PUSH1 0x2 DUP2 LT PUSH2 0x2750 JUMPI INVALID JUMPDEST PUSH1 0x20 MUL ADD MLOAD DUP2 PUSH2 0x275C JUMPI INVALID JUMPDEST MOD EQ PUSH2 0x2769 JUMPI PUSH1 0x1C PUSH2 0x276C JUMP JUMPDEST PUSH1 0x1B JUMPDEST SWAP1 POP PUSH1 0x0 PUSH32 0xFFFFFFFFFFFFFFFFFFFFFFFFFFFFFFFEBAAEDCE6AF48A03BBFD25E8CD0364141 DUP1 PUSH2 0x2798 JUMPI INVALID JUMPDEST DUP4 DUP8 MULMOD PUSH1 0x0 SHL SWAP1 POP PUSH1 0x0 PUSH1 0x1 PUSH1 0x0 DUP1 SHL DUP5 DUP7 PUSH1 0x0 SHL DUP6 PUSH1 0x40 MLOAD PUSH1 0x0 DUP2 MSTORE PUSH1 0x20 ADD PUSH1 0x40 MSTORE PUSH1 0x40 MLOAD DUP1 DUP6 DUP2 MSTORE PUSH1 0x20 ADD DUP5 PUSH1 0xFF AND PUSH1 0xFF AND DUP2 MSTORE PUSH1 0x20 ADD DUP4 DUP2 MSTORE PUSH1 0x20 ADD DUP3 DUP2 MSTORE PUSH1 0x20 ADD SWAP5 POP POP POP POP POP PUSH1 0x20 PUSH1 0x40 MLOAD PUSH1 0x20 DUP2 SUB SWAP1 DUP1 DUP5 SUB SWAP1 DUP6 GAS STATICCALL ISZERO DUP1 ISZERO PUSH2 0x2805 JUMPI RETURNDATASIZE PUSH1 0x0 DUP1 RETURNDATACOPY RETURNDATASIZE PUSH1 0x0 REVERT JUMPDEST POP POP POP PUSH1 0x20 PUSH1 0x40 MLOAD SUB MLOAD SWAP1 POP PUSH1 0x0 DUP7 PUSH1 0x40 MLOAD PUSH1 0x20 ADD DUP1 DUP3 PUSH1 0x2 PUSH1 0x20 MUL DUP1 DUP4 DUP4 PUSH1 0x0 JUMPDEST DUP4 DUP2 LT ISZERO PUSH2 0x2842 JUMPI DUP1 DUP3 ADD MLOAD DUP2 DUP5 ADD MSTORE PUSH1 0x20 DUP2 ADD SWAP1 POP PUSH2 0x2827 JUMP JUMPDEST POP POP POP POP SWAP1 POP ADD SWAP2 POP POP PUSH1 0x40 MLOAD PUSH1 0x20 DUP2 DUP4 SUB SUB DUP2 MSTORE SWAP1 PUSH1 0x40 MSTORE DUP1 MLOAD SWAP1 PUSH1 0x20 ADD KECCAK256 PUSH1 0x0 SHR SWAP1 POP DUP1 PUSH20 0xFFFFFFFFFFFFFFFFFFFFFFFFFFFFFFFFFFFFFFFF AND DUP3 PUSH20 0xFFFFFFFFFFFFFFFFFFFFFFFFFFFFFFFFFFFFFFFF AND EQ SWAP6 POP POP POP POP POP POP SWAP4 SWAP3 POP POP POP JUMP JUMPDEST PUSH2 0x28AC PUSH2 0x2F9D JUMP JUMPDEST PUSH1 0x0 DUP1 PUSH1 0x0 PUSH2 0x2901 DUP8 PUSH1 0x0 PUSH1 0x2 DUP2 LT PUSH2 0x28C1 JUMPI INVALID JUMPDEST PUSH1 0x20 MUL ADD MLOAD DUP9 PUSH1 0x1 PUSH1 0x2 DUP2 LT PUSH2 0x28D3 JUMPI INVALID JUMPDEST PUSH1 0x20 MUL ADD MLOAD DUP9 PUSH1 0x0 PUSH1 0x2 DUP2 LT PUSH2 0x28E5 JUMPI INVALID JUMPDEST PUSH1 0x20 MUL ADD MLOAD DUP10 PUSH1 0x1 PUSH1 0x2 DUP2 LT PUSH2 0x28F7 JUMPI INVALID JUMPDEST PUSH1 0x20 MUL ADD MLOAD PUSH2 0x2AC9 JUMP JUMPDEST DUP1 SWAP4 POP DUP2 SWAP5 POP DUP3 SWAP6 POP POP POP POP PUSH1 0x1 PUSH32 0xFFFFFFFFFFFFFFFFFFFFFFFFFFFFFFFFFFFFFFFFFFFFFFFFFFFFFFFEFFFFFC2F DUP1 PUSH2 0x2937 JUMPI INVALID JUMPDEST DUP7 DUP4 MULMOD EQ PUSH2 0x29AD JUMPI PUSH1 0x40 MLOAD PUSH32 0x8C379A000000000000000000000000000000000000000000000000000000000 DUP2 MSTORE PUSH1 0x4 ADD DUP1 DUP1 PUSH1 0x20 ADD DUP3 DUP2 SUB DUP3 MSTORE PUSH1 0x19 DUP2 MSTORE PUSH1 0x20 ADD DUP1 PUSH32 0x696E765A206D75737420626520696E7665727365206F66207A00000000000000 DUP2 MSTORE POP PUSH1 0x20 ADD SWAP2 POP POP PUSH1 0x40 MLOAD DUP1 SWAP2 SUB SWAP1 REVERT JUMPDEST PUSH1 0x40 MLOAD DUP1 PUSH1 0x40 ADD PUSH1 0x40 MSTORE DUP1 PUSH32 0xFFFFFFFFFFFFFFFFFFFFFFFFFFFFFFFFFFFFFFFFFFFFFFFFFFFFFFFEFFFFFC2F DUP1 PUSH2 0x29E0 JUMPI INVALID JUMPDEST DUP8 DUP7 MULMOD DUP2 MSTORE PUSH1 0x20 ADD PUSH32 0xFFFFFFFFFFFFFFFFFFFFFFFFFFFFFFFFFFFFFFFFFFFFFFFFFFFFFFFEFFFFFC2F DUP1 PUSH2 0x2A10 JUMPI INVALID JUMPDEST DUP8 DUP6 MULMOD DUP2 MSTORE POP SWAP4 POP POP POP POP SWAP4 SWAP3 POP POP POP JUMP JUMPDEST PUSH1 0x0 DUP2 DUP1 MLOAD SWAP1 PUSH1 0x20 ADD KECCAK256 PUSH1 0x0 SHR SWAP1 POP JUMPDEST PUSH32 0xFFFFFFFFFFFFFFFFFFFFFFFFFFFFFFFFFFFFFFFFFFFFFFFFFFFFFFFEFFFFFC2F DUP2 LT PUSH2 0x2A8A JUMPI DUP1 PUSH1 0x40 MLOAD PUSH1 0x20 ADD DUP1 DUP3 DUP2 MSTORE PUSH1 0x20 ADD SWAP2 POP POP PUSH1 0x40 MLOAD PUSH1 0x20 DUP2 DUP4 SUB SUB DUP2 MSTORE SWAP1 PUSH1 0x40 MSTORE DUP1 MLOAD SWAP1 PUSH1 0x20 ADD KECCAK256 PUSH1 0x0 SHR SWAP1 POP PUSH2 0x2A32 JUMP JUMPDEST SWAP2 SWAP1 POP JUMP JUMPDEST PUSH1 0x0 PUSH2 0x2AC2 DUP3 PUSH1 0x2 PUSH1 0x1 PUSH32 0xFFFFFFFFFFFFFFFFFFFFFFFFFFFFFFFFFFFFFFFFFFFFFFFFFFFFFFFEFFFFFC2F ADD SWAP1 SHR PUSH2 0x2C9D JUMP JUMPDEST SWAP1 POP SWAP2 SWAP1 POP JUMP JUMPDEST PUSH1 0x0 DUP1 PUSH1 0x0 DUP1 PUSH1 0x0 PUSH1 0x1 DUP1 SWAP2 POP SWAP2 POP PUSH1 0x0 PUSH32 0xFFFFFFFFFFFFFFFFFFFFFFFFFFFFFFFFFFFFFFFFFFFFFFFFFFFFFFFEFFFFFC2F DUP1 PUSH2 0x2B02 JUMPI INVALID JUMPDEST DUP10 PUSH32 0xFFFFFFFFFFFFFFFFFFFFFFFFFFFFFFFFFFFFFFFFFFFFFFFFFFFFFFFEFFFFFC2F SUB DUP9 ADDMOD SWAP1 POP PUSH1 0x0 PUSH32 0xFFFFFFFFFFFFFFFFFFFFFFFFFFFFFFFFFFFFFFFFFFFFFFFFFFFFFFFEFFFFFC2F DUP1 PUSH2 0x2B53 JUMPI INVALID JUMPDEST DUP12 PUSH32 0xFFFFFFFFFFFFFFFFFFFFFFFFFFFFFFFFFFFFFFFFFFFFFFFFFFFFFFFEFFFFFC2F SUB DUP11 ADDMOD SWAP1 POP PUSH1 0x0 PUSH2 0x2B88 DUP4 DUP4 DUP6 DUP6 PUSH2 0x2DFF JUMP JUMPDEST DUP1 SWAP3 POP DUP2 SWAP10 POP POP POP PUSH2 0x2B9C DUP9 DUP3 DUP15 DUP9 PUSH2 0x2E69 JUMP JUMPDEST DUP1 SWAP3 POP DUP2 SWAP10 POP POP POP PUSH2 0x2BB0 DUP9 DUP3 DUP13 DUP8 PUSH2 0x2E69 JUMP JUMPDEST DUP1 SWAP3 POP DUP2 SWAP10 POP POP POP PUSH1 0x0 PUSH2 0x2BC6 DUP14 DUP8 DUP12 DUP6 PUSH2 0x2E69 JUMP JUMPDEST DUP1 SWAP3 POP DUP2 SWAP10 POP POP POP PUSH2 0x2BDA DUP9 DUP3 DUP7 DUP7 PUSH2 0x2DFF JUMP JUMPDEST DUP1 SWAP3 POP DUP2 SWAP10 POP POP POP PUSH2 0x2BEE DUP9 DUP3 DUP15 DUP10 PUSH2 0x2E69 JUMP JUMPDEST DUP1 SWAP3 POP DUP2 SWAP10 POP POP POP DUP1 DUP3 EQ PUSH2 0x2C89 JUMPI PUSH32 0xFFFFFFFFFFFFFFFFFFFFFFFFFFFFFFFFFFFFFFFFFFFFFFFFFFFFFFFEFFFFFC2F DUP1 PUSH2 0x2C25 JUMPI INVALID JUMPDEST DUP2 DUP11 MULMOD SWAP9 POP PUSH32 0xFFFFFFFFFFFFFFFFFFFFFFFFFFFFFFFFFFFFFFFFFFFFFFFFFFFFFFFEFFFFFC2F DUP1 PUSH2 0x2C52 JUMPI INVALID JUMPDEST DUP3 DUP10 MULMOD SWAP8 POP PUSH32 0xFFFFFFFFFFFFFFFFFFFFFFFFFFFFFFFFFFFFFFFFFFFFFFFFFFFFFFFEFFFFFC2F DUP1 PUSH2 0x2C7F JUMPI INVALID JUMPDEST DUP2 DUP4 MULMOD SWAP7 POP PUSH2 0x2C8D JUMP JUMPDEST DUP2 SWAP7 POP JUMPDEST POP POP POP POP POP POP SWAP5 POP SWAP5 POP SWAP5 SWAP2 POP POP JUMP JUMPDEST PUSH1 0x0 DUP1 PUSH2 0x2CA8 PUSH2 0x2FE1 JUMP JUMPDEST PUSH1 0x20 DUP2 PUSH1 0x0 PUSH1 0x6 DUP2 LT PUSH2 0x2CB7 JUMPI INVALID JUMPDEST PUSH1 0x20 MUL ADD DUP2 DUP2 MSTORE POP POP PUSH1 0x20 DUP2 PUSH1 0x1 PUSH1 0x6 DUP2 LT PUSH2 0x2CCF JUMPI INVALID JUMPDEST PUSH1 0x20 MUL ADD DUP2 DUP2 MSTORE POP POP PUSH1 0x20 DUP2 PUSH1 0x2 PUSH1 0x6 DUP2 LT PUSH2 0x2CE7 JUMPI INVALID JUMPDEST PUSH1 0x20 MUL ADD DUP2 DUP2 MSTORE POP POP DUP5 DUP2 PUSH1 0x3 PUSH1 0x6 DUP2 LT PUSH2 0x2CFE JUMPI INVALID JUMPDEST PUSH1 0x20 MUL ADD DUP2 DUP2 MSTORE POP POP DUP4 DUP2 PUSH1 0x4 PUSH1 0x6 DUP2 LT PUSH2 0x2D15 JUMPI INVALID JUMPDEST PUSH1 0x20 MUL ADD DUP2 DUP2 MSTORE POP POP PUSH32 0xFFFFFFFFFFFFFFFFFFFFFFFFFFFFFFFFFFFFFFFFFFFFFFFFFFFFFFFEFFFFFC2F DUP2 PUSH1 0x5 PUSH1 0x6 DUP2 LT PUSH2 0x2D4C JUMPI INVALID JUMPDEST PUSH1 0x20 MUL ADD DUP2 DUP2 MSTORE POP POP PUSH2 0x2D5D PUSH2 0x3003 JUMP JUMPDEST PUSH1 0x20 DUP2 PUSH1 0xC0 DUP5 PUSH1 0x5 PUSH1 0x0 NOT STATICCALL SWAP3 POP PUSH1 0x0 DUP4 EQ ISZERO PUSH2 0x2DE2 JUMPI PUSH1 0x40 MLOAD PUSH32 0x8C379A000000000000000000000000000000000000000000000000000000000 DUP2 MSTORE PUSH1 0x4 ADD DUP1 DUP1 PUSH1 0x20 ADD DUP3 DUP2 SUB DUP3 MSTORE PUSH1 0x12 DUP2 MSTORE PUSH1 0x20 ADD DUP1 PUSH32 0x6269674D6F64457870206661696C757265210000000000000000000000000000 DUP2 MSTORE POP PUSH1 0x20 ADD SWAP2 POP POP PUSH1 0x40 MLOAD DUP1 SWAP2 SUB SWAP1 REVERT JUMPDEST DUP1 PUSH1 0x0 PUSH1 0x1 DUP2 LT PUSH2 0x2DEF JUMPI INVALID JUMPDEST PUSH1 0x20 MUL ADD MLOAD SWAP4 POP POP POP POP SWAP3 SWAP2 POP POP JUMP JUMPDEST PUSH1 0x0 DUP1 PUSH32 0xFFFFFFFFFFFFFFFFFFFFFFFFFFFFFFFFFFFFFFFFFFFFFFFFFFFFFFFEFFFFFC2F DUP1 PUSH2 0x2E2A JUMPI INVALID JUMPDEST DUP5 DUP8 MULMOD PUSH32 0xFFFFFFFFFFFFFFFFFFFFFFFFFFFFFFFFFFFFFFFFFFFFFFFFFFFFFFFEFFFFFC2F DUP1 PUSH2 0x2E55 JUMPI INVALID JUMPDEST DUP5 DUP8 MULMOD DUP1 SWAP3 POP DUP2 SWAP4 POP POP POP SWAP5 POP SWAP5 SWAP3 POP POP POP JUMP JUMPDEST PUSH1 0x0 DUP1 PUSH1 0x0 PUSH32 0xFFFFFFFFFFFFFFFFFFFFFFFFFFFFFFFFFFFFFFFFFFFFFFFFFFFFFFFEFFFFFC2F DUP1 PUSH2 0x2E96 JUMPI INVALID JUMPDEST DUP8 DUP6 MULMOD SWAP1 POP PUSH1 0x0 PUSH32 0xFFFFFFFFFFFFFFFFFFFFFFFFFFFFFFFFFFFFFFFFFFFFFFFFFFFFFFFEFFFFFC2F DUP1 PUSH2 0x2EC5 JUMPI INVALID JUMPDEST DUP8 DUP8 PUSH32 0xFFFFFFFFFFFFFFFFFFFFFFFFFFFFFFFFFFFFFFFFFFFFFFFFFFFFFFFEFFFFFC2F SUB MULMOD SWAP1 POP PUSH32 0xFFFFFFFFFFFFFFFFFFFFFFFFFFFFFFFFFFFFFFFFFFFFFFFFFFFFFFFEFFFFFC2F DUP1 PUSH2 0x2F14 JUMPI INVALID JUMPDEST DUP2 DUP4 ADDMOD PUSH32 0xFFFFFFFFFFFFFFFFFFFFFFFFFFFFFFFFFFFFFFFFFFFFFFFFFFFFFFFEFFFFFC2F DUP1 PUSH2 0x2F3F JUMPI INVALID JUMPDEST DUP7 DUP10 MULMOD DUP1 SWAP5 POP DUP2 SWAP6 POP POP POP POP POP SWAP5 POP SWAP5 SWAP3 POP POP POP JUMP JUMPDEST PUSH1 0x40 MLOAD DUP1 PUSH1 0x60 ADD PUSH1 0x40 MSTORE DUP1 PUSH1 0x0 PUSH20 0xFFFFFFFFFFFFFFFFFFFFFFFFFFFFFFFFFFFFFFFF AND DUP2 MSTORE PUSH1 0x20 ADD PUSH1 0x0 PUSH12 0xFFFFFFFFFFFFFFFFFFFFFFFF AND DUP2 MSTORE PUSH1 0x20 ADD PUSH1 0x0 DUP1 NOT AND DUP2 MSTORE POP SWAP1 JUMP JUMPDEST PUSH1 0x40 MLOAD DUP1 PUSH1 0x40 ADD PUSH1 0x40 MSTORE DUP1 PUSH1 0x2 SWAP1 PUSH1 0x20 DUP3 MUL DUP1 CALLDATASIZE DUP4 CALLDATACOPY DUP1 DUP3 ADD SWAP2 POP POP SWAP1 POP POP SWAP1 JUMP JUMPDEST PUSH1 0x40 MLOAD DUP1 PUSH1 0x60 ADD PUSH1 0x40 MSTORE DUP1 PUSH1 0x3 SWAP1 PUSH1 0x20 DUP3 MUL DUP1 CALLDATASIZE DUP4 CALLDATACOPY DUP1 DUP3 ADD SWAP2 POP POP SWAP1 POP POP SWAP1 JUMP JUMPDEST PUSH1 0x40 MLOAD DUP1 PUSH1 0xC0 ADD PUSH1 0x40 MSTORE DUP1 PUSH1 0x6 SWAP1 PUSH1 0x20 DUP3 MUL DUP1 CALLDATASIZE DUP4 CALLDATACOPY DUP1 DUP3 ADD SWAP2 POP POP SWAP1 POP POP SWAP1 JUMP JUMPDEST PUSH1 0x40 MLOAD DUP1 PUSH1 0x20 ADD PUSH1 0x40 MSTORE DUP1 PUSH1 0x1 SWAP1 PUSH1 0x20 DUP3 MUL DUP1 CALLDATASIZE DUP4 CALLDATACOPY DUP1 DUP3 ADD SWAP2 POP POP SWAP1 POP POP SWAP1 JUMP INVALID PUSH26 0x6F752063616E277420636861726765206D6F7265207468616E20 PUSH2 0x6C6C KECCAK256 PUSH21 0x6865204C494E4B20696E2074686520776F726C642C KECCAK256 PUSH8 0x7265656479466972 PUSH20 0x74206D756C7469706C69636174696F6E20636865 PUSH4 0x6B206661 PUSH10 0x6C65645365636F6E6420 PUSH14 0x756C7469706C69636174696F6E20 PUSH4 0x6865636B KECCAK256 PUSH7 0x61696C6564A264 PUSH10 0x706673582212202CBB59 CALLDATASIZE 0xF8 JUMPDEST 0xB2 DUP4 SWAP1 0xED JUMP PC 0xCF DUP2 0xEA 0xD0 0xFB 0x22 SWAP15 PUSH9 0xD4B7C071B7662B4CAA BALANCE TIMESTAMP 0xD0 PUSH5 0x736F6C6343 STOP MOD MOD STOP CALLER "
				},
				"gasEstimates": {
					"creation": {
						"codeDepositCost": "2501200",
						"executionCost": "infinite",
						"totalCost": "infinite"
					},
					"external": {
						"PRESEED_OFFSET()": "227",
						"PROOF_LENGTH()": "293",
						"PUBLIC_KEY_OFFSET()": "294",
						"callbacks(bytes32)": "3010",
						"fulfillRandomnessRequest(bytes)": "infinite",
						"hashOfKey(uint256[2])": "infinite",
						"onTokenTransfer(address,uint256,bytes)": "infinite",
						"registerProvingKey(uint256,address,uint256[2],bytes32)": "infinite",
						"serviceAgreements(bytes32)": "3054",
						"withdraw(address,uint256)": "infinite",
						"withdrawableTokens(address)": "1170"
					},
					"internal": {
						"callBackWithRandomness(bytes32,uint256,address)": "infinite",
						"getRandomnessFromProof(bytes memory)": "infinite",
						"randomnessRequest(bytes32,uint256,uint256,address)": "infinite"
					}
				},
				"methodIdentifiers": {
					"PRESEED_OFFSET()": "b415f4f5",
					"PROOF_LENGTH()": "e911439c",
					"PUBLIC_KEY_OFFSET()": "8aa7927b",
					"callbacks(bytes32)": "21f36509",
					"fulfillRandomnessRequest(bytes)": "5e1c1059",
					"hashOfKey(uint256[2])": "caf70c4a",
					"onTokenTransfer(address,uint256,bytes)": "a4c0ed36",
					"registerProvingKey(uint256,address,uint256[2],bytes32)": "d8340209",
					"serviceAgreements(bytes32)": "75d35070",
					"withdraw(address,uint256)": "f3fef3a3",
					"withdrawableTokens(address)": "006f6ad0"
				}
			},
			"storageLayout": {
				"storage": [
					{
						"astId": 1424,
						"contract": "Users/leilei/Downloads/VRFCoordinator/VRFCoordinator.sol:VRFCoordinator",
						"label": "LINK",
						"offset": 0,
						"slot": "0",
						"type": "t_contract(LinkTokenInterface)2243"
					},
					{
						"astId": 1426,
						"contract": "Users/leilei/Downloads/VRFCoordinator/VRFCoordinator.sol:VRFCoordinator",
						"label": "blockHashStore",
						"offset": 0,
						"slot": "1",
						"type": "t_contract(BlockHashStoreInterface)2148"
					},
					{
						"astId": 1464,
						"contract": "Users/leilei/Downloads/VRFCoordinator/VRFCoordinator.sol:VRFCoordinator",
						"label": "callbacks",
						"offset": 0,
						"slot": "2",
						"type": "t_mapping(t_bytes32,t_struct(Callback)1453_storage)"
					},
					{
						"astId": 1468,
						"contract": "Users/leilei/Downloads/VRFCoordinator/VRFCoordinator.sol:VRFCoordinator",
						"label": "serviceAgreements",
						"offset": 0,
						"slot": "3",
						"type": "t_mapping(t_bytes32,t_struct(ServiceAgreement)1460_storage)"
					},
					{
						"astId": 1472,
						"contract": "Users/leilei/Downloads/VRFCoordinator/VRFCoordinator.sol:VRFCoordinator",
						"label": "withdrawableTokens",
						"offset": 0,
						"slot": "4",
						"type": "t_mapping(t_address,t_uint256)"
					},
					{
						"astId": 1478,
						"contract": "Users/leilei/Downloads/VRFCoordinator/VRFCoordinator.sol:VRFCoordinator",
						"label": "nonces",
						"offset": 0,
						"slot": "5",
						"type": "t_mapping(t_bytes32,t_mapping(t_address,t_uint256))"
					}
				],
				"types": {
					"t_address": {
						"encoding": "inplace",
						"label": "address",
						"numberOfBytes": "20"
					},
					"t_bytes32": {
						"encoding": "inplace",
						"label": "bytes32",
						"numberOfBytes": "32"
					},
					"t_contract(BlockHashStoreInterface)2148": {
						"encoding": "inplace",
						"label": "contract BlockHashStoreInterface",
						"numberOfBytes": "20"
					},
					"t_contract(LinkTokenInterface)2243": {
						"encoding": "inplace",
						"label": "contract LinkTokenInterface",
						"numberOfBytes": "20"
					},
					"t_mapping(t_address,t_uint256)": {
						"encoding": "mapping",
						"key": "t_address",
						"label": "mapping(address => uint256)",
						"numberOfBytes": "32",
						"value": "t_uint256"
					},
					"t_mapping(t_bytes32,t_mapping(t_address,t_uint256))": {
						"encoding": "mapping",
						"key": "t_bytes32",
						"label": "mapping(bytes32 => mapping(address => uint256))",
						"numberOfBytes": "32",
						"value": "t_mapping(t_address,t_uint256)"
					},
					"t_mapping(t_bytes32,t_struct(Callback)1453_storage)": {
						"encoding": "mapping",
						"key": "t_bytes32",
						"label": "mapping(bytes32 => struct VRFCoordinator.Callback)",
						"numberOfBytes": "32",
						"value": "t_struct(Callback)1453_storage"
					},
					"t_mapping(t_bytes32,t_struct(ServiceAgreement)1460_storage)": {
						"encoding": "mapping",
						"key": "t_bytes32",
						"label": "mapping(bytes32 => struct VRFCoordinator.ServiceAgreement)",
						"numberOfBytes": "32",
						"value": "t_struct(ServiceAgreement)1460_storage"
					},
					"t_struct(Callback)1453_storage": {
						"encoding": "inplace",
						"label": "struct VRFCoordinator.Callback",
						"members": [
							{
								"astId": 1448,
								"contract": "Users/leilei/Downloads/VRFCoordinator/VRFCoordinator.sol:VRFCoordinator",
								"label": "callbackContract",
								"offset": 0,
								"slot": "0",
								"type": "t_address"
							},
							{
								"astId": 1450,
								"contract": "Users/leilei/Downloads/VRFCoordinator/VRFCoordinator.sol:VRFCoordinator",
								"label": "randomnessFee",
								"offset": 20,
								"slot": "0",
								"type": "t_uint96"
							},
							{
								"astId": 1452,
								"contract": "Users/leilei/Downloads/VRFCoordinator/VRFCoordinator.sol:VRFCoordinator",
								"label": "seedAndBlockNum",
								"offset": 0,
								"slot": "1",
								"type": "t_bytes32"
							}
						],
						"numberOfBytes": "64"
					},
					"t_struct(ServiceAgreement)1460_storage": {
						"encoding": "inplace",
						"label": "struct VRFCoordinator.ServiceAgreement",
						"members": [
							{
								"astId": 1455,
								"contract": "Users/leilei/Downloads/VRFCoordinator/VRFCoordinator.sol:VRFCoordinator",
								"label": "vRFOracle",
								"offset": 0,
								"slot": "0",
								"type": "t_address"
							},
							{
								"astId": 1457,
								"contract": "Users/leilei/Downloads/VRFCoordinator/VRFCoordinator.sol:VRFCoordinator",
								"label": "fee",
								"offset": 20,
								"slot": "0",
								"type": "t_uint96"
							},
							{
								"astId": 1459,
								"contract": "Users/leilei/Downloads/VRFCoordinator/VRFCoordinator.sol:VRFCoordinator",
								"label": "jobID",
								"offset": 0,
								"slot": "1",
								"type": "t_bytes32"
							}
						],
						"numberOfBytes": "64"
					},
					"t_uint256": {
						"encoding": "inplace",
						"label": "uint256",
						"numberOfBytes": "32"
					},
					"t_uint96": {
						"encoding": "inplace",
						"label": "uint96",
						"numberOfBytes": "12"
					}
				}
			},
			"userdoc": {
				"methods": {
					"fulfillRandomnessRequest(bytes)": {
						"notice": "Called by the chainlink node to fulfill requests"
					},
					"hashOfKey(uint256[2])": {
						"notice": "Returns the serviceAgreements key associated with this public key"
					},
					"onTokenTransfer(address,uint256,bytes)": {
						"notice": "Called by LINK.transferAndCall, on successful LINK transfer"
					},
					"registerProvingKey(uint256,address,uint256[2],bytes32)": {
						"notice": "Commits calling address to serve randomness"
					}
				}
			}
		}
	}
}