{
	"Users/leilei/Downloads/VRFCoordinator/VRF.sol": {
		"VRF": {
			"abi": [
				{
					"inputs": [],
					"name": "PROOF_LENGTH",
					"outputs": [
						{
							"internalType": "uint256",
							"name": "",
							"type": "uint256"
						}
					],
					"stateMutability": "view",
					"type": "function"
				}
			],
			"devdoc": {
				"details": "Bibliographic references:Goldberg, et al., \"Verifiable Random Functions (VRFs)\", Internet Draftdraft-irtf-cfrg-vrf-05, IETF, Aug 11 2019,https://datatracker.ietf.org/doc/html/draft-irtf-cfrg-vrf-05Papadopoulos, et al., \"Making NSEC5 Practical for DNSSEC\", CryptologyePrint Archive, Report 2017/099, https://eprint.iacr.org/2017/099.pdf ****************************************************************************USAGEThe main entry point is randomValueFromVRFProof. See its docstring. ****************************************************************************PURPOSEReggie the Random Oracle (not his real job) wants to provide randomnessto Vera the verifier in such a way that Vera can be sure he's notmaking his output up to suit himself. Reggie provides Vera a public keyto which he knows the secret key. Each time Vera provides a seed toReggie, he gives back a value which is computed completelydeterministically from the seed and the secret key.Reggie provides a proof by which Vera can verify that the output wascorrectly computed once Reggie tells it to her, but without that proof,the output is computationally indistinguishable to her from a uniformrandom sample from the output space.The purpose of this contract is to perform that verification. ****************************************************************************DESIGN NOTESThe VRF algorithm verified here satisfies the full unqiqueness, fullcollision resistance, and full pseudorandomness security properties.See \"SECURITY PROPERTIES\" below, andhttps://datatracker.ietf.org/doc/html/draft-irtf-cfrg-vrf-05#section-3An elliptic curve point is generally represented in the solidity codeas a uint256[2], corresponding to its affine coordinates inGF(FIELD_SIZE).For the sake of efficiency, this implementation deviates from the specin some minor ways:- Keccak hash rather than the SHA256 hash recommended inhttps://datatracker.ietf.org/doc/html/draft-irtf-cfrg-vrf-05#section-5.5Keccak costs much less gas on the EVM, and provides similar security.- Secp256k1 curve instead of the P-256 or ED25519 curves recommended inhttps://datatracker.ietf.org/doc/html/draft-irtf-cfrg-vrf-05#section-5.5For curve-point multiplication, it's much cheaper to abuse ECRECOVER- hashToCurve recursively hashes until it finds a curve x-ordinate. Onthe EVM, this is slightly more efficient than the recommendation inhttps://datatracker.ietf.org/doc/html/draft-irtf-cfrg-vrf-05#section-5.4.1.1step 5, to concatenate with a nonce then hash, and rehash with thenonce updated until a valid x-ordinate is found.- hashToCurve does not include a cipher version string or the byte 0x1in the hash message, as recommended in step 5.B of the draftstandard. They are unnecessary here because no variation in thecipher suite is allowed.- Similarly, the hash input in scalarFromCurvePoints does not include acommitment to the cipher suite, either, which differs from step 2 ofhttps://datatracker.ietf.org/doc/html/draft-irtf-cfrg-vrf-05#section-5.4.3. Also, the hash input is the concatenation of the uncompressedpoints, not the compressed points as recommended in step 3.- In the calculation of the challenge value \"c\", the \"u\" value (i.e.the value computed by Reggie as the nonce times the secp256k1generator point, see steps 5 and 7 ofhttps://datatracker.ietf.org/doc/html/draft-irtf-cfrg-vrf-05#section-5.3) is replaced by its ethereum address, i.e. the lower 160 bits of thekeccak hash of the original u. This is because we only verify thecalculation of u up to its address, by abusing ECRECOVER. ****************************************************************************SECURITY PROPERTIESHere are the security properties for this VRF:Full uniqueness: For any seed and valid VRF public key, there isexactly one VRF output which can be proved to come from that seed, inthe sense that the proof will pass verifyVRFProof.Full collision resistance: It's cryptographically infeasible to findtwo seeds with same VRF output from a fixed, valid VRF keyFull pseudorandomness: Absent the proofs that the VRF outputs arederived from a given seed, the outputs are computationallyindistinguishable from randomness.https://eprint.iacr.org/2017/099.pdf, Appendix B contains the proofsfor these properties.For secp256k1, the key validation described in sectionhttps://datatracker.ietf.org/doc/html/draft-irtf-cfrg-vrf-05#section-5.6is unnecessary, because secp256k1 has cofactor 1, and therepresentation of the public key used here (affine x- and y-ordinatesof the secp256k1 point on the standard y^2=x^3+7 curve) cannot refer tothe point at infinity. ****************************************************************************OTHER SECURITY CONSIDERATIONSThe seed input to the VRF could in principle force an arbitrary amountof work in hashToCurve, by requiring extra rounds of hashing andchecking whether that's yielded the x ordinate of a secp256k1 point.However, under the Random Oracle Model the probability of choosing apoint which forces n extra rounds in hashToCurve is 2⁻ⁿ. The base costfor calling hashToCurve is about 25,000 gas, and each round of checkingfor a valid x ordinate costs about 15,555 gas, so to find a seed forwhich hashToCurve would cost more than 2,017,000 gas, one would have totry, in expectation, about 2¹²⁸ seeds, which is infeasible for anyforeseeable computational resources. (25,000 + 128 * 15,555 < 2,017,000.)Since the gas block limit for the Ethereum main net is 10,000,000 gas,this means it is infeasible for an adversary to prevent correctoperation of this contract by choosing an adverse seed.(See TestMeasureHashToCurveGasCost for verification of the gas cost forhashToCurve.)It may be possible to make a secure constant-time hashToCurve function.See notes in hashToCurve docstring.",
				"methods": {}
			},
			"evm": {
				"assembly": "    /* \"Users/leilei/Downloads/VRFCoordinator/VRF.sol\":7137:26548  contract VRF {... */\n  mstore(0x40, 0x80)\n  callvalue\n    /* \"--CODEGEN--\":5:14   */\n  dup1\n    /* \"--CODEGEN--\":2:4   */\n  iszero\n  tag_1\n  jumpi\n    /* \"--CODEGEN--\":27:28   */\n  0x00\n    /* \"--CODEGEN--\":24:25   */\n  dup1\n    /* \"--CODEGEN--\":17:29   */\n  revert\n    /* \"--CODEGEN--\":2:4   */\ntag_1:\n    /* \"Users/leilei/Downloads/VRFCoordinator/VRF.sol\":7137:26548  contract VRF {... */\n  pop\n  dataSize(sub_0)\n  dup1\n  dataOffset(sub_0)\n  0x00\n  codecopy\n  0x00\n  return\nstop\n\nsub_0: assembly {\n        /* \"Users/leilei/Downloads/VRFCoordinator/VRF.sol\":7137:26548  contract VRF {... */\n      mstore(0x40, 0x80)\n      callvalue\n        /* \"--CODEGEN--\":5:14   */\n      dup1\n        /* \"--CODEGEN--\":2:4   */\n      iszero\n      tag_1\n      jumpi\n        /* \"--CODEGEN--\":27:28   */\n      0x00\n        /* \"--CODEGEN--\":24:25   */\n      dup1\n        /* \"--CODEGEN--\":17:29   */\n      revert\n        /* \"--CODEGEN--\":2:4   */\n    tag_1:\n        /* \"Users/leilei/Downloads/VRFCoordinator/VRF.sol\":7137:26548  contract VRF {... */\n      pop\n      jumpi(tag_2, lt(calldatasize, 0x04))\n      shr(0xe0, calldataload(0x00))\n      dup1\n      0xe911439c\n      eq\n      tag_3\n      jumpi\n    tag_2:\n        /* \"--CODEGEN--\":12:13   */\n      0x00\n        /* \"--CODEGEN--\":9:10   */\n      dup1\n        /* \"--CODEGEN--\":2:14   */\n      revert\n        /* \"Users/leilei/Downloads/VRFCoordinator/VRF.sol\":24594:24945  uint public constant PROOF_LENGTH = 64 + // PublicKey (uncompressed format.)... */\n    tag_3:\n      tag_4\n      tag_5\n      jump\t// in\n    tag_4:\n      mload(0x40)\n      dup1\n      dup3\n      dup2\n      mstore\n      0x20\n      add\n      swap2\n      pop\n      pop\n      mload(0x40)\n      dup1\n      swap2\n      sub\n      swap1\n      return\n    tag_5:\n        /* \"Users/leilei/Downloads/VRFCoordinator/VRF.sol\":24630:24945  64 + // PublicKey (uncompressed format.)... */\n      0x01a0\n        /* \"Users/leilei/Downloads/VRFCoordinator/VRF.sol\":24594:24945  uint public constant PROOF_LENGTH = 64 + // PublicKey (uncompressed format.)... */\n      dup2\n      jump\t// out\n\n    auxdata: 0xa264697066735822122062c568753406fff062c1e3a6fcb943934dc74b1aa812a5e82c9ff3b6a6bbefbf64736f6c63430006060033\n}\n",
				"bytecode": {
					"linkReferences": {},
					"object": "6080604052348015600f57600080fd5b5060858061001e6000396000f3fe6080604052348015600f57600080fd5b506004361060285760003560e01c8063e911439c14602d575b600080fd5b60336049565b6040518082815260200191505060405180910390f35b6101a08156fea264697066735822122062c568753406fff062c1e3a6fcb943934dc74b1aa812a5e82c9ff3b6a6bbefbf64736f6c63430006060033",
					"opcodes": "PUSH1 0x80 PUSH1 0x40 MSTORE CALLVALUE DUP1 ISZERO PUSH1 0xF JUMPI PUSH1 0x0 DUP1 REVERT JUMPDEST POP PUSH1 0x85 DUP1 PUSH2 0x1E PUSH1 0x0 CODECOPY PUSH1 0x0 RETURN INVALID PUSH1 0x80 PUSH1 0x40 MSTORE CALLVALUE DUP1 ISZERO PUSH1 0xF JUMPI PUSH1 0x0 DUP1 REVERT JUMPDEST POP PUSH1 0x4 CALLDATASIZE LT PUSH1 0x28 JUMPI PUSH1 0x0 CALLDATALOAD PUSH1 0xE0 SHR DUP1 PUSH4 0xE911439C EQ PUSH1 0x2D JUMPI JUMPDEST PUSH1 0x0 DUP1 REVERT JUMPDEST PUSH1 0x33 PUSH1 0x49 JUMP JUMPDEST PUSH1 0x40 MLOAD DUP1 DUP3 DUP2 MSTORE PUSH1 0x20 ADD SWAP2 POP POP PUSH1 0x40 MLOAD DUP1 SWAP2 SUB SWAP1 RETURN JUMPDEST PUSH2 0x1A0 DUP2 JUMP INVALID LOG2 PUSH5 0x6970667358 0x22 SLT KECCAK256 PUSH3 0xC56875 CALLVALUE MOD SELFDESTRUCT CREATE PUSH3 0xC1E3A6 0xFC 0xB9 NUMBER SWAP4 0x4D 0xC7 0x4B BYTE 0xA8 SLT 0xA5 0xE8 0x2C SWAP16 RETURN 0xB6 0xA6 0xBB 0xEF 0xBF PUSH5 0x736F6C6343 STOP MOD MOD STOP CALLER "
				},
				"gasEstimates": {
					"creation": {
						"codeDepositCost": "26600",
						"executionCost": "81",
						"totalCost": "26681"
					},
					"external": {
						"PROOF_LENGTH()": "183"
					},
					"internal": {
						"affineECAdd(uint256[2] memory,uint256[2] memory,uint256)": "infinite",
						"bigModExp(uint256,uint256)": "infinite",
						"ecmulVerify(uint256[2] memory,uint256,uint256[2] memory)": "infinite",
						"fieldHash(bytes memory)": "infinite",
						"hashToCurve(uint256[2] memory,uint256)": "infinite",
						"isOnCurve(uint256[2] memory)": "infinite",
						"linearCombination(uint256,uint256[2] memory,uint256[2] memory,uint256,uint256[2] memory,uint256[2] memory,uint256)": "infinite",
						"newCandidateSecp256k1Point(bytes memory)": "infinite",
						"projectiveECAdd(uint256,uint256,uint256,uint256)": "infinite",
						"projectiveMul(uint256,uint256,uint256,uint256)": "infinite",
						"projectiveSub(uint256,uint256,uint256,uint256)": "infinite",
						"randomValueFromVRFProof(bytes memory)": "infinite",
						"scalarFromCurvePoints(uint256[2] memory,uint256[2] memory,uint256[2] memory,address,uint256[2] memory)": "infinite",
						"squareRoot(uint256)": "infinite",
						"verifyLinearCombinationWithGenerator(uint256,uint256[2] memory,uint256,address)": "infinite",
						"verifyVRFProof(uint256[2] memory,uint256[2] memory,uint256,uint256,uint256,address,uint256[2] memory,uint256[2] memory,uint256)": "infinite",
						"ySquared(uint256)": "infinite"
					}
				},
				"methodIdentifiers": {
					"PROOF_LENGTH()": "e911439c"
				}
			},
			"storageLayout": {
				"storage": [],
				"types": null
			},
			"userdoc": {
				"methods": {},
				"notice": "****************************************************************************Verification of verifiable-random-function (VRF) proofs, followinghttps://datatracker.ietf.org/doc/html/draft-irtf-cfrg-vrf-05#section-5.3See https://eprint.iacr.org/2017/099.pdf for security proofs."
			}
		}
	}
}